:020000040800F2
:1000000000500020AD300008C5220008CD220008B5
:10001000D5220008DD220008E522000800000000CB
:10002000000000000000000000000000ED220008B9
:10003000F922000800000000052300081123000831
:10004000F5300008F5300008F5300008F5300008FC
:10005000F5300008F5300008F5300008F5300008EC
:10006000F5300008F530000821230008F5300008BD
:10007000F5300008F5300008F5300008F5300008CC
:10008000F5300008F5300008F5300008F5300008BC
:10009000F5300008F5300008F53000082F2300087F
:1000A000F5300008F5300008F5300008F53000089C
:1000B000F5300008F53000083D230008F530000851
:1000C000F5300008F5300008F5300008F53000087C
:1000D000F5300008F530000851230008F53000081D
:1000E000F5300008F5300008F53000080000000089
:1000F0000000000000000000000000000000000000
:0C01000000000000000000005FF808F1A3
:1001100010B5054C237833B9044B13B10448AFF341
:1001200000800123237010BD440100200000000066
:100130005074000808B5034B1BB103490348AFF3E3
:10014000008008BD00000000480100205074000835
:10015000034613F8012B002AFBD1181A0138704707
:1001600070B54FF0FF0C4CF4E06C1CEA11541DBF4D
:100170001CEA135594EA0C0F95EA0C0F00F0DEF818
:100180002C4481EA030621EA4C5123EA4C5350EAFD
:10019000013518BF52EA033541F4801143F480134E
:1001A00038D0A0FB02CE4FF00005E1FB02E506F0DF
:1001B0000042E0FB03E54FF00006E1FB03569CF034
:1001C000000F18BF4EF0010EA4F1FF04B6F5007F3A
:1001D00064F5407404D25FEA4E0E6D4146EB0606AC
:1001E00042EAC62141EA55514FEAC52040EA5E5035
:1001F0004FEACE2EB4F1FD0C88BFBCF5E06F1ED8DF
:10020000BEF1004F08BF5FEA500E50F1000041EB15
:10021000045170BD06F0004646EA010140EA0200C2
:1002200081EA0301B4EB5C04C2BFD4EB0C0541EAE4
:10023000045170BD41F480114FF0000E013C00F3F9
:10024000AB8014F1360FDEBF002001F0004170BD1D
:10025000C4F10004203C35DA0C341BDC04F1140436
:10026000C4F1200500FA05F320FA04F001FA05F2C2
:1002700040EA020001F0004221F0004110EBD3708F
:1002800021FA04F642EB06015EEA430E08BF20EABB
:10029000D37070BDC4F10C04C4F1200500FA04F35E
:1002A00020FA05F001FA04F240EA020001F00041F0
:1002B00010EBD37041F100015EEA430E08BF20EA63
:1002C000D37070BDC4F1200500FA05F24EEA020EAB
:1002D00020FA04F301FA05F243EA020321FA04F0DA
:1002E00001F0004121FA04F220EA020000EBD37091
:1002F0005EEA430E08BF20EAD37070BD94F0000F91
:100300000FD101F00046400041EB010111F4801FC4
:1003100008BF013CF7D041EA060195F0000F18BF75
:10032000704703F00046520043EB030313F4801FB1
:1003300008BF013DF7D043EA0603704794EA0C0F6B
:100340000CEA135518BF95EA0C0F0CD050EA410681
:1003500018BF52EA4306D1D181EA030101F00041FE
:100360004FF0000070BD50EA410606BF1046194626
:1003700052EA430619D094EA0C0F02D150EA013632
:1003800013D195EA0C0F05D152EA03361CBF104673
:1003900019460AD181EA030101F0004141F0FE4112
:1003A00041F470014FF0000070BD41F0FE4141F496
:1003B000780170BD81F0004102E000BF83F000438E
:1003C00030B54FEA41044FEA430594EA050F08BFF0
:1003D00090EA020F1FBF54EA000C55EA020C7FEAB4
:1003E000645C7FEA655C00F0E2804FEA5454D4EB31
:1003F0005555B8BF6D420CDD2C4480EA020281EAFB
:10040000030382EA000083EA010180EA020281EA32
:100410000303362D88BF30BD11F0004F4FEA013184
:100420004FF4801C4CEA113102D0404261EB410193
:1004300013F0004F4FEA03334CEA133302D0524219
:1004400063EB430394EA050F00F0A780A4F10104D5
:10045000D5F1200E0DDB02FA0EFC22FA05F280180F
:1004600041F1000103FA0EF2801843FA05F35941F5
:100470000EE0A5F120050EF1200E012A03FA0EFC74
:1004800028BF4CF0020C43FA05F3C01851EBE3719E
:1004900001F0004507D54FF0000EDCF1000C7EEBBB
:1004A00000006EEB0101B1F5801F1BD3B1F5001FF9
:1004B0000CD349085FEA30004FEA3C0C04F1010418
:1004C0004FEA445212F5800F80F09A80BCF1004F41
:1004D00008BF5FEA500C50F1000041EB045141EAC3
:1004E000050130BD5FEA4C0C404141EB0101013C8C
:1004F00028BFB1F5801FE9D291F0000F04BF01467B
:100500000020B1FA81F308BF2033A3F10B03B3F14C
:1005100020020CDA0C3208DD02F1140CC2F10C02DC
:1005200001FA0CF021FA02F10CE002F11402D8BF3A
:10053000C2F1200C01FA02F120FA0CFCDCBF41EA06
:100540000C019040E41AA2BF01EB0451294330BDD5
:100550006FEA04041F3C1CDA0C340EDC04F11404B2
:10056000C4F1200220FA04F001FA02F340EA030089
:1005700021FA04F345EA030130BDC4F10C04C4F1CF
:10058000200220FA02F001FA04F340EA03002946AF
:1005900030BD21FA04F0294630BD94F0000F83F4F9
:1005A000801306BF81F480110134013D4EE77FEADC
:1005B000645C18BF7FEA655C29D094EA050F08BF28
:1005C00090EA020F05D054EA000C04BF1946104609
:1005D00030BD91EA030F1EBF0021002030BD5FEA4D
:1005E000545C05D14000494128BF41F0004130BD75
:1005F00014F580043CBF01F5801130BD01F00045C9
:1006000045F0FE4141F470014FF0000030BD7FEA3B
:10061000645C1ABF194610467FEA655C1CBF0B4636
:10062000024650EA013406BF52EA033591EA030F4D
:1006300041F4002130BD00BF90F0000F04BF002145
:10064000704730B54FF4806404F132044FF0000578
:100650004FF0000150E700BF90F0000F04BF0021F1
:10066000704730B54FF4806404F1320410F0004557
:1006700048BF40424FF000013EE700BF42004FEA52
:10068000E2014FEA31014FEA02701FBF12F07F43CF
:1006900093F07F4F81F06051704732F07F4208BF86
:1006A000704793F07F4F04BF41F40021704730B58D
:1006B0004FF4607401F0004521F000411CE700BFD9
:1006C00050EA010208BF704730B54FF000050AE05C
:1006D00050EA010208BF704730B511F0004502D55D
:1006E000404261EB41014FF4806404F132045FEA5F
:1006F000915C3FF4D8AE4FF003025FEADC0C18BF08
:1007000003325FEADC0C18BF033202EBDC02C2F1F9
:10071000200300FA03FC20FA02F001FA03FE40EA8B
:100720000E0021FA02F11444BDE600BF4A0011D2C6
:1007300012F5001211D20DD56FF47873B3EB62523B
:100740000ED44FEAC12343F0004343EA505323FA47
:1007500002F070474FF00000704750EA013002D1BC
:100760004FF0FF3070474FF00000704780B584B005
:1007700000AF03460A46FB711346BB7102F014FD3D
:10078000F860FA793B4913469B0013449B000B44E5
:100790000C331B68FA68D31A1D2B67D9FA793549CF
:1007A00013469B0013449B000B440C33FA681A60F9
:1007B000FA79304913469B0013449B000B441B7885
:1007C000DBB2002B0DD0BB79002B0AD0FA79294976
:1007D00013469B0013449B000B440433FA681A60D1
:1007E00045E0FA79234913469B0013449B000B44D0
:1007F0001B78DBB283F00103DBB2002B16D0BB7990
:10080000002B13D0FA791B4913469B0013449B001D
:100810000B4401221A70FA79164913469B001344BF
:100820009B000B440433FA681A6020E0FA791149FE
:1008300013469B0013449B000B441B78DBB2002B38
:1008400015D0FA790B4913469B0013449B000B44C7
:10085000013301221A70FA79064913469B001344AA
:100860009B000B440833FA681A6000E000BF1037A1
:10087000BD4680BD6001002080B586B000AF00237A
:100880007B6183E00023FB740023FB600023BB60DB
:1008900072B600BF42497A6913469B0013449B001D
:1008A0000B4401331B78DBB2002B28D00123FB74EF
:1008B0003B497A6913469B0013449B000B44013368
:1008C00000221A7036497A6913469B0013449B0034
:1008D0000B4400221A7032497A6913469B00134474
:1008E0009B000B4404331B68FB602D497A69134657
:1008F0009B0013449B000B4408331B68BB6062B62B
:1009000000BFFB7C002B3ED0BA68FB68D31A7B602B
:100910007B68B3F5FA7F17D321497A6913469B00A8
:1009200013449B000B44103302221A707B6901337D
:100930007A6819461B4805F025FC7B69002B1BD003
:100940007B69012B1AD01EE015497A6913469B007A
:1009500013449B000B44103301221A707B6901334E
:100960007A681946104805F00DFC7B69002B07D00A
:100970007B69012B06D006E000BF04E000BF02E067
:1009800000BF00E000BF7B6901337B617B69012B05
:100990007FF778AF00BF00BF1837BD4680BD00BFEE
:1009A00060010020687400088C74000880B485B071
:1009B00000AF0346FB71FA790C4913469B001344C0
:1009C0009B000B4410331B78FB73FA7907491346DD
:1009D0009B0013449B000B44103300221A70FB7BD6
:1009E00018461437BD4680BC704700BF6001002028
:1009F00080B500AF00F0EEFF0D4B5B780133DAB24B
:100A00000C4B1A700A4B1B781A46802393FBF2F3A7
:100A1000DAB2094B1A70064B5B781A46402393FBF7
:100A2000F2F3DBB2013BDAB2044B1A7000BF80BDB7
:100A3000447E0008090200200A0200200B02002068
:100A400080B582B002AF012300930E2380220021E3
:100A5000002001F0F7F9002300930B237D220321EE
:100A6000022001F0EFF90421042001F067F9384B6E
:100A7000012200920ECB374801F03AF9344B5B78F3
:100A80005B00DAB2344B1A701421032001F056F9DE
:100A90002F4B012200920ECB304801F029F92C4B4C
:100AA0005B781A462A4B1B782D492E4805F010FC1E
:100AB000274B5B781A4652001344DBB20133DAB29B
:100AC000254B1A701D21032001F038F9204B01221B
:100AD00000920ECB234801F00BF9234B1B781A46EA
:100AE0002249204805F0F4FB194B5B789B00DBB2F0
:100AF0000233DAB2184B1A702621032001F01EF9D6
:100B0000134B012200920ECB164801F0F1F8184B5E
:100B10001B781A461749134805F0DAFB0C4B5B7833
:100B20001A4692001344DBB20333DAB20A4B1A704E
:100B30002F21032001F002F9054B012200920ECB78
:100B4000084801F0D5F800F0C7FF00BFBD4680BDE2
:100B5000447E00080000002008020020B074000855
:100B6000C4740008880100200A020020D87400081C
:100B70000B020020F074000880B582B000AF03467D
:100B8000FB71FB79184600F08FFF00F0A5FF00BF56
:100B90000837BD4680BD000080B582B002AF00209E
:100BA000FFF7EAFF0F4B59780E4B5B78012200925A
:100BB0008022002001F0DAF80023012200210A48F7
:100BC00000F07CF8002301220B21084800F076F8A1
:100BD000012301220D21064800F070F800BFBD4638
:100BE00080BD00BF447E0008087500081475000829
:100BF0001875000880B586B002AF786008461146C7
:100C00001A460346FB700B46BB7013467B70274B9E
:100C10001B78BA7802FB03F3BB737868FFF798FA86
:100C20000346DAB2BB781344FB737B68002B04D015
:100C30001F4B1B78FA7B9A4202D94FF0FF3331E009
:100C40001C4B1B78FA789A4203D31A4B1B78013B52
:100C5000FB70194B1B78FA7802FB03F3DBB202330B
:100C6000DAB2BB7B1146184601F068F80F4B7A7870
:100C700000920ECB786801F03BF83B7E002B0ED043
:100C800006E00A4B7A7800920ECB202000F09EFFFF
:100C9000FB7B5A1CFA73064A12789342F1D300F098
:100CA0001BFF002318461037BD4680BD447E000858
:100CB0000A0200200B0200200902002080B586B045
:100CC00002AF7860084611461A460346FB700B4691
:100CD000BB7013467B707868FFF73AFA0346DAB2C6
:100CE000FB781344FB73154B1B78FA7802FB03F374
:100CF000DBB20021184601F021F8104BBA780092BF
:100D00000ECB786800F0F4FF7B78002B0ED006E065
:100D10000A4BBA7800920ECB202000F057FFFB7BE5
:100D20005A1CFA73064A12789342F1D300F0D4FEAB
:100D3000002318461037BD4680BD00BF447E000822
:100D40000A02002080B584B002AF0346FB71064B57
:100D500019780023009340238022002001F072F8CC
:100D600000BF0837BD4680BD0902002090B583B0A2
:100D700000AF0446084611461A462346FB71034657
:100D8000BB710B467B7113463B717B79002B02D004
:100D90007B79102B01D901237B717B79013B7B711E
:100DA00097F9073023F00F035AB297F9053003F093
:100DB0000F035BB213435BB2DAB20C4B1A70BB7910
:100DC00003F07F03DAB2094B5A703B7903F07F03DB
:100DD000DAB2064B9A70642303220449044804F0F3
:100DE000DDFA00BF0C37BD4690BD00BFD003002028
:100DF0003803002080B582B000AF0346FB710B467C
:100E0000BB7113467B717B79BA79F9799020FFF732
:100E1000ADFF00BF0837BD4680BD80B582B000AFD2
:100E200003460A46FB801346BB8005F0ABF802463A
:100E3000B988FB88CB1A013392FBF3F101FB03F372
:100E4000D31A9AB2FB8813449BB218460837BD46A2
:100E500080BD000000000000B0B586B004AF02F015
:100E60004BF900F039F900F0E1FA00F07BF900F0FD
:100E700089FA00F0B1FA00F0A3F900F0F5F900F0FA
:100E800047FAFFF7B5FDFFF7DBFD4FF47A7002F08C
:100E900095F9FFF781FE3C217F4803F08BFF3C2151
:100EA0007E4803F087FF7E4B1B686FF001021A61DA
:100EB00000F0D4FC01F040FC7A4805F0CBF902F0D8
:100EC00073F90346184605F02FF8754803F000FE45
:100ED000754B9B88D8B2744B5B88DB00734A9918BA
:100EE000714B5B881A46724B9A5C6F4B5B89DCB224
:100EF0006D4B9B89DBB2802502956E4D0195009369
:100F0000234600F011FC03469AB26B4B1A806A4BE1
:100F10001B881946694805F035F90023FB7109E083
:100F2000FB79644AD35C1946654805F02BF9FB79D7
:100F30000133FB71FB799AB25F4B1B889A42EFD366
:100F4000604805F087F9584B1B88012BFBD15E4B9D
:100F50001B889BB2002BF6D0514B1B6800225A62B3
:100F600000BF554B1B88013B9BB219460020FFF781
:100F700054FF03461A464F4B9B5CBB71534B1B7887
:100F8000BA799A42EDD0514ABB791370464BB3F906
:100F90000E309BB2444AB2F9102092B21146184664
:100FA000FFF73BFF0346DCB278211420FFF735FF43
:100FB0000346DAB2BB7921461846FFF71BFF424BC6
:100FC00000221A80384BDC88374BDB881846FFF745
:100FD00043FB2FA3D3E90023FFF7C2F802460B46D9
:100FE00010461946FFF7A2FB03469BB2194620465E
:100FF000FFF713FF03461A46294B1B68DA622A4B98
:10100000DC88294BDB881846FFF726FB20A3D3E9B1
:101010000023FFF7A5F802460B4610461946FFF7D6
:1010200085FB03469BB219462046FFF7F6FE0346B2
:101030001A461B4BDA601A4803F04AFD244B1B7812
:10104000012B02D10020FFF77DFE224B1B78214AA5
:101050005178204A9278184600F0A2FA1C4B197871
:101060000123009301230022FFF7C4FD184B1B78D6
:101070000133DAB2164B1A70154B1B78062B7FF62C
:1010800062AF134B01221A705DE700BFAFF300801F
:101090005C8FC2F5285C054060020020A802002099
:1010A000F00200201C750008CC000020C477000866
:1010B000B4770008D40300205404002030750008E1
:1010C0004875000850750008CC0300205604002025
:1010D00012000020D003002080B590B000AF07F1CF
:1010E000180328220021184605F0ECF93B1D0022C8
:1010F0001A605A609A60DA601A610123BB614FF48A
:101100008033FB6100233B620123BB6202237B63CC
:101110004FF48033BB634FF4E013FB6307F1180314
:10112000184603F0C5F80346002B01D000F032FA50
:101130000F237B600223BB600023FB604FF48063BE
:101140003B6100237B613B1D0221184603F032FB0B
:101150000346002B01D000F01DFA00BF4037BD460A
:1011600080BD000080B500AF124B134A1A60114BCE
:10117000124A5A600F4B00229A600E4B0022DA602E
:101180000C4B4FF480421A610A4B00225A61094B02
:1011900000229A61074B0022DA61064B00221A6294
:1011A000044802F0D9FB0346002B01D000F0F2F90D
:1011B00000BF80BD0C02002000540040A08601004A
:1011C00080B58CB000AF07F10C0324220021184633
:1011D00005F078F93B1D00221A605A60214B4FF050
:1011E00080421A601F4B00225A601E4B00229A60F8
:1011F0001C4B4FF6FF72DA601A4B00221A61194B32
:1012000000229A610323FB6002233B6101237B617F
:101210000023BB610423FB6102233B6201237B6249
:101220000023BB620423FB6207F10C0319460D483F
:1012300003F01EFD0346002B01D000F0ABF90023A4
:101240007B600023BB603B1D1946064803F0E6FFA8
:101250000346002B01D000F09DF900BF3037BD469A
:1012600080BD00BF6002002080B58CB000AF07F1E8
:101270000C0324220021184605F024F93B1D00220E
:101280001A605A60204B214A1A601F4B00225A6094
:101290001D4B00229A601C4B4FF6FF72DA601A4B0E
:1012A00000221A61184B00229A610323FB6002237B
:1012B0003B6101237B610023BB610423FB610223AB
:1012C0003B6201237B620023BB620423FB6207F1C4
:1012D0000C0319460C4803F0CBFC0346002B01D04D
:1012E00000F058F900237B600023BB603B1D1946CA
:1012F000054803F093FF0346002B01D000F04AF9A4
:1013000000BF3037BD4680BDA80200200004004069
:1013100080B582B000AF3B4600221A605A60174B7E
:10132000174A1A60154B4FF61F525A60134B002292
:101330009A60124B40F2F312DA60104B00221A61ED
:101340000E4B00229A6108210C4803F041FC034631
:10135000002B01D000F01EF900233B6000237B60CE
:101360003B461946054803F059FF0346002B01D0C0
:1013700000F010F900BF0837BD4680BDF002002024
:101380000008004080B500AF114B124A1A60104BA4
:1013900047F612225A600E4B00229A600C4B002234
:1013A000DA600B4B00221A61094B0C225A61084B80
:1013B00000229A61064B0022DA61054803F09EFF85
:1013C0000346002B01D000F0E5F800BF80BD00BF50
:1013D000380300200038014080B500AF114B124A9D
:1013E0001A60104B4FF4E1325A600E4B00229A60A3
:1013F0000C4B0022DA600B4B00221A61094B0C22C5
:101400005A61084B00229A61064B0022DA610548B6
:1014100003F074FF0346002B01D000F0BBF800BFBF
:1014200080BD00BF800300200044004080B588B02C
:1014300000AF07F1100300221A605A609A60DA6068
:10144000324B9B69314A43F0100393612F4B9B69E8
:1014500003F01003FB60FB682C4B9B692B4A43F0A5
:1014600020039361294B9B6903F02003BB60BB6899
:10147000264B9B69254A43F004039361234B9B69E8
:1014800003F004037B607B68204B9B691F4A43F099
:10149000080393611D4B9B6903F008033B603B68A5
:1014A00001224FF400511A4802F00DFA4FF4005394
:1014B0003B6101237B610023BB610223FB6107F1D8
:1014C00010031946124802F063F830233B61114BB8
:1014D0007B610123BB6107F1100319460E4802F03E
:1014E00057F8002200210A2001F063FF0A2001F0D2
:1014F0007CFF00220021172001F05BFF172001F084
:1015000074FF00BF2037BD4680BD00BF0010024001
:1015100000100140000031100008014080B500AF0C
:10152000044B1B680133034A136000F0D7F900BF76
:1015300080BD00BFC803002080B582B000AF7860D6
:10154000391D4FF0FF330122034803F027FF7B686A
:1015500018460837BD4680BD8003002080B582B0A4
:1015600000AF78607B681B68084A934209D1084B3A
:101570001B889BB201339AB2054B1A80786803F03E
:10158000F9FA00BF0837BD4680BD00BF0008004023
:10159000CC03002080B400AF72B600BF00BFFDE7EF
:1015A00080B586B002AF0346FB710B46BB71134694
:1015B0007B71FB7903F00F03DBB20133FB73FB7923
:1015C00023F00F03BB733A4AFB791370384ABB7997
:1015D0005370374A7B79937007F10802BB79114643
:1015E000184600F075F807F108031846FEF7B0FD3D
:1015F0000346032B0ED107F108031846FEF7A8FD9A
:1016000003461A4607F1080313442A491A460B46B3
:101610001B881380BB7BB02B2DD0B02B37DC802BED
:101620001CD0902B33D17B79002B0CD0FA7B7B79AB
:10163000019307F10803009313461F4A16211F4820
:1016400004F010FE2FE0FA7B07F108030093134625
:101650001B4A1621194804F005FE24E0FA7B7B7929
:10166000019307F1080300931346164A1621134805
:1016700004F0F8FD17E0F97BBB797A7901920093C9
:101680000B46114A16210D4804F0ECFD0BE0F979E8
:10169000BB797A79019200930B460C4A16210748D0
:1016A00004F0E0FD00BF054B18461037BD4680BD75
:1016B0005804002084750008887500085C04002028
:1016C0009C750008AC750008C0750008D07500084E
:1016D00080B584B000AF03463960FB71FB790F4AD7
:1016E000A2FB0323DB08DBB2013BFB73FA790B4B54
:1016F000A3FB0213D9080B465B000B449B00D31AD3
:10170000BB73BB7B064A52F82320FB7B0549386834
:1017100004F0DEFD00BF1037BD4680BDABAAAAAA0B
:1017200014000020E075000890B587B002AF396062
:1017300011461A460346FB710B46BB7113467B717B
:101740007B790133DBB21A46520013449B00DAB2B4
:10175000FB791344FB72FB7AFB730023BB812A4B9A
:101760005B881A46294B53F82210FB79284A52F815
:1017700023007C7997F820207B79D31A00932346A5
:101780000246244804F0FEFC20E0FB7B1946224878
:1017900004F0F8FCB7F90C2093B201339BB2BB8183
:1017A0007B6A1344FA7B1A70B7F90C30013BBA79A3
:1017B00093FBF2F101FB02F29B1A1A463B681344B9
:1017C0001B78BB72FA7BBB7A1344FB73F97B97F8E7
:1017D00020305A1C13465B0013449B001A46FB79C9
:1017E0001344994204DCB7F90C30BA6A9A42CCDC53
:1017F000B7F90C301946094804F0C4FCB7F90C30AD
:1018000018461437BD4690BDCC000020440000208F
:10181000780000209C760008B8760008C0760008A2
:1018200080B485B000AF0346FB71FA79094BA3FB86
:101830000213D9080B465B000B449B00D31AFB73C1
:10184000FB7B054A52F8233018461437BD4680BC4E
:10185000704700BFABAAAAAA7800002080B400AFEE
:10186000034B00221A7000BFBD4680BC704700BF0A
:10187000D404002080B487B000AF78603960154B85
:101880001B78072B20D8134B1B785A1CD1B2114A56
:1018900011701A46104913465B0013449B000B4419
:1018A000796819600C4913465B0013449B000B4494
:1018B000043339681960084913465B0013449B00E0
:1018C0000B44083300221A6000BF1C37BD4680BCA1
:1018D000704700BFD40400207404002080B582B09B
:1018E00000AF0023FB712DE01B4B1968FA791B48F0
:1018F00013465B0013449B00034408331B68C91A5A
:10190000FA79164813465B0013449B0003440433E2
:101910001B68994213D3FA790F4B19680F48134685
:101920005B0013449B00034408331960FA790B49A8
:1019300013465B0013449B000B441B689847FB79DC
:101940000133FB71064B1B78FA799A42CCD300BF66
:1019500000BF0837BD4680BDC803002074040020C6
:10196000D404002080B400AF00BFBD4680BC7047E7
:1019700080B586B004AF0346FB714FF0FF3302938E
:1019800001230193FB1D00930123002278210348CA
:1019900002F026F900BF0837BD4680BD0C020020CA
:1019A00080B586B004AF786039603B689BB24FF079
:1019B000FF32029201937B68009301234022782139
:1019C000034802F00DF900BF0837BD4680BD00BFD7
:1019D0000C02002080B500AFFFF7C4FF642001F0C7
:1019E000EDFB002000F090FA2020FFF7C1FF00205F
:1019F000FFF7BEFFB020FFF7BBFFC820FFF7B8FF1F
:101A00000020FFF7B5FF1020FFF7B2FF4020FFF7DF
:101A1000AFFFFF2000F064FAA120FFF7A9FFA62086
:101A2000FFF7A6FFA820FFF7A3FF3F20FFF7A0FFC7
:101A3000A420FFF79DFFD320FFF79AFF0020FFF7B8
:101A400097FFD520FFF794FFF020FFF791FFD920F3
:101A5000FFF78EFF2220FFF78BFFDA20FFF788FFCA
:101A60001220FFF785FFDB20FFF782FF2020FFF722
:101A70007FFF8D20FFF77CFF1420FFF779FF012007
:101A800000F042FA002000F00FF800F025F8054BB6
:101A900000221A80034B00225A80024B01221A7145
:101AA00000BF80BDD808002080B582B000AF0346DB
:101AB000FB71FB79002B01D1002300E0FF234FF4E1
:101AC00080621946034804F0FDFC00BF0837BD469C
:101AD00080BD00BFD804002080B582B000AF0023D5
:101AE000FB7116E0FB79503BDBB21846FFF740FF75
:101AF0000020FFF73DFF1020FFF73AFFFB79DB01E5
:101B0000084A134480211846FFF74AFFFB79013346
:101B1000FB71FB79072BE5D900BF00BF0837BD4635
:101B200080BD00BFD804002080B483B000AF03465E
:101B3000FB710B46BB7113467B7197F90730002B85
:101B40003DDBBB793F2B3AD87B79012B1AD1FA794F
:101B5000BB79DB08D8B20346DB0113441A4AD35CD5
:101B60005AB2BB7903F00703012101FA03F35BB218
:101B7000134359B2FA790346DB011344C9B2124A3E
:101B8000D1541DE0FA79BB79DB08D8B20346DB01FA
:101B900013440D4AD35C5AB2BB7903F00703012109
:101BA00001FA03F35BB2DB435BB2134059B2FA793B
:101BB0000346DB011344C9B2034AD15400E000BF1D
:101BC0000C37BD4680BC7047D804002090B589B062
:101BD00000AF0446384680E80E002346FB73FB7BCB
:101BE0001F2B02D9FB7B7E2B01D9002379E0BB6838
:101BF000002B05D0BA68FB7B203B13441B7800E028
:101C00003B78FB75394B1B881A46FB7D1344802BB0
:101C100006DC364B5B881A467B781344402B01DD8B
:101C200000235EE00023FB614DE07A68FB7B203BF4
:101C3000797801FB03F31946FB690B445B001344FD
:101C40001B883B610023BB6136E03A69BB6902FA3D
:101C500003F303F40043002B13D0244B1B88DAB2A8
:101C6000BB69DBB21344D8B2204B5B88DAB2FB69A4
:101C7000DBB21344DBB297F830201946FFF754FF6C
:101C800017E01A4B1B88DAB2BB69DBB21344D8B237
:101C9000164B5B88DAB2FB69DBB21344D9B297F812
:101CA0003030002B0CBF01230023DBB21A46FFF7B4
:101CB0003BFFBB690133BB61FB7DBA699A42C4D368
:101CC000FB690133FB617B781A46FB699342ACD315
:101CD000064B1A88FB7D9BB213449AB2034B1A80C1
:101CE000FB7B18462437BD4690BD00BFD8080020B6
:101CF00080B586B002AFF860384680E80E0013E089
:101D0000FB6818783B7E00933B460ECBFFF75EFFE7
:101D100003461A46FB681B789A4202D0FB681B7880
:101D200008E0FB680133FB60FB681B78002BE7D100
:101D3000FB681B7818461037BD4680BD80B483B061
:101D400000AF03460A46FB711346BB71FB799AB29A
:101D5000054B1A80BB799AB2034B5A8000BF0C37EF
:101D6000BD4680BC704700BFD808002090B589B040
:101D700000AF0446084611461A462346FB71034647
:101D8000BB710B467B7113463B717A79FB79D31A91
:101D9000002BB8BF5B42BB613A79BB79D31A002BE9
:101DA000B8BF5B427B61FA797B799A4201D2012309
:101DB00001E04FF0FF333B61BA793B799A4201D29F
:101DC000012301E04FF0FF33FB60BA697B69D31A4E
:101DD000FB6197F8302039797B791846FFF7A4FE2C
:101DE00024E097F83020B979FB791846FFF79CFE7C
:101DF000FB695B00BB607B695B42BA689A4208DDA5
:101E0000FA697B69D31AFB613B69DAB2FB79134447
:101E1000FB71BA68BB699A4208DAFA69BB69134474
:101E2000FB61FB68DAB2BB791344BB71FA797B7949
:101E30009A42D6D1BA793B799A42D2D100BF24379F
:101E4000BD4690BD90B585B000AF0446084611462A
:101E50001A462346FB710346BB710B467B71134642
:101E60003B71FA797B79934228BF13467B737A7969
:101E7000FB79934238BF13463B73BA793B7993425F
:101E800028BF1346FB723A79BB79934238BF134699
:101E9000BB72FB7AFB7317E07B7BBB7309E097F89F
:101EA0002020F97BBB7B1846FFF73EFEBB7B01334E
:101EB000BB73BA7B3B7B9A4203D897F90E30002B59
:101EC000EDDAFB7B0133FB73FA7BBB7A9A4203D8D2
:101ED000FB7B3F2BE0D900BF00BF1437BD4690BD50
:101EE00080B584B000AF0346FB718123FB73FB7B9D
:101EF0001846FFF73DFDFB791846FFF739FD00BF97
:101F00001037BD4680BD000080B584B000AF0346E9
:101F1000FB71FB79002B05D0AF23FB73084B01222B
:101F20005A7104E0AE23FB73054B00225A71FB7B10
:101F30001846FFF71DFD00BF1037BD4680BD00BF2E
:101F4000D808002080B485B000AF154B9B69144AB7
:101F500043F001039361124B9B6903F00103BB60E3
:101F6000BB680F4BDB690E4A43F08053D3610C4BC7
:101F7000DB6903F080537B607B680A4B5B68FB6026
:101F8000FB6823F0E063FB60FB6843F00073FB60D9
:101F9000044AFB68536000BF1437BD4680BC7047DD
:101FA000001002400000014080B588B000AF7860AA
:101FB00007F1100300221A605A609A60DA607B68A9
:101FC0001B68154A934223D1144B9B69134A43F073
:101FD00008039361114B9B6903F00803FB60FB68E6
:101FE000C0233B6112237B610323FB6107F11003D4
:101FF00019460B4801F0CCFA084BDB69074A43F459
:102000000013D361054BDB6903F40013BB60BB68AD
:1020100000BF2037BD4680BD005400400010024084
:10202000000C014080B58AB000AF786007F118035A
:1020300000221A605A609A60DA607B681B68B3F10C
:10204000804F24D1284BDB69274A43F00103D36139
:10205000254BDB6903F001037B617B69224B9B69A4
:10206000214A43F0040393611F4B9B6903F004036F
:102070003B613B690323BB610023FB6101233B629E
:1020800007F118031946194801F082FA28E07B6825
:102090001B68174A934223D1134BDB69124A43F062
:1020A0000203D361104BDB6903F00203FB60FB68A2
:1020B0000D4B9B690C4A43F0040393610A4B9B69E7
:1020C00003F00403BB60BB68C023BB610023FB615A
:1020D00001233B6207F118031946044801F058FA3E
:1020E00000BF2837BD4680BD0010024000080140F7
:1020F0000004004080B584B000AF78607B681B6846
:102100000D4A934213D10D4BDB690C4A43F0040393
:10211000D3610A4BDB6903F00403FB60FB68002218
:1021200000211E2001F045F91E2001F05EF900BFDC
:102130001037BD4680BD00BF0008004000100240BF
:1021400080B58AB000AF786007F1180300221A60EA
:102150005A609A60DA607B681B683B4A934232D1CE
:102160003A4B9B69394A43F480439361374B9B69EF
:1021700003F480437B617B69344B9B69334A43F0B2
:1021800004039361314B9B6903F004033B613B699A
:102190004FF40073BB610223FB6103237B6207F1F1
:1021A000180319462A4801F0F3F94FF48063BB6124
:1021B0000023FB6100233B6207F118031946244802
:1021C00001F0E6F93CE07B681B68224A934237D174
:1021D0001E4BDB691D4A43F40033D3611B4BDB69A3
:1021E00003F40033FB60FB68184B9B69174A43F00C
:1021F00004039361154B9B6903F00403BB60BB6848
:102200000423BB610223FB6103237B6207F11803F4
:1022100019460F4801F0BCF90823BB610023FB619C
:1022200000233B6207F118031946094801F0B0F991
:1022300000220021262001F0BCF8262001F0D5F86C
:1022400000BF2837BD4680BD003801400010024065
:10225000000801400044004080B584B000AF034650
:10226000FB80FB88102B02D0202B12D023E0FB88B0
:102270001946134801F010FB0346FB73FB7B002B50
:102280000CBF01230023DBB219460020FEF76EFAD3
:1022900011E0FB8819460A4801F0FEFA0346FB7379
:1022A000FB7B002B0CBF01230023DBB2194601206E
:1022B000FEF75CFA00BF00BF1037BD4680BD00BF0F
:1022C0000008014080B400AF00BFFDE780B400AF5C
:1022D00000BFFDE780B400AF00BFFDE780B400AFF2
:1022E00000BFFDE780B400AF00BFFDE780B400AFE2
:1022F00000BFBD4680BC704780B400AF00BFBD4684
:1023000080BC704780B400AF00BFBD4680BC704742
:1023100080B500AF01F083F800F034FF00BF80BD4E
:1023200080B500AF102001F0FFFA00BF80BD80B57E
:1023300000AF202001F0F8FA00BF80BD80B500AFEB
:10234000024802F0C5FD00BF80BD00BFF0020020C2
:1023500080B500AF024803F0ADF800BF80BD00BFFC
:102360008003002080B400AF01231846BD4680BC26
:10237000704780B582B000AF7860396004F0F0F843
:10238000034616221A604FF0FF3318460837BD4641
:1023900080BD80B582B000AF78604FF0FF317868C3
:1023A000FFF7E7FF00BFFDE780B586B000AFF8603C
:1023B000B9607A6000237B610AE0AFF300800146D8
:1023C000BB685A1CBA60CAB21A707B6901337B6160
:1023D0007A697B689A42F0DB7B6818461837BD46FD
:1023E00080BD80B586B000AFF860B9607A60002328
:1023F0007B6109E0BB685A1CBA601B781846FFF77E
:102400009BF87B6901337B617A697B689A42F1DBD7
:102410007B6818461837BD4680BD80B483B000AFD6
:1024200078604FF0FF3318460C37BD4680BC7047CC
:1024300080B483B000AF786039603B684FF40052DD
:102440005A60002318460C37BD4680BC704780B4E4
:1024500083B000AF7860012318460C37BD4680BCBE
:10246000704780B485B000AFF860B9607A6000232F
:1024700018461437BD4680BC7047000080B586B052
:1024800000AF7860144A154BD31A7B617B693B61BE
:10249000134B1B68002B02D1114B124A1A60104BD0
:1024A0001A687B6813443A699A4207D204F058F8D4
:1024B00003460C221A604FF0FF3309E0084B1B68FB
:1024C000FB60074B1A687B681344054A1360FB687E
:1024D00018461837BD4680BD00500020000400009B
:1024E000E0080020780A002080B400AF00BFBD469D
:1024F00080BC704780B500AF4FF40051114801F027
:10250000FAF9114B1B78002B13D0104B1B8803F0EA
:1025100001039BB2002B06D0012301220D210C48A0
:10252000FEF7CCFB05E0012301220D210948FEF74F
:10253000C5FB064B1B8801339AB2044B1A8000BFBF
:1025400080BD00BF0010014001090020E408002008
:10255000040900201409002080B582B000AF284B88
:102560001B685B6A1BB2DA0F13445B10FB80254BC0
:102570001B685B6A1BB2002B00DA03339B10BB8025
:10258000214B1B78002B06D0204AFB8853801E4B22
:1025900000221A7030E0FA881C4BB3F902309BB26B
:1025A000D31A9BB27B80B7F90230002B0AD0174AAE
:1025B000FB885380B7F90220B7F906301146184658
:1025C00000F046FABA88114BB3F900309BB2D31A27
:1025D0009BB23B80B7F90030002B0DD00C4B002292
:1025E0001A700A4ABB881380B7F90020B7F9043083
:1025F0001146184600F0B8F80837BD4680BD00BF48
:1026000060020020A802002000090020E808002045
:102610000109002080B500AFFEF72EF90020FEF77B
:10262000C5F90346012B02D0022B34D034E0394BDC
:102630001B78002B14BF01230023DBB283F00103BE
:10264000DBB203F00103DAB2324B1A70324BB3F94A
:102650000030042B02D0072B05D01DE00021002004
:1026600000F0F6F916E02B4B1B7883F00103DBB288
:10267000002B07D0294BB3F912300021184600F087
:10268000E7F906E0254BB3F914300021184600F0B5
:10269000DFF900BF00E000BF0120FEF787F9034625
:1026A000012B02D0022B32D032E01D4B00221A70D7
:1026B0001C4B1B88002B03D01A4B00221A8002E00F
:1026C000184B01221A80144B00221A80154B1B88CC
:1026D0005A00154B1B685A62124B1B885B009BB259
:1026E0001AB20E4B5A80114B1868002301220021A8
:1026F000FEF7E4FA0B4B1B88002B01D00C4800E0DE
:102700000C48012301220D21FEF7D8FA00E000BF9A
:1027100000BF80BD0209002024090020E808002035
:1027200001090020CC00002060020020AC00002045
:10273000047700080877000880B500AFC821064874
:10274000FFF798F80B210548FFF794F80D2104488E
:10275000FFF790F800BF80BDF52400085925000858
:10276000152600080000000090B597B000AF0346A2
:102770000A46FB801346BB80A34BB3F900309AB2E4
:10278000BB8813449BB21AB29F4B1A809E4BB3F97D
:102790000030002B03DA9C4B00221A800DE09A4B8C
:1027A000B3F900301A4608239A4206D308239BB295
:1027B000013B9BB21AB2944B1A80934BB3F9003091
:1027C0001A46924B53F82200002301220021FEF703
:1027D00075FA8F4B01221A708B4BB3F90030072B1F
:1027E00000F2098101A252F823F000BF0D28000871
:1027F000C72900083D2800086B2800082D2900087B
:1028000099280008F528000877290008814BB3F9BA
:102810000420814B1B685A627E4BB3F904207D4B28
:102820005A807E4B1B88002B01D07D4800E07D48FC
:10283000012301220D21FEF741FADDE0754BB3F9CA
:102840000620754B1B685A62724BB3F90620714B18
:102850005A80724B5B881A46734B53F8220001234F
:1028600001220D21FEF72AFAC6E06A4BB3F90820CF
:10287000694B1B685A62674BB3F90820654B5A8055
:10288000664B9B88DBB21846FEF7CAFF0123012284
:102890000D21FEF713FAAFE05E4BB3F90A205E4B51
:1028A0001B685A625B4BB3F90A205A4B5A805B4B48
:1028B000DB881C46594BDB881846FDF7CDFE50A33C
:1028C000D3E90023FDF74CFC02460B46104619469F
:1028D000FDF72CFF03469BB207F10800224653493F
:1028E00003F0F6FC07F10800012301220D21FEF799
:1028F000E5F981E0474BB3F90C20474B1B685A625E
:10290000444BB3F90C20434B5A80444B1B891A4665
:1029100007F108034649184603F0DAFC07F10800FE
:10292000012301220D21FEF7C9F965E0414B002288
:102930001A70384BB3F90E20374B1B685A62354B6F
:10294000B3F90E20334B5A80344B5B891A46334B14
:102950009B893949394803F0BBFC304B9B891A46A7
:102960003749384803F0B4FC012301220D213348D4
:10297000FEF7A4F940E02F4B00221A70254BB3F963
:102980001220254B1B685A62224BB3F91220214BAF
:102990005A80224BB3F90E301A46204BB3F910304F
:1029A0002549264803F094FC1C4BB3F910301A4615
:1029B0002349244803F08CFC012301220D211F48E8
:1029C000FEF77CF918E0134BB3F91620124B1B6885
:1029D0005A62104BB3F916200E4B5A800F4BB3F9C5
:1029E00012301A46184B53F83200012301220D21F0
:1029F000FEF764F900E000BF00BF5C37BD4690BD44
:102A00005C8FC2F5285C054024090020AC00002042
:102A100000090020E808002060020020CC0000200F
:102A20006C77000870770008440000207477000875
:102A30007C77000802090020807700080409002044
:102A400088770008140900202C7800080000000096
:102A5000B0B59CB004AF03460A46FB801346BB806A
:102A6000A34BB3F90030072B00F2098301A252F8FF
:102A700023F000BF952A0008472F0008E12A00082C
:102A8000772B0008312D0008172C0008B52C000802
:102A90004F2E0008B7F90630002B03F00103B8BF32
:102AA0005B421BB29AB2934B1A80934B1B685B6AD2
:102AB0001AB2924B9A808F4B1B88002B01D0904A00
:102AC00000E0904A07F10C038F49184603F000FC20
:102AD00007F10C00012301220D21FEF7EFF8CFE2F0
:102AE000844B5A88BB8813449BB2A7F85E30B7F971
:102AF0005E30002B03DA0023A7F85E3006E0B7F95A
:102B00005E300C2B02DD0C23A7F85E30B7F85E2098
:102B1000784B5A80784B1B685B6A1AB2774BDA8025
:102B2000744B5B881A46794B53F82200012301222B
:102B30000D21FEF7C3F86F4B9B88D8B26D4B5B88B5
:102B4000DB00734A99186B4B5B881A46714B9A5C91
:102B5000684B5B89DCB2674B9B89DBB280250295B1
:102B60006D4D019500932346FEF7DEFD03469AB2B4
:102B70006A4B1A8084E25F4B9A88BB8813449AB2EE
:102B80005C4B9A805B4B9A88654BA3FB0213D90878
:102B90000B465B000B449B00D31A9AB2554B9A80AC
:102BA000554B1B685B6A1AB2544B1A81514B9B8878
:102BB000DBB21846FEF734FE02464E4B9B8807F107
:102BC0000C00584903F084FB07F10C00012301229B
:102BD0000D21FEF773F8474B9B88D8B2454B5B88B5
:102BE000DB004B4A9918434B5B881A46494B9A5C69
:102BF000404B5B89DCB23F4B9B89DBB28025029561
:102C0000454D019500932346FEF78EFD03469AB28B
:102C1000424B1A8034E2374BDA88BB881946890068
:102C20000B4419468800194603460B449B009BB28F
:102C300013449AB22F4BDA802E4BDB88632B02D8D9
:102C40002C4B6422DA802B4BDB8840F2DC5293421F
:102C500003D9284B40F2DC52DA80264BDA88254B28
:102C6000DA80254B1B685B6A1AB2244B5A81214BD0
:102C7000DB881C461F4BDB881846FDF7EDFC1AA3CA
:102C8000D3E90023FDF76CFA02460B4610461946BD
:102C9000FDF74CFD03469BB207F10C00224622498A
:102CA00003F016FB07F10C00012301220D21FEF7B2
:102CB00005F8E5E1FA880F4B1A810F4B1B685B6A38
:102CC0001AB20E4B9A810B4B1B891A4607F10C0363
:102CD0001649184603F0FCFA07F10C000123012203
:102CE0000D21FDF7EBFFCBE15C8FC2F5285C0540C1
:102CF00024090020CC00002060020020E808002009
:102D00006C77000870770008907700084400002076
:102D1000C4770008B4770008D403002054040020CE
:102D2000ABAAAAAA94770008747700087C770008F9
:102D30008E4B01221A708E4B1B7883F00103DBB29D
:102D4000002B32D08B4B5A89BB8813449AB2894BE3
:102D50005A81884B5B89002B02D1864B00225A8115
:102D6000844B5B891A46834B9B89013B9A4205DB66
:102D7000804B9B89013B9AB27E4B5A817E4B1B68EC
:102D80005B6A1AB27D4BDA817A4B5B891A46794BC2
:102D90009B897B497B4803F09BFA764B9B891A46BB
:102DA00079497A4803F094FA31E0724B9A89BB88EA
:102DB00013449AB26F4B9A816E4B9B89072B02D9B1
:102DC0006C4B08229A816B4B9B891A46694B5B8935
:102DD00001339A4205DC674B5B8901339AB2654B3C
:102DE0009A81654B1B685B6A1AB2644B1A82614B0D
:102DF0005B891A465F4B9B896149624803F068FA18
:102E00005C4B5B891A466249604803F061FA594B92
:102E10009B88D8B2574B5B88DB005E4A9918554BAC
:102E20005B881A465C4B9A5C524B5B89DCB2514B17
:102E30009B89DBB280250295584D0195009323466E
:102E4000FEF772FC03469AB2554B1A8018E1474BC5
:102E500001221A70464B1B7883F00103DBB2002B72
:102E600038D0444BB3F90E309AB2BB8813449BB2AE
:102E70001AB2404BDA813F4BB3F90E30002B02DC23
:102E80003C4B0122DA813B4BB3F90E20394BB3F9AD
:102E900010309A4204DB374BB3F91020354BDA81FE
:102EA000354B1B685B6A1AB2344B5A82314BB3F90B
:102EB0000E301A462F4BB3F910303149314803F028
:102EC00007FA2C4BB3F910301A462F492F4803F05C
:102ED000FFF9D5E0274BB3F910309AB2BB88134401
:102EE0009BB21AB2234B1A82224BB3F91020214B0A
:102EF000B3F90E309A4204DC1E4BB3F90E201D4B81
:102F00001A821C4BB3F910300F2B02DD194B102223
:102F10001A82194B1B685B6A1AB2184B9A82154BBE
:102F2000B3F90E301A46134BB3F910301449154853
:102F300003F0CEF90F4BB3F90E301A46144913487B
:102F400003F0C6F99CE00B4BB3F912309AB2BB8880
:102F500013449BB21AB2074B5A82064BB3F9123094
:102F6000042B1FDD034B04225A8223E001090020B9
:102F700002090020CC00002060020020E8080020A8
:102F800080770008040900208877000814090020D1
:102F90009C770008C4770008B4770008D4030020A9
:102FA00054040020384BB3F91230002B02DC364BAE
:102FB00000225A82354B1B685B6A1AB2344BDA82A4
:102FC000314BB3F912301A46324B53F83200012319
:102FD00001220D21FDF772FE2B4BB3F912302D4A61
:102FE000DB0013441B791A46274B9A80264BB3F912
:102FF0001230284ADB0013445B791A46224B5A8070
:10300000214BB3F91230234ADB0013449B791A4653
:103010001D4B5A811C4BB3F912301E4ADB0013447E
:10302000DB791A46184B9A81174BB3F912301A46BE
:10303000184B53F832301946174803F0A3F8124BD7
:103040009B88D8B2104B5B88DB00144A99180E4B52
:103050005B881A46124B9A5C0B4B5B89DCB20A4BBD
:103060009B89DBB2802502950E4D01950093234686
:10307000FEF75AFB03469AB20B4B1A8000E000BFE2
:1030800000BF6037BD46B0BDCC000020600200200C
:10309000E80800202C780008A4770008C47700080E
:1030A000B4770008D403002054040020FFF71CFA72
:1030B0000B480C490C4A002302E0D458C450043396
:1030C000C4188C42F9D3094A094C002301E013606B
:1030D0000432A242FBD303F049FAFDF7BDFE70476C
:1030E0000000002044010020687F00084401002007
:1030F000780A0020FEE7000080B500AF084B1B688F
:10310000074A43F010031360032000F047F90F2033
:1031100000F008F8FEF716FF0023184680BD00BF38
:103120000020024080B582B000AF7860124B1A6870
:10313000124B1B7819464FF47A73B3FBF1F3B2FBD1
:10314000F3F3184600F05FF90346002B01D001238A
:103150000EE07B680F2B0AD8002279684FF0FF3011
:1031600000F027F9064A7B681360002300E0012382
:1031700018460837BD4680BDA8000020E4000020A6
:10318000E000002080B400AF054B1B781A46054BC9
:103190001B681344034A136000BFBD4680BC7047E0
:1031A000E40000202809002080B400AF024B1B6817
:1031B0001846BD4680BC70472809002080B584B001
:1031C00000AF7860FFF7F0FFB8607B68FB60FB68DA
:1031D000B3F1FF3F05D00A4B1B781A46FB68134436
:1031E000FB6000BFFFF7E0FF0246BB68D31AFA6836
:1031F0009A42F7D800BF00BF1037BD4680BD00BF60
:10320000E400002080B485B000AF78607B6803F0F4
:103210000703FB600C4BDB68BB60BA684FF6FF032B
:103220001340BB60FB681A02BB68134343F0BF63E3
:1032300043F40033BB60044ABB68D36000BF14375B
:10324000BD4680BC704700BF00ED00E080B400AF19
:10325000044BDB681B0A03F007031846BD4680BC1D
:10326000704700BF00ED00E080B483B000AF0346BC
:10327000FB7197F90730002B0BDBFB7903F01F0282
:10328000064997F907305B09012000FA02F241F87C
:10329000232000BF0C37BD4680BC704700E100E032
:1032A00080B483B000AF03463960FB7197F90730F3
:1032B000002B0ADB3B68DAB20C4997F907301201A0
:1032C000D2B20B4483F800230AE03B68DAB2084923
:1032D000FB7903F00F03043B1201D2B20B441A76C0
:1032E00000BF0C37BD4680BC704700BF00E100E066
:1032F00000ED00E080B489B000AFF860B9607A609A
:10330000FB6803F00703FB61FB69C3F10703042BB0
:1033100028BF0423BB61FB690433062B02D9FB6978
:10332000033B00E000237B614FF0FF32BB6902FAF0
:1033300003F3DA43BB681A407B699A404FF0FF31D0
:103340007B6901FA03F3D9437B680B4013431846AA
:103350002437BD4680BC704780B582B000AF78602E
:103360007B68013BB3F1807F01D301230FE00A4A60
:103370007B68013B53600F214FF0FF30FFF790FF58
:10338000054B00229A60044B07221A60002318465E
:103390000837BD4680BD00BF10E000E080B582B0B8
:1033A00000AF78607868FFF72DFF00BF0837BD4693
:1033B00080BD80B586B000AF0346B9607A60FB730C
:1033C00000237B61FFF742FF78617A68B96878690A
:1033D000FFF790FF024697F90F3011461846FFF7A6
:1033E0005FFF00BF1837BD4680BD80B582B000AF1B
:1033F0000346FB7197F907301846FFF735FF00BF0A
:103400000837BD4680BD80B582B000AF786078686F
:10341000FFF7A2FF034618460837BD4680BD80B5BA
:1034200000AFFEF77BF800BF80BD80B485B000AF71
:1034300078600023FB737B6893F82130DBB2022BAA
:1034400008D07B6804229A637B68002283F82020DE
:10345000012320E07B681B681A687B681B6822F0E8
:103460000E021A607B681B681A687B681B6822F072
:1034700001021A607B681A6C7B68DB6B012101FA20
:1034800002F25A607B68012283F821207B680022C7
:1034900083F82020FB7B18461437BD4680BC70475C
:1034A00080B584B000AF78600023FB737B6893F82D
:1034B0002130DBB2022B05D07B6804229A63012302
:1034C000FB7351E07B681B681A687B681B6822F0FD
:1034D0000E021A607B681B681A687B681B6822F002
:1034E00001021A607B681B68224A934229D07B68DC
:1034F0001B68214A934222D07B681B681F4A934273
:103500001AD07B681B681E4A934212D07B681B68E6
:103510001C4A93420AD07B681B681B4A934202D123
:103520004FF480130EE04FF080730BE04FF48033C4
:1035300008E04FF4805305E04FF4807302E010235D
:1035400000E00123114A53607B68012283F82120A7
:103550007B68002283F820207B685B6B002B03D004
:103560007B685B6B78689847FB7B18461037BD46D5
:1035700080BD00BF080002401C0002403000024035
:1035800044000240580002406C000240000002402B
:1035900080B48BB000AF7860396000237B62002379
:1035A0003B6269E101227B6A02FA03F3FB613B683B
:1035B0001B68FA691340BB61BA69FB699A4240F023
:1035C00058813B685B689A4A93425ED0984A93421E
:1035D00075D8984A934258D0964A93426FD8964AE3
:1035E000934252D0944A934269D8944A93424CD021
:1035F000924A934263D8924A934246D0904A934269
:103600005DD8122B2AD8122B59D801A252F823F0D8
:103610008B3600086536000877360008B936000892
:10362000BF360008BF360008BF360008BF360008A6
:10363000BF360008BF360008BF360008BF36000896
:10364000BF360008BF360008BF360008BF36000886
:10365000BF3600086D36000881360008794A93426B
:1036600013D02CE03B68DB683B6229E03B68DB68F9
:1036700004333B6224E03B68DB6808333B621FE0B5
:103680003B68DB680C333B621AE03B689B68002BAD
:1036900002D104233B6213E03B689B68012B05D1F8
:1036A00008233B627B68FA691A6109E008233B62E0
:1036B0007B68FA695A6103E000233B6200E000BFC7
:1036C000BB69FF2B01D87B6801E07B6804337B6119
:1036D000BB69FF2B02D87B6A9B0002E07B6A083B38
:1036E0009B003B617B691A680F213B6901FA03F378
:1036F000DB431A40396A3B6901FA03F31A437B69D9
:103700001A603B685B6803F08053002B00F0B180C7
:103710004D4B9B694C4A43F0010393614A4B9B69B3
:1037200003F00103BB60BB68484A7B6A9B08023315
:1037300052F82330FB607B6A03F003039B000F22E7
:1037400002FA03F3DB43FA681340FB607B68404AEC
:10375000934213D07B683F4A93420DD07B683E4A28
:10376000934207D07B683D4A934201D1032306E090
:10377000042304E0022302E0012300E000237A6A2C
:1037800002F0030292009340FA681343FB602F4952
:103790007B6A9B080233FA6841F823203B685B6828
:1037A00003F48013002B06D02D4B9A682C49BB697B
:1037B00013438B6006E02A4B9A68BB69DB432849B8
:1037C00013408B603B685B6803F40013002B06D04A
:1037D000234BDA682249BB691343CB6006E0204BD8
:1037E000DA68BB69DB431E491340CB603B685B680A
:1037F00003F40033002B06D0194B5A681849BB69F3
:1038000013434B6006E0164B5A68BB69DB4314490F
:1038100013404B603B685B6803F48033002B21D07E
:103820000F4B1A680E49BB6913430B6021E000BFC0
:1038300000003210000031100000221000002110A2
:1038400000001210000011100010024000000140A2
:1038500000080140000C014000100140001401402C
:10386000000401400B4B1A68BB69DB430949134054
:103870000B607B6A01337B623B681A687B6A22FAC1
:1038800003F3002B7FF48EAE00BF00BF2C37BD4684
:1038900080BC70470004014080B485B000AF786000
:1038A0000B467B807B689A687B881340002B02D094
:1038B0000123FB7301E00023FB73FB7B18461437E5
:1038C000BD4680BC704780B483B000AF78600B46C3
:1038D0007B8013467B707B78002B03D07A887B68D3
:1038E0001A6103E07B881A047B681A6100BF0C37F9
:1038F000BD4680BC704780B485B000AF78600B4691
:103900007B807B68DB68FB607A88FB6813401A0465
:10391000FB68D9437B880B401A437B681A6100BF60
:103920001437BD4680BC704780B582B000AF0346F7
:10393000FB80084B5A69FB881340002B06D0054AD0
:10394000FB885361FB881846FEF786FC00BF0837EA
:10395000BD4680BD0004014080B584B000AF7860F2
:103960007B68002B01D101232BE17B6893F83D306C
:10397000DBB2002B06D17B68002283F83C207868FC
:10398000FEF712FB7B68242283F83D207B681B68CE
:103990001A687B681B6822F001021A607B681B684A
:1039A0001A687B681B6842F400421A607B681B68D7
:1039B0001A687B681B6822F400421A6001F042F822
:1039C000F8607B685B68814A934207D8FB68804A4D
:1039D000934294BF01230023DBB206E0FB687D4ADB
:1039E000934294BF01230023DBB2002B01D00123BB
:1039F000E7E0FB68784AA2FB03239B0CBB607B6873
:103A00001B685B6823F03F017B681B68BA680A4348
:103A10005A607B681B681B6A23F03F017B685B6808
:103A20006A4A934202D8BB68013309E0BB684FF48D
:103A3000967202FB03F3694AA2FB03239B0901333D
:103A40007A6812680B4313627B681B68DB6923F496
:103A50004F4222F0FF027B685B685C498B4219D8B9
:103A6000FB68591E7B685B685B00B1FBF3F3591C74
:103A700040F6FC730B40002B0AD0FB68591E7B6894
:103A80005B685B00B1FBF3F30133C3F30B0351E05D
:103A900004234FE07B689B68002B11D1FB68581E04
:103AA0007B6859680B465B000B44B0FBF3F30133B2
:103AB000C3F30B03002B0CBF01230023DBB212E086
:103AC000FB68581E7B6859680B469B000B449900A5
:103AD0000B44B0FBF3F30133C3F30B03002B0CBF18
:103AE00001230023DBB2002B01D0012322E07B68FD
:103AF0009B68002B0ED1FB68581E7B6859680B46EB
:103B00005B000B44B0FBF3F30133C3F30B0343F44B
:103B100000430FE0FB68581E7B6859680B469B000A
:103B20000B4499000B44B0FBF3F30133C3F30B03D5
:103B300043F44043796809681343CB617B681B6891
:103B40001B6823F0C0017B68DA697B681B6A1A4333
:103B50007B681B680A431A607B681B689B6823F4B8
:103B6000034323F0FF037A6811697A68D26811432E
:103B70007A6812680B4393607B681B68DB6823F0EC
:103B8000FF017B685A697B689B691A437B681B68E5
:103B90000A43DA607B681B681A687B681B6842F01E
:103BA00001021A607B6800221A647B68202283F875
:103BB0003D207B6800221A637B68002283F83E2048
:103BC000002318461037BD4680BD00BFA086010007
:103BD0007F841E00FF083D0083DE1B43D34D62102F
:103BE00080B588B002AFF860084611461A46034611
:103BF0007B810B463B811346FB80FFF7D5FA78614A
:103C0000FB6893F83D30DBB2202B40F0D9807B6914
:103C10000093192301226D49F86800F071F90346F9
:103C2000002B01D00223CCE0FB6893F83C30012B41
:103C300001D10223C5E0FB68012283F83C20FB6828
:103C40001B681B6803F00103012B07D0FB681B688E
:103C50001A68FB681B6842F001021A60FB681B6867
:103C60001A68FB681B6822F400621A60FB68212254
:103C700083F83D20FB68402283F83E20FB68002249
:103C80001A64FB683A6A5A62FB68BA8C5A85FB6808
:103C90005B8D9AB2FB681A85FB684D4ADA62F88838
:103CA0003A8979897B690193BB6A00930346F86876
:103CB00000F090F80346002B52D0012381E07A698E
:103CC000B96AF86800F036FA0346002B0DD0FB689D
:103CD0001B6C042B07D1FB681B681A68FB681B6808
:103CE00042F400721A6001236BE0FB685B6A1A7889
:103CF000FB681B681A61FB685B6A5A1CFB685A62A6
:103D0000FB681B8D013B9AB2FB681A85FB685B8DD3
:103D10009BB2013B9AB2FB685A85FB681B685B69E2
:103D200003F00403042B1BD1FB681B8D002B17D061
:103D3000FB685B6A1A78FB681B681A61FB685B6A40
:103D40005A1CFB685A62FB681B8D013B9AB2FB68E8
:103D50001A85FB685B8D9BB2013B9AB2FB685A8562
:103D6000FB681B8D002BAAD17A69B96AF86800F04C
:103D700029FA0346002B0DD0FB681B6C042B07D1DE
:103D8000FB681B681A68FB681B6842F400721A60C3
:103D9000012316E0FB681B681A68FB681B6842F485
:103DA00000721A60FB68202283F83D20FB68002225
:103DB00083F83E20FB68002283F83C20002300E0CB
:103DC000022318461837BD4680BD00BF0200100010
:103DD0000000FFFF80B588B002AFF86008461146CA
:103DE0001A4603467B810B463B811346FB80FB68EA
:103DF0001B681A68FB681B6842F480721A607B6A51
:103E000000933B6A00224FF00111F86800F078F847
:103E10000346002B0DD0FB681B681B6803F48073FE
:103E2000B3F5807F03D1FB684FF400721A6403235B
:103E30005FE07B89DBB21A46FB681B6802F0FE027A
:103E40001A617B6A3A6A2D49F86800F0D3F8034694
:103E5000002B01D001234CE000237B61FB681B6831
:103E60005B697B61FB681B689B697B617B697A6A24
:103E7000396AF86800F05EF90346002B0DD0FB6844
:103E80001B6C042B07D1FB681B681A68FB681B6856
:103E900042F400721A6001232BE0FB88012B05D14C
:103EA0003B89DAB2FB681B681A6121E03B891B0A77
:103EB0009BB2DAB2FB681B681A617A6A396AF868E1
:103EC00000F038F90346002B0DD0FB681B6C042B67
:103ED00007D1FB681B681A68FB681B6842F4007214
:103EE0001A60012305E03B89DAB2FB681B681A619E
:103EF000002318461837BD4680BD00BF02000100F0
:103F000080B584B000AFF860B9603B601346FB71C8
:103F100048E03B68B3F1FF3F44D0FFF745F9024664
:103F2000BB69D31A3A689A4202D33B68002B39D155
:103F3000BB681B0CDBB2012B0DD1FB681B685B69F6
:103F4000DA43BB6813409BB2002B0CBF0123002354
:103F5000DBB21A460CE0FB681B689B69DA43BB685E
:103F600013409BB2002B0CBF01230023DBB21A4687
:103F7000FB799A4216D1FB6800221A63FB68202263
:103F800083F83D20FB68002283F83E20FB681B6C11
:103F900043F02002FB681A64FB68002283F83C208F
:103FA000012323E0BB681B0CDBB2012B0DD1FB68A6
:103FB0001B685B69DA43BB6813409BB2002B0CBFE4
:103FC00001230023DBB21A460CE0FB681B689B69E7
:103FD000DA43BB6813409BB2002B0CBF01230023C4
:103FE000DBB21A46FB799A4293D000231846103769
:103FF000BD4680BD80B584B000AFF860B9607A601E
:104000003B6071E0FB681B685B6903F48063B3F598
:10401000806F23D1FB681B681A68FB681B6842F439
:1040200000721A60FB681B686FF480625A61FB685B
:1040300000221A63FB68202283F83D20FB680022DF
:1040400083F83E20FB681B6C43F00402FB681A6493
:10405000FB68002283F83C20012367E07B68B3F112
:10406000FF3F41D0FFF7A0F802463B68D31A7A68B9
:104070009A4202D37B68002B36D1BB681B0CDBB2A3
:10408000012B0CD1FB681B685B69DA43BB681340EA
:104090009BB2002B14BF01230023DBB20BE0FB68B3
:1040A0001B689B69DA43BB6813409BB2002B14BFAB
:1040B00001230023DBB2002B16D0FB6800221A6319
:1040C000FB68202283F83D20FB68002283F83E2015
:1040D000FB681B6C43F02002FB681A64FB6800223B
:1040E00083F83C20012321E0BB681B0CDBB2012BD1
:1040F0000CD1FB681B685B69DA43BB6813409BB259
:10410000002B14BF01230023DBB20BE0FB681B680C
:104110009B69DA43BB6813409BB2002B14BF012399
:104120000023DBB2002B7FF46DAF0023184610375D
:10413000BD4680BD80B584B000AFF860B9607A60DC
:1041400034E0F86800F086F80346002B01D0012324
:1041500034E0BB68B3F1FF3F28D0FFF725F80246F3
:104160007B68D31ABA689A4202D3BB68002B1DD170
:10417000FB681B685B6903F08003802B16D0FB682B
:1041800000221A63FB68202283F83D20FB6800228E
:1041900083F83E20FB681B6C43F02002FB681A6426
:1041A000FB68002283F83C20012307E0FB681B68C2
:1041B0005B6903F08003802BC3D1002318461037BE
:1041C000BD4680BD80B584B000AFF860B9607A604C
:1041D00034E0F86800F03EF80346002B01D00123DC
:1041E00034E0BB68B3F1FF3F28D0FEF7DDFF0246A5
:1041F0007B68D31ABA689A4202D3BB68002B1DD1E0
:10420000FB681B685B6903F00403042B16D0FB6892
:1042100000221A63FB68202283F83D20FB680022FD
:1042200083F83E20FB681B6C43F02002FB681A6495
:10423000FB68002283F83C20012307E0FB681B6831
:104240005B6903F00403042BC3D100231846103725
:10425000BD4680BD80B483B000AF78607B681B68CA
:104260005B6903F48063B3F5806F1BD17B681B68C7
:104270006FF480625A617B6800221A637B68202297
:1042800083F83D207B68002283F83E207B681B6C0E
:1042900043F004027B681A647B68002283F83C20A8
:1042A000012300E0002318460C37BD4680BC704750
:1042B00080B586B000AF78607B68002B01D1012308
:1042C00072E27B681B6803F00103002B00F087801B
:1042D000924B5B6803F00C03042B0CD08F4B5B6894
:1042E00003F00C03082B12D18C4B5B6803F4803372
:1042F000B3F5803F0BD1894B1B6803F40033002BCF
:104300006CD07B685B68002B68D101234CE27B6832
:104310005B68B3F5803F06D1804B1B687F4A43F44E
:10432000803313602EE07B685B68002B0CD17B4BE5
:104330001B687A4A23F480331360784B1B68774AF2
:1043400023F4802313601DE07B685B68B3F5A02F26
:104350000CD1724B1B68714A43F4802313606F4B7E
:104360001B686E4A43F4803313600BE06B4B1B6891
:104370006A4A23F480331360684B1B68674A23F44E
:10438000802313607B685B68002B13D0FEF70CFF63
:10439000386108E0FEF708FF02463B69D31A642B38
:1043A00001D9032300E25D4B1B6803F40033002BAB
:1043B000F0D014E0FEF7F8FE386108E0FEF7F4FEF6
:1043C00002463B69D31A642B01D90323ECE1534B1A
:1043D0001B6803F40033002BF0D100E000BF7B68C2
:1043E0001B6803F00203002B63D04C4B5B6803F0A7
:1043F0000C03002B0BD0494B5B6803F00C03082B1C
:104400001CD1464B5B6803F48033002B16D1434B21
:104410001B6803F00203002B05D07B681B69012B8E
:1044200001D00123C0E13D4B1B6823F0F8027B68FB
:104430005B69DB00394913430B603AE07B681B6919
:10444000002B20D0364B01221A60FEF7ADFE3861FA
:1044500008E0FEF7A9FE02463B69D31A022B01D9F8
:104460000323A1E12D4B1B6803F00203002BF0D0C6
:104470002A4B1B6823F0F8027B685B69DB00274945
:1044800013430B6015E0264B00221A60FEF78CFEEA
:10449000386108E0FEF788FE02463B69D31A022B1A
:1044A00001D9032380E11D4B1B6803F00203002B9D
:1044B000F0D17B681B6803F00803002B3AD07B68BF
:1044C0009B69002B19D0174B01221A60FEF76CFE76
:1044D000386108E0FEF768FE02463B69D31A022BFA
:1044E00001D9032360E10D4B5B6A03F00203002B4B
:1044F000F0D0012000F0CEFA1CE00A4B00221A6036
:10450000FEF752FE38610FE0FEF74EFE02463B69B1
:10451000D31A022B08D9032346E100BF0010024042
:104520000000424280044242924B5B6A03F0020365
:10453000002BE9D17B681B6803F00403002B00F01B
:10454000A6800023FB758B4BDB6903F08053002BA7
:104550000DD1884BDB69874A43F08053D361854B8B
:10456000DB6903F08053BB60BB680123FB75824BA2
:104570001B6803F48073002B18D17F4B1B687E4AA5
:1045800043F480731360FEF70FFE386108E0FEF716
:104590000BFE02463B69D31A642B01D9032303E1C6
:1045A000754B1B6803F48073002BF0D07B68DB68CD
:1045B000012B06D16F4B1B6A6E4A43F00103136255
:1045C0002DE07B68DB68002B0CD16A4B1B6A694AC3
:1045D00023F001031362674B1B6A664A23F004034E
:1045E00013621CE07B68DB68052B0CD1614B1B6AF6
:1045F000604A43F0040313625E4B1B6A5D4A43F05A
:10460000010313620BE05B4B1B6A5A4A23F0010360
:104610001362584B1B6A574A23F0040313627B68EA
:10462000DB68002B15D0FEF7BFFD38610AE0FEF70E
:10463000BBFD02463B69D31A41F28832934201D94D
:104640000323B1E04B4B1B6A03F00203002BEED0B7
:1046500014E0FEF7A9FD38610AE0FEF7A5FD024669
:104660003B69D31A41F28832934201D903239BE07C
:10467000404B1B6A03F00203002BEED1FB7D012BA4
:1046800005D13C4BDB693B4A23F08053D3617B6807
:10469000DB69002B00F08780364B5B6803F00C036E
:1046A000082B61D07B68DB69022B46D1334B00229B
:1046B0001A60FEF779FD386108E0FEF775FD0246E5
:1046C0003B69D31A022B01D903236DE0294B1B68E8
:1046D00003F00073002BF0D17B681B6AB3F5803FB9
:1046E00008D1244B5B6823F400327B689B68214926
:1046F00013434B601F4B5B6823F474127B68196A89
:104700007B685B6A0B431B4913434B601B4B0122C5
:104710001A60FEF749FD386108E0FEF745FD0246E4
:104720003B69D31A022B01D903233DE0114B1B68CF
:1047300003F00073002BF0D035E0104B00221A601C
:10474000FEF732FD386108E0FEF72EFD02463B69B8
:10475000D31A022B01D9032326E0064B1B6803F072
:104760000073002BF0D11EE07B68DB69012B07D1C1
:10477000012319E000100240007000406000424236
:104780000B4B5B68FB60FB6803F480327B681B6A41
:104790009A4206D1FB6803F470127B685B6A9A4206
:1047A00001D0012300E0002318461837BD4680BD24
:1047B0000010024080B584B000AF786039607B683B
:1047C000002B01D10123D0E06A4B1B6803F00703E3
:1047D0003A689A4210D9674B1B6823F00702654973
:1047E0003B6813430B60634B1B6803F007033A6895
:1047F0009A4201D00123B8E07B681B6803F00203F2
:10480000002B20D07B681B6803F00403002B05D02D
:10481000594B5B68584A43F4E06353607B681B68FC
:1048200003F00803002B05D0534B5B68524A43F456
:1048300060535360504B5B6823F0F0027B689B68C9
:104840004D4913434B607B681B6803F00103002B49
:1048500040D07B685B68012B07D1474B1B6803F492
:104860000033002B15D101237FE07B685B68022BAE
:1048700007D1414B1B6803F00073002B09D10123C2
:1048800073E03D4B1B6803F00203002B01D10123B1
:104890006BE0394B5B6823F003027B685B68364949
:1048A00013434B60FEF780FCF8600AE0FEF77CFCE7
:1048B0000246FB68D31A41F28832934201D903239E
:1048C00053E02D4B5B6803F00C027B685B689B0038
:1048D0009A42EBD1274B1B6803F007033A689A42D0
:1048E00010D2244B1B6823F0070222493B68134374
:1048F0000B60204B1B6803F007033A689A4201D013
:10490000012332E07B681B6803F00403002B08D00E
:10491000194B5B6823F4E0627B68DB68164913433C
:104920004B607B681B6803F00803002B09D0124B17
:104930005B6823F460527B681B69DB000E491343FC
:104940004B6000F021F802460B4B5B681B0903F03B
:104950000F030A49CB5C22FA03F3094A1360094B9F
:104960001B681846FEF7DEFB002318461037BD46CD
:1049700080BD00BF0020024000100240507E0008B1
:10498000A8000020E000002080B487B000AF002322
:10499000FB600023BB6000237B6100237B6000235E
:1049A0003B611E4B5B68FB60FB6803F00C03042B50
:1049B00002D0082B03D027E0194B3B6127E0FB68AE
:1049C0009B0C03F00F03174AD35C7B60FB6803F476
:1049D0008033002B10D0114B5B685B0C03F001039C
:1049E000114AD35CBB607B680D4A03FB02F2BB68D3
:1049F000B2FBF3F37B6104E07B680C4A02FB03F338
:104A00007B617B693B6102E0054B3B6100BF3B6919
:104A100018461C37BD4680BC704700BF00100240DE
:104A200000127A00687E0008787E000800093D00C8
:104A300080B400AF024B1B681846BD4680BC70476F
:104A4000A800002080B500AFFFF7F2FF0246054B3B
:104A50005B681B0A03F007030349CB5C22FA03F3EC
:104A6000184680BD00100240607E000880B500AF8F
:104A7000FFF7DEFF0246054B5B68DB0A03F0070326
:104A80000349CB5C22FA03F3184680BD00100240B4
:104A9000607E000880B485B000AF78600A4B1B6868
:104AA0000A4AA2FB03235B0A7A6802FB03F3FB605A
:104AB00000BFFB685A1EFA60002BF9D100BF00BF8F
:104AC0001437BD4680BC7047A8000020D34D62104B
:104AD00080B485B000AF78607B6893F83D30DBB27E
:104AE000012B01D001233AE07B68022283F83D20AC
:104AF0007B681B68DA687B681B6842F00102DA6039
:104B00007B681B68184A93420ED07B681B68B3F120
:104B1000804F09D07B681B68144A934204D07B689D
:104B20001B68134A934211D17B681B689B6803F092
:104B30000703FB60FB68062B10D07B681B681A68B4
:104B40007B681B6842F001021A6007E07B681B6803
:104B50001A687B681B6842F001021A60002318463D
:104B60001437BD4680BC7047002C01400004004053
:104B70000008004080B483B000AF78607B681B6899
:104B8000DA687B681B6822F00102DA607B681B68C8
:104B90001A6A41F211131340002B0FD17B681B6876
:104BA0001A6A40F244431340002B07D17B681B680C
:104BB0001A687B681B6822F001021A607B68012278
:104BC00083F83D20002318460C37BD4680BC704753
:104BD00080B582B000AF786039607B68002B01D16E
:104BE000012341E07B6893F83D30DBB2002B06D116
:104BF0007B68002283F83C207868FDF77BFA7B68AD
:104C0000022283F83D207B681A687B6804331946CA
:104C1000104600F071FA7B681B681A687B681B6895
:104C200022F008021A607B681B6819687B681B68A1
:104C30003A680A431A607B68012283F846207B6841
:104C4000012283F83E207B68012283F83F207B68A5
:104C5000012283F842207B68012283F843207B688D
:104C6000012283F83D20002318460837BD4680BD49
:104C700080B586B000AF786039607B68002B01D1C9
:104C8000012393E07B6893F83D30DBB2002B06D123
:104C90007B68002283F83C207868FDF7C3F97B68C5
:104CA000022283F83D207B681B689B687A68126843
:104CB00023F4804323F0070393607B681A687B68C2
:104CC00004331946104600F017FA7B681B689B688E
:104CD0007B617B681B689B693B617B681B681B6A07
:104CE000FB603B681B687A6913437B613B6923F473
:104CF000407323F003033B613B689A683B689B6900
:104D00001B0213433A6913433B613B6923F440633D
:104D100023F00C033B613B6923F4704323F0F00361
:104D20003B613B68DA683B68DB691B0213433A6905
:104D300013433B613B681B691A013B681B6A1B03F9
:104D400013433A6913433B61FB6823F02203FB6082
:104D50003B685A683B685B691B011343FA6813435D
:104D6000FB607B681B687A699A607B681B683A699C
:104D70009A617B681B68FA681A627B68012283F873
:104D800046207B68012283F83E207B68012283F85D
:104D90003F207B68012283F842207B68012283F850
:104DA00043207B68012283F83D20002318461837F2
:104DB000BD4680BD80B584B000AF786039607B6847
:104DC00093F83E30FB737B6893F83F30BB737B688E
:104DD00093F842307B737B6893F843303B733B68B6
:104DE000002B10D1FB7B012B02D17B7B012B01D04F
:104DF000012369E07B68022283F83E207B6802225F
:104E000083F8422031E03B68042B10D1BB7B012B9F
:104E100002D13B7B012B01D0012355E07B680222AC
:104E200083F83F207B68022283F843201DE0FB7B50
:104E3000012B08D1BB7B012B05D17B7B012B02D140
:104E40003B7B012B01D001233EE07B68022283F8EB
:104E50003E207B68022283F83F207B68022283F891
:104E600042207B68022283F843203B68002B03D05A
:104E70003B68042B08D00FE07B681B6801220021EF
:104E8000184600F0A7F916E07B681B680122042190
:104E9000184600F09FF90EE07B681B680122002194
:104EA000184600F097F97B681B6801220421184618
:104EB00000F090F900BF7B681B681A687B681B686C
:104EC00042F001021A60002318461037BD4680BD2B
:104ED00080B584B000AF78607B681B68DB68FB60DE
:104EE0007B681B681B69BB60BB6803F00203002B77
:104EF00020D0FB6803F00203002B1BD07B681B68EB
:104F00006FF002021A617B6801221A777B681B68C6
:104F10009B6903F00303002B03D0786800F0D1F8FD
:104F200005E0786800F0C4F8786800F0D3F87B6892
:104F300000221A77BB6803F00403002B20D0FB6823
:104F400003F00403002B1BD07B681B686FF0040286
:104F50001A617B6802221A777B681B689B6903F4DD
:104F60004073002B03D0786800F0ABF805E0786858
:104F700000F09EF8786800F0ADF87B6800221A77A0
:104F8000BB6803F00803002B20D0FB6803F0080384
:104F9000002B1BD07B681B686FF008021A617B68CE
:104FA00004221A777B681B68DB6903F00303002B7C
:104FB00003D0786800F085F805E0786800F078F8AC
:104FC000786800F087F87B6800221A77BB6803F0E6
:104FD0001003002B20D0FB6803F01003002B1BD024
:104FE0007B681B686FF010021A617B6808221A77D1
:104FF0007B681B68DB6903F44073002B03D078687F
:1050000000F05FF805E0786800F052F8786800F08A
:1050100061F87B6800221A77BB6803F00103002B5C
:105020000CD0FB6803F00103002B07D07B681B68E2
:105030006FF001021A617868FCF790FABB6803F020
:105040008003002B0CD0FB6803F08003002B07D0FB
:105050007B681B686FF080021A61786800F045F980
:10506000BB6803F04003002B0CD0FB6803F0400347
:10507000002B07D07B681B686FF040021A617868CC
:1050800000F031F8BB6803F02003002B0CD0FB6864
:1050900003F02003002B07D07B681B686FF0200211
:1050A0001A61786800F018F900BF1037BD4680BD5E
:1050B00080B483B000AF786000BF0C37BD4680BCC1
:1050C000704780B483B000AF786000BF0C37BD4636
:1050D00080BC704780B483B000AF786000BF0C37ED
:1050E000BD4680BC704780B483B000AF786000BF1D
:1050F0000C37BD4680BC704780B485B000AF786087
:1051000039607B681B68FB607B682F4A93420BD039
:105110007B68B3F1804F07D07B682C4A934203D061
:105120007B682B4A934208D1FB6823F07003FB6035
:105130003B685B68FA681343FB607B68224A9342D2
:105140000BD07B68B3F1804F07D07B681F4A934236
:1051500003D07B681E4A934208D1FB6823F4407356
:10516000FB603B68DB68FA681343FB60FB6823F075
:1051700080023B685B691343FB607B68FA681A60D6
:105180003B689A687B68DA623B681A687B689A6257
:105190007B680D4A934203D13B681A697B681A63A6
:1051A0007B6801225A617B681B6903F00103002BB5
:1051B00005D07B681B6923F001027B681A6100BF80
:1051C0001437BD4680BC7047002C014000040040ED
:1051D0000008004080B487B000AFF860B9607A6022
:1051E000BB6803F01F03012202FA03F37B61FB6833
:1051F0001A6A7B69DB431A40FB681A62FB681A6A09
:10520000BB6803F01F03796801FA03F31A43FB68D4
:105210001A6200BF1C37BD4680BC704780B485B0A1
:1052200000AF786039607B6893F83C30012B01D186
:10523000022346E07B68012283F83C207B6802223F
:1052400083F83D207B681B685B68FB607B681B689C
:105250009B68BB60FB6823F07003FB603B681B68C6
:10526000FA681343FB607B681B68FA685A607B68C6
:105270001B68164A93420ED07B681B68B3F1804FBF
:1052800009D07B681B68124A934204D07B681B6874
:10529000104A93420CD1BB6823F08003BB603B688B
:1052A0005B68BA681343BB607B681B68BA689A6026
:1052B0007B68012283F83D207B68002283F83C2034
:1052C000002318461437BD4680BC7047002C0140AF
:1052D000000400400008004080B483B000AF786054
:1052E00000BF0C37BD4680BC704780B483B000AFB0
:1052F000786000BF0C37BD4680BC704780B582B077
:1053000000AF78607B68002B01D1012342E07B680D
:1053100093F84130DBB2002B06D17B68002283F882
:1053200040207868FCF70CFF7B68242283F841203A
:105330007B681B68DA687B681B6822F40052DA60BD
:10534000786800F063FD7B681B681A697B681B68DE
:1053500022F490421A617B681B685A697B681B685B
:1053600022F02A025A617B681B68DA687B681B6836
:1053700042F40052DA607B6800225A647B68202283
:1053800083F841207B68202283F842207B6800223A
:105390005A63002318460837BD4680BD80B58AB0E1
:1053A00002AFF860B9603B601346FB8000237B616D
:1053B000FB6893F84130DBB2202B75D1BB68002B22
:1053C00002D0FB88002B01D101236EE0FB68002294
:1053D0005A64FB68212283F84120FDF7E5FE7861DD
:1053E000FB68FA889A84FB68FA88DA84FB689B6811
:1053F000B3F5805F08D1FB681B69002B04D1002343
:10540000FB61BB68BB6103E0BB68FB610023BB6160
:105410002EE03B6800937B6900228021F86800F051
:1054200001FB0346002B05D0FB68202283F84120B6
:1054300003233AE0FB69002B0BD1BB691B881A469A
:10544000FB681B68C2F308025A60BB690233BB6188
:1054500007E0FB691A78FB681B685A60FB69013337
:10546000FB61FB68DB8C9BB2013B9AB2FB68DA8480
:10547000FB68DB8C9BB2002BCBD13B6800937B6934
:1054800000224021F86800F0CDFA0346002B05D039
:10549000FB68202283F84120032306E0FB682022DA
:1054A00083F84120002300E0022318462037BD4640
:1054B00080BD000080B5BAB000AF78607B681B6823
:1054C0001B68C7F8E4307B681B68DB68C7F8E0300E
:1054D0007B681B685B69C7F8DC300023C7F8D830ED
:1054E0000023C7F8D430D7F8E43003F00F03C7F82F
:1054F000D830D7F8D830002B0FD1D7F8E43003F0EC
:105500002003002B09D0D7F8E03003F02003002B54
:1055100003D0786800F0BCFB5BE2D7F8D830002BF2
:1055200000F0DE80D7F8DC3003F00103002B06D159
:10553000D7F8E03003F49073002B00F0D180D7F857
:10554000E43003F00103002B0BD0D7F8E03003F474
:105550008073002B05D07B685B6C43F001027B6895
:105560005A64D7F8E43003F00403002B0BD0D7F8CB
:10557000DC3003F00103002B05D07B685B6C43F04B
:1055800002027B685A64D7F8E43003F00203002B70
:105590000BD0D7F8DC3003F00103002B05D07B687B
:1055A0005B6C43F004027B685A64D7F8E43003F084
:1055B0000803002B11D0D7F8E03003F02003002BB4
:1055C00005D1D7F8DC3003F00103002B05D07B6850
:1055D0005B6C43F008027B685A647B685B6C002B51
:1055E00000F0F281D7F8E43003F02003002B08D05C
:1055F000D7F8E03003F02003002B02D0786800F0E9
:1056000047FB7B681B685B6903F04003002B14BFFA
:1056100001230023DBB2C7F8D4307B685B6C03F056
:105620000803002B03D1D7F8D430002B4FD0786873
:1056300000F051FA7B681B685B6903F04003002BA4
:1056400041D07B681B681433C7F89C30D7F89C3076
:1056500053E8003FC7F89830D7F8983023F040035C
:10566000C7F8D0307B681B681433D7F8D020C7F850
:10567000A820C7F8A430D7F8A410D7F8A82041E88C
:105680000023C7F8A030D7F8A030002BD9D17B6811
:10569000DB6B002B13D07B68DB6B7E4A5A637B6825
:1056A000DB6B1846FDF7FCFE0346002B16D07B682B
:1056B000DB6B5B6B7A68D26B104698470EE07868BC
:1056C00000F09CF90AE0786800F098F906E0786844
:1056D00000F094F97B6800225A6475E100BF73E121
:1056E0007B681B6B012B40F04F81D7F8E43003F04F
:1056F0001003002B00F04881D7F8E03003F01003CE
:10570000002B00F041810023BB607B681B681B6895
:10571000BB607B681B685B68BB60BB687B681B68A1
:105720005B6903F04003002B00F0B6807B68DB6B05
:105730001B685B68A7F8BE30B7F8BE30002B00F0DE
:1057400045817B689B8DB7F8BE209A4280F03E81F0
:105750007B68B7F8BE20DA857B68DB6B9B69202B02
:1057600000F088807B681B680C33C7F88830D7F856
:10577000883053E8003FC7F88430D7F8843023F4EA
:105780008073C7F8B8307B681B680C33D7F8B82033
:10579000C7F89420C7F89030D7F89010D7F8942025
:1057A00041E80023C7F88C30D7F88C30002BD9D1D2
:1057B0007B681B6814337B677B6F53E8003F3B6754
:1057C0003B6F23F00103C7F8B4307B681B681433C8
:1057D000D7F8B420C7F88020FB67F96FD7F880208E
:1057E00041E80023BB67BB6F002BE1D17B681B68DE
:1057F00014333B663B6E53E8003FFB65FB6D23F0C3
:105800004003C7F8B0307B681B681433D7F8B0206A
:10581000FA66BB66B96EFA6E41E800237B667B6E62
:10582000002BE3D17B68202283F842207B68002292
:105830001A637B681B680C33FB64FB6C53E8003F06
:10584000BB64BB6C23F01003C7F8AC307B681B68EB
:105850000C33D7F8AC20BA657B65796DBA6D41E839
:1058600000233B653B6D002BE3D17B68DB6B184667
:10587000FDF7DBFD7B6802225A637B689A8D7B68AB
:10588000DB8D9BB2D31A9BB21946786800F0BFF843
:105890009CE000BF9B5B00087B689A8D7B68DB8D7A
:1058A0009BB2D31AA7F8CE307B68DB8D9BB2002B5E
:1058B00000F08E80B7F8CE30002B00F089807B6836
:1058C0001B680C33BB63BB6B53E8003F7B637B6B94
:1058D00023F49073C7F8C8307B681B680C33D7F883
:1058E000C8207A643B64396C7A6C41E80023FB631E
:1058F000FB6B002BE3D17B681B6814337B627B6AF4
:1059000053E8003F3B623B6A23F00103C7F8C43011
:105910007B681B681433D7F8C4203A63FB62F96ACA
:105920003A6B41E80023BB62BB6A002BE3D17B6882
:10593000202283F842207B6800221A637B681B6860
:105940000C333B613B6953E8003FFB60FB6823F08D
:105950001003C7F8C0307B681B680C33D7F8C02031
:10596000FA61BB61B969FA6941E800237B617B692F
:10597000002BE3D17B6802225A63B7F8CE30194678
:10598000786800F044F823E0D7F8E43003F08003AF
:10599000002B09D0D7F8E03003F08003002B03D0B0
:1059A000786800F00EF914E0D7F8E43003F0400313
:1059B000002B0ED0D7F8E03003F04003002B08D0C6
:1059C000786800F04DF904E000BF02E000BF00E09D
:1059D00000BFE837BD4680BD80B483B000AF7860BB
:1059E00000BF0C37BD4680BC704780B483B000AFA9
:1059F000786000BF0C37BD4680BC704780B483B070
:105A000000AF786000BF0C37BD4680BC704780B4E3
:105A100083B000AF78600B467B8000BF0C37BD467B
:105A200080BC704780B586B000AFF860B9603B605D
:105A30001346FB713BE03B6AB3F1FF3F37D0FDF704
:105A4000B3FB02463B68D31A3A6A9A4202D33B6AD6
:105A5000002B01D103233AE0FB681B68DB6803F0ED
:105A60000403002B23D0BB68802B20D0BB68402BC5
:105A70001DD0FB681B681B6803F00803082B16D1B8
:105A800000237B61FB681B681B687B61FB681B68EC
:105A90005B687B617B69F86800F01DF8FB68082291
:105AA0005A64FB68002283F8402001230FE0FB6862
:105AB0001B681A68BB681340BA689A420CBF01237E
:105AC0000023DBB21A46FB799A42B4D00023184671
:105AD0001837BD4680BD80B495B000AF78607B6854
