:020000040800F2
:100000000050002019360008552600085D2600081B
:10001000652600086D26000875260008000000000F
:100020000000000000000000000000007D26000825
:10003000892600080000000095260008A126000877
:100040006136000861360008613600086136000834
:100050006136000861360008613600086136000824
:100060006136000861360008B126000861360008D4
:100070006136000861360008613600086136000804
:1000800061360008613600086136000861360008F4
:10009000613600086136000861360008BF26000896
:1000A00061360008613600086136000861360008D4
:1000B0006136000861360008CD2600086136000868
:1000C00061360008613600086136000861360008B4
:1000D0006136000861360008E12600086136000834
:1000E0006136000861360008613600080000000033
:1000F0000000000000000000000000000000000000
:0C01000000000000000000005FF808F1A3
:10010C0010B5054C237833B9044B13B10448AFF345
:10011C0000800123237010BD50010020000000005E
:10012C00BC79000808B5034B1BB103490348AFF376
:10013C00008008BD0000000054010020BC790008BC
:10014C00034613F8012B002AFBD1181A013870470B
:10015C0080F0004002E000BF81F0004142001FBF70
:10016C005FEA410392EA030F7FEA226C7FEA236C79
:10017C006AD04FEA1262D2EB1363C1BFD21841406E
:10018C0048404140B8BF5B42192B88BF704710F004
:10019C00004F40F4000020F07F4018BF404211F0A7
:1001AC00004F41F4000121F07F4118BF494292EA0F
:1001BC00030F3FD0A2F1010241FA03FC10EB0C003B
:1001CC00C3F1200301FA03F100F0004302D54942C8
:1001DC0060EB4000B0F5000F13D3B0F1807F06D375
:1001EC0040084FEA310102F10102FE2A51D2B1F16D
:1001FC00004F40EBC25008BF20F0010040EA030062
:10020C007047490040EB0000013A28BFB0F5000FE1
:10021C00EDD2B0FA80FCACF1080CB2EB0C0200FA97
:10022C000CF0AABF00EBC25052421843BCBFD040E6
:10023C001843704792F0000F81F4000106BF80F460
:10024C0000000132013BB5E74FEA41037FEA226C23
:10025C0018BF7FEA236C21D092EA030F04D092F0EE
:10026C00000F08BF0846704790EA010F1CBF002022
:10027C00704712F07F4F04D1400028BF40F000407F
:10028C00704712F100723CBF00F50000704700F09F
:10029C00004343F0FE4040F4000070477FEA2262C6
:1002AC0016BF08467FEA23630146420206BF5FEA97
:1002BC00412390EA010F40F4800070474FF0000397
:1002CC0004E000BF10F0004348BF40425FEA000C5E
:1002DC0008BF704743F0964301464FF000001CE006
:1002EC0050EA010208BF70474FF000030AE000BF5C
:1002FC0050EA010208BF704711F0004302D540429A
:10030C0061EB41015FEA010C02BF8446014600200B
:10031C0043F0B64308BFA3F18053A3F50003BCFA26
:10032C008CF2083AA3EBC25310DB01FA02FC6344D3
:10033C0000FA02FCC2F12002BCF1004F20FA02F2DA
:10034C0043EB020008BF20F00100704702F12002CD
:10035C0001FA02FCC2F1200250EA4C0021FA02F22E
:10036C0043EB020008BF20EADC7070474FF0FF0C33
:10037C001CEAD0521EBF1CEAD15392EA0C0F93EA2E
:10038C000C0F6FD01A4480EA010C400218BF5FEAD0
:10039C0041211ED04FF0006343EA501043EA511143
:1003AC00A0FB01310CF00040B1F5000F3EBF49003D
:1003BC0041EAD3715B0040EA010062F17F02FD2A41
:1003CC001DD8B3F1004F40EBC25008BF20F0010024
:1003DC00704790F0000F0CF0004C08BF49024CEA3B
:1003EC00502040EA51207F3AC2BFD2F1FF0340EACD
:1003FC00C250704740F400004FF00003013A5DDC3E
:10040C0012F1190FDCBF00F000407047C2F100027E
:10041C00410021FA02F1C2F1200200FA02FC5FEA6B
:10042C00310040F1000053EA4C0308BF20EADC70B5
:10043C00704792F0000F00F0004C02BF400010F427
:10044C00000F013AF9D040EA0C0093F0000F01F0D4
:10045C00004C02BF490011F4000F013BF9D041EAF6
:10046C000C018FE70CEAD15392EA0C0F18BF93EAF8
:10047C000C0F0AD030F0004C18BF31F0004CD8D122
:10048C0080EA010000F00040704790F0000F17BFA9
:10049C0090F0004F084691F0000F91F0004F14D0EF
:1004AC0092EA0C0F01D142020FD193EA0C0F03D147
:1004BC004B0218BF084608D180EA010000F000404A
:1004CC0040F0FE4040F40000704740F0FE4040F425
:1004DC00400070474FF0FF0C1CEAD0521EBF1CEAC4
:1004EC00D15392EA0C0F93EA0C0F69D0A2EB0302E2
:1004FC0080EA010C49024FEA402037D04FF080537C
:10050C0043EA111143EA10130CF000408B4238BF40
:10051C005B0042F17D024FF4000C8B4224BF5B1A4E
:10052C0040EA0C00B3EB510F24BFA3EB510340EA9C
:10053C005C00B3EB910F24BFA3EB910340EA9C004A
:10054C00B3EBD10F24BFA3EBD10340EADC001B01BA
:10055C0018BF5FEA1C1CE0D1FD2A3FF650AF8B425E
:10056C0040EBC25008BF20F0010070470CF0004C6B
:10057C004CEA50207F32C2BFD2F1FF0340EAC25096
:10058C00704740F400004FF00003013A37E792F057
:10059C00000F00F0004C02BF400010F4000F013AB5
:1005AC00F9D040EA0C0093F0000F01F0004C02BFB0
:1005BC00490011F4000F013BF9D041EA0C0195E719
:1005CC000CEAD15392EA0C0F08D142027FF47DAFB2
:1005DC0093EA0C0F7FF470AF084676E793EA0C0FA2
:1005EC0004D14B023FF44CAF08466EE730F0004CA0
:1005FC0018BF31F0004CCAD130F000427FF45CAF30
:10060C0031F000437FF43CAF5FE700BF42000ED2F5
:10061C00B2F1FE4F0BD34FF09E03B3EB126209D431
:10062C004FEA002343F0004323FA02F070474FF0E7
:10063C000000704712F1610F01D1420202D14FF05C
:10064C00FF3070474FF00000704700BF80B584B09A
:10065C0000AF03460A46FB711346BB7103F054F816
:10066C00F860FA793B4913469B0013449B000B44FA
:10067C000C331B68FA68D31A1D2B67D9FA793549E4
:10068C0013469B0013449B000B440C33FA681A600E
:10069C00FA79304913469B0013449B000B441B789A
:1006AC00DBB2002B0DD0BB79002B0AD0FA7929498B
:1006BC0013469B0013449B000B440433FA681A60E6
:1006CC0045E0FA79234913469B0013449B000B44E5
:1006DC001B78DBB283F00103DBB2002B16D0BB79A5
:1006EC00002B13D0FA791B4913469B0013449B0033
:1006FC000B4401221A70FA79164913469B001344D5
:10070C009B000B440433FA681A6020E0FA79114913
:10071C0013469B0013449B000B441B78DBB2002B4D
:10072C0015D0FA790B4913469B0013449B000B44DC
:10073C00013301221A70FA79064913469B001344BF
:10074C009B000B440833FA681A6000E000BF1037B6
:10075C00BD4680BD6C01002080B586B000AF002383
:10076C007B6183E00023FB740023FB600023BB60F0
:10077C0072B600BF42497A6913469B0013449B0032
:10078C000B4401331B78DBB2002B28D00123FB7404
:10079C003B497A6913469B0013449B000B4401337D
:1007AC0000221A7036497A6913469B0013449B0049
:1007BC000B4400221A7032497A6913469B00134489
:1007CC009B000B4404331B68FB602D497A6913466C
:1007DC009B0013449B000B4408331B68BB6062B640
:1007EC0000BFFB7C002B3ED0BA68FB68D31A7B6041
:1007FC007B68B3F5FA7F17D321497A6913469B00BE
:10080C0013449B000B44103302221A707B69013392
:10081C007A6819461B4805F065FF7B69002B1BD0D5
:10082C007B69012B1AD01EE015497A6913469B008F
:10083C0013449B000B44103301221A707B69013363
:10084C007A681946104805F04DFF7B69002B07D0DC
:10085C007B69012B06D006E000BF04E000BF02E07C
:10086C0000BF00E000BF7B6901337B617B69012B1A
:10087C007FF778AF00BF00BF1837BD4680BD00BF03
:10088C006C010020D4790008F879000880B485B098
:10089C0000AF0346FB71FA790C4913469B001344D5
:1008AC009B000B4410331B78FB73FA7907491346F2
:1008BC009B0013449B000B44103300221A70FB7BEB
:1008CC0018461437BD4680BC704700BF6C01002031
:1008DC0080B500AF01F040FA0D4B5B780133DAB212
:1008EC000C4B1A700A4B1B781A46802393FBF2F3BD
:1008FC00DAB2094B1A70064B5B781A46402393FB0D
:10090C00F2F3DBB2013BDAB2044B1A7000BF80BDCC
:10091C00A8840008150200201602002017020020EF
:10092C0080B582B002AF012300930E2380220021F8
:10093C00002001F049FC002300930B237D220321AE
:10094C00022001F041FC0421042001F0B9FB384BDA
:10095C00012200920ECB374801F08CFB344B5B78B4
:10096C005B00DAB2344B1A701421032001F0A8FB9F
:10097C002F4B012200920ECB304801F07BFB2C4B0D
:10098C005B781A462A4B1B782D492E4805F050FFF0
:10099C00274B5B781A4652001344DBB20133DAB2B0
:1009AC00254B1A701D21032001F08AFB204B0122DC
:1009BC0000920ECB234801F05DFB234B1B781A46AB
:1009CC002249204805F034FF194B5B789B00DBB2C1
:1009DC000233DAB2184B1A702621032001F070FB97
:1009EC00134B012200920ECB164801F043FB184B1F
:1009FC001B781A461749134805F01AFF0C4B5B7805
:100A0C001A4692001344DBB20333DAB20A4B1A7063
:100A1C002F21032001F054FB054B012200920ECB39
:100A2C00084801F027FB01F019FA00BFBD4680BD54
:100A3C00A884000800000020140200201C7A000882
:100A4C00307A00089401002016020020447A000835
:100A5C00170200205C7A000880B582B000AF034614
:100A6C00FB71FB79184601F0E1F901F0F7F900BFD1
:100A7C000837BD4680BD000080B582B002AF0020B3
:100A8C00FFF7EAFF0F4B59780E4B5B78012200926F
:100A9C008022002001F02CFB0023012200210A48B7
:100AAC0000F07CF8002301220B21084800F076F8B6
:100ABC00012301220D21064800F070F800BFBD464D
:100ACC0080BD00BFA8840008747A0008807A0008F2
:100ADC00847A000880B586B002AF7860084611466B
:100AEC001A460346FB700B46BB7013467B70274BB4
:100AFC001B78BA7802FB03F3BB737868FFF720FB13
:100B0C000346DAB2BB781344FB737B68002B04D02A
:100B1C001F4B1B78FA7B9A4202D94FF0FF3331E01E
:100B2C001C4B1B78FA789A4203D31A4B1B78013B67
:100B3C00FB70194B1B78FA7802FB03F3DBB2023320
:100B4C00DAB2BB7B1146184601F0BAFA0F4B7A7831
:100B5C0000920ECB786801F08DFA3B7E002B0ED004
:100B6C0006E00A4B7A7800920ECB202001F0F0F9C7
:100B7C00FB7B5A1CFA73064A12789342F1D301F0AC
:100B8C006DF9002318461037BD4680BDA8840008B7
:100B9C0016020020170200201502002080B586B036
:100BAC0002AF7860084611461A460346FB700B46A6
:100BBC00BB7013467B707868FFF7C2FA0346DAB253
:100BCC00FB781344FB73154B1B78FA7802FB03F389
:100BDC00DBB20021184601F073FA104BBA78009280
:100BEC000ECB786801F046FA7B78002B0ED006E02D
:100BFC000A4BBA7800920ECB202001F0A9F9FB7BAE
:100C0C005A1CFA73064A12789342F1D301F026F972
:100C1C00002318461037BD4680BD00BFA8840008CD
:100C2C001602002090B583B000AF0446084611466A
:100C3C001A462346FB710346BB710B467B71134668
:100C4C003B717B79002B02D07B79102B01D90123CE
:100C5C007B717B79013B7B7197F9073023F00F0394
:100C6C005AB297F9053003F00F035BB213435BB232
:100C7C00DAB20F4B1A70BB7903F07F03DAB20C4B6C
:100C8C005A703B7903F07F03DAB2094B9A706423F4
:100C9C0003220749074804F031FE64230322044968
:100CAC00054804F02BFE00BF0C37BD4690BD00BFBD
:100CBC00D8030020440300208C03002080B582B0B0
:100CCC0000AF0346FB710B46BB7113467B717B79FE
:100CDC00BA79F9799020FFF7A5FF00BF0837BD4618
:100CEC0080BD80B582B000AF0346FB710B46BB7173
:100CFC0013467B717B79BA79F9798020FFF792FFE3
:100D0C0000BF0837BD4680BD80B582B000AF03463A
:100D1C000A46FB801346BB8005F0E4FB0246B9880B
:100D2C00FB88CB1A013392FBF3F101FB03F3D31ACB
:100D3C009AB2FB8813449BB218460837BD4680BD57
:100D4C0080B400AF1D4B1B889BB219461C4B187806
:100D5C001C4A0B465B000B44134402461A70174B9B
:100D6C001B889BB21946164B5878164A0B465B00EB
:100D7C000B441344013302461A70104B1B889BB270
:100D8C0019460F4B98780F4A0B465B000B441344E3
:100D9C00023302461A70094B1B889BB201339AB27C
:100DAC00064B1A80054B1B889BB21F2B02D9034B99
:100DBC0000221A8000BFBD4680BC7047C8040020CA
:100DCC00D80300206804002090B583B002AF344BE8
:100DDC001B889AB2334B1B889BB29A425CD0304B27
:100DEC001B889BB21946304A0B465B000B441344DC
:100DFC0018782B4B1B889BB219462B4A0B465B0071
:100E0C000B44134401331978254B1B889BB21C46A9
:100E1C00254A23465B002344134402331B781A46AD
:100E2C0000F080FD214B197801230093012300224F
:100E3C00FFF750FE1D4B1B780133DAB21B4B1A70B7
:100E4C001A4B1B78062B02D9184B01221A70174B20
:100E5C001B781A46D2001344DBB20B33D9B2134BB6
:100E6C001B781A46D2001344DBB21333DBB20022D8
:100E7C0000928022002001F0A7F9094B1B889BB23D
:100E8C0001339AB2064B1A80054B1B889BB21F2B61
:100E9C0002D9034B00221A8000BF0437BD4690BD17
:100EAC00CA040020C804002068040020120000209E
:100EBC00B0B586B004AF02F0CFFB00F0FFF800F045
:100ECC00A7FA00F041F900F04FFA00F077FA00F0C1
:100EDC0069F900F0BBF900F00DFAFFF7F9FCFFF728
:100EEC001FFD4FF47A7002F019FCFFF7C5FD3C2191
:100EFC00634804F00FFA3C21624804F00BFA624B91
:100F0C001B686FF001021A6100F06AFE01F0D6FD59
:100F1C005E4B00225A715E4BB3F91430DAB25B4B64
:100F2C00DA705C4B1A78594B1A705A4B1A78574B2B
:100F3C005A70584B1A78554B9A70574805F03AFC32
:100F4C0002F0E2FB0346184605F09EFA4E4804F008
:100F5C006FF84F4BDB88D8B24D4B9B88DB004F4A68
:100F6C0099184B4B9B881A464D4B9A5C484B1B8AE5
:100F7C00DCB2474B5B8ADBB280250295454D01956F
:100F8C000093234600F092FD03469AB2454B1A801B
:100F9C00444B1B881946444805F0A4FB0023FB7105
:100FAC0009E0FB793B4AD35C1946404805F09AFBB3
:100FBC00FB790133FB71FB799AB23A4B1B889A424D
:100FCC00EFD33B4805F0F6FB02F09EFB38600023A4
:100FDC00BB714DE0BA79374913465B0013449B0053
:100FEC000B4408331B78002B3FD0BA793149134698
:100FFC005B0013449B000B4404331B683A68D11A02
:10100C00BA792C4813465B0013449B00034402330B
:10101C001B781A46284B33F81230994225D972B6F0
:10102C0000BFBA79234913465B0013449B000B4461
:10103C001B88D8B2BA791F4913465B0013449B0036
:10104C000B4402331B7800221946FFF74AFEBA798B
:10105C00184913465B0013449B000B4408330022D1
:10106C001A70FFF76DFE62B600BFBB790133BB711E
:10107C0097F90630002BADDAFFF7A6FEA4E700BF08
:10108C006C020020B4020020FC020020600400204E
:10109C00D0000020DC030020887A0008A07D000826
:1010AC00907D00085C0400209C7A0008B47A00084B
:1010BC00BC7A0008CC040020707D000880B590B08C
:1010CC0000AF07F1180328220021184605F0AAFCEE
:1010DC003B1D00221A605A609A60DA601A61012383
:1010EC00BB614FF48033FB6100233B620123BB6285
:1010FC0002237B634FF48033BB634FF4E013FB6339
:10110C0007F11803184603F083FB0346002B01D0AC
:10111C0000F002FC0F237B600223BB600023FB600A
:10112C004FF480633B6100237B613B1D0221184619
:10113C0003F0F0FD0346002B01D000F0EDFB00BFE7
:10114C004037BD4680BD000080B500AF124B134A3E
:10115C001A60114B124A5A600F4B00229A600E4BC8
:10116C000022DA600C4B4FF480421A610A4B0022C9
:10117C005A61094B00229A61074B0022DA61064B37
:10118C0000221A62044802F097FE0346002B01D09D
:10119C0000F0C2FB00BF80BD1802002000540040CC
:1011AC00A086010080B58CB000AF07F10C0324229F
:1011BC000021184605F036FC3B1D00221A605A60CF
:1011CC00214B4FF080421A601F4B00225A601E4B7D
:1011DC0000229A601C4B4FF6FF72DA601A4B002209
:1011EC001A61194B00229A610323FB6002233B61B5
:1011FC0001237B610023BB610423FB6102233B625F
:10120C0001237B620023BB620423FB6207F10C0306
:10121C0019460D4803F0DCFF0346002B01D000F00B
:10122C007BFB00237B600023BB603B1D19460648FB
:10123C0004F0A4FA0346002B01D000F06DFB00BFB4
:10124C003037BD4680BD00BF6C02002080B58CB02D
:10125C0000AF07F10C0324220021184605F0E2FB35
:10126C003B1D00221A605A60204B214A1A601F4B0A
:10127C0000225A601D4B00229A601C4B4FF6FF72E5
:10128C00DA601A4B00221A61184B00229A61032370
:10129C00FB6002233B6101237B610023BB610423C0
:1012AC00FB6102233B6201237B620023BB620423AC
:1012BC00FB6207F10C0319460C4803F089FF034647
:1012CC00002B01D000F028FB00237B600023BB60C7
:1012DC003B1D1946054804F051FA0346002B01D07A
:1012EC0000F01AFB00BF3037BD4680BDB4020020B1
:1012FC000004004080B582B000AF3B4600221A606B
:10130C005A60174B174A1A60154B48F69F425A60A1
:10131C00134B00229A60124B40F2E732DA60104B0A
:10132C0000221A610E4B00229A6108210C4803F02E
:10133C00FFFE0346002B01D000F0EEFA00233B60C9
:10134C0000237B603B461946054804F017FA034618
:10135C00002B01D000F0E0FA00BF0837BD4680BD7D
:10136C00FC0200200008004080B500AF114B124A6F
:10137C001A60104B47F612225A600E4B00229A60EC
:10138C000C4B0022DA600B4B00221A61094B0C2229
:10139C005A61084B00229A61064B0022DA6105481B
:1013AC0004F05CFA0346002B01D000F0B5FA00BF44
:1013BC0080BD00BF440300200038014080B500AF61
:1013CC00114B124A1A60104B4FF4E1325A600E4B1B
:1013DC0000229A600C4B0022DA600B4B00221A613F
:1013EC00094B0C225A61084B00229A61064B0022D1
:1013FC00DA61054804F032FA0346002B01D000F004
:10140C008BFA00BF80BD00BF8C030020004400405D
:10141C0080B588B000AF07F1100300221A605A6043
:10142C009A60DA60324B9B69314A43F01003936146
:10143C002F4B9B6903F01003FB60FB682C4B9B69E3
:10144C002B4A43F020039361294B9B6903F0200343
:10145C00BB60BB68264B9B69254A43F00403936130
:10146C00234B9B6903F004037B607B68204B9B69D7
:10147C001F4A43F0080393611D4B9B6903F008035B
:10148C003B603B6801224FF400511A4802F0CBFC40
:10149C004FF400533B6101237B610023BB610223AA
:1014AC00FB6107F110031946124802F021FB3023AF
:1014BC003B61114B7B610123BB6107F110031946A2
:1014CC000E4802F015FB002200210A2002F021FA3E
:1014DC000A2002F03AFA00220021172002F019FA31
:1014EC00172002F032FA00BF2037BD4680BD00BF86
:1014FC0000100240001001400000311000080140B3
:10150C0080B500AF044B1B680133034A136000F035
:10151C00A7FB00BF80BD00BFD403002080B582B004
:10152C0000AF7860391D4FF0FF330122034804F0FF
:10153C00E5F97B6818460837BD4680BD8C03002052
:10154C00B0B586B000AF78607B681B68914A934257
:10155C0040F0D481786803F0BDFD8F4B1B680022EE
:10156C005A628E4B1B88002B00F0C8818A4803F00E
:10157C005FFD8A4B1C89894B1B891846FEF7A2FE1E
:10158C000546864BDB684FF07E511846FEF7E6FDAC
:10159C00034619462846FEF7E9FE03461846FFF7B0
:1015AC0035F803469BB219462046FFF7ADFB0346C0
:1015BC001A46794B1B68DA62784B1C89774B1B896E
:1015CC001846FEF77FFE0546744BDB684FF07E51E4
:1015DC001846FEF7C3FD034619462846FEF7C6FE1D
:1015EC0003461846FFF712F803469BB219462046ED
:1015FC00FFF78AFB03461A46674BDA600023FB753C
:10160C000EE0FB7D664AD35C654AD178644A127958
:10161C001846FFF753FBFFF793FBFB7D0133FB757C
:10162C005F4B5B79FA7D9A42EBD302F06DF838612F
:10163C0000BF5C4B1B88013B9BB219460020FFF797
:10164C0063FB0346FB81FB89574AD25C544B1A70EF
:10165C00534B1A78554B1B789A42EAD0504B1A7858
:10166C00524B1A704D4BB3F914309BB24B4AB2F932
:10167C00162092B211461846FFF746FB0346DAB223
:10168C00474BDA70464B01225A71454BDB78032BE2
:10169C0008D13C211420FFF737FB0346DAB2404B4C
:1016AC001A7107E064211420FFF72EFB0346DAB20F
:1016BC003B4B1A713A4BDB781A463D4B33F81230E0
:1016CC00002B44D00023BB753DE0BA7D394913464D
:1016DC005B0013449B000B4408331B7883F001031D
:1016EC00DBB2002B2CD02E4B1B78BA7D184631491F
:1016FC0013465B0013449B000B4402461A80BA7DD0
:10170C00274BD8782B4913465B0013449B000B44A2
:10171C00023302461A70BA7D264913465B00134405
:10172C009B000B4404333A691A60BA7D2149134675
:10173C005B0013449B000B44083301221A7006E033
:10174C00BB7D0133BB7597F91630002BBDDA134BFB
:10175C005B88002B00F0D280124B1B889A1EFB89F1
:10176C009A426BDDFB8902330F4AD25C0C4B5A70E8
:10177C000B4B5B790133DAB2094B5A71084BDB78AE
:10178C001A460B4B33F81230002B57D000237B75C5
:10179C0050E000BF00080040FC020020D0000020F8
:1017AC00600400205C040020DC030020CC0A002034
:1017BC00707D0008CC0400207A7D524913465B00F2
:1017CC0013449B000B4408331B7883F00103DBB2FA
:1017DC00002B2CD04C4B5B787A7D1846494913462C
:1017EC005B0013449B000B4402461A807A7D464BE7
:1017FC00D878444913465B0013449B000B440233D6
:10180C0002461A707A7D3F4913465B0013449B00D5
:10181C000B4404333A691A607A7D3A4913465B00EB
:10182C0013449B000B44083301221A7006E07B7DA5
:10183C0001337B7597F91530002BBDDA334B1B88C0
:10184C001A1FFB899A4259DDFB890433304AD25C5A
:10185C002D4B9A702C4B5B790133DAB22A4B5A71AF
:10186C00294BDB781A462B4B33F81230002B45D022
:10187C0000233B753EE03A7D224913465B0013443E
:10188C009B000B4408331B7883F00103DBB2002B65
:10189C002DD01D4B9B783A7D18461A4913465B0098
:1018AC0013449B000B4402461A803A7D164BD878A1
:1018BC00144913465B0013449B000B44023302464D
:1018CC001A703A7D0F4913465B0013449B000B447E
:1018DC0004333A691A603A7D0A4913465B00134493
:1018EC009B000B44083301221A7000BF06E03B7DBD
:1018FC0001333B7597F91430002BBCDA00BF183755
:10190C00BD46B0BDCC040020600400205C04002067
:10191C00DC030020707D000880B400AF72B600BFFD
:10192C0000BFFDE780B586B002AF0346FB710B46E6
:10193C00BB7113467B71FB7903F00F03DBB20133F0
:10194C00FB73FB7923F00F03BB733A4AFB791370DB
:10195C00384ABB795370374A7B79937007F1080288
:10196C00BB791146184600F075F807F108031846C4
:10197C00FEF7E6FB0346032B0ED107F108031846CE
:10198C00FEF7DEFB03461A4607F1080313442A4907
:10199C001A460B461B881380BB7BB02B2DD0B02B6B
:1019AC0037DC802B1CD0902B33D17B79002B0CD0C7
:1019BC00FA7B7B79019307F10803009313461F4AC6
:1019CC0016211F4804F0FEFE2FE0FA7B07F10803F6
:1019DC00009313461B4A1621194804F0F3FE24E029
:1019EC00FA7B7B79019307F1080300931346164A9F
:1019FC001621134804F0E6FE17E0F97BBB797A79DF
:101A0C00019200930B46114A16210D4804F0DAFEA0
:101A1C000BE0F979BB797A79019200930B460C4A69
:101A2C001621074804F0CEFE00BF054B18461037B0
:101A3C00BD4680BDD00A0020F07A0008F47A000878
:101A4C00D40A0020087B0008187B00082C7B0008B7
:101A5C003C7B000880B584B000AF03463960FB7155
:101A6C00FB790F4AA2FB0323DB08DBB2013BFB73C0
:101A7C00FA790B4BA3FB0213D9080B465B000B4402
:101A8C009B00D31ABB73BB7B064A52F82320FB7B0B
:101A9C000549386804F0CCFE00BF1037BD4680BD48
:101AAC00ABAAAAAA140000204C7B000890B587B002
:101ABC0002AF396011461A460346FB710B46BB71E7
:101ACC0013467B717B790133DBB21A465200134407
:101ADC009B00DAB2FB791344FB72FB7AFB73002395
:101AEC00BB812A4B9B881A46294B53F82210FB7951
:101AFC00284A52F823007C7997F820207B79D31A56
:101B0C00009323460246244804F0ECFD20E0FB7BC6
:101B1C001946224804F0E6FDB7F90C2093B20133C4
:101B2C009BB2BB817B6A1344FA7B1A70B7F90C30F9
:101B3C00013BBA7993FBF2F101FB02F29B1A1A46B4
:101B4C003B6813441B78BB72FA7BBB7A1344FB7360
:101B5C00F97B97F820305A1C13465B0013449B000A
:101B6C001A46FB791344994204DCB7F90C30BA6A73
:101B7C009A42CCDCB7F90C301946094804F0B2FD96
:101B8C00B7F90C3018461437BD4690BDD000002074
:101B9C004400002078000020087C0008247C000809
:101BAC002C7C000880B485B000AF0346FB71FA7939
:101BBC00094BA3FB0213D9080B465B000B449B009B
:101BCC00D31AFB73FB7B054A52F8233018461437A3
:101BDC00BD4680BC704700BFABAAAAAA7800002003
:101BEC0080B400AF034B00221A7000BFBD4680BC0E
:101BFC00704700BF4C0B002080B487B000AF7860FA
:101C0C003960154B1B78072B20D8134B1B785A1CAB
:101C1C00D1B2114A11701A46104913465B00134495
:101C2C009B000B44796819600C4913465B00134404
:101C3C009B000B44043339681960084913465B0058
:101C4C0013449B000B44083300221A6000BF1C375E
:101C5C00BD4680BC704700BF4C0B0020EC0A002036
:101C6C0080B582B000AF0023FB712DE01B4B1968CF
:101C7C00FA791B4813465B0013449B00034408335A
:101C8C001B68C91AFA79164813465B0013449B006B
:101C9C00034404331B68994213D3FA790F4B196828
:101CAC000F4813465B0013449B0003440833196030
:101CBC00FA790B4913465B0013449B000B441B68D9
:101CCC009847FB790133FB71064B1B78FA799A42E2
:101CDC00CCD300BF00BF0837BD4680BDD403002065
:101CEC00EC0A00204C0B002080B400AF00BFBD46B6
:101CFC0080BC704780B586B004AF0346FB714FF0D3
:101D0C00FF33029301230193FB1D00930123002257
:101D1C007821034802F014FA00BF0837BD4680BD95
:101D2C001802002080B586B004AF786039603B683B
:101D3C009BB24FF0FF32029201937B680093012318
:101D4C0040227821034802F0FBF900BF0837BD465A
:101D5C0080BD00BF1802002080B500AFFFF7C4FFA4
:101D6C00642001F0DBFC002000F090FA2020FFF74B
:101D7C00C1FF0020FFF7BEFFB020FFF7BBFFC8205C
:101D8C00FFF7B8FF0020FFF7B5FF1020FFF7B2FFF9
:101D9C004020FFF7AFFFFF2000F064FAA120FFF70F
:101DAC00A9FFA620FFF7A6FFA820FFF7A3FF3F205F
:101DBC00FFF7A0FFA420FFF79DFFD320FFF79AFFAA
:101DCC000020FFF797FFD520FFF794FFF020FFF7D7
:101DDC0091FFD920FFF78EFF2220FFF78BFFDA202F
:101DEC00FFF788FF1220FFF785FFDB20FFF782FF4C
:101DFC002020FFF77FFF8D20FFF77CFF1420FFF7DB
:101E0C0079FF012000F042FA002000F00FF800F0FA
:101E1C0025F8054B00221A80034B00225A80024BF6
:101E2C0001221A7100BF80BD500F002080B582B016
:101E3C0000AF0346FB71FB79002B01D1002300E0BE
:101E4C00FF234FF480621946034804F0EBFD00BFFA
:101E5C000837BD4680BD00BF500B002080B582B056
:101E6C0000AF0023FB7116E0FB79503BDBB2184648
:101E7C00FFF740FF0020FFF73DFF1020FFF73AFF70
:101E8C00FB79DB01084A134480211846FFF74AFF0F
:101E9C00FB790133FB71FB79072BE5D900BF00BF40
:101EAC000837BD4680BD00BF500B002080B483B006
:101EBC0000AF0346FB710B46BB7113467B7197F960
:101ECC000730002B3DDBBB793F2B3AD87B79012BBC
:101EDC001AD1FA79BB79DB08D8B20346DB0113447B
:101EEC001A4AD35C5AB2BB7903F00703012101FAF9
:101EFC0003F35BB2134359B2FA790346DB01134483
:101F0C00C9B2124AD1541DE0FA79BB79DB08D8B2B8
:101F1C000346DB0113440D4AD35C5AB2BB7903F080
:101F2C000703012101FA03F35BB2DB435BB21340FD
:101F3C0059B2FA790346DB011344C9B2034AD154AE
:101F4C0000E000BF0C37BD4680BC7047500B002032
:101F5C0090B589B000AF0446384680E80E002346A1
:101F6C00FB73FB7B1F2B02D9FB7B7E2B01D9002340
:101F7C0079E0BB68002B05D0BA68FB7B203B13448F
:101F8C001B7800E03B78FB75394B1B881A46FB7DB0
:101F9C001344802B06DC364B5B881A467B78134443
:101FAC00402B01DD00235EE00023FB614DE07A68ED
:101FBC00FB7B203B797801FB03F31946FB690B444F
:101FCC005B0013441B883B610023BB6136E03A691C
:101FDC00BB6902FA03F303F40043002B13D0244B28
:101FEC001B88DAB2BB69DBB21344D8B2204B5B88D6
:101FFC00DAB2FB69DBB21344DBB297F83020194636
:10200C00FFF754FF17E01A4B1B88DAB2BB69DBB23F
:10201C001344D8B2164B5B88DAB2FB69DBB21344BB
:10202C00D9B297F83030002B0CBF01230023DBB260
:10203C001A46FFF73BFFBB690133BB61FB7DBA69F5
:10204C009A42C4D3FB690133FB617B781A46FB6966
:10205C009342ACD3064B1A88FB7D9BB213449AB2C5
:10206C00034B1A80FB7B18462437BD4690BD00BF3E
:10207C00500F002080B586B002AFF860384680E87B
:10208C000E0013E0FB6818783B7E00933B460ECBAA
:10209C00FFF75EFF03461A46FB681B789A4202D094
:1020AC00FB681B7808E0FB680133FB60FB681B785E
:1020BC00002BE7D1FB681B7818461037BD4680BD56
:1020CC0080B483B000AF03460A46FB711346BB7164
:1020DC00FB799AB2054B1A80BB799AB2034B5A80A2
:1020EC0000BF0C37BD4680BC704700BF500F0020AE
:1020FC0090B589B000AF0446084611461A462346EF
:10210C00FB710346BB710B467B7113463B717A79AD
:10211C00FB79D31A002BB8BF5B42BB613A79BB7910
:10212C00D31A002BB8BF5B427B61FA797B799A4258
:10213C0001D2012301E04FF0FF333B61BA793B79C7
:10214C009A4201D2012301E04FF0FF33FB60BA69E0
:10215C007B69D31AFB6197F8302039797B79184663
:10216C00FFF7A4FE24E097F83020B979FB791846E4
:10217C00FFF79CFEFB695B00BB607B695B42BA6846
:10218C009A4208DDFA697B69D31AFB613B69DAB2C2
:10219C00FB791344FB71BA68BB699A4208DAFA6995
:1021AC00BB691344FB61FB68DAB2BB791344BB71A6
:1021BC00FA797B799A42D6D1BA793B799A42D2D1C3
:1021CC0000BF2437BD4690BD90B585B000AF044626
:1021DC00084611461A462346FB710346BB710B4653
:1021EC007B7113463B71FA797B79934228BF134676
:1021FC007B737A79FB79934238BF13463B73BA7978
:10220C003B79934228BF1346FB723A79BB799342D0
:10221C0038BF1346BB72FB7AFB7317E07B7BBB7337
:10222C0009E097F82020F97BBB7B1846FFF73EFEB0
:10223C00BB7B0133BB73BA7B3B7B9A4203D897F9C8
:10224C000E30002BEDDAFB7B0133FB73FA7BBB7A90
:10225C009A4203D8FB7B3F2BE0D900BF00BF143759
:10226C00BD4690BD80B584B000AF0346FB718123A1
:10227C00FB73FB7B1846FFF73DFDFB791846FFF718
:10228C0039FD00BF1037BD4680BD000080B584B05D
:10229C0000AF0346FB71FB79002B05D0AF23FB731A
:1022AC00084B01225A7104E0AE23FB73054B00224C
:1022BC005A71FB7B1846FFF71DFD00BF1037BD465A
:1022CC0080BD00BF500F002080B485B000AF154B0F
:1022DC009B69144A43F001039361124B9B6903F011
:1022EC000103BB60BB680F4BDB690E4A43F08053A4
:1022FC00D3610C4BDB6903F080537B607B680A4B2A
:10230C005B68FB60FB6823F0E063FB60FB6843F0F9
:10231C000073FB60044AFB68536000BF1437BD4672
:10232C0080BC7047001002400000014080B588B0AE
:10233C0000AF786007F1100300221A605A609A60AF
:10234C00DA607B681B68154A934223D1144B9B6956
:10235C00134A43F008039361114B9B6903F0080384
:10236C00FB60FB68C0233B6112237B610323FB6191
:10237C0007F1100319460B4801F0BAFB084BDB6957
:10238C00074A43F40013D361054BDB6903F40013D4
:10239C00BB60BB6800BF2037BD4680BD0054004009
:1023AC0000100240000C014080B58AB000AF78608C
:1023BC0007F1180300221A605A609A60DA607B6891
:1023CC001B68B3F1804F24D1284BDB69274A43F0BB
:1023DC000103D361254BDB6903F001037B617B694E
:1023EC00224B9B69214A43F0040393611F4B9B6969
:1023FC0003F004033B613B690323BB610023FB61D6
:10240C0001233B6207F118031946194801F070FBD0
:10241C0028E07B681B68174A934223D1134BDB6976
:10242C00124A43F00203D361104BDB6903F0020341
:10243C00FB60FB680D4B9B690C4A43F004039361F2
:10244C000A4B9B6903F00403BB60BB68C023BB61F0
:10245C000023FB6101233B6207F118031946044872
:10246C0001F046FB00BF2837BD4680BD001002407E
:10247C00000801400004004080B584B000AF7860D3
:10248C007B681B680D4A934213D10D4BDB690C4AD8
:10249C0043F00403D3610A4BDB6903F00403FB60D4
:1024AC00FB68002200211E2001F033FA1E2001F0EF
:1024BC004CFA00BF1037BD4680BD00BF000800407D
:1024CC000010024080B58AB000AF786007F11803A5
:1024DC0000221A605A609A60DA607B681B683B4A7B
:1024EC00934232D13A4B9B69394A43F4804393610E
:1024FC00374B9B6903F480437B617B69344B9B694D
:10250C00334A43F004039361314B9B6903F004039A
:10251C003B613B694FF40073BB610223FB610323F6
:10252C007B6207F1180319462A4801F0E1FA4FF4CF
:10253C008063BB610023FB6100233B6207F118033E
:10254C001946244801F0D4FA3CE07B681B68224A07
:10255C00934237D11E4BDB691D4A43F40033D361E0
:10256C001B4BDB6903F40033FB60FB68184B9B6966
:10257C00174A43F004039361154B9B6903F0040362
:10258C00BB60BB680423BB610223FB6103237B623A
:10259C0007F1180319460F4801F0AAFA0823BB618A
:1025AC000023FB6100233B6207F11803194609481D
:1025BC0001F09EFA00220021262001F0AAF9262023
:1025CC0001F0C3F900BF2837BD4680BD003801407B
:1025DC0000100240000801400044004080B584B067
:1025EC0000AF0346FB80FB88102B02D0202B12D0AF
:1025FC0023E0FB881946134801F0FEFB0346FB73EE
:10260C00FB7B002B0CBF01230023DBB219460020FF
:10261C00FEF71CF811E0FB8819460A4801F0ECFBA8
:10262C000346FB73FB7B002B0CBF01230023DBB2A7
:10263C0019460120FEF70AF800BF00BF1037BD464F
:10264C0080BD00BF0008014080B400AF00BFFDE7B3
:10265C0080B400AF00BFFDE780B400AF00BFFDE762
:10266C0080B400AF00BFFDE780B400AF00BFFDE752
:10267C0080B400AF00BFBD4680BC704780B400AFD3
:10268C0000BFBD4680BC704780B400AF00BFBD46E4
:10269C0080BC704780B500AF01F071F901F022F8F1
:1026AC0000BF80BD80B500AF102001F0EDFB00BF76
:1026BC0080BD80B500AF202001F0E6FB00BF80BDDF
:1026CC0080B500AF024802F0B3FE00BF80BD00BF72
:1026DC00FC02002080B500AF024803F09BF900BF5C
:1026EC0080BD00BF8C03002080B400AF01231846CE
:1026FC00BD4680BC704780B582B000AF7860396051
:10270C0004F0DEF9034616221A604FF0FF33184628
:10271C000837BD4680BD80B582B000AF78604FF001
:10272C00FF317868FFF7E7FF00BFFDE780B586B0A3
:10273C0000AFF860B9607A6000237B610AE0AFF308
:10274C0000800146BB685A1CBA60CAB21A707B6919
:10275C0001337B617A697B689A42F0DB7B681846AF
:10276C001837BD4680BD80B586B000AFF860B96043
:10277C007A6000237B6109E0BB685A1CBA601B7845
:10278C001846FEF7CBFE7B6901337B617A697B6867
:10279C009A42F1DB7B6818461837BD4680BD80B481
:1027AC0083B000AF78604FF0FF3318460C37BD464E
:1027BC0080BC704780B483B000AF786039603B68F0
:1027CC004FF400525A60002318460C37BD4680BCAB
:1027DC00704780B483B000AF7860012318460C3783
:1027EC00BD4680BC704780B485B000AFF860B9605E
:1027FC007A60002318461437BD4680BC7047000031
:10280C0080B586B000AF7860144A154BD31A7B6143
:10281C007B693B61134B1B68002B02D1114B124A95
:10282C001A60104B1A687B6813443A699A4207D2B3
:10283C0004F046F903460C221A604FF0FF3309E00E
:10284C00084B1B68FB60074B1A687B681344054AEE
:10285C001360FB6818461837BD4680BD0050002039
:10286C0000040000580F0020F810002080B400AFC6
:10287C0000BFBD4680BC704780B500AF4FF400511F
:10288C00114801F0E8FA114B1B78002B13D0104BB8
:10289C001B8803F001039BB2002B06D001230122FD
:1028AC000D210C48FEF77AF905E0012301220D21D8
:1028BC000948FEF773F9064B1B8801339AB2044B97
:1028CC001A8000BF80BD00BF001001407B0F0020AC
:1028DC005C0F0020800F0020900F002080B582B08C
:1028EC0000AF284B1B685B6A1BB2DA0F13445B10FA
:1028FC00FB80254B1B685B6A1BB2002B00DA033391
:10290C009B10BB80214B1B78002B06D0204AFB88E8
:10291C0053801E4B00221A7030E0FA881C4BB3F91E
:10292C0002309BB2D31A9BB27B80B7F90230002BDA
:10293C000AD0174AFB885380B7F90220B7F9063042
:10294C001146184600F078FABA88114BB3F90030EA
:10295C009BB2D31A9BB23B80B7F90030002B0DD041
:10296C000C4B00221A700A4ABB881380B7F900205E
:10297C00B7F904301146184600F0B6F80837BD46D2
:10298C0080BD00BF6C020020B40200207A0F002032
:10299C00600F00207B0F002080B500AFFDF7DCFE40
:1029AC000020FDF773FF0346012B02D0022B34D01D
:1029BC0034E0394B1B78002B14BF01230023DBB20E
:1029CC0083F00103DBB203F00103DAB2324B1A706D
:1029DC00324BB3F90030052B02D0082B05D01DE08B
:1029EC000021002000F028FA16E02B4B1B7883F016
:1029FC000103DBB2002B07D0294BB3F914300021B3
:102A0C00184600F019FA06E0254BB3F916300021F0
:102A1C00184600F011FA00BF00E000BF0120FDF7DE
:102A2C0035FF0346012B02D0022B32D032E01D4B76
:102A3C0000221A701C4B1B88002B03D01A4B00224F
:102A4C001A8002E0184B01221A80144B00221A80C3
:102A5C00154B1B885A00154B1B685A62124B1B886E
:102A6C005B009BB21AB20E4B5A80114B18680023B4
:102A7C0001220021FEF792F80B4B1B88002B01D092
:102A8C000C4800E00C48012301220D21FEF786F8CA
:102A9C0000E000BF00BF80BD7C0F0020A00F002015
:102AAC00600F00207B0F0020D00000206C02002063
:102ABC00AC000020A87C0008AC7C000880B500AFFE
:102ACC00C8210648FFF798F80B210548FFF794F842
:102ADC000D210448FFF790F800BF80BD8528000841
:102AEC00E9280008A5290008B0B596B000AF034648
:102AFC000A46FB801346BB80AA4BB3F900309AB24E
:102B0C00BB8813449BB21AB2A64B1A80A54BB3F9DF
:102B1C000030002B03DAA34B00221A800DE0A14BEE
:102B2C00B3F900301A4609239A4206D309239BB203
:102B3C00013B9BB21AB29B4B1A809A4BB3F90030F3
:102B4C001A46994B53F82200002301220021FEF76C
:102B5C0025F8964B01221A70924BB3F90030082BD2
:102B6C0000F25C8101A252F823F000BF9D2B0008FB
:102B7C00CD2B0008F92D0008FD2B00082B2C00088C
:102B8C00152D0008592C0008C92C00085F2D0008D1
:102B9C00874BB3F90420874B1B685A62844BB3F9FB
:102BAC000420834B5A80844B1B88002B01D0834814
:102BBC0000E08348012301220D21FDF7EFFF2EE1F8
:102BCC007B4BB3F906207B4B1B685A62784BB3F9ED
:102BDC000620774B5A80784B5B88002B01D07948C4
:102BEC0000E07748012301220D21FDF7D7FF16E104
:102BFC006F4BB3F908206F4B1B685A626C4BB3F9DF
:102C0C0008206B4B5A806C4B9B881A466E4B53F8C2
:102C1C002200012301220D21FDF7C0FFFFE0644BD0
:102C2C00B3F90A20634B1B685A62614BB3F90A2053
:102C3C005F4B5A80604BDB88DBB21846FEF7B2FF65
:102C4C00012301220D21FDF7A9FFE8E0584BB3F950
:102C5C000C20584B1B685A62554BB3F90C20544B43
:102C6C005A80554B1B895B089BB21D46524B1B89E6
:102C7C005B089BB21846FDF725FB04464E4BDB6800
:102C8C004FF07E511846FDF769FA03461946204667
:102C9C00FDF76CFB03461846FDF7B8FC03469BB2E8
:102CAC0007F108002A46494903F0C2FD07F1080064
:102CBC00012301220D21FDF771FFB0E03C4BB3F96C
:102CCC000E203C4B1B685A62394BB3F90E20384B23
:102CDC005A80394BDB683E491846FDF747FB0346E3
:102CEC001846FDF793FC03469BB21A4607F10803FE
:102CFC003849184603F09CFD07F108000123012216
:102D0C000D21FDF74BFF8AE0334B00221A70284B44
:102D1C00B3F91020274B1B685A62254BB3F91020CE
:102D2C00234B5A80244B1B8A1A46234B5B8A2B4914
:102D3C002B4803F07DFD204B5B8A1A4629492A4813
:102D4C0003F076FD012301220D212548FDF726FF16
:102D5C0065E0214B00221A70154BB3F91420154B6A
:102D6C001B685A62124BB3F91420114B5A80124B48
:102D7C00B3F914301A46104BB3F9163017491848EA
:102D8C0003F056FD0C4BB3F916301A46154916488C
:102D9C0003F04EFD012301220D211148FDF7FEFE2B
:102DAC003DE000BFA00F0020AC0000207A0F0020F7
:102DBC00600F00206C020020D00000201C7D000859
:102DCC00207D0008247D0008440000202C7D000894
:102DDC000000C842347D00087C0F00203C7D0008B8
:102DEC00800F0020447D0008900F00200E4BB3F99B
:102DFC0018200E4B1B685A620B4BB3F918200A4B68
:102E0C005A800B4BB3F918300A4A1B01134418684B
:102E1C00012301220D21FDF7C1FE00E000BF00BF20
:102E2C005837BD46B0BD00BF600F00206C020020BB
:102E3C00D0000020087E0008B0B59CB004AF03465B
:102E4C000A46FB801346BB80884BB3F90030082B35
:102E5C0000F2B48301A252F823F000BF8D2E0008BB
:102E6C00F72E000861340008432F0008D92F000802
:102E7C00E3310008B9300008693100084933000813
:102E8C00B7F90630002B03F00103B8BF5B421BB24D
:102E9C009AB2774B1A80764B1B88002B07D0754B58
:102EAC001B6800225A62734802F0C2F802E07148B3
:102EBC0002F010F9704B1B685B6A1AB26F4B9A8068
:102ECC006B4B1B88002B01D06D4A00E06D4A07F15B
:102EDC000C036D49184603F0ABFC07F10C00012301
:102EEC0001220D21FDF75AFE69E3B7F90630002BDC
:102EFC0003F00103B8BF5B421BB29AB25C4B5A8021
:102F0C005D4B1B685B6A1AB25C4BDA80584B5B8872
:102F1C00002B01D05D4A00E05A4A07F10C035A49D4
:102F2C00184603F085FC07F10C00012301220D214A
:102F3C00FDF734FE43E34E4B9A88BB8813449BB297
:102F4C00A7F85E30B7F95E30002B03DA0023A7F840
:102F5C005E3006E0B7F95E300C2B02DD0C23A7F8CF
:102F6C005E30B7F85E20424B9A80434B1B685B6A1D
:102F7C001AB2424B1A813E4B9B881A46444B53F86B
:102F8C002200012301220D21FDF708FE384BDB88BE
:102F9C00D8B2374B9B88DB003E4A9918344B9B8840
:102FAC001A463D4B9A5C324B1B8ADCB2304B5B8A27
:102FBC00DBB280250295394D019500932346FEF72F
:102FCC0075FD03469AB2364B1A80F8E2284BDA8824
:102FDC00BB8813449AB2264BDA80254BDA88314BE6
:102FEC00A3FB0213D9080B465B000B449B00D31ABE
:102FFC009AB21F4BDA80204B1B685B6A1AB21F4BCC
:10300C005A811B4BDB88DBB21846FEF7CBFD024620
:10301C00174BDB8807F10C00234903F009FC07F17F
:10302C000C00012301220D21FDF7B8FD104BDB88AC
:10303C00D8B20F4B9B88DB00164A99180C4B9B8817
:10304C001A46154B9A5C0A4B1B8ADCB2084B5B8AFE
:10305C00DBB280250295114D019500932346FEF7B6
:10306C0025FD03469AB20E4B1A80A8E2A00F002051
:10307C00D0000020FC0200206C020020600F002019
:10308C001C7D0008207D00084C7D0008247D000874
:10309C0044000020A07D0008907D0008DC03002087
:1030AC005C040020ABAAAAAA507D0008914B1A8997
:1030BC00BB8819460902C91A89001944C900CB1AE0
:1030CC00DB009BB213449AB28A4B1A81894B1B8941
:1030DC00C72B02D8874BC8221A81864B1B8940F616
:1030EC00B832934203D9834B40F6B8321A81814BE4
:1030FC001A89804B1A81804B1B685B6A1AB27F4B12
:10310C009A817C4B1B895B089BB21D46794B1B89B2
:10311C005B089BB21846FDF7D5F80446754BDB6887
:10312C004FF07E511846FDF719F803461946204614
:10313C00FDF71CF903461846FDF768FA03469BB2E7
:10314C0007F10C002A466E4903F072FB07F10C00E4
:10315C00012301220D21FDF721FD30E2B7F90630E4
:10316C00002B06DA644B1B6800225A620023FB809A
:10317C0009E0B7F90630042B05DD5F4B1B680A220A
:10318C005A620523FB80B7F906305E4A52F82330A9
:10319C00584AD360584B1B685B6A1AB2574BDA819A
:1031AC00544BDB6858491846FDF7E0F803461846BF
:1031BC00FDF72CFA03469BB21A4607F10C03534950
:1031CC00184603F035FB07F10C00012301220D21F9
:1031DC00FDF7E4FCF3E14E4B01221A704D4B1B78CA
:1031EC0083F00103DBB2002B32D0424B1A8ABB882E
:1031FC0013449AB23F4B1A823E4B1B8A002B02D1CE
:10320C003C4B00221A823B4B1B8A1A46394B5B8A79
:10321C00013B9A4205DB374B5B8A013B9AB2354B3B
:10322C001A82354B1B685B6A1AB2344B1A82314BCB
:10323C001B8A1A462F4B5B8A3749384803F0F8FA39
:10324C002C4B5B8A1A463649364803F0F1FA31E0CA
:10325C00284B5A8ABB8813449AB2264B5A82254B68
:10326C005B8A072B02D9234B08225A82214B5B8A9B
:10327C001A46204B1B8A01339A4205DC1D4B1B8AD4
:10328C0001339AB21B4B5A821B4B1B685B6A1AB2F6
:10329C001A4B5A82174B1B8A1A46164B5B8A1E49CD
:1032AC001E4803F0C5FA134B1B8A1A461E491D48CB
:1032BC0003F0BEFA0F4BDB88D8B20E4B9B88DB00B9
:1032CC001A4A99180B4B9B881A46194B9A5C094B56
:1032DC001B8ADCB2074B5B8ADBB280250295154D4D
:1032EC00019500932346FEF7E1FB03469AB2124B7D
:1032FC001A8064E1D00000206C020020600F0020D6
:10330C002C7D0008CC8400080000C842347D0008E5
:10331C007B0F00207C0F00203C7D0008800F0020DC
:10332C00447D0008900F0020587D0008A07D000807
:10333C00907D0008DC0300205C040020A24B0122DD
:10334C001A70A24B1B7883F00103DBB2002B40D028
:10335C009F4BB3F914309AB2BB8813449BB21AB288
:10336C009B4B9A829A4BB3F91430002B02DC984B8E
:10337C0001229A82964BB3F914300F2B02DD944B39
:10338C0010229A82924BB3F91420914BB3F9163058
:10339C009A4204DB8E4BB3F914208D4BDA828D4BA1
:1033AC001B685B6A1AB28C4B9A82894BB3F9143046
:1033BC001A46874BB3F916308849894803F038FA16
:1033CC00834BB3F916301A468649874803F030FA16
:1033DC00F5E07F4BB3F916309AB2BB8813449BB21D
:1033EC001AB27B4BDA827A4BB3F91630002B02DC23
:1033FC00774B0122DA82764BB3F91620744BB3F972
:10340C0014309A4204DC724BB3F91620704B9A823A
:10341C006F4BB3F916300F2B02DD6D4B1022DA8295
:10342C006C4B1B685B6A1AB26B4BDA82684BB3F954
:10343C0014301A46664BB3F916306849684803F0E5
:10344C00F7F9634BB3F914301A466849664803F030
:10345C00EFF9B4E05E4BB3F918309AB2BB88134461
:10346C009BB21AB25A4B1A83594BB3F918300A2B28
:10347C0003DD574B0A221A8307E0554BB3F918307A
:10348C00002B02DC524B00221A83524B1B685B6AE6
:10349C001AB2514B1A834E4BB3F91830544A1B01D4
:1034AC0013441868012301220D21FDF777FB484BCB
:1034BC00B3F918304E4A1B01134404331B781A46D7
:1034CC00434BDA80424BB3F91830494A1B01134481
:1034DC0005331B781A463E4B9A803D4BB3F9183096
:1034EC00434A1B01134406331B781A46384B5A8047
:1034FC00374BB3F918303E4A1B01134408331A8872
:10350C00334B1A81324BB3F91830394A1B0113442F
:10351C000A331B781A46374B53F822302C4AD360A7
:10352C002B4BB3F91830324A1B0113440A331B7866
:10353C005B009BB21AB2284BDA81254BB3F91830D9
:10354C002B4A1B0113440B331B781A46204B1A824F
:10355C001F4BB3F91830264A1B0113440C331B784C
:10356C001A461B4B5A821A4BB3F91830204A1B01CE
:10357C0013441B681946204803F0B4F8144BDB883D
:10358C00D8B2134B9B88DB001C4A9918104B9B88B4
:10359C001A461B4B9A5C0E4B1B8ADCB20C4B5B8A9B
:1035AC00DBB280250295174D019500932346FEF75B
:1035BC007DFA03469AB2144B1A8000E000BF00BF9C
:1035CC006037BD46B0BD00BF7B0F00207C0F0020D4
:1035DC00D00000206C020020600F00203C7D000811
:1035EC00800F0020447D0008900F0020587D0008BB
:1035FC00087E0008CC840008607D0008A07D0008CF
:10360C00907D0008DC0300205C040020FFF72EF9FD
:10361C000B480C490C4A002302E0D458C450043324
:10362C00C4188C42F9D3094A094C002301E01360F9
:10363C000432A242FBD303F049FAFDF739FC704780
:10364C000000002050010020E485000850010020FB
:10365C00F4100020FEE7000080B500AF084B1B689B
:10366C00074A43F010031360032000F047F90F20C2
:10367C0000F008F8FEF728FE0023184680BD00BFB6
:10368C000020024080B582B000AF7860124B1A68FF
:10369C00124B1B7819464FF47A73B3FBF1F3B2FB60
:1036AC00F3F3184600F05FF90346002B01D0012319
:1036BC000EE07B680F2B0AD8002279684FF0FF30A0
:1036CC0000F027F9064A7B681360002300E0012311
:1036DC0018460837BD4680BDA8000020F000002029
:1036EC00EC00002080B400AF054B1B781A46054B4C
:1036FC001B681344034A136000BFBD4680BC70476F
:10370C00F0000020A40F002080B400AF024B1B6817
:10371C001846BD4680BC7047A40F002080B584B00D
:10372C0000AF7860FFF7F0FFB8607B68FB60FB6868
:10373C00B3F1FF3F05D00A4B1B781A46FB681344C4
:10374C00FB6000BFFFF7E0FF0246BB68D31AFA68C4
:10375C009A42F7D800BF00BF1037BD4680BD00BFEE
:10376C00F000002080B485B000AF78607B6803F077
:10377C000703FB600C4BDB68BB60BA684FF6FF03BA
:10378C001340BB60FB681A02BB68134343F0BF6372
:10379C0043F40033BB60044ABB68D36000BF1437EA
:1037AC00BD4680BC704700BF00ED00E080B400AFA8
:1037BC00044BDB681B0A03F007031846BD4680BCAC
:1037CC00704700BF00ED00E080B483B000AF03464B
:1037DC00FB7197F90730002B0BDBFB7903F01F0211
:1037EC00064997F907305B09012000FA02F241F80B
:1037FC00232000BF0C37BD4680BC704700E100E0C1
:10380C0080B483B000AF03463960FB7197F9073081
:10381C00002B0ADB3B68DAB20C4997F9073012012E
:10382C00D2B20B4483F800230AE03B68DAB20849B1
:10383C00FB7903F00F03043B1201D2B20B441A764E
:10384C0000BF0C37BD4680BC704700BF00E100E0F4
:10385C0000ED00E080B489B000AFF860B9607A6028
:10386C00FB6803F00703FB61FB69C3F10703042B3F
:10387C0028BF0423BB61FB690433062B02D9FB6907
:10388C00033B00E000237B614FF0FF32BB6902FA7F
:10389C0003F3DA43BB681A407B699A404FF0FF315F
:1038AC007B6901FA03F3D9437B680B401343184639
:1038BC002437BD4680BC704780B582B000AF7860BD
:1038CC007B68013BB3F1807F01D301230FE00A4AEF
:1038DC007B68013B53600F214FF0FF30FFF790FFE7
:1038EC00054B00229A60044B07221A6000231846ED
:1038FC000837BD4680BD00BF10E000E080B582B047
:10390C0000AF78607868FFF72DFF00BF0837BD4621
:10391C0080BD80B586B000AF0346B9607A60FB739A
:10392C0000237B61FFF742FF78617A68B968786998
:10393C00FFF790FF024697F90F3011461846FFF734
:10394C005FFF00BF1837BD4680BD80B582B000AFA9
:10395C000346FB7197F907301846FFF735FF00BF98
:10396C000837BD4680BD80B582B000AF78607868FE
:10397C00FFF7A2FF034618460837BD4680BD80B549
:10398C0000AFFDF7BDFD00BF80BD80B485B000AFBA
:10399C0078600023FB737B6893F82130DBB2022B39
:1039AC0008D07B6804229A637B68002283F820206D
:1039BC00012320E07B681B681A687B681B6822F077
:1039CC000E021A607B681B681A687B681B6822F001
:1039DC0001021A607B681A6C7B68DB6B012101FAAF
:1039EC0002F25A607B68012283F821207B68002256
:1039FC0083F82020FB7B18461437BD4680BC7047EB
:103A0C0080B584B000AF78600023FB737B6893F8BB
:103A1C002130DBB2022B05D07B6804229A63012390
:103A2C00FB7351E07B681B681A687B681B6822F08B
:103A3C000E021A607B681B681A687B681B6822F090
:103A4C0001021A607B681B68224A934229D07B686A
:103A5C001B68214A934222D07B681B681F4A934201
:103A6C001AD07B681B681E4A934212D07B681B6875
:103A7C001C4A93420AD07B681B681B4A934202D1B2
:103A8C004FF480130EE04FF080730BE04FF4803353
:103A9C0008E04FF4805305E04FF4807302E01023EC
:103AAC0000E00123114A53607B68012283F8212036
:103ABC007B68002283F820207B685B6B002B03D093
:103ACC007B685B6B78689847FB7B18461037BD4664
:103ADC0080BD00BF080002401C00024030000240C4
:103AEC0044000240580002406C00024000000240BA
:103AFC0080B48BB000AF7860396000237B62002308
:103B0C003B6269E101227B6A02FA03F3FB613B68C9
:103B1C001B68FA691340BB61BA69FB699A4240F0B1
:103B2C0058813B685B689A4A93425ED0984A9342AC
:103B3C0075D8984A934258D0964A93426FD8964A71
:103B4C00934252D0944A934269D8944A93424CD0AF
:103B5C00924A934263D8924A934246D0904A9342F7
:103B6C005DD8122B2AD8122B59D801A252F823F067
:103B7C00F73B0008D13B0008E33B0008253C00085C
:103B8C002B3C00082B3C00082B3C00082B3C00086D
:103B9C002B3C00082B3C00082B3C00082B3C00085D
:103BAC002B3C00082B3C00082B3C00082B3C00084D
:103BBC002B3C0008D93B0008ED3B0008794A9342A6
:103BCC0013D02CE03B68DB683B6229E03B68DB6888
:103BDC0004333B6224E03B68DB6808333B621FE044
:103BEC003B68DB680C333B621AE03B689B68002B3C
:103BFC0002D104233B6213E03B689B68012B05D187
:103C0C0008233B627B68FA691A6109E008233B626E
:103C1C007B68FA695A6103E000233B6200E000BF55
:103C2C00BB69FF2B01D87B6801E07B6804337B61A7
:103C3C00BB69FF2B02D87B6A9B0002E07B6A083BC6
:103C4C009B003B617B691A680F213B6901FA03F306
:103C5C00DB431A40396A3B6901FA03F31A437B6967
:103C6C001A603B685B6803F08053002B00F0B18056
:103C7C004D4B9B694C4A43F0010393614A4B9B6942
:103C8C0003F00103BB60BB68484A7B6A9B080233A4
:103C9C0052F82330FB607B6A03F003039B000F2276
:103CAC0002FA03F3DB43FA681340FB607B68404A7B
:103CBC00934213D07B683F4A93420DD07B683E4AB7
:103CCC00934207D07B683D4A934201D1032306E01F
:103CDC00042304E0022302E0012300E000237A6ABB
:103CEC0002F0030292009340FA681343FB602F49E1
:103CFC007B6A9B080233FA6841F823203B685B68B7
:103D0C0003F48013002B06D02D4B9A682C49BB6909
:103D1C0013438B6006E02A4B9A68BB69DB43284946
:103D2C0013408B603B685B6803F40013002B06D0D8
:103D3C00234BDA682249BB691343CB6006E0204B66
:103D4C00DA68BB69DB431E491340CB603B685B6898
:103D5C0003F40033002B06D0194B5A681849BB6981
:103D6C0013434B6006E0164B5A68BB69DB4314499E
:103D7C0013404B603B685B6803F48033002B21D00D
:103D8C000F4B1A680E49BB6913430B6021E000BF4F
:103D9C000000321000003110000022100000211031
:103DAC000000121000001110001002400000014031
:103DBC0000080140000C01400010014000140140BB
:103DCC00000401400B4B1A68BB69DB4309491340E3
:103DDC000B607B6A01337B623B681A687B6A22FA50
:103DEC0003F3002B7FF48EAE00BF00BF2C37BD4613
:103DFC0080BC70470004014080B485B000AF78608F
:103E0C000B467B807B689A687B881340002B02D022
:103E1C000123FB7301E00023FB73FB7B1846143773
:103E2C00BD4680BC704780B483B000AF78600B4651
:103E3C007B8013467B707B78002B03D07A887B6861
:103E4C001A6103E07B881A047B681A6100BF0C3787
:103E5C00BD4680BC704780B485B000AF78600B461F
:103E6C007B807B68DB68FB607A88FB6813401A04F4
:103E7C00FB68D9437B880B401A437B681A6100BFEF
:103E8C001437BD4680BC704780B582B000AF034686
:103E9C00FB80084B5A69FB881340002B06D0054A5F
:103EAC00FB885361FB881846FEF798FB00BF083768
:103EBC00BD4680BD0004014080B584B000AF786081
:103ECC007B68002B01D101232BE17B6893F83D30FB
:103EDC00DBB2002B06D17B68002283F83C2078688B
:103EEC00FEF724FA7B68242283F83D207B681B684C
:103EFC001A687B681B6822F001021A607B681B68D9
:103F0C001A687B681B6842F400421A607B681B6865
:103F1C001A687B681B6822F400421A6001F042F8B0
:103F2C00F8607B685B68814A934207D8FB68804ADB
:103F3C00934294BF01230023DBB206E0FB687D4A69
:103F4C00934294BF01230023DBB2002B01D0012349
:103F5C00E7E0FB68784AA2FB03239B0CBB607B6801
:103F6C001B685B6823F03F017B681B68BA680A43D7
:103F7C005A607B681B681B6A23F03F017B685B6897
:103F8C006A4A934202D8BB68013309E0BB684FF41C
:103F9C00967202FB03F3694AA2FB03239B090133CC
:103FAC007A6812680B4313627B681B68DB6923F425
:103FBC004F4222F0FF027B685B685C498B4219D848
:103FCC00FB68591E7B685B685B00B1FBF3F3591C03
:103FDC0040F6FC730B40002B0AD0FB68591E7B6823
:103FEC005B685B00B1FBF3F30133C3F30B0351E0EC
:103FFC0004234FE07B689B68002B11D1FB68581E93
:10400C007B6859680B465B000B44B0FBF3F3013340
:10401C00C3F30B03002B0CBF01230023DBB212E014
:10402C00FB68581E7B6859680B469B000B44990033
:10403C000B44B0FBF3F30133C3F30B03002B0CBFA6
:10404C0001230023DBB2002B01D0012322E07B688B
:10405C009B68002B0ED1FB68581E7B6859680B4679
:10406C005B000B44B0FBF3F30133C3F30B0343F4DA
:10407C0000430FE0FB68581E7B6859680B469B0099
:10408C000B4499000B44B0FBF3F30133C3F30B0364
:10409C0043F44043796809681343CB617B681B6820
:1040AC001B6823F0C0017B68DA697B681B6A1A43C2
:1040BC007B681B680A431A607B681B689B6823F447
:1040CC00034323F0FF037A6811697A68D2681143BD
:1040DC007A6812680B4393607B681B68DB6823F07B
:1040EC00FF017B685A697B689B691A437B681B6874
:1040FC000A43DA607B681B681A687B681B6842F0AD
:10410C0001021A607B6800221A647B68202283F803
:10411C003D207B6800221A637B68002283F83E20D6
:10412C00002318461037BD4680BD00BFA086010095
:10413C007F841E00FF083D0083DE1B43D34D6210BD
:10414C0080B588B002AFF860084611461A4603469F
:10415C007B810B463B811346FB80FFF7D5FA7861D8
:10416C00FB6893F83D30DBB2202B40F0D9807B69A3
:10417C000093192301226D49F86800F071F9034688
:10418C00002B01D00223CCE0FB6893F83C30012BD0
:10419C0001D10223C5E0FB68012283F83C20FB68B7
:1041AC001B681B6803F00103012B07D0FB681B681D
:1041BC001A68FB681B6842F001021A60FB681B68F6
:1041CC001A68FB681B6822F400621A60FB682122E3
:1041DC0083F83D20FB68402283F83E20FB680022D8
:1041EC001A64FB683A6A5A62FB68BA8C5A85FB6897
:1041FC005B8D9AB2FB681A85FB684D4ADA62F888C7
:10420C003A8979897B690193BB6A00930346F86804
:10421C0000F090F80346002B52D0012381E07A691C
:10422C00B96AF86800F036FA0346002B0DD0FB682B
:10423C001B6C042B07D1FB681B681A68FB681B6896
:10424C0042F400721A6001236BE0FB685B6A1A7817
:10425C00FB681B681A61FB685B6A5A1CFB685A6234
:10426C00FB681B8D013B9AB2FB681A85FB685B8D62
:10427C009BB2013B9AB2FB685A85FB681B685B6971
:10428C0003F00403042B1BD1FB681B8D002B17D0F0
:10429C00FB685B6A1A78FB681B681A61FB685B6ACF
:1042AC005A1CFB685A62FB681B8D013B9AB2FB6877
:1042BC001A85FB685B8D9BB2013B9AB2FB685A85F1
:1042CC00FB681B8D002BAAD17A69B96AF86800F0DB
:1042DC0029FA0346002B0DD0FB681B6C042B07D16D
:1042EC00FB681B681A68FB681B6842F400721A6052
:1042FC00012316E0FB681B681A68FB681B6842F414
:10430C0000721A60FB68202283F83D20FB680022B3
:10431C0083F83E20FB68002283F83C20002300E059
:10432C00022318461837BD4680BD00BF020010009E
:10433C000000FFFF80B588B002AFF8600846114658
:10434C001A4603467B810B463B811346FB80FB6878
:10435C001B681A68FB681B6842F480721A607B6ADF
:10436C0000933B6A00224FF00111F86800F078F8D6
:10437C000346002B0DD0FB681B681B6803F480738D
:10438C00B3F5807F03D1FB684FF400721A640323EA
:10439C005FE07B89DBB21A46FB681B6802F0FE0209
:1043AC001A617B6A3A6A2D49F86800F0D3F8034623
:1043BC00002B01D001234CE000237B61FB681B68C0
:1043CC005B697B61FB681B689B697B617B697A6AB3
:1043DC00396AF86800F05EF90346002B0DD0FB68D3
:1043EC001B6C042B07D1FB681B681A68FB681B68E5
:1043FC0042F400721A6001232BE0FB88012B05D1DB
:10440C003B89DAB2FB681B681A6121E03B891B0A05
:10441C009BB2DAB2FB681B681A617A6A396AF8686F
:10442C0000F038F90346002B0DD0FB681B6C042BF5
:10443C0007D1FB681B681A68FB681B6842F40072A2
:10444C001A60012305E03B89DAB2FB681B681A612C
:10445C00002318461837BD4680BD00BF020001007E
:10446C0080B584B000AFF860B9603B601346FB7157
:10447C0048E03B68B3F1FF3F44D0FFF745F90246F3
:10448C00BB69D31A3A689A4202D33B68002B39D1E4
:10449C00BB681B0CDBB2012B0DD1FB681B685B6985
:1044AC00DA43BB6813409BB2002B0CBF01230023E3
:1044BC00DBB21A460CE0FB681B689B69DA43BB68ED
:1044CC0013409BB2002B0CBF01230023DBB21A4616
:1044DC00FB799A4216D1FB6800221A63FB682022F2
:1044EC0083F83D20FB68002283F83E20FB681B6CA0
:1044FC0043F02002FB681A64FB68002283F83C201E
:10450C00012323E0BB681B0CDBB2012B0DD1FB6834
:10451C001B685B69DA43BB6813409BB2002B0CBF72
:10452C0001230023DBB21A460CE0FB681B689B6975
:10453C00DA43BB6813409BB2002B0CBF0123002352
:10454C00DBB21A46FB799A4293D0002318461037F7
:10455C00BD4680BD80B584B000AFF860B9607A60AC
:10456C003B6071E0FB681B685B6903F48063B3F527
:10457C00806F23D1FB681B681A68FB681B6842F4C8
:10458C0000721A60FB681B686FF480625A61FB68EA
:10459C0000221A63FB68202283F83D20FB6800226E
:1045AC0083F83E20FB681B6C43F00402FB681A6422
:1045BC00FB68002283F83C20012367E07B68B3F1A1
:1045CC00FF3F41D0FFF7A0F802463B68D31A7A6848
:1045DC009A4202D37B68002B36D1BB681B0CDBB232
:1045EC00012B0CD1FB681B685B69DA43BB68134079
:1045FC009BB2002B14BF01230023DBB20BE0FB6842
:10460C001B689B69DA43BB6813409BB2002B14BF39
:10461C0001230023DBB2002B16D0FB6800221A63A7
:10462C00FB68202283F83D20FB68002283F83E20A3
:10463C00FB681B6C43F02002FB681A64FB680022C9
:10464C0083F83C20012321E0BB681B0CDBB2012B5F
:10465C000CD1FB681B685B69DA43BB6813409BB2E7
:10466C00002B14BF01230023DBB20BE0FB681B689B
:10467C009B69DA43BB6813409BB2002B14BF012328
:10468C000023DBB2002B7FF46DAF002318461037EC
:10469C00BD4680BD80B584B000AFF860B9607A606B
:1046AC0034E0F86800F086F80346002B01D00123B3
:1046BC0034E0BB68B3F1FF3F28D0FFF725F8024682
:1046CC007B68D31ABA689A4202D3BB68002B1DD1FF
:1046DC00FB681B685B6903F08003802B16D0FB68BA
:1046EC0000221A63FB68202283F83D20FB6800221D
:1046FC0083F83E20FB681B6C43F02002FB681A64B5
:10470C00FB68002283F83C20012307E0FB681B6850
:10471C005B6903F08003802BC3D10023184610374C
:10472C00BD4680BD80B584B000AFF860B9607A60DA
:10473C0034E0F86800F03EF80346002B01D001236A
:10474C0034E0BB68B3F1FF3F28D0FEF7DDFF024633
:10475C007B68D31ABA689A4202D3BB68002B1DD16E
:10476C00FB681B685B6903F00403042B16D0FB6821
:10477C0000221A63FB68202283F83D20FB6800228C
:10478C0083F83E20FB681B6C43F02002FB681A6424
:10479C00FB68002283F83C20012307E0FB681B68C0
:1047AC005B6903F00403042BC3D1002318461037B4
:1047BC00BD4680BD80B483B000AF78607B681B6859
:1047CC005B6903F48063B3F5806F1BD17B681B6856
:1047DC006FF480625A617B6800221A637B68202226
:1047EC0083F83D207B68002283F83E207B681B6C9D
:1047FC0043F004027B681A647B68002283F83C2037
:10480C00012300E0002318460C37BD4680BC7047DE
:10481C0080B586B000AF78607B68002B01D1012396
:10482C0072E27B681B6803F00103002B00F08780A9
:10483C00924B5B6803F00C03042B0CD08F4B5B6822
:10484C0003F00C03082B12D18C4B5B6803F4803300
:10485C00B3F5803F0BD1894B1B6803F40033002B5D
:10486C006CD07B685B68002B68D101234CE27B68C1
:10487C005B68B3F5803F06D1804B1B687F4A43F4DD
:10488C00803313602EE07B685B68002B0CD17B4B74
:10489C001B687A4A23F480331360784B1B68774A81
:1048AC0023F4802313601DE07B685B68B3F5A02FB5
:1048BC000CD1724B1B68714A43F4802313606F4B0D
:1048CC001B686E4A43F4803313600BE06B4B1B6820
:1048DC006A4A23F480331360684B1B68674A23F4DD
:1048EC00802313607B685B68002B13D0FEF70CFFF2
:1048FC00386108E0FEF708FF02463B69D31A642BC7
:10490C0001D9032300E25D4B1B6803F40033002B39
:10491C00F0D014E0FEF7F8FE386108E0FEF7F4FE84
:10492C0002463B69D31A642B01D90323ECE1534BA8
:10493C001B6803F40033002BF0D100E000BF7B6850
:10494C001B6803F00203002B63D04C4B5B6803F035
:10495C000C03002B0BD0494B5B6803F00C03082BAA
:10496C001CD1464B5B6803F48033002B16D1434BB0
:10497C001B6803F00203002B05D07B681B69012B1D
:10498C0001D00123C0E13D4B1B6823F0F8027B688A
:10499C005B69DB00394913430B603AE07B681B69A8
:1049AC00002B20D0364B01221A60FEF7ADFE386189
:1049BC0008E0FEF7A9FE02463B69D31A022B01D987
:1049CC000323A1E12D4B1B6803F00203002BF0D055
:1049DC002A4B1B6823F0F8027B685B69DB002749D4
:1049EC0013430B6015E0264B00221A60FEF78CFE79
:1049FC00386108E0FEF788FE02463B69D31A022BA9
:104A0C0001D9032380E11D4B1B6803F00203002B2B
:104A1C00F0D17B681B6803F00803002B3AD07B684D
:104A2C009B69002B19D0174B01221A60FEF76CFE04
:104A3C00386108E0FEF768FE02463B69D31A022B88
:104A4C0001D9032360E10D4B5B6A03F00203002BD9
:104A5C00F0D0012000F0CEFA1CE00A4B00221A60C4
:104A6C00FEF752FE38610FE0FEF74EFE02463B6940
:104A7C00D31A022B08D9032346E100BF00100240D1
:104A8C000000424280044242924B5B6A03F00203F4
:104A9C00002BE9D17B681B6803F00403002B00F0AA
:104AAC00A6800023FB758B4BDB6903F08053002B36
:104ABC000DD1884BDB69874A43F08053D361854B1A
:104ACC00DB6903F08053BB60BB680123FB75824B31
:104ADC001B6803F48073002B18D17F4B1B687E4A34
:104AEC0043F480731360FEF70FFE386108E0FEF7A5
:104AFC000BFE02463B69D31A642B01D9032303E155
:104B0C00754B1B6803F48073002BF0D07B68DB685B
:104B1C00012B06D16F4B1B6A6E4A43F001031362E3
:104B2C002DE07B68DB68002B0CD16A4B1B6A694A51
:104B3C0023F001031362674B1B6A664A23F00403DC
:104B4C0013621CE07B68DB68052B0CD1614B1B6A84
:104B5C00604A43F0040313625E4B1B6A5D4A43F0E8
:104B6C00010313620BE05B4B1B6A5A4A23F00103EF
:104B7C001362584B1B6A574A23F0040313627B6879
:104B8C00DB68002B15D0FEF7BFFD38610AE0FEF79D
:104B9C00BBFD02463B69D31A41F28832934201D9DC
:104BAC000323B1E04B4B1B6A03F00203002BEED046
:104BBC0014E0FEF7A9FD38610AE0FEF7A5FD0246F8
:104BCC003B69D31A41F28832934201D903239BE00B
:104BDC00404B1B6A03F00203002BEED1FB7D012B33
:104BEC0005D13C4BDB693B4A23F08053D3617B6896
:104BFC00DB69002B00F08780364B5B6803F00C03FD
:104C0C00082B61D07B68DB69022B46D1334B002229
:104C1C001A60FEF779FD386108E0FEF775FD024673
:104C2C003B69D31A022B01D903236DE0294B1B6876
:104C3C0003F00073002BF0D17B681B6AB3F5803F47
:104C4C0008D1244B5B6823F400327B689B682149B4
:104C5C0013434B601F4B5B6823F474127B68196A17
:104C6C007B685B6A0B431B4913434B601B4B012254
:104C7C001A60FEF749FD386108E0FEF745FD024673
:104C8C003B69D31A022B01D903233DE0114B1B685E
:104C9C0003F00073002BF0D035E0104B00221A60AB
:104CAC00FEF732FD386108E0FEF72EFD02463B6947
:104CBC00D31A022B01D9032326E0064B1B6803F001
:104CCC000073002BF0D11EE07B68DB69012B07D150
:104CDC00012319E0001002400070004060004242C5
:104CEC000B4B5B68FB60FB6803F480327B681B6AD0
:104CFC009A4206D1FB6803F470127B685B6A9A4295
:104D0C0001D0012300E0002318461837BD4680BDB2
:104D1C000010024080B584B000AF786039607B68C9
:104D2C00002B01D10123D0E06A4B1B6803F0070371
:104D3C003A689A4210D9674B1B6823F00702654901
:104D4C003B6813430B60634B1B6803F007033A6823
:104D5C009A4201D00123B8E07B681B6803F0020380
:104D6C00002B20D07B681B6803F00403002B05D0BC
:104D7C00594B5B68584A43F4E06353607B681B688B
:104D8C0003F00803002B05D0534B5B68524A43F4E5
:104D9C0060535360504B5B6823F0F0027B689B6858
:104DAC004D4913434B607B681B6803F00103002BD8
:104DBC0040D07B685B68012B07D1474B1B6803F421
:104DCC000033002B15D101237FE07B685B68022B3D
:104DDC0007D1414B1B6803F00073002B09D1012351
:104DEC0073E03D4B1B6803F00203002B01D1012340
:104DFC006BE0394B5B6823F003027B685B683649D8
:104E0C0013434B60FEF780FCF8600AE0FEF77CFC75
:104E1C000246FB68D31A41F28832934201D903232C
:104E2C0053E02D4B5B6803F00C027B685B689B00C6
:104E3C009A42EBD1274B1B6803F007033A689A425E
:104E4C0010D2244B1B6823F0070222493B68134302
:104E5C000B60204B1B6803F007033A689A4201D0A1
:104E6C00012332E07B681B6803F00403002B08D09D
:104E7C00194B5B6823F4E0627B68DB6816491343CB
:104E8C004B607B681B6803F00803002B09D0124BA6
:104E9C005B6823F460527B681B69DB000E4913438B
:104EAC004B6000F021F802460B4B5B681B0903F0CA
:104EBC000F030A49CB5C22FA03F3094A1360094B2E
:104ECC001B681846FEF7DEFB002318461037BD465C
:104EDC0080BD00BF0020024000100240B4840008D6
:104EEC00A8000020EC00002080B487B000AF0023A5
:104EFC00FB600023BB6000237B6100237B600023ED
:104F0C003B611E4B5B68FB60FB6803F00C03042BDE
:104F1C0002D0082B03D027E0194B3B6127E0FB683C
:104F2C009B0C03F00F03174AD35C7B60FB6803F404
:104F3C008033002B10D0114B5B685B0C03F001032A
:104F4C00114AD35CBB607B680D4A03FB02F2BB6861
:104F5C00B2FBF3F37B6104E07B680C4A02FB03F3C6
:104F6C007B617B693B6102E0054B3B6100BF3B69A8
:104F7C0018461C37BD4680BC704700BF001002406D
:104F8C0000127A00E4840008F484000800093D0053
:104F9C0080B400AF024B1B681846BD4680BC7047FE
:104FAC00A800002080B500AFFFF7F2FF0246054BCA
:104FBC005B681B0A03F007030349CB5C22FA03F37B
:104FCC00184680BD00100240C484000880B500AFB4
:104FDC00FFF7DEFF0246054B5B68DB0A03F00703B5
:104FEC000349CB5C22FA03F3184680BD0010024043
:104FFC00C484000880B485B000AF78600A4B1B688D
:10500C000A4AA2FB03235B0A7A6802FB03F3FB60E8
:10501C0000BFFB685A1EFA60002BF9D100BF00BF1D
:10502C001437BD4680BC7047A8000020D34D6210D9
:10503C0080B485B000AF78607B6893F83D30DBB20C
:10504C00012B01D001233AE07B68022283F83D203A
:10505C007B681B68DA687B681B6842F00102DA60C7
:10506C007B681B68184A93420ED07B681B68B3F1AF
:10507C00804F09D07B681B68144A934204D07B682C
:10508C001B68134A934211D17B681B689B6803F021
:10509C000703FB60FB68062B10D07B681B681A6843
:1050AC007B681B6842F001021A6007E07B681B6892
:1050BC001A687B681B6842F001021A6000231846CC
:1050CC001437BD4680BC7047002C014000040040E2
:1050DC000008004080B483B000AF78607B681B6828
:1050EC00DA687B681B6822F00102DA607B681B6857
:1050FC001A6A41F211131340002B0FD17B681B6805
:10510C001A6A40F244431340002B07D17B681B689A
:10511C001A687B681B6822F001021A607B68012206
:10512C0083F83D20002318460C37BD4680BC7047E1
:10513C0080B582B000AF786039607B68002B01D1FC
:10514C00012341E07B6893F83D30DBB2002B06D1A4
:10515C007B68002283F83C207868FDF78DF97B682A
:10516C00022283F83D207B681A687B680433194659
:10517C00104600F071FA7B681B681A687B681B6824
:10518C0022F008021A607B681B6819687B681B6830
:10519C003A680A431A607B68012283F846207B68D0
:1051AC00012283F83E207B68012283F83F207B6834
:1051BC00012283F842207B68012283F843207B681C
:1051CC00012283F83D20002318460837BD4680BDD8
:1051DC0080B586B000AF786039607B68002B01D158
:1051EC00012393E07B6893F83D30DBB2002B06D1B2
:1051FC007B68002283F83C207868FDF7D5F87B6843
:10520C00022283F83D207B681B689B687A681268D1
:10521C0023F4804323F0070393607B681A687B6850
:10522C0004331946104600F017FA7B681B689B681C
:10523C007B617B681B689B693B617B681B681B6A95
:10524C00FB603B681B687A6913437B613B6923F401
:10525C00407323F003033B613B689A683B689B698E
:10526C001B0213433A6913433B613B6923F44063CC
:10527C0023F00C033B613B6923F4704323F0F003F0
:10528C003B613B68DA683B68DB691B0213433A6994
:10529C0013433B613B681B691A013B681B6A1B0388
:1052AC0013433A6913433B61FB6823F02203FB6011
:1052BC003B685A683B685B691B011343FA681343EC
:1052CC00FB607B681B687A699A607B681B683A692B
:1052DC009A617B681B68FA681A627B68012283F802
:1052EC0046207B68012283F83E207B68012283F8EC
:1052FC003F207B68012283F842207B68012283F8DF
:10530C0043207B68012283F83D2000231846183780
:10531C00BD4680BD80B584B000AF786039607B68D5
:10532C0093F83E30FB737B6893F83F30BB737B681C
:10533C0093F842307B737B6893F843303B733B6844
:10534C00002B10D1FB7B012B02D17B7B012B01D0DD
:10535C00012369E07B68022283F83E207B680222ED
:10536C0083F8422031E03B68042B10D1BB7B012B2E
:10537C0002D13B7B012B01D0012355E07B6802223B
:10538C0083F83F207B68022283F843201DE0FB7BDF
:10539C00012B08D1BB7B012B05D17B7B012B02D1CF
:1053AC003B7B012B01D001233EE07B68022283F87A
:1053BC003E207B68022283F83F207B68022283F820
:1053CC0042207B68022283F843203B68002B03D0E9
:1053DC003B68042B08D00FE07B681B68012200217E
:1053EC00184600F0A7F916E07B681B68012204211F
:1053FC00184600F09FF90EE07B681B680122002123
:10540C00184600F097F97B681B68012204211846A6
:10541C0000F090F900BF7B681B681A687B681B68FA
:10542C0042F001021A60002318461037BD4680BDB9
:10543C0080B584B000AF78607B681B68DB68FB606C
:10544C007B681B681B69BB60BB6803F00203002B05
:10545C0020D0FB6803F00203002B1BD07B681B6879
:10546C006FF002021A617B6801221A777B681B6855
:10547C009B6903F00303002B03D0786800F0D1F88C
:10548C0005E0786800F0C4F8786800F0D3F87B6821
:10549C0000221A77BB6803F00403002B20D0FB68B2
:1054AC0003F00403002B1BD07B681B686FF0040215
:1054BC001A617B6802221A777B681B689B6903F46C
:1054CC004073002B03D0786800F0ABF805E07868E7
:1054DC0000F09EF8786800F0ADF87B6800221A772F
:1054EC00BB6803F00803002B20D0FB6803F0080313
:1054FC00002B1BD07B681B686FF008021A617B685D
:10550C0004221A777B681B68DB6903F00303002B0A
:10551C0003D0786800F085F805E0786800F078F83A
:10552C00786800F087F87B6800221A77BB6803F074
:10553C001003002B20D0FB6803F01003002B1BD0B2
:10554C007B681B686FF010021A617B6808221A775F
:10555C007B681B68DB6903F44073002B03D078680D
:10556C0000F05FF805E0786800F052F8786800F019
:10557C0061F87B6800221A77BB6803F00103002BEB
:10558C000CD0FB6803F00103002B07D07B681B6871
:10559C006FF001021A617868FBF7D2FFBB6803F069
:1055AC008003002B0CD0FB6803F08003002B07D08A
:1055BC007B681B686FF080021A61786800F045F90F
:1055CC00BB6803F04003002B0CD0FB6803F04003D6
:1055DC00002B07D07B681B686FF040021A6178685B
:1055EC0000F031F8BB6803F02003002B0CD0FB68F3
:1055FC0003F02003002B07D07B681B686FF02002A0
:10560C001A61786800F018F900BF1037BD4680BDEC
:10561C0080B483B000AF786000BF0C37BD4680BC4F
:10562C00704780B483B000AF786000BF0C37BD46C4
:10563C0080BC704780B483B000AF786000BF0C377B
:10564C00BD4680BC704780B483B000AF786000BFAB
:10565C000C37BD4680BC704780B485B000AF786015
:10566C0039607B681B68FB607B682F4A93420BD0C8
:10567C007B68B3F1804F07D07B682C4A934203D0F0
:10568C007B682B4A934208D1FB6823F07003FB60C4
:10569C003B685B68FA681343FB607B68224A934261
:1056AC000BD07B68B3F1804F07D07B681F4A9342C5
:1056BC0003D07B681E4A934208D1FB6823F44073E5
:1056CC00FB603B68DB68FA681343FB60FB6823F004
:1056DC0080023B685B691343FB607B68FA681A6065
:1056EC003B689A687B68DA623B681A687B689A62E6
:1056FC007B680D4A934203D13B681A697B681A6335
:10570C007B6801225A617B681B6903F00103002B43
:10571C0005D07B681B6923F001027B681A6100BF0E
:10572C001437BD4680BC7047002C0140000400407B
:10573C000008004080B487B000AFF860B9607A60B0
:10574C00BB6803F01F03012202FA03F37B61FB68C1
:10575C001A6A7B69DB431A40FB681A62FB681A6A97
:10576C00BB6803F01F03796801FA03F31A43FB6863
:10577C001A6200BF1C37BD4680BC704780B485B030
:10578C0000AF786039607B6893F83C30012B01D115
:10579C00022346E07B68012283F83C207B680222CE
:1057AC0083F83D207B681B685B68FB607B681B682B
:1057BC009B68BB60FB6823F07003FB603B681B6855
:1057CC00FA681343FB607B681B68FA685A607B6855
:1057DC001B68164A93420ED07B681B68B3F1804F4E
:1057EC0009D07B681B68124A934204D07B681B6803
:1057FC00104A93420CD1BB6823F08003BB603B681A
:10580C005B68BA681343BB607B681B68BA689A60B4
:10581C007B68012283F83D207B68002283F83C20C2
:10582C00002318461437BD4680BC7047002C01403D
:10583C00000400400008004080B483B000AF7860E2
:10584C0000BF0C37BD4680BC704780B483B000AF3E
:10585C00786000BF0C37BD4680BC704780B582B005
:10586C0000AF78607B68002B01D1012342E07B689C
:10587C0093F84130DBB2002B06D17B68002283F811
:10588C0040207868FCF71EFE7B68242283F84120B8
:10589C007B681B68DA687B681B6822F40052DA604C
:1058AC00786800F063FD7B681B681A697B681B686D
:1058BC0022F490421A617B681B685A697B681B68EA
:1058CC0022F02A025A617B681B68DA687B681B68C5
:1058DC0042F40052DA607B6800225A647B68202212
:1058EC0083F841207B68202283F842207B680022C9
:1058FC005A63002318460837BD4680BD80B58AB070
:10590C0002AFF860B9603B601346FB8000237B61FB
:10591C00FB6893F84130DBB2202B75D1BB68002BB0
:10592C0002D0FB88002B01D101236EE0FB68002222
:10593C005A64FB68212283F84120FDF7E5FE78616B
:10594C00FB68FA889A84FB68FA88DA84FB689B689F
:10595C00B3F5805F08D1FB681B69002B04D10023D1
:10596C00FB61BB68BB6103E0BB68FB610023BB61EF
:10597C002EE03B6800937B6900228021F86800F0E0
:10598C0001FB0346002B05D0FB68202283F8412045
:10599C0003233AE0FB69002B0BD1BB691B881A4629
:1059AC00FB681B68C2F308025A60BB690233BB6117
:1059BC0007E0FB691A78FB681B685A60FB690133C6
:1059CC00FB61FB68DB8C9BB2013B9AB2FB68DA840F
:1059DC00FB68DB8C9BB2002BCBD13B6800937B69C3
:1059EC0000224021F86800F0CDFA0346002B05D0C8
:1059FC00FB68202283F84120032306E0FB68202269
:105A0C0083F84120002300E0022318462037BD46CE
:105A1C0080BD000080B5BAB000AF78607B681B68B1
:105A2C001B68C7F8E4307B681B68DB68C7F8E0309C
:105A3C007B681B685B69C7F8DC300023C7F8D8307B
:105A4C000023C7F8D430D7F8E43003F00F03C7F8BD
:105A5C00D830D7F8D830002B0FD1D7F8E43003F07A
:105A6C002003002B09D0D7F8E03003F02003002BE3
:105A7C0003D0786800F0BCFB5BE2D7F8D830002B81
:105A8C0000F0DE80D7F8DC3003F00103002B06D1E8
:105A9C00D7F8E03003F49073002B00F0D180D7F8E6
:105AAC00E43003F00103002B0BD0D7F8E03003F403
:105ABC008073002B05D07B685B6C43F001027B6824
:105ACC005A64D7F8E43003F00403002B0BD0D7F85A
