:020000040800F2
:1000000000500020013700087125000879250008FC
:1000100081250008892500089125000800000000BE
:10002000000000000000000000000000992500080A
:10003000A525000800000000B1250008BD25000826
:100040004937000849370008493700084937000890
:100050004937000849370008493700084937000880
:100060004937000849370008CD25000849370008FE
:100070004937000849370008493700084937000860
:100080004937000849370008493700084937000850
:10009000493700084937000849370008DB250008C0
:1000A0004937000849370008493700084937000830
:1000B0004937000849370008E92500084937000892
:1000C0004937000849370008493700084937000810
:1000D0004937000849370008FD250008493700085E
:1000E0004937000849370008493700080000000078
:1000F0000000000000000000000000000000000000
:0C01000000000000000000005FF808F1A3
:10010C0010B5054C237833B9044B13B10448AFF345
:10011C0000800123237010BD580100200000000056
:10012C00C079000808B5034B1BB103490348AFF372
:10013C00008008BD000000005C010020C0790008B0
:10014C00034613F8012B002AFBD1181A013870470B
:10015C0080F0004002E000BF81F0004142001FBF70
:10016C005FEA410392EA030F7FEA226C7FEA236C79
:10017C006AD04FEA1262D2EB1363C1BFD21841406E
:10018C0048404140B8BF5B42192B88BF704710F004
:10019C00004F40F4000020F07F4018BF404211F0A7
:1001AC00004F41F4000121F07F4118BF494292EA0F
:1001BC00030F3FD0A2F1010241FA03FC10EB0C003B
:1001CC00C3F1200301FA03F100F0004302D54942C8
:1001DC0060EB4000B0F5000F13D3B0F1807F06D375
:1001EC0040084FEA310102F10102FE2A51D2B1F16D
:1001FC00004F40EBC25008BF20F0010040EA030062
:10020C007047490040EB0000013A28BFB0F5000FE1
:10021C00EDD2B0FA80FCACF1080CB2EB0C0200FA97
:10022C000CF0AABF00EBC25052421843BCBFD040E6
:10023C001843704792F0000F81F4000106BF80F460
:10024C0000000132013BB5E74FEA41037FEA226C23
:10025C0018BF7FEA236C21D092EA030F04D092F0EE
:10026C00000F08BF0846704790EA010F1CBF002022
:10027C00704712F07F4F04D1400028BF40F000407F
:10028C00704712F100723CBF00F50000704700F09F
:10029C00004343F0FE4040F4000070477FEA2262C6
:1002AC0016BF08467FEA23630146420206BF5FEA97
:1002BC00412390EA010F40F4800070474FF0000397
:1002CC0004E000BF10F0004348BF40425FEA000C5E
:1002DC0008BF704743F0964301464FF000001CE006
:1002EC0050EA010208BF70474FF000030AE000BF5C
:1002FC0050EA010208BF704711F0004302D540429A
:10030C0061EB41015FEA010C02BF8446014600200B
:10031C0043F0B64308BFA3F18053A3F50003BCFA26
:10032C008CF2083AA3EBC25310DB01FA02FC6344D3
:10033C0000FA02FCC2F12002BCF1004F20FA02F2DA
:10034C0043EB020008BF20F00100704702F12002CD
:10035C0001FA02FCC2F1200250EA4C0021FA02F22E
:10036C0043EB020008BF20EADC7070474FF0FF0C33
:10037C001CEAD0521EBF1CEAD15392EA0C0F93EA2E
:10038C000C0F6FD01A4480EA010C400218BF5FEAD0
:10039C0041211ED04FF0006343EA501043EA511143
:1003AC00A0FB01310CF00040B1F5000F3EBF49003D
:1003BC0041EAD3715B0040EA010062F17F02FD2A41
:1003CC001DD8B3F1004F40EBC25008BF20F0010024
:1003DC00704790F0000F0CF0004C08BF49024CEA3B
:1003EC00502040EA51207F3AC2BFD2F1FF0340EACD
:1003FC00C250704740F400004FF00003013A5DDC3E
:10040C0012F1190FDCBF00F000407047C2F100027E
:10041C00410021FA02F1C2F1200200FA02FC5FEA6B
:10042C00310040F1000053EA4C0308BF20EADC70B5
:10043C00704792F0000F00F0004C02BF400010F427
:10044C00000F013AF9D040EA0C0093F0000F01F0D4
:10045C00004C02BF490011F4000F013BF9D041EAF6
:10046C000C018FE70CEAD15392EA0C0F18BF93EAF8
:10047C000C0F0AD030F0004C18BF31F0004CD8D122
:10048C0080EA010000F00040704790F0000F17BFA9
:10049C0090F0004F084691F0000F91F0004F14D0EF
:1004AC0092EA0C0F01D142020FD193EA0C0F03D147
:1004BC004B0218BF084608D180EA010000F000404A
:1004CC0040F0FE4040F40000704740F0FE4040F425
:1004DC00400070474FF0FF0C1CEAD0521EBF1CEAC4
:1004EC00D15392EA0C0F93EA0C0F69D0A2EB0302E2
:1004FC0080EA010C49024FEA402037D04FF080537C
:10050C0043EA111143EA10130CF000408B4238BF40
:10051C005B0042F17D024FF4000C8B4224BF5B1A4E
:10052C0040EA0C00B3EB510F24BFA3EB510340EA9C
:10053C005C00B3EB910F24BFA3EB910340EA9C004A
:10054C00B3EBD10F24BFA3EBD10340EADC001B01BA
:10055C0018BF5FEA1C1CE0D1FD2A3FF650AF8B425E
:10056C0040EBC25008BF20F0010070470CF0004C6B
:10057C004CEA50207F32C2BFD2F1FF0340EAC25096
:10058C00704740F400004FF00003013A37E792F057
:10059C00000F00F0004C02BF400010F4000F013AB5
:1005AC00F9D040EA0C0093F0000F01F0004C02BFB0
:1005BC00490011F4000F013BF9D041EA0C0195E719
:1005CC000CEAD15392EA0C0F08D142027FF47DAFB2
:1005DC0093EA0C0F7FF470AF084676E793EA0C0FA2
:1005EC0004D14B023FF44CAF08466EE730F0004CA0
:1005FC0018BF31F0004CCAD130F000427FF45CAF30
:10060C0031F000437FF43CAF5FE700BF42000ED2F5
:10061C00B2F1FE4F0BD34FF09E03B3EB126209D431
:10062C004FEA002343F0004323FA02F070474FF0E7
:10063C000000704712F1610F01D1420202D14FF05C
:10064C00FF3070474FF00000704700BF80B584B09A
:10065C0000AF03460A46FB711346BB7103F0C8F8A2
:10066C00F860FA793B4913469B0013449B000B44FA
:10067C000C331B68FA68D31A1D2B67D9FA793549E4
:10068C0013469B0013449B000B440C33FA681A600E
:10069C00FA79304913469B0013449B000B441B789A
:1006AC00DBB2002B0DD0BB79002B0AD0FA7929498B
:1006BC0013469B0013449B000B440433FA681A60E6
:1006CC0045E0FA79234913469B0013449B000B44E5
:1006DC001B78DBB283F00103DBB2002B16D0BB79A5
:1006EC00002B13D0FA791B4913469B0013449B0033
:1006FC000B4401221A70FA79164913469B001344D5
:10070C009B000B440433FA681A6020E0FA79114913
:10071C0013469B0013449B000B441B78DBB2002B4D
:10072C0015D0FA790B4913469B0013449B000B44DC
:10073C00013301221A70FA79064913469B001344BF
:10074C009B000B440833FA681A6000E000BF1037B6
:10075C00BD4680BD7401002080B487B000AF00237B
:10076C007B6175E00023FB740023FB600023BB60FE
:10077C0072B600BF3B497A6913469B0013449B0039
:10078C000B4401331B78DBB2002B28D00123FB7404
:10079C0034497A6913469B0013449B000B44013384
:1007AC0000221A702F497A6913469B0013449B0050
:1007BC000B4400221A702B497A6913469B00134490
:1007CC009B000B4404331B68FB6026497A69134673
:1007DC009B0013449B000B4408331B68BB6062B640
:1007EC0000BFFB7C002B30D0BA68FB68D31A7B604F
:1007FC007B68B3F5FA7F10D31A497A6913469B00CC
:10080C0013449B000B44103302221A707B69002B9B
:10081C0014D07B69012B13D017E012497A69134667
:10082C009B0013449B000B44103301221A707B690C
:10083C00002B07D07B69012B06D006E000BF04E03B
:10084C0000BF02E000BF00E000BF7B6901337B61A9
:10085C007B69012B86DD00BF00BF1C37BD4680BC09
:10086C00704700BF7401002080B485B000AF034610
:10087C00FB71FA790C4913469B0013449B000B4403
:10088C0010331B78FB73FA79074913469B0013440A
:10089C009B000B44103300221A70FB7B1846143754
:1008AC00BD4680BC704700BF7401002080B500AF0E
:1008BC0001F0E0F90D4B5B780133DAB20C4B1A7096
:1008CC000A4B1B781A46802393FBF2F3DAB2094BDE
:1008DC001A70064B5B781A46402393FBF2F3DBB29B
:1008EC00013BDAB2044B1A7000BF80BD28840008AB
:1008FC001D0200201E0200201F02002080B582B0C5
:10090C0002AF012300930E2380220021002001F06E
:10091C00E9FB002300930B237D220321022001F02D
:10092C00E1FB0421042001F059FB384B0122009219
:10093C000ECB374801F02CFB344B5B785B00DAB202
:10094C00344B1A701421032001F048FB2F4B012269
:10095C0000920ECB304801F01BFB2C4B5B781A46F7
:10096C002A4B1B782D492E4805F066FF274B5B78E8
:10097C001A4652001344DBB20133DAB2254B1A701B
:10098C001D21032001F02AFB204B012200920ECBEB
:10099C00234801F0FDFA234B1B781A4622492048C4
:1009AC0005F04AFF194B5B789B00DBB20233DAB2DD
:1009BC00184B1A702621032001F010FB134B012257
:1009CC0000920ECB164801F0E3FA184B1B781A462E
:1009DC001749134805F030FF0C4B5B781A46920010
:1009EC001344DBB20333DAB20A4B1A702F21032003
:1009FC0001F0F4FA054B012200920ECB084801F0ED
:100A0C00C7FA01F0B9F900BFBD4680BD28840008C3
:100A1C00000000201C020020D8790008EC790008A6
:100A2C009C0100201E020020007A00081F020020FA
:100A3C00187A000880B582B000AF0346FB71FB79D1
:100A4C00184601F081F901F097F900BF0837BD464F
:100A5C0080BD000080B582B002AF0020FFF7EAFF36
:100A6C000F4B59780E4B5B780122009280220020AC
:100A7C0001F0CCFA0023012200210A4800F07CF896
:100A8C00002301220B21084800F076F801230122F3
:100A9C000D21064800F070F800BFBD4680BD00BFB8
:100AAC0028840008307A00083C7A0008407A000854
:100ABC0080B586B002AF7860084611461A460346E8
:100ACC00FB700B46BB7013467B70274B1B78BA78B8
:100ADC0002FB03F3BB737868FFF732FB0346DAB211
:100AEC00BB781344FB737B68002B04D01F4B1B7823
:100AFC00FA7B9A4202D94FF0FF3331E01C4B1B7842
:100B0C00FA789A4203D31A4B1B78013BFB70194BB2
:100B1C001B78FA7802FB03F3DBB20233DAB2BB7B4D
:100B2C001146184601F05AFA0F4B7A7800920ECB08
:100B3C00786801F02DFA3B7E002B0ED006E00A4BB4
:100B4C007A7800920ECB202001F090F9FB7B5A1C96
:100B5C00FA73064A12789342F1D301F00DF900238F
:100B6C0018461037BD4680BD288400081E020020A0
:100B7C001F0200201D02002080B586B002AF7860F5
:100B8C00084611461A460346FB700B46BB701346CB
:100B9C007B707868FFF7D4FA0346DAB2FB7813441B
:100BAC00FB73154B1B78FA7802FB03F3DBB20021C5
:100BBC00184601F013FA104BBA7800920ECB7868F5
:100BCC0001F0E6F97B78002B0ED006E00A4BBA78E0
:100BDC0000920ECB202001F049F9FB7B5A1CFA73D2
:100BEC00064A12789342F1D301F0C6F80023184656
:100BFC001037BD4680BD00BF288400081E020020AF
:100C0C0090B583B000AF0446084611461A462346F9
:100C1C00FB710346BB710B467B7113463B717B79B1
:100C2C00002B02D07B79102B01D901237B717B79AE
:100C3C00013B7B7197F9073023F00F035AB297F9F8
:100C4C00053003F00F035BB213435BB2DAB20C4B0B
:100C5C001A70BB7903F07F03DAB2094B5A703B79F7
:100C6C0003F07F03DAB2064B9A7064230322044923
:100C7C00044804F0B7FE00BF0C37BD4690BD00BF62
:100C8C00E00300204C03002080B582B000AF034687
:100C9C00FB710B46BB7113467B717B79BA79F97981
:100CAC009020FFF7ADFF00BF0837BD4680BD80B573
:100CBC0082B000AF0346FB710B46BB7113467B71D0
:100CCC007B79BA79F9798020FFF79AFF00BF083752
:100CDC00BD4680BD80B582B000AF03460A46FB809E
:100CEC001346BB8005F072FC0246B988FB88CB1A10
:100CFC00013392FBF3F101FB03F3D31A9AB2FB8895
:100D0C0013449BB218460837BD4680BD80B400AF73
:100D1C001D4B1B889BB219461C4B18781C4A0B4662
:100D2C005B000B44134402461A70174B1B889BB292
:100D3C001946164B5878164A0B465B000B44134465
:100D4C00013302461A70104B1B889BB219460F4B8D
:100D5C0098780F4A0B465B000B441344023302464F
:100D6C001A70094B1B889BB201339AB2064B1A803E
:100D7C00054B1B889BB21F2B02D9034B00221A80F8
:100D8C0000BFBD4680BC7047D0040020E0030020AB
:100D9C007004002090B583B002AF344B1B889AB21C
:100DAC00334B1B889BB29A425CD0304B1B889BB256
:100DBC001946304A0B465B000B44134418782B4BF6
:100DCC001B889BB219462B4A0B465B000B44134401
:100DDC0001331978254B1B889BB21C46254A2346A8
:100DEC005B002344134402331B781A4600F054FD75
:100DFC00214B19780123009301230022FFF758FEA1
:100E0C001D4B1B780133DAB21B4B1A701A4B1B7833
:100E1C00062B02D9184B01221A70174B1B781A4655
:100E2C00D2001344DBB20B33D9B2134B1B781A46E6
:100E3C00D2001344DBB21333DBB2002200928022C7
:100E4C00002001F04FF9094B1B889BB201339AB279
:100E5C00064B1A80054B1B889BB21F2B02D9034BE8
:100E6C0000221A8000BF0437BD4690BDD20400207A
:100E7C00D00400207004002012000020B0B586B011
:100E8C0004AF02F05DFC00F0D7F800F07FFA00F040
:100E9C0019F900F027FA00F04FFA00F041F900F0D0
:100EAC0093F900F0E5F9FFF701FDFFF727FD4FF48B
:100EBC007A7002F0A7FCFFF7CDFD3C21534804F0FB
:100ECC009DFA3C21524804F099FA524B1B686FF082
:100EDC0001021A6100F012FE01F09CFD4E4B002243
:100EEC005A714E4BB3F91430DAB24B4BDA704C4B9F
:100EFC001A78494B1A704A4B1A78474B5A70484B20
:100F0C001A78454B9A7002F073FC0346184605F0AC
:100F1C002FFB404804F000F9404BDB88D8B23F4B24
:100F2C009B88DB003F4A99183C4B9B881A463E4BEA
:100F3C009A5C3A4B1B8ADCB2384B5B8ADBB280255D
:100F4C000295374D01950093234600F069FD034649
:100F5C009AB2364B1A8002F04BFC38600023FB71BE
:100F6C004DE0FA79324913465B0013449B000B4465
:100F7C0008331B78002B3FD0FA792D4913465B00C0
:100F8C0013449B000B4404331B683A68D11AFA795A
:100F9C00274813465B0013449B00034402331B7821
:100FAC001A46244B33F81230994225D972B600BF39
:100FBC00FA791F4913465B0013449B000B441B88B2
:100FCC00D8B2FA791A4913465B0013449B000B44C0
:100FDC0002331B7800221946FFF769FEFA7914498F
:100FEC0013465B0013449B000B44083300221A7019
:100FFC00FFF78CFE62B600BFFB790133FB7197F9EA
:10100C000730002BADDAFFF7C5FEA4E77402002011
:10101C00BC0200200403002068040020D40000203F
:10102C00E4030020207D0008107D000864040020EB
:10103C00D4040020F07C000880B590B000AF07F11C
:10104C00180328220021184605F05BFC3B1D0022EA
:10105C001A605A609A60DA601A610123BB614FF41E
:10106C008033FB6100233B620123BB6202237B6361
:10107C004FF48033BB634FF4E013FB6307F11803A9
:10108C00184603F039FC0346002B01D000F0FEFBA0
:10109C000F237B600223BB600023FB604FF4806353
:1010AC003B6100237B613B1D0221184603F0A6FE29
:1010BC000346002B01D000F0E9FB00BF4037BD46D2
:1010CC0080BD000080B500AF124B134A1A60114B63
:1010DC00124A5A600F4B00229A600E4B0022DA60C3
:1010EC000C4B4FF480421A610A4B00225A61094B97
:1010FC0000229A61074B0022DA61064B00221A6229
:10110C00044802F04DFF0346002B01D000F0BEFB5B
:10111C0000BF80BD2002002000540040A0860100CA
:10112C0080B58CB000AF07F10C03242200211846C7
:10113C0005F0E7FB3B1D00221A605A60214B4FF073
:10114C0080421A601F4B00225A601E4B00229A608C
:10115C001C4B4FF6FF72DA601A4B00221A61194BC6
:10116C0000229A610323FB6002233B6101237B6114
:10117C000023BB610423FB6102233B6201237B62DE
:10118C000023BB620423FB6207F10C0319460D48D4
:10119C0004F092F80346002B01D000F077FB0023FB
:1011AC007B600023BB603B1D1946064804F05AFBCC
:1011BC000346002B01D000F069FB00BF3037BD4661
:1011CC0080BD00BF7402002080B58CB000AF07F169
:1011DC000C0324220021184605F093FB3B1D002232
:1011EC001A605A60204B214A1A601F4B00225A6029
:1011FC001D4B00229A601C4B4FF6FF72DA601A4BA3
:10120C0000221A61184B00229A610323FB6002230F
:10121C003B6101237B610023BB610423FB6102233F
:10122C003B6201237B620023BB620423FB6207F158
:10123C000C0319460C4804F03FF80346002B01D070
:10124C0000F024FB00237B600023BB603B1D194690
:10125C00054804F007FB0346002B01D000F016FBF9
:10126C0000BF3037BD4680BDBC02002000040040EA
:10127C0080B582B000AF3B4600221A605A60174B13
:10128C00174A1A60154B48F69F425A60134B0022BE
:10129C009A60124B40F2E732DA60104B00221A616E
:1012AC000E4B00229A6108210C4803F0B5FF03464F
:1012BC00002B01D000F0EAFA00233B6000237B6096
:1012CC003B461946054804F0CDFA0346002B01D0E5
:1012DC0000F0DCFA00BF0837BD4680BD04030020D7
:1012EC000008004080B500AF114B124A1A60104B39
:1012FC0047F612225A600E4B00229A600C4B0022C9
:10130C00DA600B4B00221A61094B0C225A61084B14
:10131C0000229A61064B0022DA61054804F012FBA8
:10132C000346002B01D000F0B1FA00BF80BD00BF16
:10133C004C0300200038014080B500AF114B124A1D
:10134C001A60104B4FF4E1325A600E4B00229A6037
:10135C000C4B0022DA600B4B00221A61094B0C2259
:10136C005A61084B00229A61064B0022DA6105484B
:10137C0004F0E8FA0346002B01D000F087FA00BF16
:10138C0080BD00BF940300200044004080B588B0AD
:10139C0000AF07F1100300221A605A609A60DA60FD
:1013AC00324B9B69314A43F0100393612F4B9B697D
:1013BC0003F01003FB60FB682C4B9B692B4A43F03A
:1013CC0020039361294B9B6903F02003BB60BB682E
:1013DC00264B9B69254A43F004039361234B9B697D
:1013EC0003F004037B607B68204B9B691F4A43F02E
:1013FC00080393611D4B9B6903F008033B603B683A
:10140C0001224FF400511A4802F081FD4FF40053B1
:10141C003B6101237B610023BB610223FB6107F16C
:10142C0010031946124802F0D7FB30233B61114BD5
:10143C007B610123BB6107F1100319460E4802F0D2
:10144C00CBFB002200210A2002F0D7FA0A2002F07E
:10145C00F0FA00220021172002F0CFFA172002F038
:10146C00E8FA00BF2037BD4680BD00BF0010024027
:10147C0000100140000031100008014080B500AFA1
:10148C00044B1B680133034A136000F077FB00BF69
:10149C0080BD00BFDC03002080B582B000AF786057
:1014AC00391D4FF0FF330122034804F09BFA7B688F
:1014BC0018460837BD4680BD94030020B0B586B0F1
:1014CC0000AF78607B681B68AC4A934240F0CF81D8
:1014DC00786803F073FEAA4B1B6800225A62A94B72
:1014EC001B88002B00F0C381A54803F015FEA54B0B
:1014FC001C89A44B1B891846FEF7E4FE0546A14B3C
:10150C00DB684FF07E511846FEF728FE034619465D
:10151C002846FEF72BFF03461846FFF777F80346DD
:10152C009BB219462046FFF7D5FB03461A46944B4F
:10153C001B68DA62934B1C89924B1B891846FEF789
:10154C00C1FE05468F4BDB684FF07E511846FEF707
:10155C0005FE034619462846FEF708FF03461846C3
:10156C00FFF754F803469BB219462046FFF7B2FB2F
:10157C0003461A46824BDA600023FB750EE0FB7DB6
:10158C00814AD35C804AD1787F4A12791846FFF79A
:10159C007BFBFFF7BBFBFB7D0133FB757A4B5B7968
:1015AC00FA7D9A42EBD302F023F9386100BF774BF6
:1015BC001B88013B9BB219460020FFF78BFB0346AF
:1015CC00FB81FB89724AD25C6F4B1A706E4B1A7896
:1015DC00704B1B789A42EAD06B4B1A786D4B1A7091
:1015EC00684BB3F914309BB2664AB2F9162092B22A
:1015FC0011461846FFF76EFB0346DAB2624BDA70FF
:10160C00614B01225A715F4BB3F918309BB25D4AA2
:10161C00B2F91A2092B211461846FFF75BFB03464B
:10162C00DAB2594B1A71584BDB781A465A4B33F8CD
:10163C001230002B44D00023BB753DE0BA7D5749D6
:10164C0013465B0013449B000B4408331B7883F058
:10165C000103DBB2002B2CD04B4B1B78BA7D184608
:10166C004E4913465B0013449B000B4402461A8000
:10167C00BA7D454BD878494913465B0013449B000F
:10168C000B44023302461A70BA7D444913465B0080
:10169C0013449B000B4404333A691A60BA7D3F49EA
:1016AC0013465B0013449B000B44083301221A7051
:1016BC0006E0BB7D0133BB7597F91630002BBDDA04
:1016CC00304B5B88002B00F0D280304B1B889A1E6D
:1016DC00FB899A426BDDFB8902332D4AD25C2A4B83
:1016EC005A70294B5B790133DAB2274B5A71264B6E
:1016FC00DB781A46284B33F81230002B57D00023D6
:10170C007B7550E07A7D254913465B0013449B00A2
:10171C000B4408331B7883F00103DBB2002B3FD062
:10172C00194B5B787A7D18461C4913465B001344B1
:10173C009B000B4402461A807A7D134BD8781749CC
:10174C0013465B0013449B000B44023302461A7091
:10175C007A7D124913465B0013449B000B440433FF
:10176C003A691A607A7D0D4913465B0013449B005D
:10177C000B44083301221A7019E000BF0008004026
:10178C0004030020D400002068040020640400201E
:10179C00E4030020D40A0020F07C0008D4040020CC
:1017AC007B7D01337B7597F91530002BAADA324B10
:1017BC001B881A1FFB899A4259DDFB8904332F4A77
:1017CC00D25C2F4B9A702E4B5B790133DAB22C4BD7
:1017DC005A712B4BDB781A462A4B33F81230002BFC
:1017EC0045D000233B753EE03A7D274913465B000C
:1017FC0013449B000B4408331B7883F00103DBB2CA
:10180C00002B2DD01E4B9B783A7D18461E49134653
:10181C005B0013449B000B4402461A803A7D184B24
:10182C00D878194913465B0013449B000B440233D0
:10183C0002461A703A7D144913465B0013449B0010
:10184C000B4404333A691A603A7D0F4913465B0026
:10185C0013449B000B44083301221A7000BF06E0AE
:10186C003B7D01333B7597F91430002BBCDA00BF7C
:10187C001837BD46B0BD00BF64040020E40300204F
:10188C0068040020F07C0008D404002080B400AF71
:10189C0072B600BF00BFFDE780B586B002AF03464D
:1018AC00FB710B46BB7113467B71FB7903F00F0385
:1018BC00DBB20133FB73FB7923F00F03BB733A4AA2
:1018CC00FB791370384ABB795370374A7B79937024
:1018DC0007F10802BB791146184600F075F807F1BC
:1018EC0008031846FEF72CFC0346032B0ED107F118
:1018FC0008031846FEF724FC03461A4607F10803B2
:10190C0013442A491A460B461B881380BB7BB02B09
:10191C002DD0B02B37DC802B1CD0902B33D17B7986
:10192C00002B0CD0FA7B7B79019307F10803009311
:10193C0013461F4A16211F4804F048FF2FE0FA7B7C
:10194C0007F10803009313461B4A1621194804F0AB
:10195C003DFF24E0FA7B7B79019307F108030093A8
:10196C001346164A1621134804F030FF17E0F97B92
:10197C00BB797A79019200930B46114A16210D48D6
:10198C0004F024FF0BE0F979BB797A79019200938A
:10199C000B460C4A1621074804F018FF00BF054BF4
:1019AC0018461037BD4680BDD80A0020747A00084E
:1019BC00787A0008DC0A00208C7A00089C7A0008EF
:1019CC00B07A0008C07A000880B584B000AF034636
:1019DC003960FB71FB790F4AA2FB0323DB08DBB2F6
:1019EC00013BFB73FA790B4BA3FB0213D9080B4693
:1019FC005B000B449B00D31ABB73BB7B064A52F8AB
:101A0C002320FB7B0549386804F016FF00BF103714
:101A1C00BD4680BDABAAAAAA14000020D07A00084B
:101A2C0080B485B000AF396011461A460346FB718D
:101A3C000B46BB7113467B717B790133DBB21A46C3
:101A4C00520013449B00DAB2FB791344FB72FB7A0D
:101A5C00FB730023BB811BE0B7F90C2093B201335D
:101A6C009BB2BB81FB691344FA7B1A70B7F90C303B
:101A7C00013BBA7993FBF2F101FB02F29B1A1A4675
:101A8C003B6813441B78BB72FA7BBB7A1344FB7321
:101A9C00F97B3B7E5A1C13465B0013449B001A4691
:101AAC00FB791344994204DCB7F90C303A6A9A4238
:101ABC00D2DCB7F90C3018461437BD4680BC7047E1
:101ACC0080B485B000AF0346FB71FA79094BA3FBD8
:101ADC000213D9080B465B000B449B00D31AFB7313
:101AEC00FB7B054A52F8233018461437BD4680BCA0
:101AFC00704700BFABAAAAAA7800002080B400AF40
:101B0C00034B00221A7000BFBD4680BC704700BF5B
:101B1C00540B002080B487B000AF78603960154B4F
:101B2C001B78072B20D8134B1B785A1CD1B2114AA7
:101B3C0011701A46104913465B0013449B000B446A
:101B4C00796819600C4913465B0013449B000B44E5
:101B5C00043339681960084913465B0013449B0031
:101B6C000B44083300221A6000BF1C37BD4680BCF2
:101B7C00704700BF540B0020F40A002080B582B0DF
:101B8C0000AF0023FB712DE01B4B1968FA791B4841
:101B9C0013465B0013449B00034408331B68C91AAB
:101BAC00FA79164813465B0013449B000344043334
:101BBC001B68994213D3FA790F4B19680F481346D7
:101BCC005B0013449B00034408331960FA790B49FA
:101BDC0013465B0013449B000B441B689847FB792E
:101BEC000133FB71064B1B78FA799A42CCD300BFB8
:101BFC0000BF0837BD4680BDDC030020F40A00207E
:101C0C00540B002080B400AF00BFBD4680BC7047B1
:101C1C0080B586B004AF0346FB714FF0FF330293DF
:101C2C0001230193FB1D009301230022782103481B
:101C3C0002F0FAFA00BF0837BD4680BD2002002032
:101C4C0080B586B004AF786039603B689BB24FF0CA
:101C5C00FF32029201937B6800930123402278218A
:101C6C00034802F0E1FA00BF0837BD4680BD00BF53
:101C7C002002002080B500AFFFF7C4FF642001F004
:101C8C00C1FD002000F090FA2020FFF7C1FF0020DA
:101C9C00FFF7BEFFB020FFF7BBFFC820FFF7B8FF70
:101CAC000020FFF7B5FF1020FFF7B2FF4020FFF731
:101CBC00AFFFFF2000F064FAA120FFF7A9FFA620D8
:101CCC00FFF7A6FFA820FFF7A3FF3F20FFF7A0FF19
:101CDC00A420FFF79DFFD320FFF79AFF0020FFF70A
:101CEC0097FFD520FFF794FFF020FFF791FFD92045
:101CFC00FFF78EFF2220FFF78BFFDA20FFF788FF1C
:101D0C001220FFF785FFDB20FFF782FF2020FFF773
:101D1C007FFF8D20FFF77CFF1420FFF779FF012058
:101D2C0000F042FA002000F00FF800F025F8054B07
:101D3C0000221A80034B00225A80024B01221A7196
:101D4C0000BF80BD580F002080B582B000AF0346A5
:101D5C00FB71FB79002B01D1002300E0FF234FF432
:101D6C0080621946034804F0CCFD00BF0837BD461D
:101D7C0080BD00BF580B002080B582B000AF00239F
:101D8C00FB7116E0FB79503BDBB21846FFF740FFC6
:101D9C000020FFF73DFF1020FFF73AFFFB79DB0136
:101DAC00084A134480211846FFF74AFFFB79013398
:101DBC00FB71FB79072BE5D900BF00BF0837BD4687
:101DCC0080BD00BF580B002080B483B000AF034629
:101DDC00FB710B46BB7113467B7197F90730002BD7
:101DEC003DDBBB793F2B3AD87B79012B1AD1FA79A1
:101DFC00BB79DB08D8B20346DB0113441A4AD35C27
:101E0C005AB2BB7903F00703012101FA03F35BB269
:101E1C00134359B2FA790346DB011344C9B2124A8F
:101E2C00D1541DE0FA79BB79DB08D8B20346DB014B
:101E3C0013440D4AD35C5AB2BB7903F0070301215A
:101E4C0001FA03F35BB2DB435BB2134059B2FA798C
:101E5C000346DB011344C9B2034AD15400E000BF6E
:101E6C000C37BD4680BC7047580B002090B589B02C
:101E7C0000AF0446384680E80E002346FB73FB7B1C
:101E8C001F2B02D9FB7B7E2B01D9002379E0BB6889
:101E9C00002B05D0BA68FB7B203B13441B7800E079
:101EAC003B78FB75394B1B881A46FB7D1344802B02
:101EBC0006DC364B5B881A467B781344402B01DDDD
:101ECC0000235EE00023FB614DE07A68FB7B203B46
:101EDC00797801FB03F31946FB690B445B0013444F
:101EEC001B883B610023BB6136E03A69BB6902FA8F
:101EFC0003F303F40043002B13D0244B1B88DAB2FA
:101F0C00BB69DBB21344D8B2204B5B88DAB2FB69F5
:101F1C00DBB21344DBB297F830201946FFF754FFBD
:101F2C0017E01A4B1B88DAB2BB69DBB21344D8B288
:101F3C00164B5B88DAB2FB69DBB21344D9B297F863
:101F4C003030002B0CBF01230023DBB21A46FFF705
:101F5C003BFFBB690133BB61FB7DBA699A42C4D3B9
:101F6C00FB690133FB617B781A46FB699342ACD366
:101F7C00064B1A88FB7D9BB213449AB2034B1A8012
:101F8C00FB7B18462437BD4690BD00BF580F002080
:101F9C0080B586B002AFF860384680E80E0013E0DA
:101FAC00FB6818783B7E00933B460ECBFFF75EFF39
:101FBC0003461A46FB681B789A4202D0FB681B78D2
:101FCC0008E0FB680133FB60FB681B78002BE7D152
:101FDC00FB681B7818461037BD4680BD80B483B0B3
:101FEC0000AF03460A46FB711346BB71FB799AB2EC
:101FFC00054B1A80BB799AB2034B5A8000BF0C3741
:10200C00BD4680BC704700BF580F002090B589B00A
:10201C0000AF0446084611461A462346FB71034698
:10202C00BB710B467B7113463B717A79FB79D31AE2
:10203C00002BB8BF5B42BB613A79BB79D31A002B3A
:10204C00B8BF5B427B61FA797B799A4201D201235A
:10205C0001E04FF0FF333B61BA793B799A4201D2F0
:10206C00012301E04FF0FF33FB60BA697B69D31A9F
:10207C00FB6197F8302039797B791846FFF7A4FE7D
:10208C0024E097F83020B979FB791846FFF79CFECD
:10209C00FB695B00BB607B695B42BA689A4208DDF6
:1020AC00FA697B69D31AFB613B69DAB2FB79134499
:1020BC00FB71BA68BB699A4208DAFA69BB691344C6
:1020CC00FB61FB68DAB2BB791344BB71FA797B799B
:1020DC009A42D6D1BA793B799A42D2D100BF2437F1
:1020EC00BD4690BD90B585B000AF0446084611467C
:1020FC001A462346FB710346BB710B467B71134694
:10210C003B71FA797B79934228BF13467B737A79BA
:10211C00FB79934238BF13463B73BA793B799342B0
:10212C0028BF1346FB723A79BB79934238BF1346EA
:10213C00BB72FB7AFB7317E07B7BBB7309E097F8F0
:10214C002020F97BBB7B1846FFF73EFEBB7B01339F
:10215C00BB73BA7B3B7B9A4203D897F90E30002BAA
:10216C00EDDAFB7B0133FB73FA7BBB7A9A4203D823
:10217C00FB7B3F2BE0D900BF00BF1437BD4690BDA1
:10218C0080B584B000AF0346FB718123FB73FB7BEE
:10219C001846FFF73DFDFB791846FFF739FD00BFE8
:1021AC001037BD4680BD000080B584B000AF03463B
:1021BC00FB71FB79002B05D0AF23FB73084B01227D
:1021CC005A7104E0AE23FB73054B00225A71FB7B62
:1021DC001846FFF71DFD00BF1037BD4680BD00BF80
:1021EC00580F002080B485B000AF154B9B69144A82
:1021FC0043F001039361124B9B6903F00103BB6035
:10220C00BB680F4BDB690E4A43F08053D3610C4B18
:10221C00DB6903F080537B607B680A4B5B68FB6077
:10222C00FB6823F0E063FB60FB6843F00073FB602A
:10223C00044AFB68536000BF1437BD4680BC70472E
:10224C00001002400000014080B588B000AF7860FB
:10225C0007F1100300221A605A609A60DA607B68FA
:10226C001B68154A934223D1144B9B69134A43F0C4
:10227C0008039361114B9B6903F00803FB60FB6837
:10228C00C0233B6112237B610323FB6107F1100325
:10229C0019460B4801F0A0FC084BDB69074A43F4D4
:1022AC000013D361054BDB6903F40013BB60BB68FF
:1022BC0000BF2037BD4680BD0054004000100240D6
:1022CC00000C014080B58AB000AF786007F11803AC
:1022DC0000221A605A609A60DA607B681B68B3F15E
:1022EC00804F24D1284BDB69274A43F00103D3618B
:1022FC00254BDB6903F001037B617B69224B9B69F6
:10230C00214A43F0040393611F4B9B6903F00403C0
:10231C003B613B690323BB610023FB6101233B62EF
:10232C0007F118031946194801F056FC28E07B68A0
:10233C001B68174A934223D1134BDB69124A43F0B3
:10234C000203D361104BDB6903F00203FB60FB68F3
:10235C000D4B9B690C4A43F0040393610A4B9B6938
:10236C0003F00403BB60BB68C023BB610023FB61AB
:10237C0001233B6207F118031946044801F02CFCB9
:10238C0000BF2837BD4680BD001002400008014048
:10239C000004004080B584B000AF78607B681B6897
:1023AC000D4A934213D10D4BDB690C4A43F00403E5
:1023BC00D3610A4BDB6903F00403FB60FB6800226A
:1023CC0000211E2001F019FB1E2001F032FB00BF82
:1023DC001037BD4680BD00BF000800400010024011
:1023EC0080B58AB000AF786007F1180300221A603C
:1023FC005A609A60DA607B681B683B4A934232D120
:10240C003A4B9B69394A43F480439361374B9B6940
:10241C0003F480437B617B69344B9B69334A43F003
:10242C0004039361314B9B6903F004033B613B69EB
:10243C004FF40073BB610223FB6103237B6207F142
:10244C00180319462A4801F0C7FB4FF48063BB619F
:10245C000023FB6100233B6207F118031946244853
:10246C0001F0BAFB3CE07B681B68224A934237D1EF
:10247C001E4BDB691D4A43F40033D3611B4BDB69F4
:10248C0003F40033FB60FB68184B9B69174A43F05D
:10249C0004039361154B9B6903F00403BB60BB6899
:1024AC000423BB610223FB6103237B6207F1180346
:1024BC0019460F4801F090FB0823BB610023FB6118
:1024CC0000233B6207F118031946094801F084FB0D
:1024DC0000220021262001F090FA262001F0A9FA12
:1024EC0000BF2837BD4680BD0038014000100240B7
:1024FC00000801400044004080B584B000AF0346A2
:10250C00FB80FB88102B02D0202B12D023E0FB8801
:10251C001946134801F0E4FC0346FB73FB7B002BCC
:10252C000CBF01230023DBB219460020FEF78EF806
:10253C0011E0FB8819460A4801F0D2FC0346FB73F4
:10254C00FB7B002B0CBF01230023DBB219460120BF
:10255C00FEF77CF800BF00BF1037BD4680BD00BF42
:10256C000008014080B400AF00BFFDE780B400AFAD
:10257C0000BFFDE780B400AF00BFFDE780B400AF43
:10258C0000BFFDE780B400AF00BFFDE780B400AF33
:10259C0000BFBD4680BC704780B400AF00BFBD46D5
:1025AC0080BC704780B400AF00BFBD4680BC704794
:1025BC0080B500AF01F057FA01F008F900BF80BDFB
:1025CC0080B500AF102001F0D3FC00BF80BD80B5FA
:1025DC0000AF202001F0CCFC00BF80BD80B500AF67
:1025EC00024802F099FF00BF80BD00BF0403002029
:1025FC0080B500AF024803F081FA00BF80BD00BF78
:10260C009403002080B400AF01231846BD4680BC63
:10261C00704780B582B000AF7860396004F0C0F9C3
:10262C00034616221A604FF0FF3318460837BD4692
:10263C0080BD80B582B000AF78604FF0FF31786814
:10264C00FFF7E7FF00BFFDE780B586B000AFF8608D
:10265C00B9607A6000237B610AE0AFF30080014629
:10266C00BB685A1CBA60CAB21A707B6901337B61B1
:10267C007A697B689A42F0DB7B6818461837BD464E
:10268C0080BD80B586B000AFF860B9607A60002379
:10269C007B6109E0BB685A1CBA601B781846FEF7D0
:1026AC00FBFE7B6901337B617A697B689A42F1DBC3
:1026BC007B6818461837BD4680BD80B483B000AF28
:1026CC0078604FF0FF3318460C37BD4680BC70471E
:1026DC0080B483B000AF786039603B684FF400522F
:1026EC005A60002318460C37BD4680BC704780B436
:1026FC0083B000AF7860012318460C37BD4680BC10
:10270C00704780B485B000AFF860B9607A60002380
:10271C0018461437BD4680BC7047000080B586B0A3
:10272C0000AF7860144A154BD31A7B617B693B610F
:10273C00134B1B68002B02D1114B124A1A60104B21
:10274C001A687B6813443A699A4207D204F028F954
:10275C0003460C221A604FF0FF3309E0084B1B684C
:10276C00FB60074B1A687B681344054A1360FB68CF
:10277C0018461837BD4680BD0050002000040000EC
:10278C00600F00200011002080B400AF00BFBD46D8
:10279C0080BC704780B500AF4FF40051114801F078
:1027AC00CEFB114B1B78002B13D0104B1B8803F066
:1027BC0001039BB2002B06D0012301220D210C48F2
:1027CC00FEF7DAF905E0012301220D210948FEF795
:1027DC00D3F9064B1B8801339AB2044B1A8000BF05
:1027EC0080BD00BF00100140870F0020640F002047
:1027FC008C0F00209C0F002080B582B000AF284BBE
:10280C001B685B6A1BB2DA0F13445B10FB80254B11
:10281C001B685B6A1BB2002B00DA03339B10BB8076
:10282C00214B1B78002B06D0204AFB8853801E4B73
:10283C0000221A7030E0FA881C4BB3F902309BB2BC
:10284C00D31A9BB27B80B7F90230002B0AD0174AFF
:10285C00FB885380B7F90220B7F9063011461846A9
:10286C0000F0CEFABA88114BB3F900309BB2D31AF0
:10287C009BB23B80B7F90030002B0DD00C4B0022E3
:10288C001A700A4ABB881380B7F90020B7F90430D4
:10289C001146184600F0D4F80837BD4680BD00BF7D
:1028AC0074020020BC020020860F0020680F00205C
:1028BC00870F002080B500AFFDF74EFF0020FDF71D
:1028CC00D3FF0346012B02D0022B4FD051E0484BD3
:1028DC001B78002B14BF01230023DBB283F0010310
:1028EC00DBB203F00103DAB2414B1A70414BB3F97E
:1028FC000030092B22D0092B3ADC052B02D0082BF7
:10290C0005D035E00021002000F07AFA2DE0384B9C
:10291C001B7883F00103DBB2002B07D0364BB3F9E5
:10292C0014300021184600F06BFA1EE0324BB3F95C
:10293C0016300021184600F063FA16E02C4B1B7879
:10294C0083F00103DBB2002B07D02B4BB3F918300B
:10295C000021184600F054FA06E0274BB3F91A3060
:10296C000021184600F04CFA00BF01E000BF00E067
:10297C0000BF0120FDF778FF0346012B02D0022B8C
:10298C0032D032E01D4B00221A701D4B1B88002BDD
:10299C0003D01B4B00221A8002E0194B01221A8033
:1029AC00144B00221A80164B1B885A00154B1B68BF
:1029BC005A62134B1B885B009BB21AB20E4B5A80A7
:1029CC00114B1868002301220021FEF7D5F80C4B9F
:1029DC001B88002B01D00D4800E00D48012301227B
:1029EC000D21FEF7C9F800E000BF00BF80BD00BF9D
:1029FC00880F0020AC0F0020680F0020870F0020EC
:102A0C00D400002074020020AC000020F47B0008ED
:102A1C00F87B000880B500AFC8210648FFF77AF8AC
:102A2C000B210548FFF776F80D210448FFF772F8E3
:102A3C0000BF80BDA127000805280008C128000898
:102A4C00B0B596B000AF03460A46FB801346BB8078
:102A5C00AB4BB3F900309AB2BB8813449BB21AB299
:102A6C00A74B1A80A64BB3F90030002B03DAA44B0A
:102A7C0000221A800DE0A24BB3F900301A460A234B
:102A8C009A4206D30A239BB2013B9BB21AB29C4BCF
:102A9C001A809B4BB3F900301A469A4B53F822001C
:102AAC00002301220021FEF767F8974B01221A70D0
:102ABC00934BB3F90030092B00F28A8101A252F832
:102ACC0023F000BFF92A0008292B0008AD2D0008BF
:102ADC00592B0008872B0008712C0008B52B000817
:102AEC00252C0008BB2C00085D2D0008874BB3F982
:102AFC000420874B1B685A62844BB3F90420834B28
:102B0C005A80844B1B88002B01D0834800E08348FB
:102B1C00012301220D21FEF72FF85AE17B4BB3F96B
:102B2C0006207B4B1B685A62784BB3F90620774B17
:102B3C005A80784B5B88002B01D0794800E07748AD
:102B4C00012301220D21FEF717F842E16F4BB3F977
:102B5C0008206F4B1B685A626C4BB3F908206B4B07
:102B6C005A806C4B9B881A466E4B53F822000123FB
:102B7C0001220D21FEF700F82BE1644BB3F90A207A
:102B8C00634B1B685A62614BB3F90A205F4B5A8046
:102B9C00604BDB88DBB21846FEF792FF0123012263
:102BAC000D21FDF7E9FF14E1584BB3F90C20584BFC
:102BBC001B685A62554BB3F90C20544B5A80554B39
:102BCC001B895B089BB21D46524B1B895B089BB251
:102BDC001846FDF777FB04464E4BDB684FF07E51F1
:102BEC001846FDF7BBFA034619462046FDF7BEFB17
:102BFC0003461846FDF70AFD03469BB207F1080091
:102C0C002A46494903F018FE07F108000123012266
:102C1C000D21FDF7B1FFDCE03C4BB3F90E203C4B32
:102C2C001B685A62394BB3F90E20384B5A80394B1A
:102C3C00DB683E491846FDF799FB03461846FDF73D
:102C4C00E5FC03469BB21A4607F1080338491846BF
:102C5C0003F0F2FD07F10800012301220D21FDF71D
:102C6C008BFFB6E0334B00221A70284BB3F91020BF
:102C7C00274B1B685A62254BB3F91020234B5A8003
:102C8C00244B1B8A1A46234B5B8A2B492B4803F097
:102C9C00D3FD204B5B8A1A4629492A4803F0CCFD08
:102CAC00012301220D212548FDF766FF91E0214B00
:102CBC0000221A70154BB3F91420154B1B685A627D
:102CCC00124BB3F91420114B5A80124BB3F9143038
:102CDC001A46104BB3F916301B49184803F0ACFDDB
:102CEC000C4BB3F916301A461849164803F0A4FDDC
:102CFC00012301220D211148FDF73EFF69E000BFC1
:102D0C00AC0F0020AC000020860F0020680F0020C4
:102D1C0074020020D4000020747C0008787C000829
:102D2C007C7C000844000020847C00080000C84221
:102D3C008C7C0008880F0020947C00088C0F0020ED
:102D4C009C7C00089C0F0020A47C0008B07C000830
:102D5C00224B00221A70224BB3F91820214B1B680E
:102D6C005A621F4BB3F918201D4B5A801E4BB3F9F6
:102D7C0018301A461C4BB3F91A301C491C4803F086
:102D8C005BFD194BB3F91A301A461A491A4803F06D
:102D9C0053FD012301220D211548FDF7EDFE18E02E
:102DAC000F4BB3F91C200F4B1B685A620C4BB3F939
:102DBC001C200B4B5A800C4BB3F91C300F4A1B01D7
:102DCC0013441868012301220D21FDF7D5FE00E004
:102DDC0000BF00BF5837BD46B0BD00BF880F0020F4
:102DEC00680F002074020020D4000020B87C00087A
:102DFC008C0F0020C47C00089C0F0020887D0008EC
:102E0C00B0B59CB004AF03460A46FB801346BB80AA
:102E1C008A4BB3F90030092B00F2548401A252F80A
:102E2C0023F000BF592E0008C52E000849350008B4
:102E3C00112F0008A72F0008B331000889300008B3
:102E4C00393100081933000831340008B7F906305D
:102E5C00002B03F00103B8BF5B421BB29AB2784B54
:102E6C001A80774B1B88002B07D0764B1B680022EF
:102E7C005A62744802F050F902E0724802F09EF96E
:102E8C00714B1B685B6A1AB2704B9A806C4B1B8837
:102E9C00002B01D06E4A00E06E4A07F10C036E491C
:102EAC00184603F0C9FC07F10C00012301220D2187
:102EBC00FDF762FE00F007BCB7F90630002B03F0FB
:102ECC000103B8BF5B421BB29AB25D4B5A805E4B9A
:102EDC001B685B6A1AB25D4BDA80594B5B88002B1E
:102EEC0001D05E4A00E05B4A07F10C035A491846D0
:102EFC0003F0A2FC07F10C00012301220D21FDF7C8
:102F0C003BFEE0E34E4B9A88BB8813449BB2A7F878
:102F1C005E30B7F95E30002B03DA0023A7F85E3081
:102F2C0006E0B7F95E300C2B02DD0C23A7F85E30FF
:102F3C00B7F85E20424B9A80434B1B685B6A1AB20F
:102F4C00424B1A813E4B9B881A46454B53F8220044
:102F5C00012301220D21FDF70FFE394BDB88D8B27E
:102F6C00374B9B88DB003F4A9918354B9B881A4698
:102F7C003D4B9A5C324B1B8ADCB2314B5B8ADBB229
:102F8C0080250295394D019500932346FEF748FDA7
:102F9C0003469AB2364B1A8095E3294BDA88BB88E4
:102FAC0013449AB2264BDA80254BDA88314BA3FBBB
:102FBC000213D9080B465B000B449B00D31A9AB240
:102FCC001F4BDA80204B1B685B6A1AB21F4B5A816D
:102FDC001B4BDB88DBB21846FEF772FD0246184B22
:102FEC00DB8807F10C00244903F026FC07F10C00E8
:102FFC00012301220D21FDF7BFFD114BDB88D8B257
:10300C000F4B9B88DB00174A99180D4B9B881A466F
:10301C00154B9A5C0A4B1B8ADCB2094B5B8ADBB200
:10302C0080250295114D019500932346FEF7F8FC7F
:10303C0003469AB20E4B1A8045E300BFAC0F00203A
:10304C00D40000200403002074020020680F00202C
:10305C00747C0008787C0008CC7C00087C7C000820
:10306C0044000020207D0008107D0008E4030020AF
:10307C0064040020ABAAAAAAD07C0008914B1A8940
:10308C00BB8819460902C91A89001944C900CB1A10
:10309C00DB009BB213449AB28A4B1A81894B1B8971
:1030AC00C72B02D8874BC8221A81864B1B8940F646
:1030BC00B832934203D9834B40F6B8321A81814B14
:1030CC001A89804B1A81804B1B685B6A1AB27F4B42
:1030DC009A817C4B1B895B089BB21D46794B1B89E3
:1030EC005B089BB21846FDF7EDF80446754BDB68A0
:1030FC004FF07E511846FDF731F80346194620462D
:10310C00FDF734F903461846FDF780FA03469BB2E7
:10311C0007F10C002A466E4903F08EFB07F10C00F8
:10312C00012301220D21FDF727FDCCE2B7F9063072
:10313C00002B06DA644B1B6800225A620023FB80CA
:10314C0009E0B7F90630042B05DD5F4B1B680A223A
:10315C005A620523FB80B7F906305E4A52F82330D9
:10316C00584AD360584B1B685B6A1AB2574BDA81CA
:10317C00544BDB6858491846FDF7F8F803461846D7
:10318C00FDF744FA03469BB21A4607F10C03534968
:10319C00184603F051FB07F10C00012301220D210D
:1031AC00FDF7EAFC8FE24E4B01221A704D4B1B7857
:1031BC0083F00103DBB2002B32D0424B1A8ABB885E
:1031CC0013449AB23F4B1A823E4B1B8A002B02D1FE
:1031DC003C4B00221A823B4B1B8A1A46394B5B8AAA
:1031EC00013B9A4205DB374B5B8A013B9AB2354B6C
:1031FC001A82354B1B685B6A1AB2344B1A82314BFC
:10320C001B8A1A462F4B5B8A3749384803F014FB4C
:10321C002C4B5B8A1A463649364803F00DFB31E0DD
:10322C00284B5A8ABB8813449AB2264B5A82254B98
:10323C005B8A072B02D9234B08225A82214B5B8ACB
:10324C001A46204B1B8A01339A4205DC1D4B1B8A04
:10325C0001339AB21B4B5A821B4B1B685B6A1AB226
:10326C001A4B5A82174B1B8A1A46164B5B8A1E49FD
:10327C001E4803F0E1FA134B1B8A1A461E491D48DF
:10328C0003F0DAFA0F4BDB88D8B20E4B9B88DB00CD
:10329C001A4A99180B4B9B881A46194B9A5C094B86
:1032AC001B8ADCB2074B5B8ADBB280250295154D7D
:1032BC00019500932346FEF7B3FB03469AB2124BDB
:1032CC001A8000E2D400002074020020680F002055
:1032DC00847C00084C8400080000C8428C7C0008E8
:1032EC00870F0020880F0020947C00088C0F002092
:1032FC009C7C00089C0F0020D87C0008207D0008D6
:10330C00107D0008E403002064040020954B01228A
:10331C001A70954B1B7883F00103DBB2002B40D065
:10332C00924BB3F914309AB2BB8813449BB21AB2C5
:10333C008E4B9A828D4BB3F91430002B02DC8B4BE5
:10334C0001229A82894BB3F914300F2B02DD874B83
:10335C0010229A82854BB3F91420844BB3F91630A2
:10336C009A4204DB814BB3F91420804BDA82804BF8
:10337C001B685B6A1AB27F4B9A827C4BB3F9143090
:10338C001A467A4BB3F916307B497C4803F054FA51
:10339C00764BB3F916301A4679497A4803F04CFA51
:1033AC0091E1724BB3F916309AB2BB8813449BB2BD
:1033BC001AB26E4BDA826D4BB3F91630002B02DC6D
:1033CC006A4B0122DA82694BB3F91620674BB3F9C9
:1033DC0014309A4204DC654BB3F91620634B9A8285
:1033EC00624BB3F916300F2B02DD604B1022DA82E0
:1033FC005F4B1B685B6A1AB25E4BDA825B4BB3F9AC
:10340C0014301A46594BB3F916305B495B4803F03C
:10341C0013FA564BB3F914301A465B49594803F06A
:10342C000BFA50E14F4B01221A704F4B1B7883F073
:10343C000103DBB2002B40D04C4BB3F918309AB2DD
:10344C00BB8813449BB21AB2484B1A83474BB3F94F
:10345C001830012B02DC454B01221A83434BB3F984
:10346C0018307E2B02DD414B7F221A833F4BB3F980
:10347C0018203E4BB3F91A309A4204DB3B4BB3F99C
:10348C0018203A4B5A833A4B1B685B6A1AB2394B79
:10349C001A83364BB3F918301A46344BB3F91A3039
:1034AC003A49364803F0C8F9304BB3F91A301A468A
:1034BC003749344803F0C0F905E12C4BB3F91A3005
:1034CC009AB2BB8813449BB21AB2284B5A83274B2F
:1034DC00B3F91A30012B02DC244B01225A83234B03
:1034EC00B3F91A20214BB3F918309A4204DC1F4B64
:1034FC00B3F91A201D4B1A831C4BB3F91A307E2BCF
:10350C0002DD1A4B7F225A83194B1B685B6A1AB275
:10351C00184B5A83154BB3F918301A46134BB3F9A1
:10352C001A301A49154803F087F9104BB3F91830C3
:10353C001A461849134803F07FF9C4E00B4BB3F952
:10354C001C309AB2BB8813449BB21AB2074B9A83B5
:10355C00064BB3F91C300A2B1EDD044B0A229A834E
:10356C0022E000BF870F0020880F0020D40000202D
:10357C0074020020680F0020A47C00088C0F00202F
:10358C009C7C00089C0F0020E07C0008B87C0008A4
:10359C00C47C0008E87C00084D4BB3F91C30002BB0
:1035AC0002DC4B4B00229A834A4B1B685B6A1AB2B3
:1035BC00494B9A83464BB3F91C30484A1B011344C0
:1035CC001868012301220D21FDF7D6FA404BB3F9FF
:1035DC001C30424A1B01134404331B781A463C4BE3
:1035EC00DA803B4BB3F91C303C4A1B0113440533C6
:1035FC001B781A46364B9A80354BB3F91C30374A38
:10360C001B01134406331B781A46314B5A80304B3E
:10361C00B3F91C30314A1B01134408331A882C4B64
:10362C001A812B4BB3F91C302C4A1B0113440A335F
:10363C001B781A462A4B53F82230254AD360244B68
:10364C00B3F91C30254A1B0113440A331B785B0069
:10365C009BB21AB2204BDA811D4BB3F91C301F4AB6
:10366C001B0113440B331B781A46194B1A82184B47
:10367C00B3F91C30194A1B0113440C331B781A463E
:10368C00134B5A82124BDB88D8B2114B9B88DB0050
:10369C00144A99180E4B9B881A46134B9A5C0C4B88
:1036AC001B8ADCB20A4B5B8ADBB2802502950F4D7C
:1036BC00019500932346FEF7B3F903469AB20C4BDF
:1036CC001A8000E000BF00BF6037BD46B0BD00BF30
:1036DC00D400002074020020680F0020887D0008B0
:1036EC004C840008207D0008107D0008E4030020B5
:1036FC0064040020FFF748F80B480C490C4A0023DF
:10370C0002E0D458C4500433C4188C42F9D3094A8B
:10371C00094C002301E013600432A242FBD303F0F6
:10372C0045F9FDF7ABFB7047000000205801002065
:10373C00648500085801002000110020FEE70000FD
:10374C0080B500AF084B1B68074A43F010031360A9
:10375C00032000F047F90F2000F008F8FEF742FDB7
:10376C000023184680BD00BF0020024080B582B007
:10377C0000AF7860124B1A68124B1B7819464FF445
:10378C007A73B3FBF1F3B2FBF3F3184600F05FF975
:10379C000346002B01D001230EE07B680F2B0AD8C7
:1037AC00002279684FF0FF3000F027F9064A7B6859
:1037BC001360002300E0012318460837BD4680BD86
:1037CC00A8000020F8000020F400002080B400AF16
:1037DC00054B1B781A46054B1B681344034A1360B0
:1037EC0000BFBD4680BC7047F8000020B00F002021
:1037FC0080B400AF024B1B681846BD4680BC7047B6
:10380C00B00F002080B584B000AF7860FFF7F0FFF8
:10381C00B8607B68FB60FB68B3F1FF3F05D00A4BD7
:10382C001B781A46FB681344FB6000BFFFF7E0FFF0
:10383C000246BB68D31AFA689A42F7D800BF00BF99
:10384C001037BD4680BD00BFF800002080B485B0A5
:10385C0000AF78607B6803F00703FB600C4BDB6800
:10386C00BB60BA684FF6FF031340BB60FB681A02DB
:10387C00BB68134343F0BF6343F40033BB60044A9B
:10388C00BB68D36000BF1437BD4680BC704700BF17
:10389C0000ED00E080B400AF044BDB681B0A03F0C2
:1038AC0007031846BD4680BC704700BF00ED00E022
:1038BC0080B483B000AF0346FB7197F90730002B3F
:1038CC000BDBFB7903F01F02064997F907305B0904
:1038DC00012000FA02F241F8232000BF0C37BD464C
:1038EC0080BC704700E100E080B483B000AF0346B9
:1038FC003960FB7197F90730002B0ADB3B68DAB2B1
:10390C000C4997F907301201D2B20B4483F800230B
:10391C000AE03B68DAB20849FB7903F00F03043B79
:10392C001201D2B20B441A7600BF0C37BD4680BCD4
:10393C00704700BF00E100E000ED00E080B489B00A
:10394C0000AFF860B9607A60FB6803F00703FB61B5
:10395C00FB69C3F10703042B28BF0423BB61FB697C
:10396C000433062B02D9FB69033B00E000237B6187
:10397C004FF0FF32BB6902FA03F3DA43BB681A401B
:10398C007B699A404FF0FF317B6901FA03F3D9430D
:10399C007B680B40134318462437BD4680BC7047E8
:1039AC0080B582B000AF78607B68013BB3F1807F5B
:1039BC0001D301230FE00A4A7B68013B53600F21BE
:1039CC004FF0FF30FFF790FF054B00229A60044B3D
:1039DC0007221A60002318460837BD4680BD00BF79
:1039EC0010E000E080B582B000AF78607868FFF737
:1039FC002DFF00BF0837BD4680BD80B586B000AF37
:103A0C000346B9607A60FB7300237B61FFF742FFCA
:103A1C0078617A68B9687869FFF790FF024697F980
:103A2C000F3011461846FFF75FFF00BF1837BD4631
:103A3C0080BD80B582B000AF0346FB7197F90730AB
:103A4C001846FFF735FF00BF0837BD4680BD80B56F
:103A5C0082B000AF78607868FFF7A2FF0346184683
:103A6C000837BD4680BD80B500AFFDF707FD00BF30
:103A7C0080BD80B485B000AF78600023FB737B6899
:103A8C0093F82130DBB2022B08D07B6804229A63B6
:103A9C007B68002283F82020012320E07B681B68D0
:103AAC001A687B681B6822F00E021A607B681B6820
:103ABC001A687B681B6822F001021A607B681A6C1A
:103ACC007B68DB6B012101FA02F25A607B680122F0
:103ADC0083F821207B68002283F82020FB7B18468A
:103AEC001437BD4680BC704780B584B000AF786099
:103AFC000023FB737B6893F82130DBB2022B05D0DB
:103B0C007B6804229A630123FB7351E07B681B687A
:103B1C001A687B681B6822F00E021A607B681B68AF
:103B2C001A687B681B6822F001021A607B681B68AC
:103B3C00224A934229D07B681B68214A934222D0A7
:103B4C007B681B681F4A93421AD07B681B681E4A0D
:103B5C00934212D07B681B681C4A93420AD07B6844
:103B6C001B681B4A934202D14FF480130EE04FF0B6
:103B7C0080730BE04FF4803308E04FF4805305E082
:103B8C004FF4807302E0102300E00123114A5360CC
:103B9C007B68012283F821207B68002283F8202097
:103BAC007B685B6B002B03D07B685B6B78689847FA
:103BBC00FB7B18461037BD4680BD00BF0800024095
:103BCC001C000240300002404400024058000240F9
:103BDC006C0002400000024080B48BB000AF7860F3
:103BEC00396000237B6200233B6269E101227B6A1E
:103BFC0002FA03F3FB613B681B68FA691340BB6173
:103C0C00BA69FB699A4240F058813B685B689A4AF2
:103C1C0093425ED0984A934275D8984A934258D0B2
:103C2C00964A93426FD8964A934252D0944A934202
:103C3C0069D8944A93424CD0924A934263D8924AA0
:103C4C00934246D0904A93425DD8122B2AD8122B1D
:103C5C0059D801A252F823F0DF3C0008B93C000807
:103C6C00CB3C00080D3D0008133D0008133D000837
:103C7C00133D0008133D0008133D0008133D0008D8
:103C8C00133D0008133D0008133D0008133D0008C8
:103C9C00133D0008133D0008133D0008C13C00080B
:103CAC00D53C0008794A934213D02CE03B68DB6882
:103CBC003B6229E03B68DB6804333B6224E03B68F1
:103CCC00DB6808333B621FE03B68DB680C333B620C
:103CDC001AE03B689B68002B02D104233B6213E083
:103CEC003B689B68012B05D108233B627B68FA6912
:103CFC001A6109E008233B627B68FA695A6103E0A8
:103D0C0000233B6200E000BFBB69FF2B01D87B683E
:103D1C0001E07B6804337B61BB69FF2B02D87B6AB3
:103D2C009B0002E07B6A083B9B003B617B691A6845
:103D3C000F213B6901FA03F3DB431A40396A3B69F3
:103D4C0001FA03F31A437B691A603B685B6803F062
:103D5C008053002B00F0B1804D4B9B694C4A43F0D3
:103D6C00010393614A4B9B6903F00103BB60BB6881
:103D7C00484A7B6A9B08023352F82330FB607B6A0B
:103D8C0003F003039B000F2202FA03F3DB43FA68F0
:103D9C001340FB607B68404A934213D07B683F4AD8
:103DAC0093420DD07B683E4A934207D07B683D4AD4
:103DBC00934201D1032306E0042304E0022302E032
:103DCC00012300E000237A6A02F003029200934080
:103DDC00FA681343FB602F497B6A9B080233FA682D
:103DEC0041F823203B685B6803F48013002B06D05A
:103DFC002D4B9A682C49BB6913438B6006E02A4B08
:103E0C009A68BB69DB43284913408B603B685B684D
:103E1C0003F40013002B06D0234BDA682249BB694C
:103E2C001343CB6006E0204BDA68BB69DB431E49C9
:103E3C001340CB603B685B6803F40033002B06D067
:103E4C00194B5A681849BB6913434B6006E0164B73
:103E5C005A68BB69DB43144913404B603B685B6891
:103E6C0003F48033002B21D00F4B1A680E49BB6929
:103E7C0013430B6021E000BF000032100000311032
:103E8C000000221000002110000012100000111080
:103E9C00001002400000014000080140000C0140ED
:103EAC000010014000140140000401400B4B1A6843
:103EBC00BB69DB43094913400B607B6A01337B62AE
:103ECC003B681A687B6A22FA03F3002B7FF48EAEF0
:103EDC0000BF00BF2C37BD4680BC704700040140BA
:103EEC0080B485B000AF78600B467B807B689A68A5
:103EFC007B881340002B02D00123FB7301E00023CD
:103F0C00FB73FB7B18461437BD4680BC704780B4EE
:103F1C0083B000AF78600B467B8013467B707B7858
:103F2C00002B03D07A887B681A6103E07B881A0423
:103F3C007B681A6100BF0C37BD4680BC704780B4EB
:103F4C0085B000AF78600B467B807B68DB68FB60DC
:103F5C007A88FB6813401A04FB68D9437B880B40B2
:103F6C001A437B681A6100BF1437BD4680BC70478A
:103F7C0080B582B000AF0346FB80084B5A69FB88C2
:103F8C001340002B06D0054AFB885361FB8818466A
:103F9C00FEF7B2FA00BF0837BD4680BD00040140F1
:103FAC0080B584B000AF78607B68002B01D1012311
:103FBC002BE17B6893F83D30DBB2002B06D17B689C
:103FCC00002283F83C207868FEF73EF97B682422B7
:103FDC0083F83D207B681B681A687B681B6822F09D
:103FEC0001021A607B681B681A687B681B6842F4C4
:103FFC0000421A607B681B681A687B681B6822F495
:10400C0000421A6001F042F8F8607B685B68814AF4
:10401C00934207D8FB68804A934294BF0123002344
:10402C00DBB206E0FB687D4A934294BF0123002378
:10403C00DBB2002B01D00123E7E0FB68784AA2FB3E
:10404C0003239B0CBB607B681B685B6823F03F0100
:10405C007B681B68BA680A435A607B681B681B6ADA
:10406C0023F03F017B685B686A4A934202D8BB68C5
:10407C00013309E0BB684FF4967202FB03F3694A03
:10408C00A2FB03239B0901337A6812680B4313626A
:10409C007B681B68DB6923F44F4222F0FF027B68CC
:1040AC005B685C498B4219D8FB68591E7B685B685E
:1040BC005B00B1FBF3F3591C40F6FC730B40002B77
:1040CC000AD0FB68591E7B685B685B00B1FBF3F39D
:1040DC000133C3F30B0351E004234FE07B689B686F
:1040EC00002B11D1FB68581E7B6859680B465B008E
:1040FC000B44B0FBF3F30133C3F30B03002B0CBFE6
:10410C0001230023DBB212E0FB68581E7B68596860
:10411C000B469B000B4499000B44B0FBF3F30133AB
:10412C00C3F30B03002B0CBF01230023DBB2002BCA
:10413C0001D0012322E07B689B68002B0ED1FB6829
:10414C00581E7B6859680B465B000B44B0FBF3F3BD
:10415C000133C3F30B0343F400430FE0FB68581E19
:10416C007B6859680B469B000B4499000B44B0FBD1
:10417C00F3F30133C3F30B0343F440437968096849
:10418C001343CB617B681B681B6823F0C0017B6801
:10419C00DA697B681B6A1A437B681B680A431A60DE
:1041AC007B681B689B6823F4034323F0FF037A6846
:1041BC0011697A68D26811437A6812680B4393606C
:1041CC007B681B68DB6823F0FF017B685A697B689E
:1041DC009B691A437B681B680A43DA607B681B681F
:1041EC001A687B681B6842F001021A607B68002227
:1041FC001A647B68202283F83D207B6800221A63B6
:10420C007B68002283F83E20002318461037BD46F9
:10421C0080BD00BFA08601007F841E00FF083D000A
:10422C0083DE1B43D34D621080B588B002AFF860BB
:10423C00084611461A4603467B810B463B811346C2
:10424C00FB80FFF7D5FA7861FB6893F83D30DBB261
:10425C00202B40F0D9807B690093192301226D49F2
:10426C00F86800F071F90346002B01D00223CCE072
:10427C00FB6893F83C30012B01D10223C5E0FB68AD
:10428C00012283F83C20FB681B681B6803F00103C8
:10429C00012B07D0FB681B681A68FB681B6842F08F
:1042AC0001021A60FB681B681A68FB681B6822F421
:1042BC0000621A60FB68212283F83D20FB684022D3
:1042CC0083F83E20FB6800221A64FB683A6A5A6243
:1042DC00FB68BA8C5A85FB685B8D9AB2FB681A85B1
:1042EC00FB684D4ADA62F8883A8979897B690193CF
:1042FC00BB6A00930346F86800F090F80346002B65
:10430C0052D0012381E07A69B96AF86800F036FA74
:10431C000346002B0DD0FB681B6C042B07D1FB68EC
:10432C001B681A68FB681B6842F400721A60012350
:10433C006BE0FB685B6A1A78FB681B681A61FB68A8
:10434C005B6A5A1CFB685A62FB681B8D013B9AB274
:10435C00FB681A85FB685B8D9BB2013B9AB2FB68CC
:10436C005A85FB681B685B6903F00403042B1BD1A3
:10437C00FB681B8D002B17D0FB685B6A1A78FB68F7
:10438C001B681A61FB685B6A5A1CFB685A62FB6803
:10439C001B8D013B9AB2FB681A85FB685B8D9BB247
:1043AC00013B9AB2FB685A85FB681B8D002BAAD186
:1043BC007A69B96AF86800F029FA0346002B0DD027
:1043CC00FB681B6C042B07D1FB681B681A68FB6825
:1043DC001B6842F400721A60012316E0FB681B682C
:1043EC001A68FB681B6842F400721A60FB68202292
:1043FC0083F83D20FB68002283F83E20FB680022F6
:10440C0083F83C20002300E0022318461837BD46F1
:10441C0080BD00BF020010000000FFFF80B588B017
:10442C0002AFF860084611461A4603467B810B46DC
:10443C003B811346FB80FB681B681A68FB681B6892
:10444C0042F480721A607B6A00933B6A00224FF040
:10445C000111F86800F078F80346002B0DD0FB68CA
:10446C001B681B6803F48073B3F5807F03D1FB6872
:10447C004FF400721A6403235FE07B89DBB21A46A7
:10448C00FB681B6802F0FE021A617B6A3A6A2D49CE
:10449C00F86800F0D3F80346002B01D001234CE060
:1044AC0000237B61FB681B685B697B61FB681B6895
:1044BC009B697B617B697A6A396AF86800F05EF9FE
:1044CC000346002B0DD0FB681B6C042B07D1FB683B
:1044DC001B681A68FB681B6842F400721A6001239F
:1044EC002BE0FB88012B05D13B89DAB2FB681B68FA
:1044FC001A6121E03B891B0A9BB2DAB2FB681B688C
:10450C001A617A6A396AF86800F038F90346002BA8
:10451C000DD0FB681B6C042B07D1FB681B681A6859
:10452C00FB681B6842F400721A60012305E03B89AA
:10453C00DAB2FB681B681A61002318461837BD46AF
:10454C0080BD00BF0200010080B584B000AFF860F0
:10455C00B9603B601346FB7148E03B68B3F1FF3F29
:10456C0044D0FFF745F90246BB69D31A3A689A4220
:10457C0002D33B68002B39D1BB681B0CDBB2012B7F
:10458C000DD1FB681B685B69DA43BB6813409BB2B7
:10459C00002B0CBF01230023DBB21A460CE0FB6896
:1045AC001B689B69DA43BB6813409BB2002B0CBFA2
:1045BC0001230023DBB21A46FB799A4216D1FB6821
:1045CC0000221A63FB68202283F83D20FB6800223E
:1045DC0083F83E20FB681B6C43F02002FB681A64D6
:1045EC00FB68002283F83C20012323E0BB681B0CF2
:1045FC00DBB2012B0DD1FB681B685B69DA43BB682E
:10460C0013409BB2002B0CBF01230023DBB21A46D4
:10461C000CE0FB681B689B69DA43BB6813409BB2D8
:10462C00002B0CBF01230023DBB21A46FB799A4204
:10463C0093D0002318461037BD4680BD80B584B09A
:10464C0000AFF860B9607A603B6071E0FB681B6892
:10465C005B6903F48063B3F5806F23D1FB681B683F
:10466C001A68FB681B6842F400721A60FB681B68CE
:10467C006FF480625A61FB6800221A63FB68202287
:10468C0083F83D20FB68002283F83E20FB681B6CFE
:10469C0043F00402FB681A64FB68002283F83C2098
:1046AC00012367E07B68B3F1FF3F41D0FFF7A0F82F
:1046BC0002463B68D31A7A689A4202D37B68002B75
:1046CC0036D1BB681B0CDBB2012B0CD1FB681B6811
:1046DC005B69DA43BB6813409BB2002B14BF012308
:1046EC000023DBB20BE0FB681B689B69DA43BB68F9
:1046FC0013409BB2002B14BF01230023DBB2002B11
:10470C0016D0FB6800221A63FB68202283F83D2038
:10471C00FB68002283F83E20FB681B6C43F02002F0
:10472C00FB681A64FB68002283F83C20012321E01B
:10473C00BB681B0CDBB2012B0CD1FB681B685B69E3
:10474C00DA43BB6813409BB2002B14BF0123002338
:10475C00DBB20BE0FB681B689B69DA43BB68134058
:10476C009BB2002B14BF01230023DBB2002B7FF480
:10477C006DAF002318461037BD4680BD80B584B0A0
:10478C0000AFF860B9607A6034E0F86800F086F841
:10479C000346002B01D0012334E0BB68B3F1FF3F8B
:1047AC0028D0FFF725F802467B68D31ABA689A42DC
:1047BC0002D3BB68002B1DD1FB681B685B6903F03F
:1047CC008003802B16D0FB6800221A63FB68202222
:1047DC0083F83D20FB68002283F83E20FB681B6CAD
:1047EC0043F02002FB681A64FB68002283F83C202B
:1047FC00012307E0FB681B685B6903F08003802BD7
:10480C00C3D1002318461037BD4680BD80B584B097
:10481C0000AFF860B9607A6034E0F86800F03EF8F8
:10482C000346002B01D0012334E0BB68B3F1FF3FFA
:10483C0028D0FEF7DDFF02467B68D31ABA689A428D
:10484C0002D3BB68002B1DD1FB681B685B6903F0AE
:10485C000403042B16D0FB6800221A63FB68202289
:10486C0083F83D20FB68002283F83E20FB681B6C1C
:10487C0043F02002FB681A64FB68002283F83C209A
:10488C00012307E0FB681B685B6903F00403042B3E
:10489C00C3D1002318461037BD4680BD80B483B009
:1048AC0000AF78607B681B685B6903F48063B3F5C9
:1048BC00806F1BD17B681B686FF480625A617B68C8
:1048CC0000221A637B68202283F83D207B6800223B
:1048DC0083F83E207B681B6C43F004027B681A64EF
:1048EC007B68002283F83C20012300E0002318465B
:1048FC000C37BD4680BC704780B586B000AF786081
:10490C007B68002B01D1012372E27B681B6803F0EA
:10491C000103002B00F08780924B5B6803F00C03C3
:10492C00042B0CD08F4B5B6803F00C03082B12D1BB
:10493C008C4B5B6803F48033B3F5803F0BD1894B10
:10494C001B6803F40033002B6CD07B685B68002B76
:10495C0068D101234CE27B685B68B3F5803F06D1DC
:10496C00804B1B687F4A43F4803313602EE07B68D6
:10497C005B68002B0CD17B4B1B687A4A23F4803389
:10498C001360784B1B68774A23F4802313601DE077
:10499C007B685B68B3F5A02F0CD1724B1B68714A16
:1049AC0043F4802313606F4B1B686E4A43F48033CF
:1049BC0013600BE06B4B1B686A4A23F48033136063
:1049CC00684B1B68674A23F4802313607B685B6821
:1049DC00002B13D0FEF70CFF386108E0FEF708FF40
:1049EC0002463B69D31A642B01D9032300E25D4BC9
:1049FC001B6803F40033002BF0D014E0FEF7F8FE34
:104A0C00386108E0FEF7F4FE02463B69D31A642BCA
:104A1C0001D90323ECE1534B1B6803F40033002B47
:104A2C00F0D100E000BF7B681B6803F00203002B91
:104A3C0063D04C4B5B6803F00C03002B0BD0494B41
:104A4C005B6803F00C03082B1CD1464B5B6803F42A
:104A5C008033002B16D1434B1B6803F00203002B51
:104A6C0005D07B681B69012B01D00123C0E13D4BB4
:104A7C001B6823F0F8027B685B69DB003949134340
:104A8C000B603AE07B681B69002B20D0364B01226F
:104A9C001A60FEF7ADFE386108E0FEF7A9FE02468B
:104AAC003B69D31A022B01D90323A1E12D4B1B68BF
:104ABC0003F00203002BF0D02A4B1B6823F0F80202
:104ACC007B685B69DB00274913430B6015E0264BC1
:104ADC0000221A60FEF78CFE386108E0FEF788FEB3
:104AEC0002463B69D31A022B01D9032380E11D4BEB
:104AFC001B6803F00203002BF0D17B681B6803F0EA
:104B0C000803002B3AD07B689B69002B19D0174BFC
:104B1C0001221A60FEF76CFE386108E0FEF768FEB1
:104B2C0002463B69D31A022B01D9032360E10D4BDA
:104B3C005B6A03F00203002BF0D0012000F0CEFAE8
:104B4C001CE00A4B00221A60FEF752FE38610FE09F
:104B5C00FEF74EFE02463B69D31A022B08D90323FB
:104B6C0046E100BF00100240000042428004424275
:104B7C00924B5B6A03F00203002BE9D17B681B6844
:104B8C0003F00403002B00F0A6800023FB758B4B75
:104B9C00DB6903F08053002B0DD1884BDB69874A0E
:104BAC0043F08053D361854BDB6903F08053BB60CA
:104BBC00BB680123FB75824B1B6803F48073002BCD
:104BCC0018D17F4B1B687E4A43F480731360FEF749
:104BDC000FFE386108E0FEF70BFE02463B69D31A64
:104BEC00642B01D9032303E1754B1B6803F4807319
:104BFC00002BF0D07B68DB68012B06D16F4B1B6A56
:104C0C006E4A43F0010313622DE07B68DB68002BD6
:104C1C000CD16A4B1B6A694A23F001031362674B80
:104C2C001B6A664A23F0040313621CE07B68DB6892
:104C3C00052B0CD1614B1B6A604A43F004031362D1
:104C4C005E4B1B6A5D4A43F0010313620BE05B4B46
:104C5C001B6A5A4A23F001031362584B1B6A574ACA
:104C6C0023F0040313627B68DB68002B15D0FEF77E
:104C7C00BFFD38610AE0FEF7BBFD02463B69D31A63
:104C8C0041F28832934201D90323B1E04B4B1B6AAA
:104C9C0003F00203002BEED014E0FEF7A9FD3861FF
:104CAC000AE0FEF7A5FD02463B69D31A41F28832B1
:104CBC00934201D903239BE0404B1B6A03F0020390
:104CCC00002BEED1FB7D012B05D13C4BDB693B4A24
:104CDC0023F08053D3617B68DB69002B00F0878065
:104CEC00364B5B6803F00C03082B61D07B68DB69E7
:104CFC00022B46D1334B00221A60FEF779FD386146
:104D0C0008E0FEF775FD02463B69D31A022B01D968
:104D1C0003236DE0294B1B6803F00073002BF0D1CB
:104D2C007B681B6AB3F5803F08D1244B5B6823F486
:104D3C0000327B689B68214913434B601F4B5B68B7
:104D4C0023F474127B68196A7B685B6A0B431B49FA
:104D5C0013434B601B4B01221A60FEF749FD38616F
:104D6C0008E0FEF745FD02463B69D31A022B01D938
:104D7C0003233DE0114B1B6803F00073002BF0D0B4
:104D8C0035E0104B00221A60FEF732FD386108E066
:104D9C00FEF72EFD02463B69D31A022B01D90323E1
:104DAC0026E0064B1B6803F00073002BF0D11EE0CD
:104DBC007B68DB69012B07D1012319E0001002404D
:104DCC0000700040600042420B4B5B68FB60FB686C
:104DDC0003F480327B681B6A9A4206D1FB6803F4A9
:104DEC0070127B685B6A9A4201D0012300E00023B9
:104DFC0018461837BD4680BD0010024080B584B0FF
:104E0C0000AF786039607B68002B01D10123D0E0C2
:104E1C006A4B1B6803F007033A689A4210D9674B38
:104E2C001B6823F0070265493B6813430B60634B17
:104E3C001B6803F007033A689A4201D00123B8E0DB
:104E4C007B681B6803F00203002B20D07B681B6877
:104E5C0003F00403002B05D0594B5B68584A43F40C
:104E6C00E06353607B681B6803F00803002B05D0DC
:104E7C00534B5B68524A43F460535360504B5B682E
:104E8C0023F0F0027B689B684D4913434B607B68B1
:104E9C001B6803F00103002B40D07B685B68012B7F
:104EAC0007D1474B1B6803F40033002B15D10123AA
:104EBC007FE07B685B68022B07D1414B1B6803F0DA
:104ECC000073002B09D1012373E03D4B1B6803F0E9
:104EDC000203002B01D101236BE0394B5B6823F0FB
:104EEC0003027B685B68364913434B60FEF780FC1A
:104EFC00F8600AE0FEF77CFC0246FB68D31A41F22C
:104F0C008832934201D9032353E02D4B5B6803F0A5
:104F1C000C027B685B689B009A42EBD1274B1B68A9
:104F2C0003F007033A689A4210D2244B1B6823F013
:104F3C00070222493B6813430B60204B1B6803F0AC
:104F4C0007033A689A4201D0012332E07B681B6860
:104F5C0003F00403002B08D0194B5B6823F4E062C8
:104F6C007B68DB68164913434B607B681B6803F056
:104F7C000803002B09D0124B5B6823F460527B684A
:104F8C001B69DB000E4913434B6000F021F802460D
:104F9C000B4B5B681B0903F00F030A49CB5C22FA2D
:104FAC0003F3094A1360094B1B681846FEF7DEFB36
:104FBC00002318461037BD4680BD00BF00200240BC
:104FCC000010024034840008A8000020F4000020E7
:104FDC0080B487B000AF0023FB600023BB600023CC
:104FEC007B6100237B6000233B611E4B5B68FB6095
:104FFC00FB6803F00C03042B02D0082B03D027E032
:10500C00194B3B6127E0FB689B0C03F00F03174A1D
:10501C00D35C7B60FB6803F48033002B10D0114B06
:10502C005B685B0C03F00103114AD35CBB607B68CB
:10503C000D4A03FB02F2BB68B2FBF3F37B6104E0A5
:10504C007B680C4A02FB03F37B617B693B6102E0EA
:10505C00054B3B6100BF3B6918461C37BD4680BC05
:10506C00704700BF0010024000127A0064840008F0
:10507C007484000800093D0080B400AF024B1B682B
:10508C001846BD4680BC7047A800002080B500AF14
:10509C00FFF7F2FF0246054B5B681B0A03F00703A0
:1050AC000349CB5C22FA03F3184680BD0010024082
:1050BC004484000880B500AFFFF7DEFF0246054BC5
:1050CC005B68DB0A03F007030349CB5C22FA03F3AA
:1050DC00184680BD001002404484000880B485B09E
:1050EC0000AF78600A4B1B680A4AA2FB03235B0AD9
:1050FC007A6802FB03F3FB6000BFFB685A1EFA6080
:10510C00002BF9D100BF00BF1437BD4680BC7047DF
:10511C00A8000020D34D621080B485B000AF786039
:10512C007B6893F83D30DBB2012B01D001233AE0D0
:10513C007B68022283F83D207B681B68DA687B68F9
:10514C001B6842F00102DA607B681B68184A9342C4
:10515C000ED07B681B68B3F1804F09D07B681B684D
:10516C00144A934204D07B681B68134A934211D1B2
:10517C007B681B689B6803F00703FB60FB68062BCE
:10518C0010D07B681B681A687B681B6842F00102B0
:10519C001A6007E07B681B681A687B681B6842F022
:1051AC0001021A60002318461437BD4680BC7047B4
:1051BC00002C0140000400400008004080B483B083
:1051CC0000AF78607B681B68DA687B681B6822F02C
:1051DC000102DA607B681B681A6A41F211131340F2
:1051EC00002B0FD17B681B681A6A40F244431340B2
:1051FC00002B07D17B681B681A687B681B6822F040
:10520C0001021A607B68012283F83D2000231846B6
:10521C000C37BD4680BC704780B582B000AF78605B
:10522C0039607B68002B01D1012341E07B6893F846
:10523C003D30DBB2002B06D17B68002283F83C208A
:10524C007868FDF7A7F87B68022283F83D207B681D
:10525C001A687B6804331946104600F071FA7B68B3
:10526C001B681A687B681B6822F008021A607B684E
:10527C001B6819687B681B683A680A431A607B686C
:10528C00012283F846207B68012283F83E207B684C
:10529C00012283F83F207B68012283F842207B683F
:1052AC00012283F843207B68012283F83D200023F0
:1052BC0018460837BD4680BD80B586B000AF786013
:1052CC0039607B68002B01D1012393E07B6893F854
:1052DC003D30DBB2002B06D17B68002283F83C20EA
:1052EC007868FCF7EFFF7B68022283F83D207B682F
:1052FC001B689B687A68126823F4804323F00703C9
:10530C0093607B681A687B6804331946104600F07A
:10531C0017FA7B681B689B687B617B681B689B69C1
:10532C003B617B681B681B6AFB603B681B687A6986
:10533C0013437B613B6923F4407323F003033B610C
:10534C003B689A683B689B691B0213433A69134399
:10535C003B613B6923F4406323F00C033B613B69E5
:10536C0023F4704323F0F0033B613B68DA683B683D
:10537C00DB691B0213433A6913433B613B681B69AE
:10538C001A013B681B6A1B0313433A6913433B61C5
:10539C00FB6823F02203FB603B685A683B685B693F
:1053AC001B011343FA681343FB607B681B687A6923
:1053BC009A607B681B683A699A617B681B68FA681B
:1053CC001A627B68012283F846207B68012283F8ED
:1053DC003E207B68012283F83F207B68012283F802
:1053EC0042207B68012283F843207B68012283F8EA
:1053FC003D20002318461837BD4680BD80B584B0CB
:10540C0000AF786039607B6893F83E30FB737B6843
:10541C0093F83F30BB737B6893F842307B737B68A7
:10542C0093F843303B733B68002B10D1FB7B012B73
:10543C0002D17B7B012B01D0012369E07B68022226
:10544C0083F83E207B68022283F8422031E03B68DF
:10545C00042B10D1BB7B012B02D13B7B012B01D048
:10546C00012355E07B68022283F83F207B680222EF
:10547C0083F843201DE0FB7B012B08D1BB7B012B68
:10548C0005D17B7B012B02D13B7B012B01D001236E
:10549C003EE07B68022283F83E207B68022283F880
:1054AC003F207B68022283F842207B68022283F82B
:1054BC0043203B68002B03D03B68042B08D00FE043
:1054CC007B681B6801220021184600F0A7F916E042
:1054DC007B681B6801220421184600F09FF90EE03E
:1054EC007B681B6801220021184600F097F97B6845
:1054FC001B6801220421184600F090F900BF7B685C
:10550C001B681A687B681B6842F001021A60002352
:10551C0018461037BD4680BD80B584B000AF7860AA
:10552C007B681B68DB68FB607B681B681B69BB6066
:10553C00BB6803F00203002B20D0FB6803F00203CE
:10554C00002B1BD07B681B686FF002021A617B6812
:10555C0001221A777B681B689B6903F00303002BFD
:10556C0003D0786800F0D1F805E0786800F0C4F852
:10557C00786800F0D3F87B6800221A77BB6803F0D8
:10558C000403002B20D0FB6803F00403002B1BD07A
:10559C007B681B686FF004021A617B6802221A7721
:1055AC007B681B689B6903F44073002B03D07868FD
:1055BC0000F0ABF805E0786800F09EF8786800F031
:1055CC00ADF87B6800221A77BB6803F00803002B48
:1055DC0020D0FB6803F00803002B1BD07B681B68F2
:1055EC006FF008021A617B6804221A777B681B68CB
:1055FC00DB6903F00303002B03D0786800F085F817
:10560C0005E0786800F078F8786800F087F87B6837
:10561C0000221A77BB6803F01003002B20D0FB6824
:10562C0003F01003002B1BD07B681B686FF010027B
:10563C001A617B6808221A777B681B68DB6903F4A4
:10564C004073002B03D0786800F05FF805E07868B1
:10565C0000F052F8786800F061F87B6800221A7745
:10566C00BB6803F00103002B0CD0FB6803F00103B3
:10567C00002B07D07B681B686FF001021A617868F9
:10568C00FBF71CFFBB6803F08003002B0CD0FB68FE
:10569C0003F08003002B07D07B681B686FF080023F
:1056AC001A61786800F045F9BB6803F04003002BE1
:1056BC000CD0FB6803F04003002B07D07B681B6801
:1056CC006FF040021A61786800F031F8BB6803F0A3
:1056DC002003002B0CD0FB6803F02003002B07D019
:1056EC007B681B686FF020021A61786800F018F96B
:1056FC0000BF1037BD4680BD80B483B000AF78606A
:10570C0000BF0C37BD4680BC704780B483B000AF7F
:10571C00786000BF0C37BD4680BC704780B483B046
:10572C0000AF786000BF0C37BD4680BC704780B4BA
:10573C0083B000AF786000BF0C37BD4680BC7047AB
:10574C0080B485B000AF786039607B681B68FB6003
:10575C007B682F4A93420BD07B68B3F1804F07D004
:10576C007B682C4A934203D07B682B4A934208D126
:10577C00FB6823F07003FB603B685B68FA681343BB
:10578C00FB607B68224A93420BD07B68B3F1804F5D
:10579C0007D07B681F4A934203D07B681E4A934212
:1057AC0008D1FB6823F44073FB603B68DB68FA6844
:1057BC001343FB60FB6823F080023B685B69134377
:1057CC00FB607B68FA681A603B689A687B68DA62EF
:1057DC003B681A687B689A627B680D4A934203D1D6
:1057EC003B681A697B681A637B6801225A617B6883
:1057FC001B6903F00103002B05D07B681B6923F0A8
:10580C0001027B681A6100BF1437BD4680BC70472B
:10581C00002C0140000400400008004080B487B018
:10582C0000AFF860B9607A60BB6803F01F03012217
:10583C0002FA03F37B61FB681A6A7B69DB431A404B
:10584C00FB681A62FB681A6ABB6803F01F0379686D
:10585C0001FA03F31A43FB681A6200BF1C37BD46FA
:10586C0080BC704780B485B000AF786039607B68CD
:10587C0093F83C30012B01D1022346E07B680122D6
:10588C0083F83C207B68022283F83D207B681B68F0
:10589C005B68FB607B681B689B68BB60FB6823F0E4
:1058AC007003FB603B681B68FA681343FB607B6802
:1058BC001B68FA685A607B681B68164A93420ED0C4
:1058CC007B681B68B3F1804F09D07B681B68124A58
:1058DC00934204D07B681B68104A93420CD1BB687E
:1058EC0023F08003BB603B685B68BA681343BB6002
:1058FC007B681B68BA689A607B68012283F83D203C
:10590C007B68002283F83C20002318461437BD46E0
:10591C0080BC7047002C014000040040000800408F
:10592C0080B483B000AF786000BF0C37BD4680BC3C
:10593C00704780B483B000AF786000BF0C37BD46B1
:10594C0080BC704780B582B000AF78607B68002B5C
:10595C0001D1012342E07B6893F84130DBB2002B8C
:10596C0006D17B68002283F840207868FCF738FD6C
:10597C007B68242283F841207B681B68DA687B688B
:10598C001B6822F40052DA60786800F063FD7B68D3
:10599C001B681A697B681B6822F490421A617B6849
:1059AC001B685A697B681B6822F02A025A617B6863
:1059BC001B68DA687B681B6842F40052DA607B680B
:1059CC0000225A647B68202283F841207B682022C5
:1059DC0083F842207B6800225A630023184608375C
:1059EC00BD4680BD80B58AB002AFF860B9603B603F
:1059FC001346FB8000237B61FB6893F84130DBB2DC
:105A0C00202B75D1BB68002B02D0FB88002B01D159
:105A1C0001236EE0FB6800225A64FB68212283F8A4
:105A2C004120FDF7E5FE7861FB68FA889A84FB68F3
:105A3C00FA88DA84FB689B68B3F5805F08D1FB6851
:105A4C001B69002B04D10023FB61BB68BB6103E025
:105A5C00BB68FB610023BB612EE03B6800937B6954
:105A6C0000228021F86800F001FB0346002B05D0D2
:105A7C00FB68202283F8412003233AE0FB69002BCA
:105A8C000BD1BB691B881A46FB681B68C2F3080262
:105A9C005A60BB690233BB6107E0FB691A78FB688B
:105AAC001B685A60FB690133FB61FB68DB8C9BB2A2
:105ABC00013B9AB2FB68DA84FB68DB8C9BB2002B4F
:105ACC00CBD13B6800937B6900224021F86800F041
