:020000040800F2
:100000000050002059320008451F00084D1F00080D
:10001000551F00085D1F0008651F00080000000054
:100020000000000000000000000000006D1F00083C
:10003000791F000800000000851F0008911F0008BC
:10004000A1320008A1320008A1320008A132000844
:10005000A1320008A1320008A1320008A132000834
:10006000A1320008A1320008A11F0008A132000837
:10007000A1320008A1320008A1320008A132000814
:10008000A1320008A1320008A1320008A132000804
:10009000A1320008A1320008A1320008AF1F0008F9
:1000A000A1320008A1320008A1320008A1320008E4
:1000B000A1320008A1320008BD1F0008A1320008CB
:1000C000A1320008A1320008A1320008A1320008C4
:1000D000A1320008A1320008D11F0008A132000897
:1000E000A1320008A1320008A1320008000000007F
:1000F0000000000000000000000000000000000000
:0C01000000000000000000005FF808F1A3
:10010C0010B5054C237833B9044B13B10448AFF345
:10011C0000800123237010BD90010020000000001E
:10012C001875000808B5034B1BB103490348AFF31E
:10013C00008008BD00000000940100201875000824
:10014C00034613F8012B002AFBD1181A013870470B
:10015C0080B584B000AF03460A46FB711346BB71F1
:10016C0003F0F2F8F860FA793B4913469B0013440C
:10017C009B000B440C331B68FA68D31A1D2B67D9F0
:10018C00FA79354913469B0013449B000B440C33FE
:10019C00FA681A60FA79304913469B0013449B00A5
:1001AC000B441B78DBB2002B0DD0BB79002B0AD093
:1001BC00FA79294913469B0013449B000B440433E2
:1001CC00FA681A6045E0FA79234913469B001344F8
:1001DC009B000B441B78DBB283F00103DBB2002BDA
:1001EC0016D0BB79002B13D0FA791B4913469B0010
:1001FC0013449B000B4401221A70FA7916491346DA
:10020C009B0013449B000B440433FA681A6020E0F3
:10021C00FA79114913469B0013449B000B441B783D
:10022C00DBB2002B15D0FA790B4913469B00134413
:10023C009B000B44013301221A70FA7906491346CC
:10024C009B0013449B000B440833FA681A6000E0CF
:10025C0000BF1037BD4680BDAC01002080B487B014
:10026C0000AF00237B6175E00023FB740023FB606F
:10027C000023BB6072B600BF3B497A6913469B00F2
:10028C0013449B000B4401331B78DBB2002B28D0AA
:10029C000123FB7434497A6913469B0013449B0079
:1002AC000B44013300221A702F497A6913469B00C4
:1002BC0013449B000B4400221A702B497A69134695
:1002CC009B0013449B000B4404331B68FB602649C2
:1002DC007A6913469B0013449B000B4408331B683C
:1002EC00BB6062B600BFFB7C002B30D0BA68FB68E9
:1002FC00D31A7B607B68B3F5FA7F10D31A497A69FD
:10030C0013469B0013449B000B44103302221A70BB
:10031C007B69002B14D07B69012B13D017E0124999
:10032C007A6913469B0013449B000B441033012243
:10033C001A707B69002B07D07B69012B06D006E075
:10034C0000BF04E000BF02E000BF00E000BF7B691B
:10035C0001337B617B69012B86DD00BF00BF1C373D
:10036C00BD4680BC704700BFAC01002080B485B096
:10037C0000AF0346FB71FA790C4913469B001344FA
:10038C009B000B4410331B78FB73FA790749134617
:10039C009B0013449B000B44103300221A70FB7B10
:1003AC0018461437BD4680BC704700BFAC01002016
:1003BC0080B500AF01F048F90D4B5B780133DAB230
:1003CC000C4B1A700A4B1B781A46802393FBF2F3E2
:1003DC00DAB2094B1A70064B5B781A46402393FB32
:1003EC00F2F3DBB2013BDAB2044B1A7000BF80BDF2
:1003FC00907F000855020020560200205702002072
:10040C0080B582B002AF012300930E23802200211D
:10041C00002001F051FB002300930B237D220321CC
:10042C00022001F049FB0421042001F0C1FA384BF1
:10043C00012200920ECB374801F094FA344B5B78D2
:10044C005B00DAB2344B1A701421032001F0B0FABD
:10045C002F4B012200920ECB304801F083FA2C4B2B
:10046C005B781A462A4B1B782D492E4805F090FFD5
:10047C00274B5B781A4652001344DBB20133DAB2D5
:10048C00254B1A701D21032001F092FA204B0122FA
:10049C0000920ECB234801F065FA234B1B781A46C9
:1004AC002249204805F074FF194B5B789B00DBB2A6
:1004BC000233DAB2184B1A702621032001F078FAB5
:1004CC00134B012200920ECB164801F04BFA184B3D
:1004DC001B781A461749134805F05AFF0C4B5B78EA
:1004EC001A4692001344DBB20333DAB20A4B1A7089
:1004FC002F21032001F05CFA054B012200920ECB58
:10050C00084801F02FFA01F021F900BFBD4680BD6B
:10051C00907F000800000020540200203075000875
:10052C0044750008D40100205602002058750008BC
:10053C00570200207075000880B582B000AF0346EA
:10054C00FB71FB79184601F0E9F801F0FFF800BFE8
:10055C000837BD4680BD000080B582B002AF0020D8
:10056C00FFF7EAFF0F4B59780E4B5B780122009294
:10057C008022002001F034FA0023012200210A48D5
:10058C0000F07CF8002301220B21084800F076F8DB
:10059C00012301220D21064800F070F800BFBD4672
:1005AC0080BD00BF907F0008887500089475000816
:1005BC009875000880B586B002AF78600846114681
:1005CC001A460346FB700B46BB7013467B70274BD9
:1005DC001B78BA7802FB03F3BB737868FFF7B0FDA6
:1005EC000346DAB2BB781344FB737B68002B04D050
:1005FC001F4B1B78FA7B9A4202D94FF0FF3331E044
:10060C001C4B1B78FA789A4203D31A4B1B78013B8C
:10061C00FB70194B1B78FA7802FB03F3DBB2023345
:10062C00DAB2BB7B1146184601F0C2F90F4B7A784F
:10063C0000920ECB786801F095F93B7E002B0ED022
:10064C0006E00A4B7A7800920ECB202001F0F8F8E5
:10065C00FB7B5A1CFA73064A12789342F1D301F0D1
:10066C0075F8002318461037BD4680BD907F0008F2
:10067C0056020020570200205502002080B586B09B
:10068C0002AF7860084611461A460346FB700B46CB
:10069C00BB7013467B707868FFF752FD0346DAB2E5
:1006AC00FB781344FB73154B1B78FA7802FB03F3AE
:1006BC00DBB20021184601F07BF9104BBA7800929E
:1006CC000ECB786801F04EF97B78002B0ED006E04B
:1006DC000A4BBA7800920ECB202001F0B1F8FB7BCC
:1006EC005A1CFA73064A12789342F1D301F02EF891
:1006FC00002318461037BD4680BD00BF907F000810
:10070C005602002090B583B000AF0446084611464F
:10071C001A462346FB710346BB710B467B7113468D
:10072C003B717B79002B02D07B79102B01D90123F3
:10073C007B717B79013B7B7197F9073023F00F03B9
:10074C005AB297F9053003F00F035BB213435BB257
:10075C00DAB20C4B1A70BB7903F07F03DAB2094B97
:10076C005A703B7903F07F03DAB2064B9A7064231C
:10077C0003220449044804F0E1FE00BF0C37BD46D7
:10078C0090BD00BF180400208403002080B582B007
:10079C0000AF0346FB710B46BB7113467B717B7933
:1007AC00BA79F9799020FFF7ADFF00BF0837BD4645
:1007BC0080BD80B582B000AF03460A46FB8013466D
:1007CC00BB8005F0AFFC0246B988FB88CB1A01331D
:1007DC0092FBF3F101FB03F3D31A9AB2FB88134497
:1007EC009BB218460837BD4680BD000080B400AFF0
:1007FC001D4B1B889BB219461C4B18781C4A0B4688
:10080C005B000B44134402461A70174B1B889BB2B7
:10081C001946164B5878164A0B465B000B4413448A
:10082C00013302461A70104B1B889BB219460F4BB2
:10083C0098780F4A0B465B000B4413440233024674
:10084C001A70094B1B889BB201339AB2064B1A8063
:10085C00054B1B889BB21F2B02D9034B00221A801D
:10086C0000BFBD4680BC704708050020180400205E
:10087C00A804002090B583B002AF344B1B889AB209
:10088C00334B1B889BB29A425CD0304B1B889BB27B
:10089C001946304A0B465B000B44134418782B4B1B
:1008AC001B889BB219462B4A0B465B000B44134426
:1008BC0001331978254B1B889BB21C46254A2346CD
:1008CC005B002344134402331B781A4600F0CEFC21
:1008DC00214B19780123009301230022FFF76AFEB4
:1008EC001D4B1B780133DAB21B4B1A701A4B1B7859
:1008FC00062B02D9184B01221A70174B1B781A467B
:10090C00D2001344DBB20B33D9B2134B1B781A460B
:10091C00D2001344DBB21333DBB2002200928022EC
:10092C00002001F0C9F8094B1B889BB201339AB225
:10093C00064B1A80054B1B889BB21F2B02D9034B0D
:10094C0000221A8000BF0437BD4690BD0A05002066
:10095C0008050020A804002012000020B0B586B0C5
:10096C0004AF02F099FC00F0D7F800F07FFA00F029
:10097C0019F900F027FA00F04FFA00F041F900F0F5
:10098C0093F900F0E5F9FFF713FDFFF739FD4FF48C
:10099C007A7002F0E3FCFFF7DFFD3C21534804F0D2
:1009AC00D9FA3C21524804F0D5FA524B1B686FF02F
:1009BC0001021A6100F08CFD01F036FD4E4B002255
:1009CC005A714E4BB3F91030DAB24B4BDA704C4BC8
:1009DC001A78494B1A704A4B1A78474B5A70484B45
:1009EC001A78454B9A7002F0AFFC0346184605F096
:1009FC006BFB404804F03CF9404BDB88D8B23F4BD2
:100A0C009B88DB003F4A99183C4B9B881A463E4B0F
:100A1C009A5C3A4B9B89DCB2384BDB89DBB2802584
:100A2C000295374D01950093234600F0E3FC0346F5
:100A3C009AB2364B1A8002F087FC38600023FB71A7
:100A4C004DE0FA79324913465B0013449B000B448A
:100A5C0008331B78002B3FD0FA792D4913465B00E5
:100A6C0013449B000B4404331B683A68D11AFA797F
:100A7C00274813465B0013449B00034402331B7846
:100A8C001A46244B33F91230994225D972B600BF5D
:100A9C00FA791F4913465B0013449B000B441B88D7
:100AAC00D8B2FA791A4913465B0013449B000B44E5
:100ABC0002331B7800221946FFF768FEFA791449B5
:100ACC0013465B0013449B000B44083300221A703E
:100ADC00FFF78CFE62B600BFFB790133FB7197F90F
:100AEC000730002BADDAFFF7C5FEA4E7AC020020FF
:100AFC00F40200203C030020A0040020F800002099
:100B0C001C04002088780008787800089C040020D9
:100B1C000C0500201400002080B590B000AF07F148
:100B2C00180328220021184605F097FC3B1D0022D3
:100B3C001A605A609A60DA601A610123BB614FF443
:100B4C008033FB6100233B620123BB6202237B6386
:100B5C004FF48033BB634FF4E013FB6307F11803CE
:100B6C00184603F075FC0346002B01D000F078FB0F
:100B7C000F237B600223BB600023FB604FF4806378
:100B8C003B6100237B613B1D0221184603F0E2FE12
:100B9C000346002B01D000F063FB00BF4037BD467D
:100BAC0080BD000080B500AF124B134A1A60114B88
:100BBC00124A5A600F4B00229A600E4B0022DA60E8
:100BCC000C4B4FF480421A610A4B00225A61094BBC
:100BDC0000229A61074B0022DA61064B00221A624E
:100BEC00044802F089FF0346002B01D000F038FBCB
:100BFC0000BF80BD5802002000540040A0860100B8
:100C0C0080B58CB000AF07F10C03242200211846EC
:100C1C0005F023FC3B1D00221A605A60214B4FF05B
:100C2C0080421A601F4B00225A601E4B00229A60B1
:100C3C001C4B4FF6FF72DA601A4B00221A61194BEB
:100C4C0000229A610323FB6002233B6101237B6139
:100C5C000023BB610423FB6102233B6201237B6203
:100C6C000023BB620423FB6207F10C0319460D48F9
:100C7C0004F0CEF80346002B01D000F0F1FA00236B
:100C8C007B600023BB603B1D1946064804F096FBB5
:100C9C000346002B01D000F0E3FA00BF3037BD460D
:100CAC0080BD00BFAC02002080B58CB000AF07F156
:100CBC000C0324220021184605F0CFFB3B1D00221B
:100CCC001A605A60204B214A1A601F4B00225A604E
:100CDC001D4B00229A601C4B4FF6FF72DA601A4BC8
:100CEC0000221A61184B00229A610323FB60022335
:100CFC003B6101237B610023BB610423FB61022365
:100D0C003B6201237B620023BB620423FB6207F17D
:100D1C000C0319460C4804F07BF80346002B01D059
:100D2C0000F09EFA00237B600023BB603B1D19463C
:100D3C00054804F043FB0346002B01D000F090FA69
:100D4C0000BF3037BD4680BDF402002000040040D7
:100D5C0080B582B000AF3B4600221A605A60174B38
:100D6C00174A1A60154B48F69F425A60134B0022E3
:100D7C009A60124B40F2E732DA60104B00221A6193
:100D8C000E4B00229A6108210C4803F0F1FF034638
:100D9C00002B01D000F064FA00233B6000237B6041
:100DAC003B461946054804F009FB0346002B01D0CD
:100DBC0000F056FA00BF0837BD4680BD3C0300204A
:100DCC000008004080B500AF114B124A1A60104B5E
:100DDC0047F612225A600E4B00229A600C4B0022EE
:100DEC00DA600B4B00221A61094B0C225A61084B3A
:100DFC0000229A61064B0022DA61054804F04EFB92
:100E0C000346002B01D000F02BFA00BF80BD00BFC1
:100E1C00840300200038014080B500AF114B124A0A
:100E2C001A60104B4FF4E1325A600E4B00229A605C
:100E3C000C4B0022DA600B4B00221A61094B0C227E
:100E4C005A61084B00229A61064B0022DA61054870
:100E5C0004F024FB0346002B01D000F001FA00BF84
:100E6C0080BD00BFCC0300200044004080B588B09A
:100E7C0000AF07F1100300221A605A609A60DA6022
:100E8C00324B9B69314A43F0100393612F4B9B69A2
:100E9C0003F01003FB60FB682C4B9B692B4A43F05F
:100EAC0020039361294B9B6903F02003BB60BB6853
:100EBC00264B9B69254A43F004039361234B9B69A2
:100ECC0003F004037B607B68204B9B691F4A43F053
:100EDC00080393611D4B9B6903F008033B603B685F
:100EEC0001224FF400511A4802F0BDFD4FF400539B
:100EFC003B6101237B610023BB610223FB6107F192
:100F0C0010031946124802F013FC30233B61114BBD
:100F1C007B610123BB6107F1100319460E4802F0F7
:100F2C0007FC002200210A2002F013FB0A2002F029
:100F3C002CFB00220021172002F00BFB172002F0E3
:100F4C0024FB00BF2037BD4680BD00BF001002400F
:100F5C0000100140000031100008014080B500AFC6
:100F6C00044B1B680133034A136000F0F1FA00BF15
:100F7C0080BD00BF1404002080B582B000AF786043
:100F8C00391D4FF0FF330122034804F0D7FA7B6878
:100F9C0018460837BD4680BDCC03002080B586B00E
:100FAC0000AF7860F8237B737B681B68A14A93427F
:100FBC0040F03B81786803F0ADFE9F4B1B6800222C
:100FCC005A629E4B1B88002B00F02F819A4803F02D
:100FDC004FFE9A4B1A89984B1B68DA62974B1B8908
:100FEC001A46954BDA6007F10D01642301229448EF
:100FFC0004F0A4FA02F0A8F93861924B9B795A1EBE
:10100C00D1B2904A9171002B40F00F810023FB75F7
:10101C005BE0FB7D8B4AD35C8A4AD178894A127992
:10102C001846FFF7B3FBFFF7E1FB864BDB781A465C
:10103C00854B33F91230002B44D00023BB823EE0A9
:10104C00BA8A824913465B0013449B000B44083355
:10105C001B7883F00103DBB2002B2DD0FB7D794A8A
:10106C00D35CBA8A1846794913465B0013449B003B
:10107C000B4402461A80BA8A724BD87873491346CD
:10108C005B0013449B000B44023302461A70BA8A6D
:10109C006E4913465B0013449B000B4404333A69BE
:1010AC001A60BA8A694913465B0013449B000B44CF
:1010BC00083301221A7005E0BB8A0133BB82BB8A5C
:1010CC007F2BBDD9FB7D0133FB755E4B5B79FA7DC4
:1010DC009A429ED300BF5E4B1B88013B9BB21946C4
:1010EC000020FFF766FB0346FB81FB89594AD25C63
:1010FC00544B1A70534B1A78574B1B789A42EAD0C0
:10110C00504B1A78544B1A704C4BB3F910309BB2AD
:10111C004A4AB2F9122092B211461846FFF749FB1F
:10112C000346DAB2474BDA70464B01225A71434BF5
:10113C00B3F914309BB2414AB2F9162092B211465F
:10114C001846FFF736FB0346DAB23E4B1A713B4B9F
:10115C005B88002B23D03E4B1B889A1EFB899A423E
:10116C000BDDFB8902333B4AD25C364B5A70354B54
:10117C005B790133DAB2334B5A71354B1B881A1F2A
:10118C00FB899A420BDDFB890433324AD25C2D4B2E
:10119C009A702C4B5B790133DAB22A4B5A7163216A
:1011AC000020FFF706FB0346DAB2264B9A71254B5B
:1011BC009B791846214B5B891946284A0B465B00E4
:1011CC000B445B0013441B88984203D21D4B032233
:1011DC009A712AE01B4B9B791846184B5B89194670
:1011EC001E4A0B465B000B445B00134402331B8806
:1011FC00984203D2134B02229A7116E0114B9B7941
:10120C0018460E4B5B891946144A0B465B000B447F
:10121C005B00134404331B88984203D2094B012210
:10122C009A7102E0074B00229A7100BF1837BD4635
:10123C0080BD00BF000800403C030020F8000020E7
:10124C0084030020A0040020140000200C050020C2
:10125C009C0400201C0400200C0B0020B47F000810
:10126C0080B400AF72B600BF00BFFDE780B586B09A
:10127C0002AF0346FB710B46BB7113467B71FB79C6
:10128C0003F00F03DBB20133FB73FB7923F00F0385
:10129C00BB733A4AFB791370384ABB795370374A9F
:1012AC007B79937007F10802BB791146184600F060
:1012BC0075F807F108031846FEF742FF0346032BA7
:1012CC000ED107F108031846FEF73AFF03461A46FB
:1012DC0007F1080313442A491A460B461B8813804E
:1012EC00BB7BB02B2DD0B02B37DC802B1CD0902BA4
:1012FC0033D17B79002B0CD0FA7B7B79019307F1EE
:10130C000803009313461F4A16211F4805F00AF8DC
:10131C002FE0FA7B07F10803009313461B4A1621B2
:10132C00194804F0FFFF24E0FA7B7B79019307F165
:10133C00080300931346164A1621134804F0F2FFD3
:10134C0017E0F97BBB797A79019200930B46114A2D
:10135C0016210D4804F0E6FF0BE0F979BB797A7998
:10136C00019200930B460C4A1621074804F0DAFF51
:10137C0000BF054B18461037BD4680BD100B002032
:10138C00CC750008D0750008140B0020E47500081B
:10139C00F4750008087600081876000880B584B04B
:1013AC0000AF03463960FB71FB790F4AA2FB0323A4
:1013BC00DB08DBB2013BFB73FA790B4BA3FB02138B
:1013CC00D9080B465B000B449B00D31ABB73BB7B49
:1013DC00064A52F82320FB7B0549386804F0D8FFF5
:1013EC0000BF1037BD4680BDABAAAAAA34000020AE
:1013FC002876000880B485B000AF396011461A46D3
:10140C000346FB710B46BB7113467B717B79013331
:10141C00DBB21A46520013449B00DAB2FB79134438
:10142C00FB72FB7AFB730023BB811BE0B7F90C202A
:10143C0093B201339BB2BB81FB691344FA7B1A70E4
:10144C00B7F90C30013BBA7993FBF2F101FB02F2D4
:10145C009B1A1A463B6813441B78BB72FA7BBB7A07
:10146C001344FB73F97B3B7E5A1C13465B001344FD
:10147C009B001A46FB791344994204DCB7F90C30F3
:10148C003A6A9A42D2DCB7F90C3018461437BD468A
:10149C0080BC704780B485B000AF0346FB71FA790D
:1014AC00094BA3FB0213D9080B465B000B449B00B2
:1014BC00D31AFB73FB7B054A52F8233018461437BA
:1014CC00BD4680BC704700BFABAAAAAA98000020FA
:1014DC0080B400AF034B00221A7000BFBD4680BC25
:1014EC00704700BF8C0B002080B487B000AF7860D1
:1014FC003960154B1B78072B20D8134B1B785A1CC3
:10150C00D1B2114A11701A46104913465B001344AC
:10151C009B000B44796819600C4913465B0013441B
:10152C009B000B44043339681960084913465B006F
:10153C0013449B000B44083300221A6000BF1C3775
:10154C00BD4680BC704700BF8C0B00202C0B0020CC
:10155C0080B582B000AF0023FB712DE01B4B1968E6
:10156C00FA791B4813465B0013449B000344083371
:10157C001B68C91AFA79164813465B0013449B0082
:10158C00034404331B68994213D3FA790F4B19683F
:10159C000F4813465B0013449B0003440833196047
:1015AC00FA790B4913465B0013449B000B441B68F0
:1015BC009847FB790133FB71064B1B78FA799A42F9
:1015CC00CCD300BF00BF0837BD4680BD140400203B
:1015DC002C0B00208C0B002080B400AF00BFBD464C
:1015EC0080BC704780B586B004AF0346FB714FF0EA
:1015FC00FF33029301230193FB1D0093012300226F
:10160C007821034802F0BCFB00BF0837BD4680BD03
:10161C005802002080B586B004AF786039603B6812
:10162C009BB24FF0FF32029201937B68009301232F
:10163C0040227821034802F0A3FB00BF0837BD46C7
:10164C0080BD00BF5802002080B500AFFFF7C4FF7B
:10165C00642001F083FE002000F090FA2020FFF7B8
:10166C00C1FF0020FFF7BEFFB020FFF7BBFFC82073
:10167C00FFF7B8FF0020FFF7B5FF1020FFF7B2FF10
:10168C004020FFF7AFFFFF2000F064FAA120FFF726
:10169C00A9FFA620FFF7A6FFA820FFF7A3FF3F2076
:1016AC00FFF7A0FFA420FFF79DFFD320FFF79AFFC1
:1016BC000020FFF797FFD520FFF794FFF020FFF7EE
:1016CC0091FFD920FFF78EFF2220FFF78BFFDA2046
:1016DC00FFF788FF1220FFF785FFDB20FFF782FF63
:1016EC002020FFF77FFF8D20FFF77CFF1420FFF7F2
:1016FC0079FF012000F042FA002000F00FF800F012
:10170C0025F8054B00221A80034B00225A80024B0D
:10171C0001221A7100BF80BD900F002080B582B0ED
:10172C0000AF0346FB71FB79002B01D1002300E0D5
:10173C00FF234FF480621946034804F08EFE00BF6D
:10174C000837BD4680BD00BF900B002080B582B02D
:10175C0000AF0023FB7116E0FB79503BDBB218465F
:10176C00FFF740FF0020FFF73DFF1020FFF73AFF87
:10177C00FB79DB01084A134480211846FFF74AFF26
:10178C00FB790133FB71FB79072BE5D900BF00BF57
:10179C000837BD4680BD00BF900B002080B483B0DD
:1017AC0000AF0346FB710B46BB7113467B7197F977
:1017BC000730002B3DDBBB793F2B3AD87B79012BD3
:1017CC001AD1FA79BB79DB08D8B20346DB01134492
:1017DC001A4AD35C5AB2BB7903F00703012101FA10
:1017EC0003F35BB2134359B2FA790346DB0113449A
:1017FC00C9B2124AD1541DE0FA79BB79DB08D8B2D0
:10180C000346DB0113440D4AD35C5AB2BB7903F097
:10181C000703012101FA03F35BB2DB435BB2134014
:10182C0059B2FA790346DB011344C9B2034AD154C5
:10183C0000E000BF0C37BD4680BC7047900B002009
:10184C0090B589B000AF0446384680E80E002346B8
:10185C00FB73FB7B1F2B02D9FB7B7E2B01D9002357
:10186C0079E0BB68002B05D0BA68FB7B203B1344A6
:10187C001B7800E03B78FB75394B1B881A46FB7DC7
:10188C001344802B06DC364B5B881A467B7813445A
:10189C00402B01DD00235EE00023FB614DE07A6804
:1018AC00FB7B203B797801FB03F31946FB690B4466
:1018BC005B0013441B883B610023BB6136E03A6933
:1018CC00BB6902FA03F303F40043002B13D0244B3F
:1018DC001B88DAB2BB69DBB21344D8B2204B5B88ED
:1018EC00DAB2FB69DBB21344DBB297F8302019464D
:1018FC00FFF754FF17E01A4B1B88DAB2BB69DBB257
:10190C001344D8B2164B5B88DAB2FB69DBB21344D2
:10191C00D9B297F83030002B0CBF01230023DBB277
:10192C001A46FFF73BFFBB690133BB61FB7DBA690C
:10193C009A42C4D3FB690133FB617B781A46FB697D
:10194C009342ACD3064B1A88FB7D9BB213449AB2DC
:10195C00034B1A80FB7B18462437BD4690BD00BF55
:10196C00900F002080B586B002AFF860384680E852
:10197C000E0013E0FB6818783B7E00933B460ECBC1
:10198C00FFF75EFF03461A46FB681B789A4202D0AB
:10199C00FB681B7808E0FB680133FB60FB681B7875
:1019AC00002BE7D1FB681B7818461037BD4680BD6D
:1019BC0080B483B000AF03460A46FB711346BB717B
:1019CC00FB799AB2054B1A80BB799AB2034B5A80B9
:1019DC0000BF0C37BD4680BC704700BF900F002085
:1019EC0090B589B000AF0446084611461A46234606
:1019FC00FB710346BB710B467B7113463B717A79C5
:101A0C00FB79D31A002BB8BF5B42BB613A79BB7927
:101A1C00D31A002BB8BF5B427B61FA797B799A426F
:101A2C0001D2012301E04FF0FF333B61BA793B79DE
:101A3C009A4201D2012301E04FF0FF33FB60BA69F7
:101A4C007B69D31AFB6197F8302039797B7918467A
:101A5C00FFF7A4FE24E097F83020B979FB791846FB
:101A6C00FFF79CFEFB695B00BB607B695B42BA685D
:101A7C009A4208DDFA697B69D31AFB613B69DAB2D9
:101A8C00FB791344FB71BA68BB699A4208DAFA69AC
:101A9C00BB691344FB61FB68DAB2BB791344BB71BD
:101AAC00FA797B799A42D6D1BA793B799A42D2D1DA
:101ABC0000BF2437BD4690BD90B585B000AF04463D
:101ACC00084611461A462346FB710346BB710B466A
:101ADC007B7113463B71FA797B79934228BF13468D
:101AEC007B737A79FB79934238BF13463B73BA798F
:101AFC003B79934228BF1346FB723A79BB799342E8
:101B0C0038BF1346BB72FB7AFB7317E07B7BBB734E
:101B1C0009E097F82020F97BBB7B1846FFF73EFEC7
:101B2C00BB7B0133BB73BA7B3B7B9A4203D897F9DF
:101B3C000E30002BEDDAFB7B0133FB73FA7BBB7AA7
:101B4C009A4203D8FB7B3F2BE0D900BF00BF143770
:101B5C00BD4690BD80B584B000AF0346FB718123B8
:101B6C00FB73FB7B1846FFF73DFDFB791846FFF72F
:101B7C0039FD00BF1037BD4680BD000080B584B074
:101B8C0000AF0346FB71FB79002B05D0AF23FB7331
:101B9C00084B01225A7104E0AE23FB73054B002263
:101BAC005A71FB7B1846FFF71DFD00BF1037BD4671
:101BBC0080BD00BF900F002080B485B000AF154BE6
:101BCC009B69144A43F001039361124B9B6903F028
:101BDC000103BB60BB680F4BDB690E4A43F08053BB
:101BEC00D3610C4BDB6903F080537B607B680A4B41
:101BFC005B68FB60FB6823F0E063FB60FB6843F011
:101C0C000073FB60044AFB68536000BF1437BD4689
:101C1C0080BC7047001002400000014080B588B0C5
:101C2C0000AF786007F1100300221A605A609A60C6
:101C3C00DA607B681B68154A934223D1144B9B696D
:101C4C00134A43F008039361114B9B6903F008039B
:101C5C00FB60FB68C0233B6112237B610323FB61A8
:101C6C0007F1100319460B4801F062FD084BDB69C4
:101C7C00074A43F40013D361054BDB6903F40013EB
:101C8C00BB60BB6800BF2037BD4680BD0054004020
:101C9C0000100240000C014080B58AB000AF7860A3
:101CAC0007F1180300221A605A609A60DA607B68A8
:101CBC001B68B3F1804F24D1284BDB69274A43F0D2
:101CCC000103D361254BDB6903F001037B617B6965
:101CDC00224B9B69214A43F0040393611F4B9B6980
:101CEC0003F004033B613B690323BB610023FB61ED
:101CFC0001233B6207F118031946194801F018FD3E
:101D0C0028E07B681B68174A934223D1134BDB698D
:101D1C00124A43F00203D361104BDB6903F0020358
:101D2C00FB60FB680D4B9B690C4A43F00403936109
:101D3C000A4B9B6903F00403BB60BB68C023BB6107
:101D4C000023FB6101233B6207F118031946044889
:101D5C0001F0EEFC00BF2837BD4680BD00100240EC
:101D6C00000801400004004080B584B000AF7860EA
:101D7C007B681B680D4A934213D10D4BDB690C4AEF
:101D8C0043F00403D3610A4BDB6903F00403FB60EB
:101D9C00FB68002200211E2001F0DBFB1E2001F05D
:101DAC00F4FB00BF1037BD4680BD00BF00080040EB
:101DBC000010024080B58AB000AF786007F11803BC
:101DCC0000221A605A609A60DA607B681B683B4A92
:101DDC00934232D13A4B9B69394A43F48043936125
:101DEC00374B9B6903F480437B617B69344B9B6964
:101DFC00334A43F004039361314B9B6903F00403B2
:101E0C003B613B694FF40073BB610223FB6103230D
:101E1C007B6207F1180319462A4801F089FC4FF43C
:101E2C008063BB610023FB6100233B6207F1180355
:101E3C001946244801F07CFC3CE07B681B68224A74
:101E4C00934237D11E4BDB691D4A43F40033D361F7
:101E5C001B4BDB6903F40033FB60FB68184B9B697D
:101E6C00174A43F004039361154B9B6903F0040379
:101E7C00BB60BB680423BB610223FB6103237B6251
:101E8C0007F1180319460F4801F052FC0823BB61F7
:101E9C000023FB6100233B6207F118031946094834
:101EAC0001F046FC00220021262001F052FB2620E6
:101EBC0001F06BFB00BF2837BD4680BD00380140E8
:101ECC0000100240000801400044004080B584B07E
:101EDC0000AF0346FB80FB88102B02D0202B12D0C6
:101EEC0023E0FB881946134801F0A6FD0346FB735B
:101EFC00FB7B002B0CBF01230023DBB21946002017
:101F0C00FEF726F911E0FB8819460A4801F094FD0A
:101F1C000346FB73FB7B002B0CBF01230023DBB2BE
:101F2C0019460120FEF714F900BF00BF1037BD465B
:101F3C0080BD00BF0008014080B400AF00BFFDE7CA
:101F4C0080B400AF00BFFDE780B400AF00BFFDE779
:101F5C0080B400AF00BFFDE780B400AF00BFFDE769
:101F6C0080B400AF00BFBD4680BC704780B400AFEA
:101F7C0000BFBD4680BC704780B400AF00BFBD46FB
:101F8C0080BC704780B500AF01F019FB01F0CAF9B5
:101F9C0000BF80BD80B500AF102001F095FD00BFE3
:101FAC0080BD80B500AF202001F08EFD00BF80BD4C
:101FBC0080B500AF024803F05BF800BF80BD00BFE6
:101FCC003C03002080B500AF024803F043FB00BF88
:101FDC0080BD00BFCC03002080B400AF01231846A5
:101FEC00BD4680BC704780B582B000AF7860396068
:101FFC0004F082FA034616221A604FF0FF3318469B
:10200C000837BD4680BD80B582B000AF78604FF018
:10201C00FF317868FFF7E7FF00BFFDE780B586B0BA
:10202C0000AFF860B9607A6000237B610AE0AFF31F
:10203C0000800146BB685A1CBA60CAB21A707B6930
:10204C0001337B617A697B689A42F0DB7B681846C6
:10205C001837BD4680BD80B586B000AFF860B9605A
:10206C007A6000237B6109E0BB685A1CBA601B785C
:10207C001846FEF781FF7B6901337B617A697B68C7
:10208C009A42F1DB7B6818461837BD4680BD80B498
:10209C0083B000AF78604FF0FF3318460C37BD4665
:1020AC0080BC704780B483B000AF786039603B6807
:1020BC004FF400525A60002318460C37BD4680BCC2
:1020CC00704780B483B000AF7860012318460C379A
:1020DC00BD4680BC704780B485B000AFF860B96075
:1020EC007A60002318461437BD4680BC7047000048
:1020FC0080B586B000AF7860144A154BD31A7B615B
:10210C007B693B61134B1B68002B02D1114B124AAC
:10211C001A60104B1A687B6813443A699A4207D2CA
:10212C0004F0EAF903460C221A604FF0FF3309E081
:10213C00084B1B68FB60074B1A687B681344054A05
:10214C001360FB6818461837BD4680BD0050002050
:10215C0000040000980F00204011002080B400AF54
:10216C0000BFBD4680BC704780B500AF4FF4005136
:10217C00114801F090FC114B1B78002B13D0104B25
:10218C001B8803F001039BB2002B06D00123012214
:10219C000D210C48FEF772FA05E0012301220D21F6
:1021AC000948FEF76BFA064B1B8801339AB2044BB5
:1021BC001A8000BF80BD00BF00100140C30F00207B
:1021CC009C0F0020C80F0020D80F002080B582B0D3
:1021DC0000AF284B1B685B6A1BB2DA0F13445B1011
:1021EC00FB80254B1B685B6A1BB2002B00DA0333A8
:1021FC009B10BB80214B1B78002B06D0204AFB8800
:10220C0053801E4B00221A7030E0FA881C4BB3F935
:10221C0002309BB2D31A9BB27B80B7F90230002BF1
:10222C000AD0174AFB885380B7F90220B7F9063059
:10223C001146184600F0FCFABA88114BB3F900307D
:10224C009BB2D31A9BB23B80B7F90030002B0DD058
:10225C000C4B00221A700A4ABB881380B7F9002075
:10226C00B7F904301146184600F0F4F80837BD46AB
:10227C0080BD00BFAC020020F4020020C20F002081
:10228C00A00F0020C30F002080B500AFFDF7E6FFC4
:10229C000020FEF76BF80346012B02D0022B70D006
:1022AC0072E0584B1B78002B14BF01230023DBB2C8
:1022BC0083F00103DBB203F00103DAB2514B1A7065
:1022CC00514BB3F90030053B052B5CD801A252F8F9
:1022DC0023F000BFF9220008932300089323000881
:1022EC00032300085F23000831230008002100208D
:1022FC0000F09EFA44E0434B1B7883F00103DBB201
:10230C00002B07D0414BB3F914300021184600F0D4
:10231C008FFA35E03D4BB3F916300021184600F02A
:10232C0087FA2DE0374B1B7883F00103DBB2002BCF
:10233C0007D0364BB3F918300021184600F078FA64
:10234C001EE0324BB3F91A300021184600F070FA37
:10235C0016E02C4B1B7883F00103DBB2002B07D06B
:10236C002A4BB3F91E300021184600F061FA06E042
:10237C00264BB3F91C300021184600F059FA00BF67
:10238C0001E000BF00E000BF0120FDF7EFFF0346B6
:10239C00012B02D0022B32D032E01D4B00221A70DE
:1023AC001C4B1B88002B03D01A4B00221A8002E016
:1023BC00184B01221A80144B00221A80154B1B88D3
:1023CC005A00154B1B685A62124B1B885B009BB260
:1023DC001AB20E4B5A80114B1868002301220021AF
:1023EC00FEF74CF90B4B1B88002B01D00C4800E07E
:1023FC000C48012301220D21FEF740F900E000BF3B
:10240C0000BF80BDC40F0020E80F0020A00F0020EB
:10241C00C30F0020F8000020AC020020CC000020EC
:10242C004C7700085077000880B500AFC8210648EB
:10243C00FFF75AF80B210548FFF756F80D21044811
:10244C00FFF752F800BF80BD75210008D9210008A4
:10245C009522000880B596B000AF03460A46FB8073
:10246C001346BB809D4BB3F900309AB2BB88134422
:10247C009BB21AB2994B1A80984BB3F90030002BCF
:10248C0003DA964B00221A800DE0944BB3F900301E
:10249C001A460B239A4206D30B239BB2013B9BB2E9
:1024AC001AB28E4B1A808D4BB3F900301A468C4BF6
:1024BC0053F82200002301220021FEF7DFF8894B9C
:1024CC0001221A70854BB3F900300A2B00F293816C
:1024DC0001A252F823F000BF112500084125000885
:1024EC00D3270008712500089F2500084F260008F7
:1024FC00CD25000811260008992600088927000818
:10250C0039270008784BB3F90420784B1B685A62C2
:10251C00754BB3F90420744B5A80754B1B88002BF8
:10252C0001D0744800E07448012301220D21FEF70C
:10253C00A5F861E16C4BB3F906206C4B1B685A6231
:10254C00694BB3F90620684B5A80694B5B88002BAA
:10255C0001D06A4800E06848012301220D21FEF7F2
:10256C008DF849E1604BB3F90820604B1B685A6247
:10257C005D4BB3F908205C4B5A805D4B9B881A4627
:10258C005F4B53F82200012301220D21FEF776F850
:10259C0032E1554BB3F90A20544B1B685A62524B2B
:1025AC00B3F90A20504B5A80514BDB88DBB21846EA
:1025BC00FEF770FF012301220D21FEF75FF81BE1EE
:1025CC00494BB3F90C20494B1B685A62464BB3F983
:1025DC000C20454B5A80464B1B895B089BB21A4614
:1025EC004EF6602393FBF2F207F1080345491846B7
:1025FC0003F0CEFE07F10800012301220D21FEF7A6
:10260C003DF8F9E0384BB3F90E20384B1B685A6291
:10261C00354BB3F90E20344B5A80354B5B891A4637
:10262C00394B53F8222007F108033849184603F0B8
:10263C00AFFE07F10800012301220D21FEF71EF861
:10264C00DAE0334B00221A70274BB3F91020274BDA
:10265C001B685A62244BB3F91020234B5A80244B2D
:10266C009B891A46224BDB892A492B4803F090FEA2
:10267C001F4BDB891A462949294803F089FE01239F
:10268C0001220D212448FDF7F9FFB5E0204B002273
:10269C001A70154BB3F91420144B1B685A62124B69
:1026AC00B3F91420104B5A80114BB3F910301A4661
:1026BC000F4BB3F912301B49174803F069FE0C4B52
:1026CC00B3F912301A461849154803F061FE01237C
:1026DC0001220D211048FDF7D1FF8DE0E80F0020FD
:1026EC00CC000020C20F0020A00F0020AC02002064
:1026FC00F8000020087800080C7800081078000812
:10270C006400002018780008180100201C780008CC
:10271C00C40F002020780008C80F0020287800087B
:10272C00D80F0020307800083C780008344B002289
:10273C001A70344BB3F91820334B1B685A62314B67
:10274C00B3F918202F4B5A80304BB3F914301A467A
:10275C002E4BB3F916302E492E4803F019FE2B4B95
:10276C00B3F916301A462C492C4803F011FE0123FC
:10277C0001220D212748FDF781FF3DE0204B00226F
:10278C001A70204BB3F91C201F4B1B685A621D4B4F
:10279C00B3F91C201B4B5A80214BB3F9003000229B
:1027AC0020491C4803F0F4FD1D4BB3F900301A46C8
:1027BC001D491A4803F0ECFD012301220D21154897
:1027CC00FDF75CFF18E00F4BB3F920200E4B1B6894
:1027DC005A620C4BB3F920200A4B5A800B4BB3F9BD
:1027EC001C30124A1B0113441868012301220D21CD
:1027FC00FDF744FF00E000BF00BF5837BD4680BD69
:10280C00C40F0020A00F0020AC020020F800002014
:10281C0044780008C80F002050780008D80F00201A
:10282C00140000203078000828780008F0780008A0
:10283C00B0B59CB004AF03460A46FB801346BB8080
:10284C008C4BB3F900300A2B00F2DA8401A252F857
:10285C0023F000BF8D280008F9280008C1300008BB
:10286C0047290008DF290008A92B0008C12A000805
:10287C00452B00080D2D0008712F0008252E00088F
:10288C00B7F90630002B03F00103B8BF5B421BB253
:10289C009AB2794B1A80784B1B88002B07D0774B58
:1028AC001B6800225A62754802F0E2F902E0734894
:1028BC0002F030FA724B1B685B6A1AB2714B9A8049
:1028CC006D4B1B88002B01D06F4A00E06F4A07F15B
:1028DC000C036F49184603F05BFD07F10C00012354
:1028EC0001220D21FDF7CAFE00F08BBCB7F90630B2
:1028FC00002B03F00103B8BF5B421BB29AB25E4BD4
:10290C005A805F4B1B685B6A1AB25E4BDA805A4B7B
:10291C005B88002B01D05F4A00E05C4A07F10C0396
:10292C005B49184603F034FD07F10C00012301222A
:10293C000D21FDF7A3FE00F064BC4F4B9A88BB88B9
:10294C0013449BB2A7F85E30B7F95E30002B03DA64
:10295C000023A7F85E3006E0B7F95E300C2B02DDE1
:10296C000C23A7F85E30B7F85E20434B9A80444B9B
:10297C001B685B6A1AB2434B1A813F4B9B881A4601
:10298C00454B53F82200012301220D21FDF776FE61
:10299C00394BDB88D8B2384B9B88DB003F4A9918FF
:1029AC00354B9B881A463E4B9A5C334B9B89DCB269
:1029BC00314BDB89DBB2802502953A4D01950093B2
:1029CC002346FEF717FD03469AB2374B1A8000F0E8
:1029DC0018BC294BDA88BB8813449AB2264BDA8090
:1029EC00254BDA88314BA3FB0213D9080B465B004D
:1029FC000B449B00D31A9AB21F4BDA80204B1B68F6
:102A0C005B6A1AB21F4B5A811B4BDB88DBB2184630
:102A1C00FEF740FD0246184BDB8807F10C002449F9
:102A2C0003F0B6FC07F10C00012301220D21FDF788
:102A3C0025FE114BDB88D8B20F4B9B88DB00174A65
:102A4C0099180D4B9B881A46154B9A5C0A4B9B891F
:102A5C00DCB2094BDB89DBB280250295114D019567
:102A6C0000932346FEF7C6FC03469AB20E4B1A801F
:102A7C00C7E300BFE80F0020F80000203C03002053
:102A8C00AC020020A00F0020087800080C78000889
:102A9C001C78000810780008640000208878000872
:102AAC00787800081C0400209C040020ABAAAAAA79
:102ABC0058780008814B1A89BB8819460902C91A33
:102ACC0089001944C900CB1ADB009BB213449AB29B
:102ADC007A4B1A81794B1B89C72B02D8774BC822AA
:102AEC001A81764B1B8940F6B832934203D9734B4B
:102AFC0040F6B8321A81714B1A89704B1A81704B9F
:102B0C001B685B6A1AB26F4B9A816C4B1B895B0812
:102B1C009BB21A464EF6602393FBF2F207F10C03BC
:102B2C006949184603F034FC07F10C00012301221B
:102B3C000D21FDF7A3FD64E3B7F90630002B06DA8F
:102B4C005F4B1B6800225A620023FB8009E0B7F937
:102B5C000630032B05DD5A4B1B6808225A620423EE
:102B6C00FB80FA88554B5A81554B1B685B6A1AB22D
:102B7C00544BDA81514B5B891A46544B53F8222043
:102B8C0007F10C035249184603F002FC07F10C0044
:102B9C00012301220D21FDF771FD32E34D4B012282
:102BAC001A704D4B1B7883F00103DBB2002B32D033
:102BBC00424B9A89BB8813449AB2404B9A813F4B43
:102BCC009B89002B02D13D4B00229A813B4B9B8968
:102BDC001A463A4BDB89013B9A4205DB374BDB89C2
:102BEC00013B9AB2354B9A81354B1B685B6A1AB222
:102BFC00344B1A82314B9B891A46304BDB8937494F
:102C0C00374803F0C5FB2D4BDB891A46354936484E
:102C1C0003F0BEFB31E0294BDA89BB8813449AB22E
:102C2C00264BDA81254BDB89072B02D9234B082253
:102C3C00DA81224BDB891A46204B9B8901339A425D
:102C4C0005DC1E4B9B8901339AB21C4BDA811C4B61
:102C5C001B685B6A1AB21B4B5A82184B9B891A462B
:102C6C00164BDB891D491E4803F092FB134B9B89C5
:102C7C001A461E491C4803F08BFB104BDB88D8B25C
:102C8C000E4B9B88DB001A4A99180C4B9B881A46F2
:102C9C00184B9A5C094B9B89DCB2084BDB89DBB285
:102CAC0080250295144D019500932346FEF7A2FB57
:102CBC0003469AB2114B1A80A3E200BFF800002021
:102CCC00AC020020A00F002018780008180100208A
:102CDC001C780008C30F0020C40F002020780008C7
:102CEC00C80F002028780008D80F00206078000852
:102CFC0088780008787800081C0400209C040020C8
:102D0C008B4B01221A708B4B1B7883F00103DBB2C7
:102D1C00002B40D0884BB3F910309AB2BB881344C7
:102D2C009BB21AB2844B1A82834BB3F91030002B2E
:102D3C0002DC814B01221A827F4BB3F910300F2B2E
:102D4C0002DD7D4B10221A827B4BB3F910207A4B9B
:102D5C00B3F912309A4204DB774BB3F91020764B5F
:102D6C005A82764B1B685B6A1AB2754B9A82724B0D
:102D7C00B3F910301A46704BB3F9123071497248DE
:102D8C0003F006FB6C4BB3F912301A466F497048CE
:102D9C0003F0FEFA35E2684BB3F912309AB2BB88F5
:102DAC0013449BB21AB2644B5A82634BB3F9123080
:102DBC00002B02DC604B01225A825F4BB3F91220CC
:102DCC005D4BB3F910309A4204DC5B4BB3F9122023
:102DDC00594B1A82584BB3F912300F2B02DD564B5C
:102DEC0010225A82554B1B685B6A1AB2544BDA821A
:102DFC00514BB3F910301A464F4BB3F912305149BD
:102E0C00514803F0C5FA4C4BB3F910301A465149EE
:102E1C004F4803F0BDFAF4E1454B01221A70454BC3
:102E2C001B7883F00103DBB2002B40D0424BB3F98B
:102E3C0014309AB2BB8813449BB21AB23E4B9A829E
:102E4C003D4BB3F91430012B02DC3B4B01229A822F
:102E5C00394BB3F914307E2B02DD374B7F229A822B
:102E6C00354BB3F91420344BB3F916309A4204DBCA
:102E7C00314BB3F91420304BDA82304B1B685B6A50
:102E8C001AB22F4B1A832C4BB3F914301A462A4B17
:102E9C00B3F9163030492C4803F07AFA264BB3F9C3
:102EAC0016301A462D492A4803F072FAA9E1224B32
:102EBC00B3F916309AB2BB8813449BB21AB21E4BAC
:102ECC00DA821D4BB3F91630012B02DC1A4B0122AE
:102EDC00DA82194BB3F91620174BB3F914309A4216
:102EEC0004DC154BB3F91620134B9A82124BB3F931
:102EFC0016307E2B02DD104B7F22DA820F4B1B68C3
:102F0C005B6A1AB20E4B5A830B4BB3F914301A4648
:102F1C00094BB3F9163010490B4803F039FA064B3C
:102F2C00B3F914301A460E49094803F031FA68E136
:102F3C00C30F0020C40F0020F8000020AC020020BA
:102F4C00A00F002030780008C80F00202878000857
:102F5C00D80F0020687800084478000850780008E2
:102F6C0070780008A94B01221A70A94B1B7883F0CA
:102F7C000103DBB2002B3CD0A64BB3F91E309AB246
:102F8C00BB8813449BB21AB2A24BDA83A14BB3F9A0
:102F9C001E30002B02DA9F4B0022DA839D4BB3F9D3
:102FAC001E300E2B02DD9B4B0F22DA839A4B1B68D3
:102FBC005B6A1AB2974B9A83964BB3F91E3019463B
:102FCC00944BB3F91E301A46944B33F912300A461F
:102FDC009349944803F0DCF98E4BB3F91E301A4632
:102FEC008E4B33F912301A468F49904803F0D0F9C2
:102FFC0007E1884BB3F91E301A46884B33F912306F
:10300C009AB2BB88194689000B44194688001946A8
:10301C0003460B445B009BB2134499B27D4BB3F94E
:10302C001E301A4609B27D4B23F81210794BB3F9B6
:10303C001E301A46794B33F91230002B07DA754BD8
:10304C00B3F91E301A46754B002123F81210714B40
:10305C00B3F91E301A46714B33F9123040F6B832C0
:10306C00934208DD6B4BB3F91E301A466B4B40F69E
:10307C00B83123F81210684B1B685B6A1AB2654BA7
:10308C009A83644BB3F91E301946624BB3F91E3068
:10309C001A46624B33F912300A466149614803F013
:1030AC0077F95C4BB3F91E301A4661495F4803F05F
:1030BC006FF9A6E05F4BB3F91C309AB2BB8813448E
:1030CC009BB21AB25B4B9A835A4BB3F91C300A2B46
:1030DC0003DD584B0A229A8307E0564BB3F91C3098
:1030EC00002B02DC534B00229A834B4B1B685B6A10
:1030FC001AB2484B1A844F4BB3F91C304E4A1B0181
:10310C0013441868012301220D21FDF7B7FA494B2E
:10311C00B3F91C30484A1B01134404331B781A467C
:10312C00444BDA80434BB3F91C30434A1B01134424
:10313C0005331B781A463F4B9A803E4BB3F91C3033
:10314C003D4A1B01134406331B781A46394B5A80EF
:10315C00384BB3F91C30384A1B01134408331A8816
:10316C00344B1A81334BB3F91C30334A1B011344D3
:10317C000A331B781A462F4B5A812E4BB3F91C304D
:10318C002D4A1B0113440A331B785B009BB21AB205
:10319C00204BDA81274BB3F91C30274A1B0113440F
:1031AC000B331B781A46234B9A81224BB3F91C30F4
:1031BC00214A1B0113440C331B781A461D4BDA8130
:1031CC001C4BDB88D8B21B4B9B88DB001B4A991825
:1031DC00184B9B881A461A4B9A5C164B9B89DCB28F
:1031EC00144BDB89DBB280250295164D01950093BB
:1031FC002346FEF7FFF803469AB2134B1A8000E001
:10320C0000BF00BF6037BD46B0BD00BFC30F00207C
:10321C00C40F0020A00F0020AC02002014000020DE
:10322C0030780008C80F002028780008D80F00203C
:10323C0068780008F8000020F0780008887800080A
:10324C00787800081C0400209C040020FEF786FF00
:10325C000B480C490C4A002302E0D458C4500433E8
:10326C00C4188C42F9D3094A094C002301E01360BD
:10327C000432A242FBD303F045F9FDF76FFB704714
:10328C000000002090010020D48000089001002054
:10329C003C110020FEE7000080B500AF084B1B6816
:1032AC00074A43F010031360032000F047F90F2086
:1032BC0000F008F8FEF780FC0023184680BD00BF24
:1032CC000020024080B582B000AF7860124B1A68C3
:1032DC00124B1B7819464FF47A73B3FBF1F3B2FB24
:1032EC00F3F3184600F05FF90346002B01D00123DD
:1032FC000EE07B680F2B0AD8002279684FF0FF3064
:10330C0000F027F9064A7B681360002300E00123D4
:10331C0018460837BD4680BDC8000020300100208B
:10332C002C01002080B400AF054B1B781A46054BCE
:10333C001B681344034A136000BFBD4680BC704732
:10334C0030010020EC0F002080B400AF024B1B6852
:10335C001846BD4680BC7047EC0F002080B584B089
:10336C0000AF7860FFF7F0FFB8607B68FB60FB682C
:10337C00B3F1FF3F05D00A4B1B781A46FB68134488
:10338C00FB6000BFFFF7E0FF0246BB68D31AFA6888
:10339C009A42F7D800BF00BF1037BD4680BD00BFB2
:1033AC003001002080B485B000AF78607B6803F0FA
:1033BC000703FB600C4BDB68BB60BA684FF6FF037E
:1033CC001340BB60FB681A02BB68134343F0BF6336
:1033DC0043F40033BB60044ABB68D36000BF1437AE
:1033EC00BD4680BC704700BF00ED00E080B400AF6C
:1033FC00044BDB681B0A03F007031846BD4680BC70
:10340C00704700BF00ED00E080B483B000AF03460E
:10341C00FB7197F90730002B0BDBFB7903F01F02D4
:10342C00064997F907305B09012000FA02F241F8CE
:10343C00232000BF0C37BD4680BC704700E100E084
:10344C0080B483B000AF03463960FB7197F9073045
:10345C00002B0ADB3B68DAB20C4997F907301201F2
:10346C00D2B20B4483F800230AE03B68DAB2084975
:10347C00FB7903F00F03043B1201D2B20B441A7612
:10348C0000BF0C37BD4680BC704700BF00E100E0B8
:10349C0000ED00E080B489B000AFF860B9607A60EC
:1034AC00FB6803F00703FB61FB69C3F10703042B03
:1034BC0028BF0423BB61FB690433062B02D9FB69CB
:1034CC00033B00E000237B614FF0FF32BB6902FA43
:1034DC0003F3DA43BB681A407B699A404FF0FF3123
:1034EC007B6901FA03F3D9437B680B4013431846FD
:1034FC002437BD4680BC704780B582B000AF786081
:10350C007B68013BB3F1807F01D301230FE00A4AB2
:10351C007B68013B53600F214FF0FF30FFF790FFAA
:10352C00054B00229A60044B07221A6000231846B0
:10353C000837BD4680BD00BF10E000E080B582B00A
:10354C0000AF78607868FFF72DFF00BF0837BD46E5
:10355C0080BD80B586B000AF0346B9607A60FB735E
:10356C0000237B61FFF742FF78617A68B96878695C
:10357C00FFF790FF024697F90F3011461846FFF7F8
:10358C005FFF00BF1837BD4680BD80B582B000AF6D
:10359C000346FB7197F907301846FFF735FF00BF5C
:1035AC000837BD4680BD80B582B000AF78607868C2
:1035BC00FFF7A2FF034618460837BD4680BD80B50D
:1035CC0000AFFDF7CBFC00BF80BD80B485B000AF71
:1035DC0078600023FB737B6893F82130DBB2022BFD
:1035EC0008D07B6804229A637B68002283F8202031
:1035FC00012320E07B681B681A687B681B6822F03B
:10360C000E021A607B681B681A687B681B6822F0C4
:10361C0001021A607B681A6C7B68DB6B012101FA72
:10362C0002F25A607B68012283F821207B68002219
:10363C0083F82020FB7B18461437BD4680BC7047AE
:10364C0080B584B000AF78600023FB737B6893F87F
:10365C002130DBB2022B05D07B6804229A63012354
:10366C00FB7351E07B681B681A687B681B6822F04F
:10367C000E021A607B681B681A687B681B6822F054
:10368C0001021A607B681B68224A934229D07B682E
:10369C001B68214A934222D07B681B681F4A9342C5
:1036AC001AD07B681B681E4A934212D07B681B6839
:1036BC001C4A93420AD07B681B681B4A934202D176
:1036CC004FF480130EE04FF080730BE04FF4803317
:1036DC0008E04FF4805305E04FF4807302E01023B0
:1036EC0000E00123114A53607B68012283F82120FA
:1036FC007B68002283F820207B685B6B002B03D057
:10370C007B685B6B78689847FB7B18461037BD4627
:10371C0080BD00BF080002401C0002403000024087
:10372C0044000240580002406C000240000002407D
:10373C0080B48BB000AF7860396000237B620023CB
:10374C003B6269E101227B6A02FA03F3FB613B688D
:10375C001B68FA691340BB61BA69FB699A4240F075
:10376C0058813B685B689A4A93425ED0984A934270
:10377C0075D8984A934258D0964A93426FD8964A35
:10378C00934252D0944A934269D8944A93424CD073
:10379C00924A934263D8924A934246D0904A9342BB
:1037AC005DD8122B2AD8122B59D801A252F823F02B
:1037BC00373800081138000823380008653800082D
:1037CC006B3800086B3800086B3800086B38000841
:1037DC006B3800086B3800086B3800086B38000831
:1037EC006B3800086B3800086B3800086B38000821
:1037FC006B380008193800082D380008794A9342B4
:10380C0013D02CE03B68DB683B6229E03B68DB684B
:10381C0004333B6224E03B68DB6808333B621FE007
:10382C003B68DB680C333B621AE03B689B68002BFF
:10383C0002D104233B6213E03B689B68012B05D14A
:10384C0008233B627B68FA691A6109E008233B6232
:10385C007B68FA695A6103E000233B6200E000BF19
:10386C00BB69FF2B01D87B6801E07B6804337B616B
:10387C00BB69FF2B02D87B6A9B0002E07B6A083B8A
:10388C009B003B617B691A680F213B6901FA03F3CA
:10389C00DB431A40396A3B6901FA03F31A437B692B
:1038AC001A603B685B6803F08053002B00F0B1801A
:1038BC004D4B9B694C4A43F0010393614A4B9B6906
:1038CC0003F00103BB60BB68484A7B6A9B08023368
:1038DC0052F82330FB607B6A03F003039B000F223A
:1038EC0002FA03F3DB43FA681340FB607B68404A3F
:1038FC00934213D07B683F4A93420DD07B683E4A7B
:10390C00934207D07B683D4A934201D1032306E0E2
:10391C00042304E0022302E0012300E000237A6A7E
:10392C0002F0030292009340FA681343FB602F49A4
:10393C007B6A9B080233FA6841F823203B685B687A
:10394C0003F48013002B06D02D4B9A682C49BB69CD
:10395C0013438B6006E02A4B9A68BB69DB4328490A
:10396C0013408B603B685B6803F40013002B06D09C
:10397C00234BDA682249BB691343CB6006E0204B2A
:10398C00DA68BB69DB431E491340CB603B685B685C
:10399C0003F40033002B06D0194B5A681849BB6945
:1039AC0013434B6006E0164B5A68BB69DB43144962
:1039BC0013404B603B685B6803F48033002B21D0D1
:1039CC000F4B1A680E49BB6913430B6021E000BF13
:1039DC0000003210000031100000221000002110F5
:1039EC0000001210000011100010024000000140F5
:1039FC0000080140000C014000100140001401407F
:103A0C00000401400B4B1A68BB69DB4309491340A6
:103A1C000B607B6A01337B623B681A687B6A22FA13
:103A2C0003F3002B7FF48EAE00BF00BF2C37BD46D6
:103A3C0080BC70470004014080B485B000AF786052
:103A4C000B467B807B689A687B881340002B02D0E6
:103A5C000123FB7301E00023FB73FB7B1846143737
:103A6C00BD4680BC704780B483B000AF78600B4615
:103A7C007B8013467B707B78002B03D07A887B6825
:103A8C001A6103E07B881A047B681A6100BF0C374B
:103A9C00BD4680BC704780B485B000AF78600B46E3
:103AAC007B807B68DB68FB607A88FB6813401A04B8
:103ABC00FB68D9437B880B401A437B681A6100BFB3
:103ACC001437BD4680BC704780B582B000AF03464A
:103ADC00FB80084B5A69FB881340002B06D0054A23
:103AEC00FB885361FB881846FEF7F0F900BF0837D6
:103AFC00BD4680BD0004014080B584B000AF786045
:103B0C007B68002B01D101232BE17B6893F83D30BE
:103B1C00DBB2002B06D17B68002283F83C2078684E
:103B2C00FEF77CF87B68242283F83D207B681B68B9
:103B3C001A687B681B6822F001021A607B681B689C
:103B4C001A687B681B6842F400421A607B681B6829
:103B5C001A687B681B6822F400421A6001F042F874
:103B6C00F8607B685B68814A934207D8FB68804A9F
:103B7C00934294BF01230023DBB206E0FB687D4A2D
:103B8C00934294BF01230023DBB2002B01D001230D
:103B9C00E7E0FB68784AA2FB03239B0CBB607B68C5
:103BAC001B685B6823F03F017B681B68BA680A439B
:103BBC005A607B681B681B6A23F03F017B685B685B
:103BCC006A4A934202D8BB68013309E0BB684FF4E0
:103BDC00967202FB03F3694AA2FB03239B09013390
:103BEC007A6812680B4313627B681B68DB6923F4E9
:103BFC004F4222F0FF027B685B685C498B4219D80C
:103C0C00FB68591E7B685B685B00B1FBF3F3591CC6
:103C1C0040F6FC730B40002B0AD0FB68591E7B68E6
:103C2C005B685B00B1FBF3F30133C3F30B0351E0AF
:103C3C0004234FE07B689B68002B11D1FB68581E56
:103C4C007B6859680B465B000B44B0FBF3F3013304
:103C5C00C3F30B03002B0CBF01230023DBB212E0D8
:103C6C00FB68581E7B6859680B469B000B449900F7
:103C7C000B44B0FBF3F30133C3F30B03002B0CBF6A
:103C8C0001230023DBB2002B01D0012322E07B684F
:103C9C009B68002B0ED1FB68581E7B6859680B463D
:103CAC005B000B44B0FBF3F30133C3F30B0343F49E
:103CBC0000430FE0FB68581E7B6859680B469B005D
:103CCC000B4499000B44B0FBF3F30133C3F30B0328
:103CDC0043F44043796809681343CB617B681B68E4
:103CEC001B6823F0C0017B68DA697B681B6A1A4386
:103CFC007B681B680A431A607B681B689B6823F40B
:103D0C00034323F0FF037A6811697A68D268114380
:103D1C007A6812680B4393607B681B68DB6823F03E
:103D2C00FF017B685A697B689B691A437B681B6837
:103D3C000A43DA607B681B681A687B681B6842F070
:103D4C0001021A607B6800221A647B68202283F8C7
:103D5C003D207B6800221A637B68002283F83E209A
:103D6C00002318461037BD4680BD00BFA086010059
:103D7C007F841E00FF083D0083DE1B43D34D621081
:103D8C0080B588B002AFF860084611461A46034663
:103D9C007B810B463B811346FB80FFF7D5FA78619C
:103DAC00FB6893F83D30DBB2202B40F0D9807B6967
:103DBC000093192301226D49F86800F071F903464C
:103DCC00002B01D00223CCE0FB6893F83C30012B94
:103DDC0001D10223C5E0FB68012283F83C20FB687B
:103DEC001B681B6803F00103012B07D0FB681B68E1
:103DFC001A68FB681B6842F001021A60FB681B68BA
:103E0C001A68FB681B6822F400621A60FB682122A6
:103E1C0083F83D20FB68402283F83E20FB6800229B
:103E2C001A64FB683A6A5A62FB68BA8C5A85FB685A
:103E3C005B8D9AB2FB681A85FB684D4ADA62F8888A
:103E4C003A8979897B690193BB6A00930346F868C8
:103E5C0000F090F80346002B52D0012381E07A69E0
:103E6C00B96AF86800F036FA0346002B0DD0FB68EF
:103E7C001B6C042B07D1FB681B681A68FB681B685A
:103E8C0042F400721A6001236BE0FB685B6A1A78DB
:103E9C00FB681B681A61FB685B6A5A1CFB685A62F8
:103EAC00FB681B8D013B9AB2FB681A85FB685B8D26
:103EBC009BB2013B9AB2FB685A85FB681B685B6935
:103ECC0003F00403042B1BD1FB681B8D002B17D0B4
:103EDC00FB685B6A1A78FB681B681A61FB685B6A93
:103EEC005A1CFB685A62FB681B8D013B9AB2FB683B
:103EFC001A85FB685B8D9BB2013B9AB2FB685A85B5
:103F0C00FB681B8D002BAAD17A69B96AF86800F09E
:103F1C0029FA0346002B0DD0FB681B6C042B07D130
:103F2C00FB681B681A68FB681B6842F400721A6015
:103F3C00012316E0FB681B681A68FB681B6842F4D7
:103F4C0000721A60FB68202283F83D20FB68002277
:103F5C0083F83E20FB68002283F83C20002300E01D
:103F6C00022318461837BD4680BD00BF0200100062
:103F7C000000FFFF80B588B002AFF860084611461C
:103F8C001A4603467B810B463B811346FB80FB683C
:103F9C001B681A68FB681B6842F480721A607B6AA3
:103FAC0000933B6A00224FF00111F86800F078F89A
:103FBC000346002B0DD0FB681B681B6803F4807351
:103FCC00B3F5807F03D1FB684FF400721A640323AE
:103FDC005FE07B89DBB21A46FB681B6802F0FE02CD
:103FEC001A617B6A3A6A2D49F86800F0D3F80346E7
:103FFC00002B01D001234CE000237B61FB681B6884
:10400C005B697B61FB681B689B697B617B697A6A76
:10401C00396AF86800F05EF90346002B0DD0FB6896
:10402C001B6C042B07D1FB681B681A68FB681B68A8
:10403C0042F400721A6001232BE0FB88012B05D19E
:10404C003B89DAB2FB681B681A6121E03B891B0AC9
:10405C009BB2DAB2FB681B681A617A6A396AF86833
:10406C0000F038F90346002B0DD0FB681B6C042BB9
:10407C0007D1FB681B681A68FB681B6842F4007266
:10408C001A60012305E03B89DAB2FB681B681A61F0
:10409C00002318461837BD4680BD00BF0200010042
:1040AC0080B584B000AFF860B9603B601346FB711B
:1040BC0048E03B68B3F1FF3F44D0FFF745F90246B7
:1040CC00BB69D31A3A689A4202D33B68002B39D1A8
:1040DC00BB681B0CDBB2012B0DD1FB681B685B6949
:1040EC00DA43BB6813409BB2002B0CBF01230023A7
:1040FC00DBB21A460CE0FB681B689B69DA43BB68B1
:10410C0013409BB2002B0CBF01230023DBB21A46D9
:10411C00FB799A4216D1FB6800221A63FB682022B5
:10412C0083F83D20FB68002283F83E20FB681B6C63
:10413C0043F02002FB681A64FB68002283F83C20E1
:10414C00012323E0BB681B0CDBB2012B0DD1FB68F8
:10415C001B685B69DA43BB6813409BB2002B0CBF36
:10416C0001230023DBB21A460CE0FB681B689B6939
:10417C00DA43BB6813409BB2002B0CBF0123002316
:10418C00DBB21A46FB799A4293D0002318461037BB
:10419C00BD4680BD80B584B000AFF860B9607A6070
:1041AC003B6071E0FB681B685B6903F48063B3F5EB
:1041BC00806F23D1FB681B681A68FB681B6842F48C
:1041CC0000721A60FB681B686FF480625A61FB68AE
:1041DC0000221A63FB68202283F83D20FB68002232
:1041EC0083F83E20FB681B6C43F00402FB681A64E6
:1041FC00FB68002283F83C20012367E07B68B3F165
:10420C00FF3F41D0FFF7A0F802463B68D31A7A680B
:10421C009A4202D37B68002B36D1BB681B0CDBB2F5
:10422C00012B0CD1FB681B685B69DA43BB6813403C
:10423C009BB2002B14BF01230023DBB20BE0FB6805
:10424C001B689B69DA43BB6813409BB2002B14BFFD
:10425C0001230023DBB2002B16D0FB6800221A636B
:10426C00FB68202283F83D20FB68002283F83E2067
:10427C00FB681B6C43F02002FB681A64FB6800228D
:10428C0083F83C20012321E0BB681B0CDBB2012B23
:10429C000CD1FB681B685B69DA43BB6813409BB2AB
:1042AC00002B14BF01230023DBB20BE0FB681B685F
:1042BC009B69DA43BB6813409BB2002B14BF0123EC
:1042CC000023DBB2002B7FF46DAF002318461037B0
:1042DC00BD4680BD80B584B000AFF860B9607A602F
:1042EC0034E0F86800F086F80346002B01D0012377
:1042FC0034E0BB68B3F1FF3F28D0FFF725F8024646
:10430C007B68D31ABA689A4202D3BB68002B1DD1C2
:10431C00FB681B685B6903F08003802B16D0FB687D
:10432C0000221A63FB68202283F83D20FB680022E0
:10433C0083F83E20FB681B6C43F02002FB681A6478
:10434C00FB68002283F83C20012307E0FB681B6814
:10435C005B6903F08003802BC3D100231846103710
:10436C00BD4680BD80B584B000AFF860B9607A609E
:10437C0034E0F86800F03EF80346002B01D001232E
:10438C0034E0BB68B3F1FF3F28D0FEF7DDFF0246F7
:10439C007B68D31ABA689A4202D3BB68002B1DD132
:1043AC00FB681B685B6903F00403042B16D0FB68E5
:1043BC0000221A63FB68202283F83D20FB68002250
:1043CC0083F83E20FB681B6C43F02002FB681A64E8
:1043DC00FB68002283F83C20012307E0FB681B6884
:1043EC005B6903F00403042BC3D100231846103778
:1043FC00BD4680BD80B483B000AF78607B681B681D
:10440C005B6903F48063B3F5806F1BD17B681B6819
:10441C006FF480625A617B6800221A637B682022E9
:10442C0083F83D207B68002283F83E207B681B6C60
:10443C0043F004027B681A647B68002283F83C20FA
:10444C00012300E0002318460C37BD4680BC7047A2
:10445C0080B586B000AF78607B68002B01D101235A
:10446C0072E27B681B6803F00103002B00F087806D
:10447C00924B5B6803F00C03042B0CD08F4B5B68E6
:10448C0003F00C03082B12D18C4B5B6803F48033C4
:10449C00B3F5803F0BD1894B1B6803F40033002B21
:1044AC006CD07B685B68002B68D101234CE27B6885
:1044BC005B68B3F5803F06D1804B1B687F4A43F4A1
:1044CC00803313602EE07B685B68002B0CD17B4B38
:1044DC001B687A4A23F480331360784B1B68774A45
:1044EC0023F4802313601DE07B685B68B3F5A02F79
:1044FC000CD1724B1B68714A43F4802313606F4BD1
:10450C001B686E4A43F4803313600BE06B4B1B68E3
:10451C006A4A23F480331360684B1B68674A23F4A0
:10452C00802313607B685B68002B13D0FEF70CFFB5
:10453C00386108E0FEF708FF02463B69D31A642B8A
:10454C0001D9032300E25D4B1B6803F40033002BFD
:10455C00F0D014E0FEF7F8FE386108E0FEF7F4FE48
:10456C0002463B69D31A642B01D90323ECE1534B6C
:10457C001B6803F40033002BF0D100E000BF7B6814
:10458C001B6803F00203002B63D04C4B5B6803F0F9
:10459C000C03002B0BD0494B5B6803F00C03082B6E
:1045AC001CD1464B5B6803F48033002B16D1434B74
:1045BC001B6803F00203002B05D07B681B69012BE1
:1045CC0001D00123C0E13D4B1B6823F0F8027B684E
:1045DC005B69DB00394913430B603AE07B681B696C
:1045EC00002B20D0364B01221A60FEF7ADFE38614D
:1045FC0008E0FEF7A9FE02463B69D31A022B01D94B
:10460C000323A1E12D4B1B6803F00203002BF0D018
:10461C002A4B1B6823F0F8027B685B69DB00274997
:10462C0013430B6015E0264B00221A60FEF78CFE3C
:10463C00386108E0FEF788FE02463B69D31A022B6C
:10464C0001D9032380E11D4B1B6803F00203002BEF
:10465C00F0D17B681B6803F00803002B3AD07B6811
:10466C009B69002B19D0174B01221A60FEF76CFEC8
:10467C00386108E0FEF768FE02463B69D31A022B4C
:10468C0001D9032360E10D4B5B6A03F00203002B9D
:10469C00F0D0012000F0CEFA1CE00A4B00221A6088
:1046AC00FEF752FE38610FE0FEF74EFE02463B6904
:1046BC00D31A022B08D9032346E100BF0010024095
:1046CC000000424280044242924B5B6A03F00203B8
:1046DC00002BE9D17B681B6803F00403002B00F06E
:1046EC00A6800023FB758B4BDB6903F08053002BFA
:1046FC000DD1884BDB69874A43F08053D361854BDE
:10470C00DB6903F08053BB60BB680123FB75824BF4
:10471C001B6803F48073002B18D17F4B1B687E4AF7
:10472C0043F480731360FEF70FFE386108E0FEF768
:10473C000BFE02463B69D31A642B01D9032303E118
:10474C00754B1B6803F48073002BF0D07B68DB681F
:10475C00012B06D16F4B1B6A6E4A43F001031362A7
:10476C002DE07B68DB68002B0CD16A4B1B6A694A15
:10477C0023F001031362674B1B6A664A23F00403A0
:10478C0013621CE07B68DB68052B0CD1614B1B6A48
:10479C00604A43F0040313625E4B1B6A5D4A43F0AC
:1047AC00010313620BE05B4B1B6A5A4A23F00103B3
:1047BC001362584B1B6A574A23F0040313627B683D
:1047CC00DB68002B15D0FEF7BFFD38610AE0FEF761
:1047DC00BBFD02463B69D31A41F28832934201D9A0
:1047EC000323B1E04B4B1B6A03F00203002BEED00A
:1047FC0014E0FEF7A9FD38610AE0FEF7A5FD0246BC
:10480C003B69D31A41F28832934201D903239BE0CE
:10481C00404B1B6A03F00203002BEED1FB7D012BF6
:10482C0005D13C4BDB693B4A23F08053D3617B6859
:10483C00DB69002B00F08780364B5B6803F00C03C0
:10484C00082B61D07B68DB69022B46D1334B0022ED
:10485C001A60FEF779FD386108E0FEF775FD024637
:10486C003B69D31A022B01D903236DE0294B1B683A
:10487C0003F00073002BF0D17B681B6AB3F5803F0B
:10488C0008D1244B5B6823F400327B689B68214978
:10489C0013434B601F4B5B6823F474127B68196ADB
:1048AC007B685B6A0B431B4913434B601B4B012218
:1048BC001A60FEF749FD386108E0FEF745FD024637
:1048CC003B69D31A022B01D903233DE0114B1B6822
:1048DC0003F00073002BF0D035E0104B00221A606F
:1048EC00FEF732FD386108E0FEF72EFD02463B690B
:1048FC00D31A022B01D9032326E0064B1B6803F0C5
:10490C000073002BF0D11EE07B68DB69012B07D113
:10491C00012319E000100240007000406000424288
:10492C000B4B5B68FB60FB6803F480327B681B6A93
:10493C009A4206D1FB6803F470127B685B6A9A4258
:10494C0001D0012300E0002318461837BD4680BD76
:10495C000010024080B584B000AF786039607B688D
:10496C00002B01D10123D0E06A4B1B6803F0070335
:10497C003A689A4210D9674B1B6823F007026549C5
:10498C003B6813430B60634B1B6803F007033A68E7
:10499C009A4201D00123B8E07B681B6803F0020344
:1049AC00002B20D07B681B6803F00403002B05D080
:1049BC00594B5B68584A43F4E06353607B681B684F
:1049CC0003F00803002B05D0534B5B68524A43F4A9
:1049DC0060535360504B5B6823F0F0027B689B681C
:1049EC004D4913434B607B681B6803F00103002B9C
:1049FC0040D07B685B68012B07D1474B1B6803F4E5
:104A0C000033002B15D101237FE07B685B68022B00
:104A1C0007D1414B1B6803F00073002B09D1012314
:104A2C0073E03D4B1B6803F00203002B01D1012303
:104A3C006BE0394B5B6823F003027B685B6836499B
:104A4C0013434B60FEF780FCF8600AE0FEF77CFC39
:104A5C000246FB68D31A41F28832934201D90323F0
:104A6C0053E02D4B5B6803F00C027B685B689B008A
:104A7C009A42EBD1274B1B6803F007033A689A4222
:104A8C0010D2244B1B6823F0070222493B681343C6
:104A9C000B60204B1B6803F007033A689A4201D065
:104AAC00012332E07B681B6803F00403002B08D061
:104ABC00194B5B6823F4E0627B68DB68164913438F
:104ACC004B607B681B6803F00803002B09D0124B6A
:104ADC005B6823F460527B681B69DB000E4913434F
:104AEC004B6000F021F802460B4B5B681B0903F08E
:104AFC000F030A49CB5C22FA03F3094A1360094BF2
:104B0C001B681846FEF7DEFB002318461037BD461F
:104B1C0080BD00BF00200240001002409C7F0008B6
:104B2C00C80000202C01002080B487B000AF002307
:104B3C00FB600023BB6000237B6100237B600023B0
:104B4C003B611E4B5B68FB60FB6803F00C03042BA2
:104B5C0002D0082B03D027E0194B3B6127E0FB6800
:104B6C009B0C03F00F03174AD35C7B60FB6803F4C8
:104B7C008033002B10D0114B5B685B0C03F00103EE
:104B8C00114AD35CBB607B680D4A03FB02F2BB6825
:104B9C00B2FBF3F37B6104E07B680C4A02FB03F38A
:104BAC007B617B693B6102E0054B3B6100BF3B696C
:104BBC0018461C37BD4680BC704700BF0010024031
:104BCC0000127A00D47F0008E47F000800093D0041
:104BDC0080B400AF024B1B681846BD4680BC7047C2
:104BEC00C800002080B500AFFFF7F2FF0246054B6E
:104BFC005B681B0A03F007030349CB5C22FA03F33F
:104C0C00184680BD00100240AC7F000880B500AF94
:104C1C00FFF7DEFF0246054B5B68DB0A03F0070378
:104C2C000349CB5C22FA03F3184680BD0010024006
:104C3C00AC7F000880B485B000AF78600A4B1B686D
:104C4C000A4AA2FB03235B0A7A6802FB03F3FB60AC
:104C5C0000BFFB685A1EFA60002BF9D100BF00BFE1
:104C6C001437BD4680BC7047C8000020D34D62107D
:104C7C0080B485B000AF78607B6893F83D30DBB2D0
:104C8C00012B01D001233AE07B68022283F83D20FE
:104C9C007B681B68DA687B681B6842F00102DA608B
:104CAC007B681B68184A93420ED07B681B68B3F173
:104CBC00804F09D07B681B68144A934204D07B68F0
:104CCC001B68134A934211D17B681B689B6803F0E5
:104CDC000703FB60FB68062B10D07B681B681A6807
:104CEC007B681B6842F001021A6007E07B681B6856
:104CFC001A687B681B6842F001021A600023184690
:104D0C001437BD4680BC7047002C014000040040A5
:104D1C000008004080B483B000AF78607B681B68EB
:104D2C00DA687B681B6822F00102DA607B681B681A
:104D3C001A6A41F211131340002B0FD17B681B68C8
:104D4C001A6A40F244431340002B07D17B681B685E
:104D5C001A687B681B6822F001021A607B680122CA
:104D6C0083F83D20002318460C37BD4680BC7047A5
:104D7C0080B582B000AF786039607B68002B01D1C0
:104D8C00012341E07B6893F83D30DBB2002B06D168
:104D9C007B68002283F83C207868FCF7E5FF7B6891
:104DAC00022283F83D207B681A687B68043319461D
:104DBC00104600F071FA7B681B681A687B681B68E8
:104DCC0022F008021A607B681B6819687B681B68F4
:104DDC003A680A431A607B68012283F846207B6894
:104DEC00012283F83E207B68012283F83F207B68F8
:104DFC00012283F842207B68012283F843207B68E0
:104E0C00012283F83D20002318460837BD4680BD9B
:104E1C0080B586B000AF786039607B68002B01D11B
:104E2C00012393E07B6893F83D30DBB2002B06D175
:104E3C007B68002283F83C207868FCF72DFF7B68A8
:104E4C00022283F83D207B681B689B687A68126895
:104E5C0023F4804323F0070393607B681A687B6814
:104E6C0004331946104600F017FA7B681B689B68E0
:104E7C007B617B681B689B693B617B681B681B6A59
:104E8C00FB603B681B687A6913437B613B6923F4C5
:104E9C00407323F003033B613B689A683B689B6952
:104EAC001B0213433A6913433B613B6923F4406390
:104EBC0023F00C033B613B6923F4704323F0F003B4
:104ECC003B613B68DA683B68DB691B0213433A6958
:104EDC0013433B613B681B691A013B681B6A1B034C
:104EEC0013433A6913433B61FB6823F02203FB60D5
:104EFC003B685A683B685B691B011343FA681343B0
:104F0C00FB607B681B687A699A607B681B683A69EE
:104F1C009A617B681B68FA681A627B68012283F8C5
:104F2C0046207B68012283F83E207B68012283F8AF
:104F3C003F207B68012283F842207B68012283F8A2
:104F4C0043207B68012283F83D2000231846183744
:104F5C00BD4680BD80B584B000AF786039607B6899
:104F6C0093F83E30FB737B6893F83F30BB737B68E0
:104F7C0093F842307B737B6893F843303B733B6808
:104F8C00002B10D1FB7B012B02D17B7B012B01D0A1
:104F9C00012369E07B68022283F83E207B680222B1
:104FAC0083F8422031E03B68042B10D1BB7B012BF2
:104FBC0002D13B7B012B01D0012355E07B680222FF
:104FCC0083F83F207B68022283F843201DE0FB7BA3
:104FDC00012B08D1BB7B012B05D17B7B012B02D193
:104FEC003B7B012B01D001233EE07B68022283F83E
:104FFC003E207B68022283F83F207B68022283F8E4
:10500C0042207B68022283F843203B68002B03D0AC
:10501C003B68042B08D00FE07B681B680122002141
:10502C00184600F0A7F916E07B681B6801220421E2
:10503C00184600F09FF90EE07B681B6801220021E6
:10504C00184600F097F97B681B680122042118466A
:10505C0000F090F900BF7B681B681A687B681B68BE
:10506C0042F001021A60002318461037BD4680BD7D
:10507C0080B584B000AF78607B681B68DB68FB6030
:10508C007B681B681B69BB60BB6803F00203002BC9
:10509C0020D0FB6803F00203002B1BD07B681B683D
:1050AC006FF002021A617B6801221A777B681B6819
:1050BC009B6903F00303002B03D0786800F0D1F850
:1050CC0005E0786800F0C4F8786800F0D3F87B68E5
:1050DC0000221A77BB6803F00403002B20D0FB6876
:1050EC0003F00403002B1BD07B681B686FF00402D9
:1050FC001A617B6802221A777B681B689B6903F430
:10510C004073002B03D0786800F0ABF805E07868AA
:10511C0000F09EF8786800F0ADF87B6800221A77F2
:10512C00BB6803F00803002B20D0FB6803F00803D6
:10513C00002B1BD07B681B686FF008021A617B6820
:10514C0004221A777B681B68DB6903F00303002BCE
:10515C0003D0786800F085F805E0786800F078F8FE
:10516C00786800F087F87B6800221A77BB6803F038
:10517C001003002B20D0FB6803F01003002B1BD076
:10518C007B681B686FF010021A617B6808221A7723
:10519C007B681B68DB6903F44073002B03D07868D1
:1051AC0000F05FF805E0786800F052F8786800F0DD
:1051BC0061F87B6800221A77BB6803F00103002BAF
:1051CC000CD0FB6803F00103002B07D07B681B6835
:1051DC006FF001021A617868FBF7E0FEBB6803F020
:1051EC008003002B0CD0FB6803F08003002B07D04E
:1051FC007B681B686FF080021A61786800F045F9D3
:10520C00BB6803F04003002B0CD0FB6803F0400399
:10521C00002B07D07B681B686FF040021A6178681E
:10522C0000F031F8BB6803F02003002B0CD0FB68B6
:10523C0003F02003002B07D07B681B686FF0200263
:10524C001A61786800F018F900BF1037BD4680BDB0
:10525C0080B483B000AF786000BF0C37BD4680BC13
:10526C00704780B483B000AF786000BF0C37BD4688
:10527C0080BC704780B483B000AF786000BF0C373F
:10528C00BD4680BC704780B483B000AF786000BF6F
:10529C000C37BD4680BC704780B485B000AF7860D9
:1052AC0039607B681B68FB607B682F4A93420BD08C
:1052BC007B68B3F1804F07D07B682C4A934203D0B4
:1052CC007B682B4A934208D1FB6823F07003FB6088
:1052DC003B685B68FA681343FB607B68224A934225
:1052EC000BD07B68B3F1804F07D07B681F4A934289
:1052FC0003D07B681E4A934208D1FB6823F44073A9
:10530C00FB603B68DB68FA681343FB60FB6823F0C7
:10531C0080023B685B691343FB607B68FA681A6028
:10532C003B689A687B68DA623B681A687B689A62A9
:10533C007B680D4A934203D13B681A697B681A63F8
:10534C007B6801225A617B681B6903F00103002B07
:10535C0005D07B681B6923F001027B681A6100BFD2
:10536C001437BD4680BC7047002C0140000400403F
:10537C000008004080B487B000AFF860B9607A6074
:10538C00BB6803F01F03012202FA03F37B61FB6885
:10539C001A6A7B69DB431A40FB681A62FB681A6A5B
:1053AC00BB6803F01F03796801FA03F31A43FB6827
:1053BC001A6200BF1C37BD4680BC704780B485B0F4
:1053CC0000AF786039607B6893F83C30012B01D1D9
:1053DC00022346E07B68012283F83C207B68022292
:1053EC0083F83D207B681B685B68FB607B681B68EF
:1053FC009B68BB60FB6823F07003FB603B681B6819
:10540C00FA681343FB607B681B68FA685A607B6818
:10541C001B68164A93420ED07B681B68B3F1804F11
:10542C0009D07B681B68124A934204D07B681B68C6
:10543C00104A93420CD1BB6823F08003BB603B68DD
:10544C005B68BA681343BB607B681B68BA689A6078
:10545C007B68012283F83D207B68002283F83C2086
:10546C00002318461437BD4680BC7047002C014001
:10547C00000400400008004080B483B000AF7860A6
:10548C0000BF0C37BD4680BC704780B483B000AF02
:10549C00786000BF0C37BD4680BC704780B582B0C9
:1054AC0000AF78607B68002B01D1012342E07B6860
:1054BC0093F84130DBB2002B06D17B68002283F8D5
:1054CC0040207868FCF776FC7B68242283F8412026
:1054DC007B681B68DA687B681B6822F40052DA6010
:1054EC00786800F063FD7B681B681A697B681B6831
:1054FC0022F490421A617B681B685A697B681B68AE
:10550C0022F02A025A617B681B68DA687B681B6888
:10551C0042F40052DA607B6800225A647B682022D5
:10552C0083F841207B68202283F842207B6800228C
:10553C005A63002318460837BD4680BD80B58AB033
:10554C0002AFF860B9603B601346FB8000237B61BF
:10555C00FB6893F84130DBB2202B75D1BB68002B74
:10556C0002D0FB88002B01D101236EE0FB680022E6
:10557C005A64FB68212283F84120FDF7E5FE78612F
:10558C00FB68FA889A84FB68FA88DA84FB689B6863
:10559C00B3F5805F08D1FB681B69002B04D1002395
:1055AC00FB61BB68BB6103E0BB68FB610023BB61B3
:1055BC002EE03B6800937B6900228021F86800F0A4
:1055CC0001FB0346002B05D0FB68202283F8412009
:1055DC0003233AE0FB69002B0BD1BB691B881A46ED
:1055EC00FB681B68C2F308025A60BB690233BB61DB
:1055FC0007E0FB691A78FB681B685A60FB6901338A
:10560C00FB61FB68DB8C9BB2013B9AB2FB68DA84D2
:10561C00FB68DB8C9BB2002BCBD13B6800937B6986
:10562C0000224021F86800F0CDFA0346002B05D08B
:10563C00FB68202283F84120032306E0FB6820222C
:10564C0083F84120002300E0022318462037BD4692
:10565C0080BD000080B5BAB000AF78607B681B6875
:10566C001B68C7F8E4307B681B68DB68C7F8E03060
:10567C007B681B685B69C7F8DC300023C7F8D8303F
:10568C000023C7F8D430D7F8E43003F00F03C7F881
:10569C00D830D7F8D830002B0FD1D7F8E43003F03E
:1056AC002003002B09D0D7F8E03003F02003002BA7
:1056BC0003D0786800F0BCFB5BE2D7F8D830002B45
:1056CC0000F0DE80D7F8DC3003F00103002B06D1AC
:1056DC00D7F8E03003F49073002B00F0D180D7F8AA
:1056EC00E43003F00103002B0BD0D7F8E03003F4C7
:1056FC008073002B05D07B685B6C43F001027B68E8
:10570C005A64D7F8E43003F00403002B0BD0D7F81D
:10571C00DC3003F00103002B05D07B685B6C43F09D
:10572C0002027B685A64D7F8E43003F00203002BC2
:10573C000BD0D7F8DC3003F00103002B05D07B68CD
:10574C005B6C43F004027B685A64D7F8E43003F0D6
:10575C000803002B11D0D7F8E03003F02003002B06
:10576C0005D1D7F8DC3003F00103002B05D07B68A2
:10577C005B6C43F008027B685A647B685B6C002BA3
:10578C0000F0F281D7F8E43003F02003002B08D0AE
:10579C00D7F8E03003F02003002B02D0786800F03B
:1057AC0047FB7B681B685B6903F04003002B14BF4D
:1057BC0001230023DBB2C7F8D4307B685B6C03F0A9
:1057CC000803002B03D1D7F8D430002B4FD07868C6
:1057DC0000F051FA7B681B685B6903F04003002BF7
:1057EC0041D07B681B681433C7F89C30D7F89C30C9
:1057FC0053E8003FC7F89830D7F8983023F04003AF
:10580C00C7F8D0307B681B681433D7F8D020C7F8A2
:10581C00A820C7F8A430D7F8A410D7F8A82041E8DE
:10582C000023C7F8A030D7F8A030002BD9D17B6863
:10583C00DB6B002B13D07B68DB6B7E4A5A637B6877
:10584C00DB6B1846FDF7FCFE0346002B16D07B687D
:10585C00DB6B5B6B7A68D26B104698470EE078680E
:10586C0000F09CF90AE0786800F098F906E0786896
:10587C0000F094F97B6800225A6475E100BF73E173
:10588C007B681B6B012B40F04F81D7F8E43003F0A1
:10589C001003002B00F04881D7F8E03003F0100320
:1058AC00002B00F041810023BB607B681B681B68E8
:1058BC00BB607B681B685B68BB60BB687B681B68F4
:1058CC005B6903F04003002B00F0B6807B68DB6B58
:1058DC001B685B68A7F8BE30B7F8BE30002B00F031
:1058EC0045817B689B8DB7F8BE209A4280F03E8143
:1058FC007B68B7F8BE20DA857B68DB6B9B69202B55
:10590C0000F088807B681B680C33C7F88830D7F8A8
:10591C00883053E8003FC7F88430D7F8843023F43C
:10592C008073C7F8B8307B681B680C33D7F8B82085
:10593C00C7F89420C7F89030D7F89010D7F8942077
:10594C0041E80023C7F88C30D7F88C30002BD9D124
:10595C007B681B6814337B677B6F53E8003F3B67A6
:10596C003B6F23F00103C7F8B4307B681B6814331A
:10597C00D7F8B420C7F88020FB67F96FD7F88020E0
:10598C0041E80023BB67BB6F002BE1D17B681B6830
:10599C0014333B663B6E53E8003FFB65FB6D23F015
:1059AC004003C7F8B0307B681B681433D7F8B020BD
:1059BC00FA66BB66B96EFA6E41E800237B667B6EB5
:1059CC00002BE3D17B68202283F842207B680022E5
:1059DC001A637B681B680C33FB64FB6C53E8003F59
:1059EC00BB64BB6C23F01003C7F8AC307B681B683E
:1059FC000C33D7F8AC20BA657B65796DBA6D41E88C
:105A0C0000233B653B6D002BE3D17B68DB6B1846B9
:105A1C00FDF7DBFD7B6802225A637B689A8D7B68FD
:105A2C00DB8D9BB2D31A9BB21946786800F0BFF895
:105A3C009CE000BF475D00087B689A8D7B68DB8D1E
:105A4C009BB2D31AA7F8CE307B68DB8D9BB2002BB0
:105A5C0000F08E80B7F8CE30002B00F089807B6888
:105A6C001B680C33BB63BB6B53E8003F7B637B6BE6
:105A7C0023F49073C7F8C8307B681B680C33D7F8D5
:105A8C00C8207A643B64396C7A6C41E80023FB6370
:105A9C00FB6B002BE3D17B681B6814337B627B6A46
:105AAC0053E8003F3B623B6A23F00103C7F8C43064
:105ABC007B681B681433D7F8C4203A63FB62F96A1D
:105ACC003A6B41E80023BB62BB6A002BE3D17B68D5
