:020000040800F2
:1000000000500020E53500080D27000815270008DE
:100010001D270008252700082D27000800000000E4
:10002000000000000000000000000000352700086C
:1000300041270008000000004D270008592700084C
:100040002D3600082D3600082D3600082D36000804
:100050002D3600082D3600082D3600082D360008F4
:100060002D3600082D360008692700082D360008B7
:100070002D3600082D3600082D3600082D360008D4
:100080002D3600082D3600082D3600082D360008C4
:100090002D3600082D3600082D3600087727000879
:1000A0002D3600082D3600082D3600082D360008A4
:1000B0002D3600082D360008852700082D3600084B
:1000C0002D3600082D3600082D3600082D36000884
:1000D0002D3600082D360008992700082D36000817
:1000E0002D3600082D3600082D36000800000000CF
:1000F0000000000000000000000000000000000000
:0C01000000000000000000005FF808F1A3
:1001100010B5054C237833B9044B13B10448AFF341
:1001200000800123237010BD4C010020000000005E
:100130008879000808B5034B1BB103490348AFF3A6
:10014000008008BD000000005001002088790008F0
:10015000034613F8012B002AFBD1181A0138704707
:1001600070B54FF0FF0C4CF4E06C1CEA11541DBF4D
:100170001CEA135594EA0C0F95EA0C0F00F0DEF818
:100180002C4481EA030621EA4C5123EA4C5350EAFD
:10019000013518BF52EA033541F4801143F480134E
:1001A00038D0A0FB02CE4FF00005E1FB02E506F0DF
:1001B0000042E0FB03E54FF00006E1FB03569CF034
:1001C000000F18BF4EF0010EA4F1FF04B6F5007F3A
:1001D00064F5407404D25FEA4E0E6D4146EB0606AC
:1001E00042EAC62141EA55514FEAC52040EA5E5035
:1001F0004FEACE2EB4F1FD0C88BFBCF5E06F1ED8DF
:10020000BEF1004F08BF5FEA500E50F1000041EB15
:10021000045170BD06F0004646EA010140EA0200C2
:1002200081EA0301B4EB5C04C2BFD4EB0C0541EAE4
:10023000045170BD41F480114FF0000E013C00F3F9
:10024000AB8014F1360FDEBF002001F0004170BD1D
:10025000C4F10004203C35DA0C341BDC04F1140436
:10026000C4F1200500FA05F320FA04F001FA05F2C2
:1002700040EA020001F0004221F0004110EBD3708F
:1002800021FA04F642EB06015EEA430E08BF20EABB
:10029000D37070BDC4F10C04C4F1200500FA04F35E
:1002A00020FA05F001FA04F240EA020001F00041F0
:1002B00010EBD37041F100015EEA430E08BF20EA63
:1002C000D37070BDC4F1200500FA05F24EEA020EAB
:1002D00020FA04F301FA05F243EA020321FA04F0DA
:1002E00001F0004121FA04F220EA020000EBD37091
:1002F0005EEA430E08BF20EAD37070BD94F0000F91
:100300000FD101F00046400041EB010111F4801FC4
:1003100008BF013CF7D041EA060195F0000F18BF75
:10032000704703F00046520043EB030313F4801FB1
:1003300008BF013DF7D043EA0603704794EA0C0F6B
:100340000CEA135518BF95EA0C0F0CD050EA410681
:1003500018BF52EA4306D1D181EA030101F00041FE
:100360004FF0000070BD50EA410606BF1046194626
:1003700052EA430619D094EA0C0F02D150EA013632
:1003800013D195EA0C0F05D152EA03361CBF104673
:1003900019460AD181EA030101F0004141F0FE4112
:1003A00041F470014FF0000070BD41F0FE4141F496
:1003B000780170BD81F0004102E000BF83F000438E
:1003C00030B54FEA41044FEA430594EA050F08BFF0
:1003D00090EA020F1FBF54EA000C55EA020C7FEAB4
:1003E000645C7FEA655C00F0E2804FEA5454D4EB31
:1003F0005555B8BF6D420CDD2C4480EA020281EAFB
:10040000030382EA000083EA010180EA020281EA32
:100410000303362D88BF30BD11F0004F4FEA013184
:100420004FF4801C4CEA113102D0404261EB410193
:1004300013F0004F4FEA03334CEA133302D0524219
:1004400063EB430394EA050F00F0A780A4F10104D5
:10045000D5F1200E0DDB02FA0EFC22FA05F280180F
:1004600041F1000103FA0EF2801843FA05F35941F5
:100470000EE0A5F120050EF1200E012A03FA0EFC74
:1004800028BF4CF0020C43FA05F3C01851EBE3719E
:1004900001F0004507D54FF0000EDCF1000C7EEBBB
:1004A00000006EEB0101B1F5801F1BD3B1F5001FF9
:1004B0000CD349085FEA30004FEA3C0C04F1010418
:1004C0004FEA445212F5800F80F09A80BCF1004F41
:1004D00008BF5FEA500C50F1000041EB045141EAC3
:1004E000050130BD5FEA4C0C404141EB0101013C8C
:1004F00028BFB1F5801FE9D291F0000F04BF01467B
:100500000020B1FA81F308BF2033A3F10B03B3F14C
:1005100020020CDA0C3208DD02F1140CC2F10C02DC
:1005200001FA0CF021FA02F10CE002F11402D8BF3A
:10053000C2F1200C01FA02F120FA0CFCDCBF41EA06
:100540000C019040E41AA2BF01EB0451294330BDD5
:100550006FEA04041F3C1CDA0C340EDC04F11404B2
:10056000C4F1200220FA04F001FA02F340EA030089
:1005700021FA04F345EA030130BDC4F10C04C4F1CF
:10058000200220FA02F001FA04F340EA03002946AF
:1005900030BD21FA04F0294630BD94F0000F83F4F9
:1005A000801306BF81F480110134013D4EE77FEADC
:1005B000645C18BF7FEA655C29D094EA050F08BF28
:1005C00090EA020F05D054EA000C04BF1946104609
:1005D00030BD91EA030F1EBF0021002030BD5FEA4D
:1005E000545C05D14000494128BF41F0004130BD75
:1005F00014F580043CBF01F5801130BD01F00045C9
:1006000045F0FE4141F470014FF0000030BD7FEA3B
:10061000645C1ABF194610467FEA655C1CBF0B4636
:10062000024650EA013406BF52EA033591EA030F4D
:1006300041F4002130BD00BF90F0000F04BF002145
:10064000704730B54FF4806404F132044FF0000578
:100650004FF0000150E700BF90F0000F04BF0021F1
:10066000704730B54FF4806404F1320410F0004557
:1006700048BF40424FF000013EE700BF42004FEA52
:10068000E2014FEA31014FEA02701FBF12F07F43CF
:1006900093F07F4F81F06051704732F07F4208BF86
:1006A000704793F07F4F04BF41F40021704730B58D
:1006B0004FF4607401F0004521F000411CE700BFD9
:1006C00050EA010208BF704730B54FF000050AE05C
:1006D00050EA010208BF704730B511F0004502D55D
:1006E000404261EB41014FF4806404F132045FEA5F
:1006F000915C3FF4D8AE4FF003025FEADC0C18BF08
:1007000003325FEADC0C18BF033202EBDC02C2F1F9
:10071000200300FA03FC20FA02F001FA03FE40EA8B
:100720000E0021FA02F11444BDE600BF4A0011D2C6
:1007300012F5001211D20DD56FF47873B3EB62523B
:100740000ED44FEAC12343F0004343EA505323FA47
:1007500002F070474FF00000704750EA013002D1BC
:100760004FF0FF3070474FF00000704780B584B005
:1007700000AF03460A46FB711346BB7102F0B0FF9F
:10078000F860FA793B4913469B0013449B000B44E5
:100790000C331B68FA68D31A1D2B67D9FA793549CF
:1007A00013469B0013449B000B440C33FA681A60F9
:1007B000FA79304913469B0013449B000B441B7885
:1007C000DBB2002B0DD0BB79002B0AD0FA79294976
:1007D00013469B0013449B000B440433FA681A60D1
:1007E00045E0FA79234913469B0013449B000B44D0
:1007F0001B78DBB283F00103DBB2002B16D0BB7990
:10080000002B13D0FA791B4913469B0013449B001D
:100810000B4401221A70FA79164913469B001344BF
:100820009B000B440433FA681A6020E0FA791149FE
:1008300013469B0013449B000B441B78DBB2002B38
:1008400015D0FA790B4913469B0013449B000B44C7
:10085000013301221A70FA79064913469B001344AA
:100860009B000B440833FA681A6000E000BF1037A1
:10087000BD4680BD6801002080B586B000AF002372
:100880007B6183E00023FB740023FB600023BB60DB
:1008900072B600BF42497A6913469B0013449B001D
:1008A0000B4401331B78DBB2002B28D00123FB74EF
:1008B0003B497A6913469B0013449B000B44013368
:1008C00000221A7036497A6913469B0013449B0034
:1008D0000B4400221A7032497A6913469B00134474
:1008E0009B000B4404331B68FB602D497A69134657
:1008F0009B0013449B000B4408331B68BB6062B62B
:1009000000BFFB7C002B3ED0BA68FB68D31A7B602B
:100910007B68B3F5FA7F17D321497A6913469B00A8
:1009200013449B000B44103302221A707B6901337D
:100930007A6819461B4805F0C1FE7B69002B1BD065
:100940007B69012B1AD01EE015497A6913469B007A
:1009500013449B000B44103301221A707B6901334E
:100960007A681946104805F0A9FE7B69002B07D06C
:100970007B69012B06D006E000BF04E000BF02E067
:1009800000BF00E000BF7B6901337B617B69012B05
:100990007FF778AF00BF00BF1837BD4680BD00BFEE
:1009A00068010020A0790008C479000880B485B0EF
:1009B00000AF0346FB71FA790C4913469B001344C0
:1009C0009B000B4410331B78FB73FA7907491346DD
:1009D0009B0013449B000B44103300221A70FB7BD6
:1009E00018461437BD4680BC704700BF6801002020
:1009F00080B500AF01F012FA0D4B5B780133DAB22B
:100A00000C4B1A700A4B1B781A46802393FBF2F3A7
:100A1000DAB2094B1A70064B5B781A46402393FBF7
:100A2000F2F3DBB2013BDAB2044B1A7000BF80BDB7
:100A3000C0830008110200201202002013020020CF
:100A400080B582B002AF012300930E2380220021E3
:100A5000002001F01BFC002300930B237D220321C7
:100A6000022001F013FC0421042001F08BFB384B21
:100A7000012200920ECB374801F05EFB344B5B78CD
:100A80005B00DAB2344B1A701421032001F07AFBB8
:100A90002F4B012200920ECB304801F04DFB2C4B26
:100AA0005B781A462A4B1B782D492E4805F0ACFE80
:100AB000274B5B781A4652001344DBB20133DAB29B
:100AC000254B1A701D21032001F05CFB204B0122F5
:100AD00000920ECB234801F02FFB234B1B781A46C4
:100AE0002249204805F090FE194B5B789B00DBB251
:100AF0000233DAB2184B1A702621032001F042FBB0
:100B0000134B012200920ECB164801F015FB184B37
:100B10001B781A461749134805F076FE0C4B5B7894
:100B20001A4692001344DBB20333DAB20A4B1A704E
:100B30002F21032001F026FB054B012200920ECB52
:100B4000084801F0F9FA01F0EBF900BFBD4680BD9D
:100B5000C08300080000002010020020E87900088F
:100B6000FC7900089001002012020020107A000891
:100B700013020020287A000880B582B000AF034637
:100B8000FB71FB79184601F0B3F901F0C9F900BF18
:100B90000837BD4680BD000080B582B002AF00209E
:100BA000FFF7EAFF0F4B59780E4B5B78012200925A
:100BB0008022002001F0FEFA0023012200210A48D1
:100BC00000F07CF8002301220B21084800F076F8A1
:100BD000012301220D21064800F070F800BFBD4638
:100BE00080BD00BFC0830008407A00084C7A00082E
:100BF000507A000880B586B002AF7860084611468A
:100C00001A460346FB700B46BB7013467B70274B9E
:100C10001B78BA7802FB03F3BB737868FFF798FA86
:100C20000346DAB2BB781344FB737B68002B04D015
:100C30001F4B1B78FA7B9A4202D94FF0FF3331E009
:100C40001C4B1B78FA789A4203D31A4B1B78013B52
:100C5000FB70194B1B78FA7802FB03F3DBB202330B
:100C6000DAB2BB7B1146184601F08CFA0F4B7A784A
:100C700000920ECB786801F05FFA3B7E002B0ED01D
:100C800006E00A4B7A7800920ECB202001F0C2F9E0
:100C9000FB7B5A1CFA73064A12789342F1D301F097
:100CA0003FF9002318461037BD4680BDC0830008B9
:100CB00012020020130200201102002080B586B02D
:100CC00002AF7860084611461A460346FB700B4691
:100CD000BB7013467B707868FFF73AFA0346DAB2C6
:100CE000FB781344FB73154B1B78FA7802FB03F374
:100CF000DBB20021184601F045FA104BBA78009299
:100D00000ECB786801F018FA7B78002B0ED006E045
:100D10000A4BBA7800920ECB202001F07BF9FB7BC6
:100D20005A1CFA73064A12789342F1D301F0F8F88C
:100D3000002318461037BD4680BD00BFC0830008A1
:100D40001202002090B583B000AF04460846114659
:100D50001A462346FB710346BB710B467B71134653
:100D60003B717B79002B02D07B79102B01D90123B9
:100D70007B717B79013B7B7197F9073023F00F037F
:100D80005AB297F9053003F00F035BB213435BB21D
:100D9000DAB20C4B1A70BB7903F07F03DAB2094B5D
:100DA0005A703B7903F07F03DAB2064B9A706423E2
:100DB00003220449044804F08DFD00BF0C37BD46F2
:100DC00090BD00BFD80300204003002080B582B052
:100DD00000AF0346FB710B46BB7113467B717B79F9
:100DE000BA79F9799020FFF7ADFF00BF0837BD460B
:100DF00080BD80B582B000AF0346FB710B46BB716E
:100E000013467B717B79BA79F9798020FFF79AFFD5
:100E100000BF0837BD4680BD80B582B000AF034635
:100E20000A46FB801346BB8005F048FB0246B988A2
:100E3000FB88CB1A013392FBF3F101FB03F3D31AC6
:100E40009AB2FB8813449BB218460837BD4680BD52
:100E500080B400AF1D4B1B889BB219461C4B187801
:100E60001C4A0B465B000B44134402461A70174B96
:100E70001B889BB21946164B5878164A0B465B00E6
:100E80000B441344013302461A70104B1B889BB26B
:100E900019460F4B98780F4A0B465B000B441344DE
:100EA000023302461A70094B1B889BB201339AB277
:100EB000064B1A80054B1B889BB20B2B02D9034BA8
:100EC00000221A8000BFBD4680BC70478404002009
:100ED000D80300206004002090B585B002AF002345
:100EE000FB7179E0414B1B889BB2012B03D1404B36
:100EF0001B88002B74D13F4B1B889AB23E4B1B883A
:100F00009BB29A4265D0394B1B889BB2012B03D10F
:100F1000374B1B88002B65D1364B1B889BB219467B
:100F2000364A0B465B000B4413441878314B1B8840
:100F30009BB21946314A0B465B000B441344013304
:100F400019782C4B1B889BB21C462C4A23465B000D
:100F50002344134402331B781A4600F045FD284B06
:100F600019780123009301230022FFF743FE244B4D
:100F70001B780133DAB2224B1A70214B1B78062BF7
:100F800002D91F4B01221A701D4B1B781A46D20042
:100F90001344DBB20B33D9B2194B1B781A46D2007B
:100FA0001344DBB21333DBB2002200928022002014
:100FB00001F06CF90F4B1B889BB201339AB20D4BB9
:100FC0001A800C4B1B889BB20B2B02D9094B0022B9
:100FD0001A80FB790133FB71FB790B2B82D902E07C
:100FE00000BF00E000BF0C37BD4690BDD403002019
:100FF000D00000208604002084040020600400202B
:101000001200002000000000B0B58AB004AF02F06A
:101010000FFB00F085FA00F02DFC00F0C7FA00F09D
:10102000D5FB00F0FDFB00F0EFFA00F041FB00F013
:1010300093FBFFF7DDFCFFF703FD4FF47A7002F03E
:1010400059FBFFF7A9FD3C21A54804F04FF93C21CD
:10105000A44804F04BF9A44B1B686FF001021A611D
:1010600000F020FE01F08CFDA04805F08FFB02F09F
:1010700037FB0346184605F0F3F99B4803F0C4FF1D
:101080009B4BDB88D8B29A4B9B88DB00994A991816
:10109000974B9B881A46984B9A5C954B9B89DCB280
:1010A000934BDB89DBB280250295944D019500932B
:1010B000234600F05DFD03469AB2914B1A80904B97
:1010C0001B8819468F4805F0F9FA0023FB7509E0E3
:1010D000FB7D8A4AD35C19468B4805F0EFFAFB7D0D
:1010E0000133FB75FB7D9AB2854B1B889A42EFD387
:1010F000864805F04BFB7E4B1B88012B40F0AF81EF
:10110000834B1B889BB2002B00F0A981764B1B6898
:1011100000225A62764B1C89754B1B891846FFF7D3
:101120009BFA6DA3D3E90023FFF71AF802460B469A
:1011300010461946FFF7FAFA03469BB219462046B5
:10114000FFF76AFE03461A46674B1B68DA62684B74
:101150001C89674B1B891846FFF77EFA5EA3D3E90B
:101160000023FEF7FDFF02460B4610461946FFF727
:10117000DDFA03469BB219462046FFF74DFE0346B3
:101180001A46594BDA60584803F03EFF00BF5C4BEB
:101190001B88013B9BB219460020FFF73DFE03462A
:1011A0003B823B8A554AD35CFB735A4B1B78FA7BD4
:1011B0009A42ECD0574AFB7B13704D4BB3F9103079
:1011C0009BB24B4AB2F9122092B211461846FFF771
:1011D00023FE0346BB73BB7B032B06D13C211420AB
:1011E000FFF71AFE0346BB7505E064211420FFF7E4
:1011F00013FE0346BB75BA7DB97BFB7B1846FFF730
:10120000E5FDFFF725FE02F06BFAB860BB7B424AB2
:1012100032F81330002B40D000237B753AE07A7D02
:101220003E4913465B0013449B000B4408331B7874
:1012300083F00103DBB2002B29D07A7DFB7B98B2CF
:10124000364913465B0013449B000B4402461A8048
:101250007A7D324913465B0013449B000B440233F2
:10126000BA7B1A707A7D2D4913465B0013449B00AC
:101270000B440433BA681A607A7D284913465B0030
:1012800013449B000B44083301221A7005E07B7D58
:1012900001337B757B7D3F2BC1D9154B5B88002BC0
:1012A00000F0DA80164B1B889A1E3B8A9A4278DD42
:1012B0003B8A0233114AD35CBA7DB97B1846FFF7EB
:1012C00085FDFFF7C5FDBB7B134A32F81330002BB9
:1012D00067D000233B7561E05C8FC2F5285C054058
:1012E00068020020B0020020F8020020547A0008B2
:1012F000D0000020387D0008287D0008DC03002095
:101300005C040020687A0008807A0008887A000867
:10131000D403002088070020087D000888040020EE
:101320003A7D7A4913465B0013449B000B44083313
:101330001B7883F00103DBB2002B2CD03B8A0233F5
:10134000734AD35C3A7D1846704913465B001344D8
:101350009B000B4402461A803A7D6C4913465B00A1
:1013600013449B000B440233BA7B1A703A7D6749E1
:1013700013465B0013449B000B440433BA681A60A5
:101380003A7D624913465B0013449B000B440833CB
:1013900001221A7005E03B7D01333B753B7D3F2BFD
:1013A000BED95C4B1B881A1F3B8A9A4254DD3B8A8C
:1013B0000433574AD35CBA7DB97B1846FFF706FD64
:1013C000FFF746FDBB7B544A32F81330002B43D065
:1013D0000023FB743DE0FA7C4C4913465B00134448
:1013E0009B000B4408331B7883F00103DBB2002B16
:1013F0002CD03B8A0433464AD35CFA7C18464349D6
:1014000013465B0013449B000B4402461A80FA7C8F
:101410003E4913465B0013449B000B440233BA7BE6
:101420001A70FA7C394913465B0013449B000B4445
:101430000433BA681A60FA7C344913465B001344DB
:101440009B000B44083301221A7005E0FB7C01333A
:10145000FB74FB7C3F2BBED9304B00221A8002F07C
:101460003FF978600023BB7449E0BA7C27491346F2
:101470005B0013449B000B4408331B78002B3BD0CC
:10148000BA7C224913465B0013449B000B4404338F
:101490001B687A68D11ABA7C1C4813465B00134457
:1014A0009B00034402331B781A461B4B33F812305F
:1014B000994221D9BA7C154913465B0013449B001D
:1014C0000B441B88D8B2BA7C104913465B00134406
:1014D0009B000B4402331B7800221946FFF789FC5E
:1014E000BA7C0A4913465B0013449B000B44083343
:1014F00000221A70FFF7ACFCBB7C0133BB74BB7CD1
:101500003F2BB2D9FFF7E8FCF5E500BF88040020C7
:10151000DC0300205C040020087D0008D4030020C8
:1015200080B590B000AF07F11803282200211846BB
:1015300005F064FA3B1D00221A605A609A60DA6076
:101540001A610123BB614FF48033FB6100233B62CE
:101550000123BB6202237B634FF48033BB634FF4F0
:10156000E013FB6307F11803184603F03DF9034647
:10157000002B01D000F032FA0F237B600223BB6006
:101580000023FB604FF480633B6100237B613B1DC4
:101590000221184603F0AAFB0346002B01D000F0FD
:1015A0001DFA00BF4037BD4680BD000080B500AFCA
:1015B000124B134A1A60114B124A5A600F4B002209
:1015C0009A600E4B0022DA600C4B4FF480421A6195
:1015D0000A4B00225A61094B00229A61074B0022F4
:1015E000DA61064B00221A62044802F051FC0346FD
:1015F000002B01D000F0F2F900BF80BD14020020E2
:1016000000540040A086010080B58CB000AF07F107
:101610000C0324220021184605F0F0F93B1D00229E
:101620001A605A60214B4FF080421A601F4B002213
:101630005A601E4B00229A601C4B4FF6FF72DA6014
:101640001A4B00221A61194B00229A610323FB6096
:1016500002233B6101237B610023BB610423FB6107
:1016600002233B6201237B620023BB620423FB62F3
:1016700007F10C0319460D4803F096FD0346002BB5
:1016800001D000F0ABF900237B600023BB603B1D61
:101690001946064804F05EF80346002B01D000F01E
:1016A0009DF900BF3037BD4680BD00BF68020020F5
:1016B00080B58CB000AF07F10C032422002118463E
:1016C00005F09CF93B1D00221A605A60204B214A0C
:1016D0001A601F4B00225A601D4B00229A601C4B5F
:1016E0004FF6FF72DA601A4B00221A61184B002283
:1016F0009A610323FB6002233B6101237B6100238A
:10170000BB610423FB6102233B6201237B62002354
:10171000BB620423FB6207F10C0319460C4803F07B
:1017200043FD0346002B01D000F058F900237B60F5
:101730000023BB603B1D1946054804F00BF8034627
:10174000002B01D000F04AF900BF3037BD4680BD04
:10175000B00200200004004080B582B000AF3B46DC
:1017600000221A605A60174B174A1A60154B48F648
:101770009F425A60134B00229A60124B40F2E732AC
:10178000DA60104B00221A610E4B00229A61082188
:101790000C4803F0B9FC0346002B01D000F01EF901
:1017A00000233B6000237B603B461946054803F05D
:1017B000D1FF0346002B01D000F010F900BF08371D
:1017C000BD4680BDF80200200008004080B500AF93
:1017D000114B124A1A60104B47F612225A600E4BF8
:1017E00000229A600C4B0022DA600B4B00221A6137
:1017F000094B0C225A61084B00229A61064B0022C9
:10180000DA61054804F016F80346002B01D000F019
:10181000E5F800BF80BD00BF400300200038014054
:1018200080B500AF114B124A1A60104B4FF4E132F1
:101830005A600E4B00229A600C4B0022DA600B4B70
:1018400000221A61094B0C225A61084B00229A614E
:10185000064B0022DA61054803F0ECFF0346002B3B
:1018600001D000F0BBF800BF80BD00BF880300209E
:101870000044004080B588B000AF07F1100300229B
:101880001A605A609A60DA60324B9B69314A43F0C1
:10189000100393612F4B9B6903F01003FB60FB68FF
:1018A0002C4B9B692B4A43F020039361294B9B6986
:1018B00003F02003BB60BB68264B9B69254A43F0BD
:1018C00004039361234B9B6903F004037B607B68F3
:1018D000204B9B691F4A43F0080393611D4B9B6992
:1018E00003F008033B603B6801224FF400511A48A3
:1018F00002F085FA4FF400533B6101237B61002322
:10190000BB610223FB6107F110031946124802F084
:10191000DBF830233B61114B7B610123BB6107F195
:10192000100319460E4802F0CFF8002200210A20C9
:1019300001F0DBFF0A2001F0F4FF00220021172054
:1019400001F0D3FF172001F0ECFF00BF2037BD46A8
:1019500080BD00BF001002400010014000003110A7
:101960000008014080B500AF044B1B680133034AF7
:10197000136000F0D7F900BF80BD00BFD003002086
:1019800080B582B000AF7860391D4FF0FF3301227F
:10199000034803F09FFF7B6818460837BD4680BDAB
:1019A0008803002080B582B000AF78607B681B6838
:1019B000084A934209D1084B1B889BB201339AB263
:1019C000054B1A80786803F071FB00BF0837BD46ED
:1019D00080BD00BF00080040D403002080B400AFE9
:1019E00072B600BF00BFFDE780B586B002AF034608
:1019F000FB710B46BB7113467B71FB7903F00F0340
:101A0000DBB20133FB73FB7923F00F03BB733A4A5C
:101A1000FB791370384ABB795370374A7B799370DE
:101A200007F10802BB791146184600F075F807F176
:101A300008031846FEF78CFB0346032B0ED107F173
:101A400008031846FEF784FB03461A4607F108030D
:101A500013442A491A460B461B881380BB7BB02BC4
:101A60002DD0B02B37DC802B1CD0902B33D17B7941
:101A7000002B0CD0FA7B7B79019307F108030093CC
:101A800013461F4A16211F4804F088FE2FE0FA7BF8
:101A900007F10803009313461B4A1621194804F066
:101AA0007DFE24E0FA7B7B79019307F10803009324
:101AB0001346164A1621134804F070FE17E0F97B0E
:101AC000BB797A79019200930B46114A16210D4891
:101AD00004F064FE0BE0F979BB797A790192009306
:101AE0000B460C4A1621074804F058FE00BF054B70
:101AF00018461037BD4680BD8C070020BC7A000810
:101B0000C07A000890070020D47A0008E47A000820
:101B1000F87A0008087B000880B584B000AF03465F
:101B20003960FB71FB790F4AA2FB0323DB08DBB2B0
:101B3000013BFB73FA790B4BA3FB0213D9080B464D
:101B40005B000B449B00D31ABB73BB7B064A52F865
:101B50002320FB7B0549386804F056FE00BF103790
:101B6000BD4680BDABAAAAAA14000020187B0008BD
:101B700090B587B002AF396011461A460346FB7133
:101B80000B46BB7113467B717B790133DBB21A467E
:101B9000520013449B00DAB2FB791344FB72FB7AC8
:101BA000FB730023BB812A4B9B881A46294B53F8B1
:101BB0002210FB79284A52F823007C7997F82020DC
:101BC0007B79D31A009323460246244804F076FD1D
:101BD00020E0FB7B1946224804F070FDB7F90C2089
:101BE00093B201339BB2BB817B6A1344FA7B1A70B8
:101BF000B7F90C30013BBA7993FBF2F101FB02F229
:101C00009B1A1A463B6813441B78BB72FA7BBB7A5B
:101C10001344FB73F97B97F820305A1C13465B0082
:101C200013449B001A46FB791344994204DCB7F92C
:101C30000C30BA6A9A42CCDCB7F90C301946094824
:101C400004F03CFDB7F90C3018461437BD4690BD82
:101C5000D00000204400002078000020D47B000841
:101C6000F07B0008F87B000880B485B000AF034625
:101C7000FB71FA79094BA3FB0213D9080B465B00F1
:101C80000B449B00D31AFB73FB7B054A52F82330AD
:101C900018461437BD4680BC704700BFABAAAAAA3D
:101CA0007800002080B400AF034B00221A7000BF00
:101CB000BD4680BC704700BF0808002080B487B0D4
:101CC00000AF78603960154B1B78072B20D8134B79
:101CD0001B785A1CD1B2114A11701A46104913468A
:101CE0005B0013449B000B44796819600C49134650
:101CF0005B0013449B000B440433396819600849A6
:101D000013465B0013449B000B44083300221A6007
:101D100000BF1C37BD4680BC704700BF08080020CC
:101D2000A807002080B582B000AF0023FB712DE032
:101D30001B4B1968FA791B4813465B0013449B0040
:101D4000034408331B68C91AFA79164813465B0026
:101D500013449B00034404331B68994213D3FA795C
:101D60000F4B19680F4813465B0013449B00034454
:101D700008331960FA790B4913465B0013449B0042
:101D80000B441B689847FB790133FB71064B1B78AA
:101D9000FA799A42CCD300BF00BF0837BD4680BD58
:101DA000D0030020A80700200808002080B400AF5E
:101DB00000BFBD4680BC704780B586B004AF034607
:101DC000FB714FF0FF33029301230193FB1D00933E
:101DD000012300227821034802F09EF900BF083752
:101DE000BD4680BD1402002080B586B004AF786087
:101DF00039603B689BB24FF0FF32029201937B68DF
:101E00000093012340227821034802F085F900BFA6
:101E10000837BD4680BD00BF1402002080B500AF6A
:101E2000FFF7C4FF642001F065FC002000F090FA89
:101E30002020FFF7C1FF0020FFF7BEFFB020FFF713
:101E4000BBFFC820FFF7B8FF0020FFF7B5FF102049
:101E5000FFF7B2FF4020FFF7AFFFFF2000F064FA6A
:101E6000A120FFF7A9FFA620FFF7A6FFA820FFF7F4
:101E7000A3FF3F20FFF7A0FFA420FFF79DFFD32083
:101E8000FFF79AFF0020FFF797FFD520FFF794FF99
:101E9000F020FFF791FFD920FFF78EFF2220FFF7F8
:101EA0008BFFDA20FFF788FF1220FFF785FFDB208A
:101EB000FFF782FF2020FFF77FFF8D20FFF77CFFD9
:101EC0001420FFF779FF012000F042FA002000F013
:101ED0000FF800F025F8054B00221A80034B002272
:101EE0005A80024B01221A7100BF80BD0C0C0020E9
:101EF00080B582B000AF0346FB71FB79002B01D1A6
:101F0000002300E0FF234FF480621946034804F0E9
:101F100075FD00BF0837BD4680BD00BF0C0800201E
:101F200080B582B000AF0023FB7116E0FB79503B17
:101F3000DBB21846FFF740FF0020FFF73DFF1020FF
:101F4000FFF73AFFFB79DB01084A1344802118466A
:101F5000FFF74AFFFB790133FB71FB79072BE5D9CA
:101F600000BF00BF0837BD4680BD00BF0C08002081
:101F700080B483B000AF0346FB710B46BB711346C0
:101F80007B7197F90730002B3DDBBB793F2B3AD8AB
:101F90007B79012B1AD1FA79BB79DB08D8B20346D9
:101FA000DB0113441A4AD35C5AB2BB7903F007032E
:101FB000012101FA03F35BB2134359B2FA790346E4
:101FC000DB011344C9B2124AD1541DE0FA79BB793E
:101FD000DB08D8B20346DB0113440D4AD35C5AB286
:101FE000BB7903F00703012101FA03F35BB2DB4382
:101FF0005BB2134059B2FA790346DB011344C9B20C
:10200000034AD15400E000BF0C37BD4680BC704786
:102010000C08002090B589B000AF0446384680E82F
:102020000E002346FB73FB7B1F2B02D9FB7B7E2B11
:1020300001D9002379E0BB68002B05D0BA68FB7B8F
:10204000203B13441B7800E03B78FB75394B1B8821
:102050001A46FB7D1344802B06DC364B5B881A4600
:102060007B781344402B01DD00235EE00023FB61FD
:102070004DE07A68FB7B203B797801FB03F319463E
:10208000FB690B445B0013441B883B610023BB616D
:1020900036E03A69BB6902FA03F303F40043002B0C
:1020A00013D0244B1B88DAB2BB69DBB21344D8B21D
:1020B000204B5B88DAB2FB69DBB21344DBB297F8E2
:1020C00030201946FFF754FF17E01A4B1B88DAB28D
:1020D000BB69DBB21344D8B2164B5B88DAB2FB693A
:1020E000DBB21344D9B297F83030002B0CBF012378
:1020F0000023DBB21A46FFF73BFFBB690133BB612C
:10210000FB7DBA699A42C4D3FB690133FB617B78DA
:102110001A46FB699342ACD3064B1A88FB7D9BB2EF
:1021200013449AB2034B1A80FB7B18462437BD46F2
:1021300090BD00BF0C0C002080B586B002AFF860E7
:10214000384680E80E0013E0FB6818783B7E009369
:102150003B460ECBFFF75EFF03461A46FB681B7833
:102160009A4202D0FB681B7808E0FB680133FB60F1
:10217000FB681B78002BE7D1FB681B7818461037EB
:10218000BD4680BD80B483B000AF03460A46FB71F4
:102190001346BB71FB799AB2054B1A80BB799AB290
:1021A000034B5A8000BF0C37BD4680BC704700BF50
:1021B0000C0C002090B589B000AF044608461146CB
:1021C0001A462346FB710346BB710B467B711346CF
:1021D0003B717A79FB79D31A002BB8BF5B42BB61A4
:1021E0003A79BB79D31A002BB8BF5B427B61FA798D
:1021F0007B799A4201D2012301E04FF0FF333B612A
:10220000BA793B799A4201D2012301E04FF0FF33C2
:10221000FB60BA697B69D31AFB6197F83020397982
:102220007B791846FFF7A4FE24E097F83020B979AF
:10223000FB791846FFF79CFEFB695B00BB607B697E
:102240005B42BA689A4208DDFA697B69D31AFB617E
:102250003B69DAB2FB791344FB71BA68BB699A42F5
:1022600008DAFA69BB691344FB61FB68DAB2BB792F
:102270001344BB71FA797B799A42D6D1BA793B790A
:102280009A42D2D100BF2437BD4690BD90B585B0EB
:1022900000AF0446084611461A462346FB71034622
:1022A000BB710B467B7113463B71FA797B79934284
:1022B00028BF13467B737A79FB79934238BF134664
:1022C0003B73BA793B79934228BF1346FB723A7944
:1022D000BB79934238BF1346BB72FB7AFB7317E09E
:1022E0007B7BBB7309E097F82020F97BBB7B18460A
:1022F000FFF73EFEBB7B0133BB73BA7B3B7B9A424D
:1023000003D897F90E30002BEDDAFB7B0133FB731A
:10231000FA7BBB7A9A4203D8FB7B3F2BE0D900BF04
:1023200000BF1437BD4690BD80B584B000AF0346F2
:10233000FB718123FB73FB7B1846FFF73DFDFB79A7
:102340001846FFF739FD00BF1037BD4680BD0000BD
:1023500080B584B000AF0346FB71FB79002B05D03C
:10236000AF23FB73084B01225A7104E0AE23FB73C9
:10237000054B00225A71FB7B1846FFF71DFD00BF7D
:102380001037BD4680BD00BF0C0C002080B485B066
:1023900000AF154B9B69144A43F001039361124B44
:1023A0009B6903F00103BB60BB680F4BDB690E4AFE
:1023B00043F08053D3610C4BDB6903F080537B60A7
:1023C0007B680A4B5B68FB60FB6823F0E063FB60A3
:1023D000FB6843F00073FB60044AFB68536000BF76
:1023E0001437BD4680BC7047001002400000014019
:1023F00080B588B000AF786007F1100300221A6042
:102400005A609A60DA607B681B68154A934223D150
:10241000144B9B69134A43F008039361114B9B696A
:1024200003F00803FB60FB68C0233B6112237B6160
:102430000323FB6107F1100319460B4801F044FB2D
:10244000084BDB69074A43F40013D361054BDB6992
:1024500003F40013BB60BB6800BF2037BD4680BDDE
:102460000054004000100240000C014080B58AB0CA
:1024700000AF786007F1180300221A605A609A6072
:10248000DA607B681B68B3F1804F24D1284BDB698D
:10249000274A43F00103D361254BDB6903F00103B5
:1024A0007B617B69224B9B69214A43F00403936162
:1024B0001F4B9B6903F004033B613B690323BB6132
:1024C0000023FB6101233B6207F1180319461948F9
:1024D00001F0FAFA28E07B681B68174A934223D17F
:1024E000134BDB69124A43F00203D361104BDB69E3
:1024F00003F00203FB60FB680D4B9B690C4A43F041
:10250000040393610A4B9B6903F00403BB60BB683F
:10251000C023BB610023FB6101233B6207F1180369
:102520001946044801F0D0FA00BF2837BD4680BDE7
:1025300000100240000801400004004080B584B053
:1025400000AF78607B681B680D4A934213D10D4B36
:10255000DB690C4A43F00403D3610A4BDB6903F0E7
:102560000403FB60FB68002200211E2001F0BDF97E
:102570001E2001F0D6F900BF1037BD4680BD00BF58
:10258000000800400010024080B58AB000AF7860BB
:1025900007F1180300221A605A609A60DA607B68BB
:1025A0001B683B4A934232D13A4B9B69394A43F408
:1025B00080439361374B9B6903F480437B617B6964
:1025C000344B9B69334A43F004039361314B9B695D
:1025D00003F004033B613B694FF40073BB610223CA
:1025E000FB6103237B6207F1180319462A4801F0B7
:1025F0006BFA4FF48063BB610023FB6100233B62F5
:1026000007F118031946244801F05EFA3CE07B68A4
:102610001B68224A934237D11E4BDB691D4A43F4A3
:102620000033D3611B4BDB6903F40033FB60FB68B1
:10263000184B9B69174A43F004039361154B9B6940
:1026400003F00403BB60BB680423BB610223FB618E
:1026500003237B6207F1180319460F4801F034FA8F
:102660000823BB610023FB6100233B6207F11803D1
:102670001946094801F028FA00220021262001F01D
:1026800034F9262001F04DF900BF2837BD4680BD42
:1026900000380140001002400008014000440040A2
:1026A00080B584B000AF0346FB80FB88102B02D0BE
:1026B000202B12D023E0FB881946134801F088FB39
:1026C0000346FB73FB7B002B0CBF01230023DBB213
:1026D00019460020FEF74AF811E0FB8819460A481F
:1026E00001F076FB0346FB73FB7B002B0CBF012341
:1026F0000023DBB219460120FEF738F800BF00BF07
:102700001037BD4680BD00BF0008014080B400AF57
:1027100000BFFDE780B400AF00BFFDE780B400AFAD
:1027200000BFFDE780B400AF00BFFDE780B400AF9D
:1027300000BFFDE780B400AF00BFBD4680BC70475E
:1027400080B400AF00BFBD4680BC704780B400AF0E
:1027500000BFBD4680BC704780B500AF01F0FBF8FC
:1027600000F0ACFF00BF80BD80B500AF102001F0CD
:1027700077FB00BF80BD80B500AF202001F070FB6B
:1027800000BF80BD80B500AF024802F03DFE00BF33
:1027900080BD00BFF802002080B500AF024803F002
:1027A00025F900BF80BD00BF8803002080B400AFC2
:1027B00001231846BD4680BC704780B582B000AF8B
:1027C0007860396004F068F9034616221A604FF009
:1027D000FF3318460837BD4680BD80B582B000AFD4
:1027E00078604FF0FF317868FFF7E7FF00BFFDE743
:1027F00080B586B000AFF860B9607A6000237B6175
:102800000AE0AFF300800146BB685A1CBA60CAB246
:102810001A707B6901337B617A697B689A42F0DBCD
:102820007B6818461837BD4680BD80B586B000AFBE
:10283000F860B9607A6000237B6109E0BB685A1CCC
:10284000BA601B781846FFF79BF87B6901337B6100
:102850007A697B689A42F1DB7B6818461837BD4677
:1028600080BD80B483B000AF78604FF0FF3318466E
:102870000C37BD4680BC704780B483B000AF786031
:1028800039603B684FF400525A60002318460C37F9
:10289000BD4680BC704780B483B000AF7860012330
:1028A00018460C37BD4680BC704780B485B000AF79
:1028B000F860B9607A60002318461437BD4680BCC2
:1028C0007047000080B586B000AF7860144A154BA1
:1028D000D31A7B617B693B61134B1B68002B02D1D0
:1028E000114B124A1A60104B1A687B6813443A69FC
:1028F0009A4207D204F0D0F803460C221A604FF037
:10290000FF3309E0084B1B68FB60074B1A687B68C4
:102910001344054A1360FB6818461837BD4680BD4E
:102920000050002000040000140C0020B00D002016
:1029300080B400AF00BFBD4680BC704780B500AF1B
:102940004FF40051114801F072FA114B1B78002B23
:1029500013D0104B1B8803F001039BB2002B06D051
:10296000012301220D210C48FEF7A8F905E00123FF
:1029700001220D210948FEF7A1F9064B1B880133FE
:102980009AB2044B1A8000BF80BD00BF0010014006
:10299000370C0020180C00203C0C00204C0C0020B0
:1029A00080B582B000AF284B1B685B6A1BB2DA0FA0
:1029B00013445B10FB80254B1B685B6A1BB2002B2A
:1029C00000DA03339B10BB80214B1B78002B06D011
:1029D000204AFB8853801E4B00221A7030E0FA8890
:1029E0001C4BB3F902309BB2D31A9BB27B80B7F970
:1029F0000230002B0AD0174AFB885380B7F9022017
:102A0000B7F906301146184600F06EFABA88114B35
:102A1000B3F900309BB2D31A9BB23B80B7F90030B8
:102A2000002B0DD00C4B00221A700A4ABB88138071
:102A3000B7F90020B7F904301146184600F0B8F88D
:102A40000837BD4680BD00BF68020020B0020020EC
:102A5000360C00201C0C0020370C002080B500AF85
:102A6000FDF70AFF0020FDF7A1FF0346012B02D06E
:102A7000022B34D034E0394B1B78002B14BF0123D8
:102A80000023DBB283F00103DBB203F00103DAB20F
:102A9000324B1A70324BB3F90030052B02D0082BA1
:102AA00005D01DE00021002000F01EFA16E02B4B9F
:102AB0001B7883F00103DBB2002B07D0294BB3F95D
:102AC00014300021184600F00FFA06E0254BB3F948
:102AD00016300021184600F007FA00BF00E000BFE2
:102AE0000120FDF763FF0346012B02D0022B32D0F9
:102AF00032E01D4B00221A701C4B1B88002B03D0A8
:102B00001A4B00221A8002E0184B01221A80144B43
:102B100000221A80154B1B885A00154B1B685A62FD
:102B2000124B1B885B009BB21AB20E4B5A80114BA2
:102B30001868002301220021FEF7C0F80B4B1B8808
:102B4000002B01D00C4800E00C48012301220D218C
:102B5000FEF7B4F800E000BF00BF80BD380C0020D5
:102B60005C0C00201C0C0020370C0020D000002042
:102B700068020020AC000020447C0008487C00086B
:102B800080B500AFC8210648FFF798F80B2105482B
:102B9000FFF794F80D210448FFF790F800BF80BDBF
:102BA0003D290008A12900085D2A00080000000056
:102BB00090B597B000AF03460A46FB801346BB8032
:102BC000A54BB3F900309AB2BB8813449BB21AB23A
:102BD000A14B1A80A04BB3F90030002B03DA9E4BB7
:102BE00000221A800DE09C4BB3F900301A460923ED
:102BF0009A4206D309239BB2013B9BB21AB2964B71
:102C00001A80954BB3F900301A46944B53F82200C2
:102C1000002301220021FEF751F8914B01221A7086
:102C20008D4BB3F90030082B00F2508101A252F80D
:102C300023F000BF592C0008892C00089D2E0008A5
:102C4000B92C0008E72C0008B12D0008152D00084C
:102C5000792D0008FB2D0008824BB3F90420824B2C
:102C60001B685A627F4BB3F904207E4B5A807F4B1E
:102C70001B88002B01D07E4800E07E480123012202
:102C80000D21FEF71BF822E1764BB3F90620764BB7
:102C90001B685A62734BB3F90620724B5A80734B10
:102CA0005B88002B01D0744800E0724801230122A8
:102CB0000D21FEF703F80AE16A4BB3F908206A4BCD
:102CC0001B685A62674BB3F90820664B5A80674B02
:102CD0009B881A46694B53F82200012301220D21DB
:102CE000FDF7ECFFF3E05F4BB3F90A205E4B1B6886
:102CF0005A625C4BB3F90A205A4B5A805B4BDB8813
:102D0000DBB21846FEF7B0FF012301220D21FDF7CB
:102D1000D5FFDCE0534BB3F90C20534B1B685A62D0
:102D2000504BB3F90C204F4B5A80504B1B895B081A
:102D30009BB21C464D4B1B895B089BB21846FDF7A6
:102D40008BFC43A3D3E90023FDF70AFA02460B46A6
:102D500010461946FDF7EAFC03469BB207F108004E
:102D60002246474903F050FD07F1080001230122E4
:102D70000D21FDF7A3FFAAE03A4BB3F90E203A4B21
:102D80001B685A62374BB3F90E20364B5A80374BCB
:102D90005B891A4607F108033A49184603F034FDE7
:102DA00007F10800012301220D21FDF787FF8EE0C6
:102DB000354B00221A702B4BB3F910202A4B1B689D
:102DC0005A62284BB3F91020264B5A80274B9B8917
:102DD0001A46264BDB892D492D4803F015FD234B60
:102DE000DB891A462B492C4803F00EFD01230122F2
:102DF0000D212748FDF762FF69E0234B00221A707E
:102E0000184BB3F91420184B1B685A62154BB3F9D1
:102E10001420144B5A80154BB3F910301A46134B3B
:102E2000B3F9123019491A4803F0EEFC0F4BB3F90D
:102E300012301A461749184803F0E6FC0123012214
:102E40000D211348FDF73AFF41E000BFAFF30080CA
:102E50005C8FC2F5285C05405C0C0020AC000020B3
:102E6000360C00201C0C002068020020D00000203E
:102E7000B87C0008BC7C0008C07C0008440000202E
:102E8000C87C0008D07C0008380C0020D47C0008E6
:102E90003C0C0020DC7C00084C0C00200E4BB3F9ED
:102EA00018200E4B1B685A620B4BB3F918200A4BC3
:102EB0005A800B4BB3F914301A460A4B53F83200C0
:102EC000012301220D21FDF7F9FE00E000BF00BF44
:102ED0005C37BD4690BD00BF1C0C0020680200207E
:102EE000D0000020A07D0008B0B59CB004AF034620
:102EF0000A46FB801346BB80814BB3F90030082B98
:102F000000F24A8301A252F823F000BF312F0008DB
:102F10007D2F000899340008C92F00085F30000891
:102F2000153200083D310008E13100088133000806
:102F3000B7F90630002B03F00103B8BF5B421BB2A8
:102F40009AB2704B1A80704B1B685B6A1AB26F4B57
:102F50009A806C4B1B88002B01D06D4A00E06D4AB3
:102F600007F10C036C49184603F04EFC07F10C0006
:102F7000012301220D21FDF7A1FE0EE3B7F9063072
:102F8000002B03F00103B8BF5B421BB29AB25D4B4A
:102F90005A805D4B1B685B6A1AB25C4BDA80594BF6
:102FA0005B88002B01D05D4A00E05A4A07F10C0310
:102FB0005949184603F028FC07F10C0001230122AF
:102FC0000D21FDF77BFEE8E24E4B9A88BB88134447
:102FD0009BB2A7F85E30B7F95E30002B03DA00230E
:102FE000A7F85E3006E0B7F95E300C2B02DD0C234B
:102FF000A7F85E30B7F85E20424B9A80424B1B68C0
:103000005B6A1AB2414B1A813E4B9B881A46444B6D
:1030100053F82200012301220D21FDF74FFE394B09
:10302000DB88D8B2374B9B88DB003E4A9918354B7A
:103030009B881A463C4B9A5C324B9B89DCB2314BE5
:10304000DB89DBB280250295384D0195009323463C
:10305000FEF78EFD03469AB2354B1A809DE2294B4E
:10306000DA88BB8813449AB2264BDA80254BDA887B
:10307000304BA3FB0213D9080B465B000B449B00AB
:10308000D31A9AB21F4BDA801F4B1B685B6A1AB2C5
:103090001E4B5A811B4BDB88DBB21846FEF7E4FD62
:1030A0000246184BDB8807F10C00234903F0ACFB08
:1030B00007F10C00012301220D21FDF7FFFD114B4B
:1030C000DB88D8B20F4B9B88DB00164A99180D4B52
:1030D0009B881A46144B9A5C0A4B9B89DCB2094BBD
:1030E000DB89DBB280250295104D019500932346C4
:1030F000FEF73EFD03469AB20D4B1A804DE200BF2B
:103100005C0C0020D0000020680200201C0C002075
:10311000B87C0008BC7C0008E47C0008C07C000887
:1031200044000020387D0008287D0008DC030020D2
:103130005C040020ABAAAAAAE87C0008804B1A898C
:10314000BB8819460902C91A89001944C900CB1A5B
:10315000DB009BB213449AB2794B1A81784B1B89DE
:10316000C72B02D8764BC8221A81754B1B8940F6B3
:10317000B832934203D9724B40F6B8321A81704B81
:103180001A896F4B1A816F4B1B685B6A1AB26E4BC0
:103190009A816B4B1B895B089BB21C46684B1B8951
:1031A0005B089BB21846FDF757FA63A3D3E90023E7
:1031B000FCF7D6FF02460B4610461946FDF7B6FA55
:1031C00003469BB207F10C002246604903F01CFB4A
:1031D00007F10C00012301220D21FDF76FFDDCE159
:1031E000FA88574B5A81574B1B685B6A1AB2564B89
:1031F000DA81534B5B891A4607F10C035449184690
:1032000003F002FB07F10C00012301220D21FDF761
:1032100055FDC2E14F4B01221A704F4B1B7883F0D2
:103220000103DBB2002B32D0454B9A89BB88134493
:103230009AB2434B9A81424B9B89002B02D1404B5F
:1032400000229A813E4B9B891A463D4BDB89013B0C
:103250009A4205DB3A4BDB89013B9AB2384B9A81A3
:10326000384B1B685B6A1AB2374B1A82344B9B8906
:103270001A46334BDB893949394803F0C5FA304BDC
:10328000DB891A463749384803F0BEFA31E02C4B47
:10329000DA89BB8813449AB2294BDA81284BDB893F
:1032A000072B02D9264B0822DA81254BDB891A46E7
:1032B000234B9B8901339A4205DC214B9B890133C7
:1032C0009AB21F4BDA811F4B1B685B6A1AB21E4B06
:1032D0005A821B4B9B891A46194BDB891F49204890
:1032E00003F092FA164B9B891A4620491E4803F0B8
:1032F0008BFA134BDB88D8B2114B9B88DB001C4A3E
:1033000099180F4B9B881A461A4B9A5C0C4B9B8959
:10331000DCB20B4BDB89DBB280250295164D0195A3
:1033200000932346FEF724FC03469AB2134B1A80FF
:1033300033E100BFAFF300805C8FC2F5285C05402D
:10334000D0000020680200201C0C0020C87C00086F
:10335000D07C0008370C0020380C0020D47C0008FA
:103360003C0C0020DC7C00084C0C0020F07C0008A9
:10337000387D0008287D0008DC0300205C04002064
:10338000884B01221A70884B1B7883F00103DBB253
:10339000002B40D0854BB3F910309AB2BB88134450
:1033A0009BB21AB2814B1A82804BB3F91030002BBA
:1033B00002DC7E4B01221A827C4BB3F910300F2BBA
:1033C00002DD7A4B10221A82784BB3F91020774B2A
:1033D000B3F912309A4204DB744BB3F91020734BEB
:1033E0005A82734B1B685B6A1AB2724B9A826F4B9C
:1033F000B3F910301A466D4BB3F912306E496F486D
:1034000003F002FA694BB3F912301A466C496D4861
:1034100003F0FAF9C1E0654BB3F912309AB2BB88F8
:1034200013449BB21AB2614B5A82604BB3F912300B
:10343000002B02DC5D4B01225A825C4BB3F9122057
:103440005A4BB3F910309A4204DC584BB3F91220AE
:10345000564B1A82554BB3F912300F2B02DD534BEA
:1034600010225A82524B1B685B6A1AB2514BDA82A5
:103470004E4BB3F910301A464C4BB3F912304E494B
:103480004E4803F0C1F9494BB3F910301A464E4982
:103490004C4803F0B9F980E0444BB3F914309AB2C8
:1034A000BB8813449BB21AB2404B9A823F4BB3F98C
:1034B0001430052B03DD3D4B05229A8207E03B4B80
:1034C000B3F91430002B02DC384B00229A82384BBF
:1034D0001B685B6A1AB2374B1A83344BB3F914304A
:1034E0001A463A4B53F83200012301220D21FDF711
:1034F000E5FB2E4BB3F91430344ADB0013441B793F
:103500001A462A4BDA80294BB3F914302F4ADB00D4
:1035100013445B791A46254B9A80244BB3F9143037
:103520002A4ADB0013449B791A46204B9A811F4B91
:10353000B3F91430254ADB001344DB791A461B4BE0
:10354000DA811A4BB3F914301A46204B53F8323053
:1035500019461F4803F0B2F8144BDB88D8B2134B5E
:103560009B88DB001B4A9918104B9B881A461A4B04
:103570009A5C0E4B9B89DCB20C4BDB89DBB280255D
:103580000295164D019500932346FEF7F1FA034686
:103590009AB2134B1A8000E000BF00BF6037BD46EF
:1035A000B0BD00BF370C0020380C0020D000002038
:1035B000680200201C0C0020D47C00083C0C002079
:1035C000DC7C00084C0C0020F07C0008A07D00088A
:1035D000F87C0008387D0008287D0008DC03002006
:1035E0005C040020FFF7A4F90B480C490C4A0023A7
:1035F00002E0D458C4500433C4188C42F9D3094AA9
:10360000094C002301E013600432A242FBD303F013
:1036100049FAFDF7F9FC7047000000204C0100203A
:10362000E48400084C010020B00D0020FEE70000FB
:1036300080B500AF084B1B68074A43F010031360C6
:10364000032000F047F90F2000F008F8FEF79EFE77
:103650000023184680BD00BF0020024080B582B024
:1036600000AF7860124B1A68124B1B7819464FF462
:103670007A73B3FBF1F3B2FBF3F3184600F05FF992
:103680000346002B01D001230EE07B680F2B0AD8E4
:10369000002279684FF0FF3000F027F9064A7B6876
:1036A0001360002300E0012318460837BD4680BDA3
:1036B000A8000020EC000020E800002080B400AF4B
:1036C000054B1B781A46054B1B681344034A1360CD
:1036D00000BFBD4680BC7047EC000020600C00209D
:1036E00080B400AF024B1B681846BD4680BC7047D3
:1036F000600C002080B584B000AF7860FFF7F0FF69
:10370000B8607B68FB60FB68B3F1FF3F05D00A4BF4
:103710001B781A46FB681344FB6000BFFFF7E0FF0D
:103720000246BB68D31AFA689A42F7D800BF00BFB6
:103730001037BD4680BD00BFEC00002080B485B0CE
:1037400000AF78607B6803F00703FB600C4BDB681D
:10375000BB60BA684FF6FF031340BB60FB681A02F8
:10376000BB68134343F0BF6343F40033BB60044AB8
:10377000BB68D36000BF1437BD4680BC704700BF34
:1037800000ED00E080B400AF044BDB681B0A03F0DF
:1037900007031846BD4680BC704700BF00ED00E03F
:1037A00080B483B000AF0346FB7197F90730002B5C
:1037B0000BDBFB7903F01F02064997F907305B0921
:1037C000012000FA02F241F8232000BF0C37BD4669
:1037D00080BC704700E100E080B483B000AF0346D6
:1037E0003960FB7197F90730002B0ADB3B68DAB2CE
:1037F0000C4997F907301201D2B20B4483F8002329
:103800000AE03B68DAB20849FB7903F00F03043B96
:103810001201D2B20B441A7600BF0C37BD4680BCF1
:10382000704700BF00E100E000ED00E080B489B027
:1038300000AFF860B9607A60FB6803F00703FB61D2
:10384000FB69C3F10703042B28BF0423BB61FB6999
:103850000433062B02D9FB69033B00E000237B61A4
:103860004FF0FF32BB6902FA03F3DA43BB681A4038
:103870007B699A404FF0FF317B6901FA03F3D9432A
:103880007B680B40134318462437BD4680BC704705
:1038900080B582B000AF78607B68013BB3F1807F78
:1038A00001D301230FE00A4A7B68013B53600F21DB
:1038B0004FF0FF30FFF790FF054B00229A60044B5A
:1038C00007221A60002318460837BD4680BD00BF96
:1038D00010E000E080B582B000AF78607868FFF754
:1038E0002DFF00BF0837BD4680BD80B586B000AF54
:1038F0000346B9607A60FB7300237B61FFF742FFE8
:1039000078617A68B9687869FFF790FF024697F99D
:103910000F3011461846FFF75FFF00BF1837BD464E
:1039200080BD80B582B000AF0346FB7197F90730C8
:103930001846FFF735FF00BF0837BD4680BD80B58C
:1039400082B000AF78607868FFF7A2FF03461846A0
:103950000837BD4680BD80B500AFFEF703F800BF55
:1039600080BD80B485B000AF78600023FB737B68B6
:1039700093F82130DBB2022B08D07B6804229A63D3
:103980007B68002283F82020012320E07B681B68ED
:103990001A687B681B6822F00E021A607B681B683D
:1039A0001A687B681B6822F001021A607B681A6C37
:1039B0007B68DB6B012101FA02F25A607B6801220D
:1039C00083F821207B68002283F82020FB7B1846A7
:1039D0001437BD4680BC704780B584B000AF7860B6
:1039E0000023FB737B6893F82130DBB2022B05D0F8
:1039F0007B6804229A630123FB7351E07B681B6898
:103A00001A687B681B6822F00E021A607B681B68CC
:103A10001A687B681B6822F001021A607B681B68C9
:103A2000224A934229D07B681B68214A934222D0C4
:103A30007B681B681F4A93421AD07B681B681E4A2A
:103A4000934212D07B681B681C4A93420AD07B6861
:103A50001B681B4A934202D14FF480130EE04FF0D3
:103A600080730BE04FF4803308E04FF4805305E09F
:103A70004FF4807302E0102300E00123114A5360E9
:103A80007B68012283F821207B68002283F82020B4
:103A90007B685B6B002B03D07B685B6B7868984717
:103AA000FB7B18461037BD4680BD00BF08000240B2
:103AB0001C00024030000240440002405800024016
:103AC0006C0002400000024080B48BB000AF786010
:103AD000396000237B6200233B6269E101227B6A3B
:103AE00002FA03F3FB613B681B68FA691340BB6190
:103AF000BA69FB699A4240F058813B685B689A4A10
:103B000093425ED0984A934275D8984A934258D0CF
:103B1000964A93426FD8964A934252D0944A93421F
:103B200069D8944A93424CD0924A934263D8924ABD
:103B3000934246D0904A93425DD8122B2AD8122B3A
:103B400059D801A252F823F0C33B00089D3B00085E
:103B5000AF3B0008F13B0008F73B0008F73B0008CB
:103B6000F73B0008F73B0008F73B0008F73B00086D
:103B7000F73B0008F73B0008F73B0008F73B00085D
:103B8000F73B0008F73B0008F73B0008A53B00089F
:103B9000B93B0008794A934213D02CE03B68DB68BC
:103BA0003B6229E03B68DB6804333B6224E03B680E
:103BB000DB6808333B621FE03B68DB680C333B6229
:103BC0001AE03B689B68002B02D104233B6213E0A0
:103BD0003B689B68012B05D108233B627B68FA692F
:103BE0001A6109E008233B627B68FA695A6103E0C5
:103BF00000233B6200E000BFBB69FF2B01D87B685C
:103C000001E07B6804337B61BB69FF2B02D87B6AD0
:103C10009B0002E07B6A083B9B003B617B691A6862
:103C20000F213B6901FA03F3DB431A40396A3B6910
:103C300001FA03F31A437B691A603B685B6803F07F
:103C40008053002B00F0B1804D4B9B694C4A43F0F0
:103C5000010393614A4B9B6903F00103BB60BB689E
:103C6000484A7B6A9B08023352F82330FB607B6A28
:103C700003F003039B000F2202FA03F3DB43FA680D
:103C80001340FB607B68404A934213D07B683F4AF5
:103C900093420DD07B683E4A934207D07B683D4AF1
:103CA000934201D1032306E0042304E0022302E04F
:103CB000012300E000237A6A02F00302920093409D
:103CC000FA681343FB602F497B6A9B080233FA684A
:103CD00041F823203B685B6803F48013002B06D077
:103CE0002D4B9A682C49BB6913438B6006E02A4B25
:103CF0009A68BB69DB43284913408B603B685B686B
:103D000003F40013002B06D0234BDA682249BB6969
:103D10001343CB6006E0204BDA68BB69DB431E49E6
:103D20001340CB603B685B6803F40033002B06D084
:103D3000194B5A681849BB6913434B6006E0164B90
:103D40005A68BB69DB43144913404B603B685B68AE
:103D500003F48033002B21D00F4B1A680E49BB6946
:103D600013430B6021E000BF00003210000031104F
:103D7000000022100000211000001210000011109D
:103D8000001002400000014000080140000C01400A
:103D90000010014000140140000401400B4B1A6860
:103DA000BB69DB43094913400B607B6A01337B62CB
:103DB0003B681A687B6A22FA03F3002B7FF48EAE0D
:103DC00000BF00BF2C37BD4680BC704700040140D7
:103DD00080B485B000AF78600B467B807B689A68C2
:103DE0007B881340002B02D00123FB7301E00023EA
:103DF000FB73FB7B18461437BD4680BC704780B40C
:103E000083B000AF78600B467B8013467B707B7875
:103E1000002B03D07A887B681A6103E07B881A0440
:103E20007B681A6100BF0C37BD4680BC704780B408
:103E300085B000AF78600B467B807B68DB68FB60F9
:103E40007A88FB6813401A04FB68D9437B880B40CF
:103E50001A437B681A6100BF1437BD4680BC7047A7
:103E600080B582B000AF0346FB80084B5A69FB88DF
:103E70001340002B06D0054AFB885361FB88184687
:103E8000FEF70EFC00BF0837BD4680BD00040140B0
:103E900080B584B000AF78607B68002B01D101232E
:103EA0002BE17B6893F83D30DBB2002B06D17B68B9
:103EB000002283F83C207868FEF79AFA7B68242277
:103EC00083F83D207B681B681A687B681B6822F0BA
:103ED00001021A607B681B681A687B681B6842F4E1
:103EE00000421A607B681B681A687B681B6822F4B2
:103EF00000421A6001F042F8F8607B685B68814A12
:103F0000934207D8FB68804A934294BF0123002361
:103F1000DBB206E0FB687D4A934294BF0123002395
:103F2000DBB2002B01D00123E7E0FB68784AA2FB5B
:103F300003239B0CBB607B681B685B6823F03F011D
:103F40007B681B68BA680A435A607B681B681B6AF7
:103F500023F03F017B685B686A4A934202D8BB68E2
:103F6000013309E0BB684FF4967202FB03F3694A20
:103F7000A2FB03239B0901337A6812680B43136287
:103F80007B681B68DB6923F44F4222F0FF027B68E9
:103F90005B685C498B4219D8FB68591E7B685B687B
:103FA0005B00B1FBF3F3591C40F6FC730B40002B94
:103FB0000AD0FB68591E7B685B685B00B1FBF3F3BA
:103FC0000133C3F30B0351E004234FE07B689B688C
:103FD000002B11D1FB68581E7B6859680B465B00AB
:103FE0000B44B0FBF3F30133C3F30B03002B0CBF03
:103FF00001230023DBB212E0FB68581E7B6859687E
:104000000B469B000B4499000B44B0FBF3F30133C8
:10401000C3F30B03002B0CBF01230023DBB2002BE7
:1040200001D0012322E07B689B68002B0ED1FB6846
:10403000581E7B6859680B465B000B44B0FBF3F3DA
:104040000133C3F30B0343F400430FE0FB68581E36
:104050007B6859680B469B000B4499000B44B0FBEE
:10406000F3F30133C3F30B0343F440437968096866
:104070001343CB617B681B681B6823F0C0017B681E
:10408000DA697B681B6A1A437B681B680A431A60FB
:104090007B681B689B6823F4034323F0FF037A6863
:1040A00011697A68D26811437A6812680B43936089
:1040B0007B681B68DB6823F0FF017B685A697B68BB
:1040C0009B691A437B681B680A43DA607B681B683C
:1040D0001A687B681B6842F001021A607B68002244
:1040E0001A647B68202283F83D207B6800221A63D3
:1040F0007B68002283F83E20002318461037BD4617
:1041000080BD00BFA08601007F841E00FF083D0027
:1041100083DE1B43D34D621080B588B002AFF860D8
:10412000084611461A4603467B810B463B811346DF
:10413000FB80FFF7D5FA7861FB6893F83D30DBB27E
:10414000202B40F0D9807B690093192301226D490F
:10415000F86800F071F90346002B01D00223CCE08F
:10416000FB6893F83C30012B01D10223C5E0FB68CA
:10417000012283F83C20FB681B681B6803F00103E5
:10418000012B07D0FB681B681A68FB681B6842F0AC
:1041900001021A60FB681B681A68FB681B6822F43E
:1041A00000621A60FB68212283F83D20FB684022F0
:1041B00083F83E20FB6800221A64FB683A6A5A6260
:1041C000FB68BA8C5A85FB685B8D9AB2FB681A85CE
:1041D000FB684D4ADA62F8883A8979897B690193EC
:1041E000BB6A00930346F86800F090F80346002B82
:1041F00052D0012381E07A69B96AF86800F036FA92
:104200000346002B0DD0FB681B6C042B07D1FB6809
:104210001B681A68FB681B6842F400721A6001236D
:104220006BE0FB685B6A1A78FB681B681A61FB68C5
:104230005B6A5A1CFB685A62FB681B8D013B9AB291
:10424000FB681A85FB685B8D9BB2013B9AB2FB68E9
:104250005A85FB681B685B6903F00403042B1BD1C0
:10426000FB681B8D002B17D0FB685B6A1A78FB6814
:104270001B681A61FB685B6A5A1CFB685A62FB6820
:104280001B8D013B9AB2FB681A85FB685B8D9BB264
:10429000013B9AB2FB685A85FB681B8D002BAAD1A3
:1042A0007A69B96AF86800F029FA0346002B0DD044
:1042B000FB681B6C042B07D1FB681B681A68FB6842
:1042C0001B6842F400721A60012316E0FB681B6849
:1042D0001A68FB681B6842F400721A60FB682022AF
:1042E00083F83D20FB68002283F83E20FB68002213
:1042F00083F83C20002300E0022318461837BD460F
:1043000080BD00BF020010000000FFFF80B588B034
:1043100002AFF860084611461A4603467B810B46F9
:104320003B811346FB80FB681B681A68FB681B68AF
:1043300042F480721A607B6A00933B6A00224FF05D
:104340000111F86800F078F80346002B0DD0FB68E7
:104350001B681B6803F48073B3F5807F03D1FB688F
:104360004FF400721A6403235FE07B89DBB21A46C4
:10437000FB681B6802F0FE021A617B6A3A6A2D49EB
:10438000F86800F0D3F80346002B01D001234CE07D
:1043900000237B61FB681B685B697B61FB681B68B2
:1043A0009B697B617B697A6A396AF86800F05EF91B
:1043B0000346002B0DD0FB681B6C042B07D1FB6858
:1043C0001B681A68FB681B6842F400721A600123BC
:1043D0002BE0FB88012B05D13B89DAB2FB681B6817
:1043E0001A6121E03B891B0A9BB2DAB2FB681B68A9
:1043F0001A617A6A396AF86800F038F90346002BC6
:104400000DD0FB681B6C042B07D1FB681B681A6876
:10441000FB681B6842F400721A60012305E03B89C7
:10442000DAB2FB681B681A61002318461837BD46CC
:1044300080BD00BF0200010080B584B000AFF8600D
:10444000B9603B601346FB7148E03B68B3F1FF3F46
:1044500044D0FFF745F90246BB69D31A3A689A423D
:1044600002D33B68002B39D1BB681B0CDBB2012B9C
:104470000DD1FB681B685B69DA43BB6813409BB2D4
:10448000002B0CBF01230023DBB21A460CE0FB68B3
:104490001B689B69DA43BB6813409BB2002B0CBFBF
:1044A00001230023DBB21A46FB799A4216D1FB683E
:1044B00000221A63FB68202283F83D20FB6800225B
:1044C00083F83E20FB681B6C43F02002FB681A64F3
:1044D000FB68002283F83C20012323E0BB681B0C0F
:1044E000DBB2012B0DD1FB681B685B69DA43BB684B
:1044F00013409BB2002B0CBF01230023DBB21A46F2
:104500000CE0FB681B689B69DA43BB6813409BB2F5
:10451000002B0CBF01230023DBB21A46FB799A4221
:1045200093D0002318461037BD4680BD80B584B0B7
:1045300000AFF860B9607A603B6071E0FB681B68AF
:104540005B6903F48063B3F5806F23D1FB681B685C
:104550001A68FB681B6842F400721A60FB681B68EB
:104560006FF480625A61FB6800221A63FB682022A4
:1045700083F83D20FB68002283F83E20FB681B6C1B
:1045800043F00402FB681A64FB68002283F83C20B5
:10459000012367E07B68B3F1FF3F41D0FFF7A0F84C
:1045A00002463B68D31A7A689A4202D37B68002B92
:1045B00036D1BB681B0CDBB2012B0CD1FB681B682E
:1045C0005B69DA43BB6813409BB2002B14BF012325
:1045D0000023DBB20BE0FB681B689B69DA43BB6816
:1045E00013409BB2002B14BF01230023DBB2002B2E
:1045F00016D0FB6800221A63FB68202283F83D2056
:10460000FB68002283F83E20FB681B6C43F020020D
:10461000FB681A64FB68002283F83C20012321E038
:10462000BB681B0CDBB2012B0CD1FB681B685B6900
:10463000DA43BB6813409BB2002B14BF0123002355
:10464000DBB20BE0FB681B689B69DA43BB68134075
:104650009BB2002B14BF01230023DBB2002B7FF49D
:104660006DAF002318461037BD4680BD80B584B0BD
:1046700000AFF860B9607A6034E0F86800F086F85E
:104680000346002B01D0012334E0BB68B3F1FF3FA8
:1046900028D0FFF725F802467B68D31ABA689A42F9
:1046A00002D3BB68002B1DD1FB681B685B6903F05C
:1046B0008003802B16D0FB6800221A63FB6820223F
:1046C00083F83D20FB68002283F83E20FB681B6CCA
:1046D00043F02002FB681A64FB68002283F83C2048
:1046E000012307E0FB681B685B6903F08003802BF4
:1046F000C3D1002318461037BD4680BD80B584B0B5
:1047000000AFF860B9607A6034E0F86800F03EF815
:104710000346002B01D0012334E0BB68B3F1FF3F17
:1047200028D0FEF7DDFF02467B68D31ABA689A42AA
:1047300002D3BB68002B1DD1FB681B685B6903F0CB
:104740000403042B16D0FB6800221A63FB682022A6
:1047500083F83D20FB68002283F83E20FB681B6C39
:1047600043F02002FB681A64FB68002283F83C20B7
:10477000012307E0FB681B685B6903F00403042B5B
:10478000C3D1002318461037BD4680BD80B483B026
:1047900000AF78607B681B685B6903F48063B3F5E6
:1047A000806F1BD17B681B686FF480625A617B68E5
:1047B00000221A637B68202283F83D207B68002258
:1047C00083F83E207B681B6C43F004027B681A640C
:1047D0007B68002283F83C20012300E00023184678
:1047E0000C37BD4680BC704780B586B000AF78609E
:1047F0007B68002B01D1012372E27B681B6803F008
:104800000103002B00F08780924B5B6803F00C03E0
:10481000042B0CD08F4B5B6803F00C03082B12D1D8
:104820008C4B5B6803F48033B3F5803F0BD1894B2D
:104830001B6803F40033002B6CD07B685B68002B93
:1048400068D101234CE27B685B68B3F5803F06D1F9
:10485000804B1B687F4A43F4803313602EE07B68F3
:104860005B68002B0CD17B4B1B687A4A23F48033A6
:104870001360784B1B68774A23F4802313601DE094
:104880007B685B68B3F5A02F0CD1724B1B68714A33
:1048900043F4802313606F4B1B686E4A43F48033EC
:1048A00013600BE06B4B1B686A4A23F48033136080
:1048B000684B1B68674A23F4802313607B685B683E
:1048C000002B13D0FEF70CFF386108E0FEF708FF5D
:1048D00002463B69D31A642B01D9032300E25D4BE6
:1048E0001B6803F40033002BF0D014E0FEF7F8FE51
:1048F000386108E0FEF7F4FE02463B69D31A642BE8
:1049000001D90323ECE1534B1B6803F40033002B64
:10491000F0D100E000BF7B681B6803F00203002BAE
:1049200063D04C4B5B6803F00C03002B0BD0494B5E
:104930005B6803F00C03082B1CD1464B5B6803F447
:104940008033002B16D1434B1B6803F00203002B6E
:1049500005D07B681B69012B01D00123C0E13D4BD1
:104960001B6823F0F8027B685B69DB00394913435D
:104970000B603AE07B681B69002B20D0364B01228C
:104980001A60FEF7ADFE386108E0FEF7A9FE0246A8
:104990003B69D31A022B01D90323A1E12D4B1B68DC
:1049A00003F00203002BF0D02A4B1B6823F0F8021F
:1049B0007B685B69DB00274913430B6015E0264BDE
:1049C00000221A60FEF78CFE386108E0FEF788FED0
:1049D00002463B69D31A022B01D9032380E11D4B08
:1049E0001B6803F00203002BF0D17B681B6803F007
:1049F0000803002B3AD07B689B69002B19D0174B1A
:104A000001221A60FEF76CFE386108E0FEF768FECE
:104A100002463B69D31A022B01D9032360E10D4BF7
:104A20005B6A03F00203002BF0D0012000F0CEFA05
:104A30001CE00A4B00221A60FEF752FE38610FE0BC
:104A4000FEF74EFE02463B69D31A022B08D9032318
:104A500046E100BF00100240000042428004424292
:104A6000924B5B6A03F00203002BE9D17B681B6861
:104A700003F00403002B00F0A6800023FB758B4B92
:104A8000DB6903F08053002B0DD1884BDB69874A2B
:104A900043F08053D361854BDB6903F08053BB60E7
:104AA000BB680123FB75824B1B6803F48073002BEA
:104AB00018D17F4B1B687E4A43F480731360FEF766
:104AC0000FFE386108E0FEF70BFE02463B69D31A81
:104AD000642B01D9032303E1754B1B6803F4807336
:104AE000002BF0D07B68DB68012B06D16F4B1B6A73
:104AF0006E4A43F0010313622DE07B68DB68002BF4
:104B00000CD16A4B1B6A694A23F001031362674B9D
:104B10001B6A664A23F0040313621CE07B68DB68AF
:104B2000052B0CD1614B1B6A604A43F004031362EE
:104B30005E4B1B6A5D4A43F0010313620BE05B4B63
:104B40001B6A5A4A23F001031362584B1B6A574AE7
:104B500023F0040313627B68DB68002B15D0FEF79B
:104B6000BFFD38610AE0FEF7BBFD02463B69D31A80
:104B700041F28832934201D90323B1E04B4B1B6AC7
:104B800003F00203002BEED014E0FEF7A9FD38611C
:104B90000AE0FEF7A5FD02463B69D31A41F28832CE
:104BA000934201D903239BE0404B1B6A03F00203AD
:104BB000002BEED1FB7D012B05D13C4BDB693B4A41
:104BC00023F08053D3617B68DB69002B00F0878082
:104BD000364B5B6803F00C03082B61D07B68DB6904
:104BE000022B46D1334B00221A60FEF779FD386163
:104BF00008E0FEF775FD02463B69D31A022B01D986
:104C000003236DE0294B1B6803F00073002BF0D1E8
:104C10007B681B6AB3F5803F08D1244B5B6823F4A3
:104C200000327B689B68214913434B601F4B5B68D4
:104C300023F474127B68196A7B685B6A0B431B4917
:104C400013434B601B4B01221A60FEF749FD38618C
:104C500008E0FEF745FD02463B69D31A022B01D955
:104C600003233DE0114B1B6803F00073002BF0D0D1
:104C700035E0104B00221A60FEF732FD386108E083
:104C8000FEF72EFD02463B69D31A022B01D90323FE
:104C900026E0064B1B6803F00073002BF0D11EE0EA
:104CA0007B68DB69012B07D1012319E0001002406A
:104CB00000700040600042420B4B5B68FB60FB6889
:104CC00003F480327B681B6A9A4206D1FB6803F4C6
:104CD00070127B685B6A9A4201D0012300E00023D6
:104CE00018461837BD4680BD0010024080B584B01C
:104CF00000AF786039607B68002B01D10123D0E0E0
:104D00006A4B1B6803F007033A689A4210D9674B55
:104D10001B6823F0070265493B6813430B60634B34
:104D20001B6803F007033A689A4201D00123B8E0F8
:104D30007B681B6803F00203002B20D07B681B6894
:104D400003F00403002B05D0594B5B68584A43F429
:104D5000E06353607B681B6803F00803002B05D0F9
:104D6000534B5B68524A43F460535360504B5B684B
:104D700023F0F0027B689B684D4913434B607B68CE
:104D80001B6803F00103002B40D07B685B68012B9C
:104D900007D1474B1B6803F40033002B15D10123C7
:104DA0007FE07B685B68022B07D1414B1B6803F0F7
:104DB0000073002B09D1012373E03D4B1B6803F006
:104DC0000203002B01D101236BE0394B5B6823F018
:104DD00003027B685B68364913434B60FEF780FC37
:104DE000F8600AE0FEF77CFC0246FB68D31A41F249
:104DF0008832934201D9032353E02D4B5B6803F0C3
:104E00000C027B685B689B009A42EBD1274B1B68C6
:104E100003F007033A689A4210D2244B1B6823F030
:104E2000070222493B6813430B60204B1B6803F0C9
:104E300007033A689A4201D0012332E07B681B687D
:104E400003F00403002B08D0194B5B6823F4E062E5
:104E50007B68DB68164913434B607B681B6803F073
:104E60000803002B09D0124B5B6823F460527B6867
:104E70001B69DB000E4913434B6000F021F802462A
:104E80000B4B5B681B0903F00F030A49CB5C22FA4A
:104E900003F3094A1360094B1B681846FEF7DEFB53
:104EA000002318461037BD4680BD00BF00200240D9
:104EB00000100240CC830008A8000020E800002079
:104EC00080B487B000AF0023FB600023BB600023E9
:104ED0007B6100237B6000233B611E4B5B68FB60B2
:104EE000FB6803F00C03042B02D0082B03D027E04F
:104EF000194B3B6127E0FB689B0C03F00F03174A3B
:104F0000D35C7B60FB6803F48033002B10D0114B23
:104F10005B685B0C03F00103114AD35CBB607B68E8
:104F20000D4A03FB02F2BB68B2FBF3F37B6104E0C2
:104F30007B680C4A02FB03F37B617B693B6102E007
:104F4000054B3B6100BF3B6918461C37BD4680BC22
:104F5000704700BF0010024000127A00E48300088E
:104F6000F483000800093D0080B400AF024B1B68C9
:104F70001846BD4680BC7047A800002080B500AF31
:104F8000FFF7F2FF0246054B5B681B0A03F00703BD
:104F90000349CB5C22FA03F3184680BD001002409F
:104FA000DC83000880B500AFFFF7DEFF0246054B4B
:104FB0005B68DB0A03F007030349CB5C22FA03F3C7
:104FC000184680BD00100240DC83000880B485B024
:104FD00000AF78600A4B1B680A4AA2FB03235B0AF6
:104FE0007A6802FB03F3FB6000BFFB685A1EFA609D
:104FF000002BF9D100BF00BF1437BD4680BC7047FD
:10500000A8000020D34D621080B485B000AF786056
:105010007B6893F83D30DBB2012B01D001233AE0ED
:105020007B68022283F83D207B681B68DA687B6816
:105030001B6842F00102DA607B681B68184A9342E1
:105040000ED07B681B68B3F1804F09D07B681B686A
:10505000144A934204D07B681B68134A934211D1CF
:105060007B681B689B6803F00703FB60FB68062BEB
:1050700010D07B681B681A687B681B6842F00102CD
:105080001A6007E07B681B681A687B681B6842F03F
:1050900001021A60002318461437BD4680BC7047D1
:1050A000002C0140000400400008004080B483B0A0
:1050B00000AF78607B681B68DA687B681B6822F049
:1050C0000102DA607B681B681A6A41F2111313400F
:1050D000002B0FD17B681B681A6A40F244431340CF
:1050E000002B07D17B681B681A687B681B6822F05D
:1050F00001021A607B68012283F83D2000231846D4
:105100000C37BD4680BC704780B582B000AF786078
:1051100039607B68002B01D1012341E07B6893F863
:105120003D30DBB2002B06D17B68002283F83C20A7
:105130007868FDF703FA7B68022283F83D207B68DC
:105140001A687B6804331946104600F071FA7B68D0
:105150001B681A687B681B6822F008021A607B686B
:105160001B6819687B681B683A680A431A607B6889
:10517000012283F846207B68012283F83E207B6869
:10518000012283F83F207B68012283F842207B685C
:10519000012283F843207B68012283F83D2000230D
:1051A00018460837BD4680BD80B586B000AF786030
:1051B00039607B68002B01D1012393E07B6893F871
:1051C0003D30DBB2002B06D17B68002283F83C2007
:1051D0007868FDF74BF97B68022283F83D207B68F5
:1051E0001B689B687A68126823F4804323F00703E6
:1051F00093607B681A687B6804331946104600F098
:1052000017FA7B681B689B687B617B681B689B69DE
:105210003B617B681B681B6AFB603B681B687A69A3
:1052200013437B613B6923F4407323F003033B6129
:105230003B689A683B689B691B0213433A691343B6
:105240003B613B6923F4406323F00C033B613B6902
:1052500023F4704323F0F0033B613B68DA683B685A
:10526000DB691B0213433A6913433B613B681B69CB
:105270001A013B681B6A1B0313433A6913433B61E2
:10528000FB6823F02203FB603B685A683B685B695C
:105290001B011343FA681343FB607B681B687A6940
:1052A0009A607B681B683A699A617B681B68FA6838
:1052B0001A627B68012283F846207B68012283F80A
:1052C0003E207B68012283F83F207B68012283F81F
:1052D00042207B68012283F843207B68012283F807
:1052E0003D20002318461837BD4680BD80B584B0E8
:1052F00000AF786039607B6893F83E30FB737B6861
:1053000093F83F30BB737B6893F842307B737B68C4
:1053100093F843303B733B68002B10D1FB7B012B90
:1053200002D17B7B012B01D0012369E07B68022243
:1053300083F83E207B68022283F8422031E03B68FC
:10534000042B10D1BB7B012B02D13B7B012B01D065
:10535000012355E07B68022283F83F207B6802220C
:1053600083F843201DE0FB7B012B08D1BB7B012B85
:1053700005D17B7B012B02D13B7B012B01D001238B
:105380003EE07B68022283F83E207B68022283F89D
:105390003F207B68022283F842207B68022283F848
:1053A00043203B68002B03D03B68042B08D00FE060
:1053B0007B681B6801220021184600F0A7F916E05F
:1053C0007B681B6801220421184600F09FF90EE05B
:1053D0007B681B6801220021184600F097F97B6862
:1053E0001B6801220421184600F090F900BF7B6879
:1053F0001B681A687B681B6842F001021A60002370
:1054000018461037BD4680BD80B584B000AF7860C7
:105410007B681B68DB68FB607B681B681B69BB6083
:10542000BB6803F00203002B20D0FB6803F00203EB
:10543000002B1BD07B681B686FF002021A617B682F
:1054400001221A777B681B689B6903F00303002B1A
:1054500003D0786800F0D1F805E0786800F0C4F86F
:10546000786800F0D3F87B6800221A77BB6803F0F5
:105470000403002B20D0FB6803F00403002B1BD097
:105480007B681B686FF004021A617B6802221A773E
:105490007B681B689B6903F44073002B03D078681A
:1054A00000F0ABF805E0786800F09EF8786800F04E
:1054B000ADF87B6800221A77BB6803F00803002B65
:1054C00020D0FB6803F00803002B1BD07B681B680F
:1054D0006FF008021A617B6804221A777B681B68E8
:1054E000DB6903F00303002B03D0786800F085F834
:1054F00005E0786800F078F8786800F087F87B6855
:1055000000221A77BB6803F01003002B20D0FB6841
:1055100003F01003002B1BD07B681B686FF0100298
:105520001A617B6808221A777B681B68DB6903F4C1
:105530004073002B03D0786800F05FF805E07868CE
:1055400000F052F8786800F061F87B6800221A7762
:10555000BB6803F00103002B0CD0FB6803F00103D0
:10556000002B07D07B681B686FF001021A61786816
:10557000FCF718FABB6803F08003002B0CD0FB6823
:1055800003F08003002B07D07B681B686FF080025C
:105590001A61786800F045F9BB6803F04003002BFE
:1055A0000CD0FB6803F04003002B07D07B681B681E
:1055B0006FF040021A61786800F031F8BB6803F0C0
:1055C0002003002B0CD0FB6803F02003002B07D036
:1055D0007B681B686FF020021A61786800F018F988
:1055E00000BF1037BD4680BD80B483B000AF786087
:1055F00000BF0C37BD4680BC704780B483B000AF9D
:10560000786000BF0C37BD4680BC704780B483B063
:1056100000AF786000BF0C37BD4680BC704780B4D7
:1056200083B000AF786000BF0C37BD4680BC7047C8
:1056300080B485B000AF786039607B681B68FB6020
:105640007B682F4A93420BD07B68B3F1804F07D021
:105650007B682C4A934203D07B682B4A934208D143
:10566000FB6823F07003FB603B685B68FA681343D8
:10567000FB607B68224A93420BD07B68B3F1804F7A
:1056800007D07B681F4A934203D07B681E4A93422F
:1056900008D1FB6823F44073FB603B68DB68FA6861
:1056A0001343FB60FB6823F080023B685B69134394
:1056B000FB607B68FA681A603B689A687B68DA620C
:1056C0003B681A687B689A627B680D4A934203D1F3
:1056D0003B681A697B681A637B6801225A617B68A0
:1056E0001B6903F00103002B05D07B681B6923F0C5
:1056F00001027B681A6100BF1437BD4680BC704749
:10570000002C0140000400400008004080B487B035
:1057100000AFF860B9607A60BB6803F01F03012234
:1057200002FA03F37B61FB681A6A7B69DB431A4068
:10573000FB681A62FB681A6ABB6803F01F0379688A
:1057400001FA03F31A43FB681A6200BF1C37BD4617
:1057500080BC704780B485B000AF786039607B68EA
:1057600093F83C30012B01D1022346E07B680122F3
:1057700083F83C207B68022283F83D207B681B680D
:105780005B68FB607B681B689B68BB60FB6823F001
:105790007003FB603B681B68FA681343FB607B681F
:1057A0001B68FA685A607B681B68164A93420ED0E1
:1057B0007B681B68B3F1804F09D07B681B68124A75
:1057C000934204D07B681B68104A93420CD1BB689B
:1057D00023F08003BB603B685B68BA681343BB601F
:1057E0007B681B68BA689A607B68012283F83D2059
:1057F0007B68002283F83C20002318461437BD46FE
:1058000080BC7047002C01400004004000080040AC
:1058100080B483B000AF786000BF0C37BD4680BC59
:10582000704780B483B000AF786000BF0C37BD46CE
:1058300080BC704780B582B000AF78607B68002B79
:1058400001D1012342E07B6893F84130DBB2002BA9
:1058500006D17B68002283F840207868FCF794FE2C
:105860007B68242283F841207B681B68DA687B68A8
:105870001B6822F40052DA60786800F063FD7B68F0
:105880001B681A697B681B6822F490421A617B6866
:105890001B685A697B681B6822F02A025A617B6880
:1058A0001B68DA687B681B6842F40052DA607B6828
:1058B00000225A647B68202283F841207B682022E2
:1058C00083F842207B6800225A6300231846083779
:1058D000BD4680BD80B58AB002AFF860B9603B605C
:1058E0001346FB8000237B61FB6893F84130DBB2F9
:1058F000202B75D1BB68002B02D0FB88002B01D177
:1059000001236EE0FB6800225A64FB68212283F8C1
:105910004120FDF7E5FE7861FB68FA889A84FB6810
:10592000FA88DA84FB689B68B3F5805F08D1FB686E
:105930001B69002B04D10023FB61BB68BB6103E042
:10594000BB68FB610023BB612EE03B6800937B6971
:1059500000228021F86800F001FB0346002B05D0EF
:10596000FB68202283F8412003233AE0FB69002BE7
:105970000BD1BB691B881A46FB681B68C2F308027F
:105980005A60BB690233BB6107E0FB691A78FB68A8
:105990001B685A60FB690133FB61FB68DB8C9BB2BF
:1059A000013B9AB2FB68DA84FB68DB8C9BB2002B6C
:1059B000CBD13B6800937B6900224021F86800F05E
:1059C000CDFA0346002B05D0FB68202283F8412046
:1059D000032306E0FB68202283F84120002300E037
:1059E000022318462037BD4680BD000080B5BAB0FE
:1059F00000AF78607B681B681B68C7F8E4307B6881
:105A00001B68DB68C7F8E0307B681B685B69C7F818
:105A1000DC300023C7F8D8300023C7F8D430D7F8DB
:105A2000E43003F00F03C7F8D830D7F8D830002B94
:105A30000FD1D7F8E43003F02003002B09D0D7F8BA
:105A4000E03003F02003002B03D0786800F0BCFBAB
:105A50005BE2D7F8D830002B00F0DE80D7F8DC30DE
:105A600003F00103002B06D1D7F8E03003F4907364
:105A7000002B00F0D180D7F8E43003F00103002BB5
:105A80000BD0D7F8E03003F48073002B05D07B688F
:105A90005B6C43F001027B685A64D7F8E43003F092
:105AA0000403002B0BD0D7F8DC3003F00103002BEC
:105AB00005D07B685B6C43F002027B685A64D7F8C0
:105AC000E43003F00203002B0BD0D7F8DC3003F0F6
:105AD0000103002B05D07B685B6C43F004027B68FC
